
P2 _SEMP.elf:     file format elf32-littlearm

Sections:
Idx Name          Size      VMA       LMA       File off  Algn
  0 .isr_vector   00000198  08000000  08000000  00010000  2**0
                  CONTENTS, ALLOC, LOAD, READONLY, DATA
  1 .text         0000a4e0  08000198  08000198  00010198  2**2
                  CONTENTS, ALLOC, LOAD, READONLY, CODE
  2 .rodata       0000001c  0800a678  0800a678  0001a678  2**2
                  CONTENTS, ALLOC, LOAD, READONLY, DATA
  3 .ARM.extab    00000000  0800a694  0800a694  00020130  2**0
                  CONTENTS
  4 .ARM          00000008  0800a694  0800a694  0001a694  2**2
                  CONTENTS, ALLOC, LOAD, READONLY, DATA
  5 .preinit_array 00000000  0800a69c  0800a69c  00020130  2**0
                  CONTENTS, ALLOC, LOAD, DATA
  6 .init_array   00000004  0800a69c  0800a69c  0001a69c  2**2
                  CONTENTS, ALLOC, LOAD, DATA
  7 .fini_array   00000004  0800a6a0  0800a6a0  0001a6a0  2**2
                  CONTENTS, ALLOC, LOAD, DATA
  8 .data         00000130  20000000  0800a6a4  00020000  2**2
                  CONTENTS, ALLOC, LOAD, DATA
  9 .bss          000008f8  20000130  0800a7d4  00020130  2**2
                  ALLOC
 10 ._user_heap_stack 00000600  20000a28  0800a7d4  00020a28  2**0
                  ALLOC
 11 .ARM.attributes 00000030  00000000  00000000  00020130  2**0
                  CONTENTS, READONLY
 12 .debug_info   00022d24  00000000  00000000  00020160  2**0
                  CONTENTS, READONLY, DEBUGGING, OCTETS
 13 .debug_abbrev 00004c2b  00000000  00000000  00042e84  2**0
                  CONTENTS, READONLY, DEBUGGING, OCTETS
 14 .debug_aranges 00001848  00000000  00000000  00047ab0  2**3
                  CONTENTS, READONLY, DEBUGGING, OCTETS
 15 .debug_ranges 00001658  00000000  00000000  000492f8  2**3
                  CONTENTS, READONLY, DEBUGGING, OCTETS
 16 .debug_macro  0001b7a9  00000000  00000000  0004a950  2**0
                  CONTENTS, READONLY, DEBUGGING, OCTETS
 17 .debug_line   0002005f  00000000  00000000  000660f9  2**0
                  CONTENTS, READONLY, DEBUGGING, OCTETS
 18 .debug_str    00097556  00000000  00000000  00086158  2**0
                  CONTENTS, READONLY, DEBUGGING, OCTETS
 19 .comment      00000053  00000000  00000000  0011d6ae  2**0
                  CONTENTS, READONLY
 20 .debug_frame  00006740  00000000  00000000  0011d704  2**2
                  CONTENTS, READONLY, DEBUGGING, OCTETS

Disassembly of section .text:

08000198 <__do_global_dtors_aux>:
 8000198:	b510      	push	{r4, lr}
 800019a:	4c05      	ldr	r4, [pc, #20]	; (80001b0 <__do_global_dtors_aux+0x18>)
 800019c:	7823      	ldrb	r3, [r4, #0]
 800019e:	b933      	cbnz	r3, 80001ae <__do_global_dtors_aux+0x16>
 80001a0:	4b04      	ldr	r3, [pc, #16]	; (80001b4 <__do_global_dtors_aux+0x1c>)
 80001a2:	b113      	cbz	r3, 80001aa <__do_global_dtors_aux+0x12>
 80001a4:	4804      	ldr	r0, [pc, #16]	; (80001b8 <__do_global_dtors_aux+0x20>)
 80001a6:	f3af 8000 	nop.w
 80001aa:	2301      	movs	r3, #1
 80001ac:	7023      	strb	r3, [r4, #0]
 80001ae:	bd10      	pop	{r4, pc}
 80001b0:	20000130 	.word	0x20000130
 80001b4:	00000000 	.word	0x00000000
 80001b8:	0800a660 	.word	0x0800a660

080001bc <frame_dummy>:
 80001bc:	b508      	push	{r3, lr}
 80001be:	4b03      	ldr	r3, [pc, #12]	; (80001cc <frame_dummy+0x10>)
 80001c0:	b11b      	cbz	r3, 80001ca <frame_dummy+0xe>
 80001c2:	4903      	ldr	r1, [pc, #12]	; (80001d0 <frame_dummy+0x14>)
 80001c4:	4803      	ldr	r0, [pc, #12]	; (80001d4 <frame_dummy+0x18>)
 80001c6:	f3af 8000 	nop.w
 80001ca:	bd08      	pop	{r3, pc}
 80001cc:	00000000 	.word	0x00000000
 80001d0:	20000134 	.word	0x20000134
 80001d4:	0800a660 	.word	0x0800a660

080001d8 <__aeabi_uldivmod>:
 80001d8:	b953      	cbnz	r3, 80001f0 <__aeabi_uldivmod+0x18>
 80001da:	b94a      	cbnz	r2, 80001f0 <__aeabi_uldivmod+0x18>
 80001dc:	2900      	cmp	r1, #0
 80001de:	bf08      	it	eq
 80001e0:	2800      	cmpeq	r0, #0
 80001e2:	bf1c      	itt	ne
 80001e4:	f04f 31ff 	movne.w	r1, #4294967295
 80001e8:	f04f 30ff 	movne.w	r0, #4294967295
 80001ec:	f000 b96e 	b.w	80004cc <__aeabi_idiv0>
 80001f0:	f1ad 0c08 	sub.w	ip, sp, #8
 80001f4:	e96d ce04 	strd	ip, lr, [sp, #-16]!
 80001f8:	f000 f806 	bl	8000208 <__udivmoddi4>
 80001fc:	f8dd e004 	ldr.w	lr, [sp, #4]
 8000200:	e9dd 2302 	ldrd	r2, r3, [sp, #8]
 8000204:	b004      	add	sp, #16
 8000206:	4770      	bx	lr

08000208 <__udivmoddi4>:
 8000208:	e92d 47f0 	stmdb	sp!, {r4, r5, r6, r7, r8, r9, sl, lr}
 800020c:	9d08      	ldr	r5, [sp, #32]
 800020e:	4604      	mov	r4, r0
 8000210:	468c      	mov	ip, r1
 8000212:	2b00      	cmp	r3, #0
 8000214:	f040 8083 	bne.w	800031e <__udivmoddi4+0x116>
 8000218:	428a      	cmp	r2, r1
 800021a:	4617      	mov	r7, r2
 800021c:	d947      	bls.n	80002ae <__udivmoddi4+0xa6>
 800021e:	fab2 f282 	clz	r2, r2
 8000222:	b142      	cbz	r2, 8000236 <__udivmoddi4+0x2e>
 8000224:	f1c2 0020 	rsb	r0, r2, #32
 8000228:	fa24 f000 	lsr.w	r0, r4, r0
 800022c:	4091      	lsls	r1, r2
 800022e:	4097      	lsls	r7, r2
 8000230:	ea40 0c01 	orr.w	ip, r0, r1
 8000234:	4094      	lsls	r4, r2
 8000236:	ea4f 4817 	mov.w	r8, r7, lsr #16
 800023a:	0c23      	lsrs	r3, r4, #16
 800023c:	fbbc f6f8 	udiv	r6, ip, r8
 8000240:	fa1f fe87 	uxth.w	lr, r7
 8000244:	fb08 c116 	mls	r1, r8, r6, ip
 8000248:	ea43 4301 	orr.w	r3, r3, r1, lsl #16
 800024c:	fb06 f10e 	mul.w	r1, r6, lr
 8000250:	4299      	cmp	r1, r3
 8000252:	d909      	bls.n	8000268 <__udivmoddi4+0x60>
 8000254:	18fb      	adds	r3, r7, r3
 8000256:	f106 30ff 	add.w	r0, r6, #4294967295
 800025a:	f080 8119 	bcs.w	8000490 <__udivmoddi4+0x288>
 800025e:	4299      	cmp	r1, r3
 8000260:	f240 8116 	bls.w	8000490 <__udivmoddi4+0x288>
 8000264:	3e02      	subs	r6, #2
 8000266:	443b      	add	r3, r7
 8000268:	1a5b      	subs	r3, r3, r1
 800026a:	b2a4      	uxth	r4, r4
 800026c:	fbb3 f0f8 	udiv	r0, r3, r8
 8000270:	fb08 3310 	mls	r3, r8, r0, r3
 8000274:	ea44 4403 	orr.w	r4, r4, r3, lsl #16
 8000278:	fb00 fe0e 	mul.w	lr, r0, lr
 800027c:	45a6      	cmp	lr, r4
 800027e:	d909      	bls.n	8000294 <__udivmoddi4+0x8c>
 8000280:	193c      	adds	r4, r7, r4
 8000282:	f100 33ff 	add.w	r3, r0, #4294967295
 8000286:	f080 8105 	bcs.w	8000494 <__udivmoddi4+0x28c>
 800028a:	45a6      	cmp	lr, r4
 800028c:	f240 8102 	bls.w	8000494 <__udivmoddi4+0x28c>
 8000290:	3802      	subs	r0, #2
 8000292:	443c      	add	r4, r7
 8000294:	ea40 4006 	orr.w	r0, r0, r6, lsl #16
 8000298:	eba4 040e 	sub.w	r4, r4, lr
 800029c:	2600      	movs	r6, #0
 800029e:	b11d      	cbz	r5, 80002a8 <__udivmoddi4+0xa0>
 80002a0:	40d4      	lsrs	r4, r2
 80002a2:	2300      	movs	r3, #0
 80002a4:	e9c5 4300 	strd	r4, r3, [r5]
 80002a8:	4631      	mov	r1, r6
 80002aa:	e8bd 87f0 	ldmia.w	sp!, {r4, r5, r6, r7, r8, r9, sl, pc}
 80002ae:	b902      	cbnz	r2, 80002b2 <__udivmoddi4+0xaa>
 80002b0:	deff      	udf	#255	; 0xff
 80002b2:	fab2 f282 	clz	r2, r2
 80002b6:	2a00      	cmp	r2, #0
 80002b8:	d150      	bne.n	800035c <__udivmoddi4+0x154>
 80002ba:	1bcb      	subs	r3, r1, r7
 80002bc:	ea4f 4e17 	mov.w	lr, r7, lsr #16
 80002c0:	fa1f f887 	uxth.w	r8, r7
 80002c4:	2601      	movs	r6, #1
 80002c6:	fbb3 fcfe 	udiv	ip, r3, lr
 80002ca:	0c21      	lsrs	r1, r4, #16
 80002cc:	fb0e 331c 	mls	r3, lr, ip, r3
 80002d0:	ea41 4103 	orr.w	r1, r1, r3, lsl #16
 80002d4:	fb08 f30c 	mul.w	r3, r8, ip
 80002d8:	428b      	cmp	r3, r1
 80002da:	d907      	bls.n	80002ec <__udivmoddi4+0xe4>
 80002dc:	1879      	adds	r1, r7, r1
 80002de:	f10c 30ff 	add.w	r0, ip, #4294967295
 80002e2:	d202      	bcs.n	80002ea <__udivmoddi4+0xe2>
 80002e4:	428b      	cmp	r3, r1
 80002e6:	f200 80e9 	bhi.w	80004bc <__udivmoddi4+0x2b4>
 80002ea:	4684      	mov	ip, r0
 80002ec:	1ac9      	subs	r1, r1, r3
 80002ee:	b2a3      	uxth	r3, r4
 80002f0:	fbb1 f0fe 	udiv	r0, r1, lr
 80002f4:	fb0e 1110 	mls	r1, lr, r0, r1
 80002f8:	ea43 4401 	orr.w	r4, r3, r1, lsl #16
 80002fc:	fb08 f800 	mul.w	r8, r8, r0
 8000300:	45a0      	cmp	r8, r4
 8000302:	d907      	bls.n	8000314 <__udivmoddi4+0x10c>
 8000304:	193c      	adds	r4, r7, r4
 8000306:	f100 33ff 	add.w	r3, r0, #4294967295
 800030a:	d202      	bcs.n	8000312 <__udivmoddi4+0x10a>
 800030c:	45a0      	cmp	r8, r4
 800030e:	f200 80d9 	bhi.w	80004c4 <__udivmoddi4+0x2bc>
 8000312:	4618      	mov	r0, r3
 8000314:	eba4 0408 	sub.w	r4, r4, r8
 8000318:	ea40 400c 	orr.w	r0, r0, ip, lsl #16
 800031c:	e7bf      	b.n	800029e <__udivmoddi4+0x96>
 800031e:	428b      	cmp	r3, r1
 8000320:	d909      	bls.n	8000336 <__udivmoddi4+0x12e>
 8000322:	2d00      	cmp	r5, #0
 8000324:	f000 80b1 	beq.w	800048a <__udivmoddi4+0x282>
 8000328:	2600      	movs	r6, #0
 800032a:	e9c5 0100 	strd	r0, r1, [r5]
 800032e:	4630      	mov	r0, r6
 8000330:	4631      	mov	r1, r6
 8000332:	e8bd 87f0 	ldmia.w	sp!, {r4, r5, r6, r7, r8, r9, sl, pc}
 8000336:	fab3 f683 	clz	r6, r3
 800033a:	2e00      	cmp	r6, #0
 800033c:	d14a      	bne.n	80003d4 <__udivmoddi4+0x1cc>
 800033e:	428b      	cmp	r3, r1
 8000340:	d302      	bcc.n	8000348 <__udivmoddi4+0x140>
 8000342:	4282      	cmp	r2, r0
 8000344:	f200 80b8 	bhi.w	80004b8 <__udivmoddi4+0x2b0>
 8000348:	1a84      	subs	r4, r0, r2
 800034a:	eb61 0103 	sbc.w	r1, r1, r3
 800034e:	2001      	movs	r0, #1
 8000350:	468c      	mov	ip, r1
 8000352:	2d00      	cmp	r5, #0
 8000354:	d0a8      	beq.n	80002a8 <__udivmoddi4+0xa0>
 8000356:	e9c5 4c00 	strd	r4, ip, [r5]
 800035a:	e7a5      	b.n	80002a8 <__udivmoddi4+0xa0>
 800035c:	f1c2 0320 	rsb	r3, r2, #32
 8000360:	fa20 f603 	lsr.w	r6, r0, r3
 8000364:	4097      	lsls	r7, r2
 8000366:	fa01 f002 	lsl.w	r0, r1, r2
 800036a:	ea4f 4e17 	mov.w	lr, r7, lsr #16
 800036e:	40d9      	lsrs	r1, r3
 8000370:	4330      	orrs	r0, r6
 8000372:	0c03      	lsrs	r3, r0, #16
 8000374:	fbb1 f6fe 	udiv	r6, r1, lr
 8000378:	fa1f f887 	uxth.w	r8, r7
 800037c:	fb0e 1116 	mls	r1, lr, r6, r1
 8000380:	ea43 4301 	orr.w	r3, r3, r1, lsl #16
 8000384:	fb06 f108 	mul.w	r1, r6, r8
 8000388:	4299      	cmp	r1, r3
 800038a:	fa04 f402 	lsl.w	r4, r4, r2
 800038e:	d909      	bls.n	80003a4 <__udivmoddi4+0x19c>
 8000390:	18fb      	adds	r3, r7, r3
 8000392:	f106 3cff 	add.w	ip, r6, #4294967295
 8000396:	f080 808d 	bcs.w	80004b4 <__udivmoddi4+0x2ac>
 800039a:	4299      	cmp	r1, r3
 800039c:	f240 808a 	bls.w	80004b4 <__udivmoddi4+0x2ac>
 80003a0:	3e02      	subs	r6, #2
 80003a2:	443b      	add	r3, r7
 80003a4:	1a5b      	subs	r3, r3, r1
 80003a6:	b281      	uxth	r1, r0
 80003a8:	fbb3 f0fe 	udiv	r0, r3, lr
 80003ac:	fb0e 3310 	mls	r3, lr, r0, r3
 80003b0:	ea41 4103 	orr.w	r1, r1, r3, lsl #16
 80003b4:	fb00 f308 	mul.w	r3, r0, r8
 80003b8:	428b      	cmp	r3, r1
 80003ba:	d907      	bls.n	80003cc <__udivmoddi4+0x1c4>
 80003bc:	1879      	adds	r1, r7, r1
 80003be:	f100 3cff 	add.w	ip, r0, #4294967295
 80003c2:	d273      	bcs.n	80004ac <__udivmoddi4+0x2a4>
 80003c4:	428b      	cmp	r3, r1
 80003c6:	d971      	bls.n	80004ac <__udivmoddi4+0x2a4>
 80003c8:	3802      	subs	r0, #2
 80003ca:	4439      	add	r1, r7
 80003cc:	1acb      	subs	r3, r1, r3
 80003ce:	ea40 4606 	orr.w	r6, r0, r6, lsl #16
 80003d2:	e778      	b.n	80002c6 <__udivmoddi4+0xbe>
 80003d4:	f1c6 0c20 	rsb	ip, r6, #32
 80003d8:	fa03 f406 	lsl.w	r4, r3, r6
 80003dc:	fa22 f30c 	lsr.w	r3, r2, ip
 80003e0:	431c      	orrs	r4, r3
 80003e2:	fa20 f70c 	lsr.w	r7, r0, ip
 80003e6:	fa01 f306 	lsl.w	r3, r1, r6
 80003ea:	ea4f 4e14 	mov.w	lr, r4, lsr #16
 80003ee:	fa21 f10c 	lsr.w	r1, r1, ip
 80003f2:	431f      	orrs	r7, r3
 80003f4:	0c3b      	lsrs	r3, r7, #16
 80003f6:	fbb1 f9fe 	udiv	r9, r1, lr
 80003fa:	fa1f f884 	uxth.w	r8, r4
 80003fe:	fb0e 1119 	mls	r1, lr, r9, r1
 8000402:	ea43 4101 	orr.w	r1, r3, r1, lsl #16
 8000406:	fb09 fa08 	mul.w	sl, r9, r8
 800040a:	458a      	cmp	sl, r1
 800040c:	fa02 f206 	lsl.w	r2, r2, r6
 8000410:	fa00 f306 	lsl.w	r3, r0, r6
 8000414:	d908      	bls.n	8000428 <__udivmoddi4+0x220>
 8000416:	1861      	adds	r1, r4, r1
 8000418:	f109 30ff 	add.w	r0, r9, #4294967295
 800041c:	d248      	bcs.n	80004b0 <__udivmoddi4+0x2a8>
 800041e:	458a      	cmp	sl, r1
 8000420:	d946      	bls.n	80004b0 <__udivmoddi4+0x2a8>
 8000422:	f1a9 0902 	sub.w	r9, r9, #2
 8000426:	4421      	add	r1, r4
 8000428:	eba1 010a 	sub.w	r1, r1, sl
 800042c:	b2bf      	uxth	r7, r7
 800042e:	fbb1 f0fe 	udiv	r0, r1, lr
 8000432:	fb0e 1110 	mls	r1, lr, r0, r1
 8000436:	ea47 4701 	orr.w	r7, r7, r1, lsl #16
 800043a:	fb00 f808 	mul.w	r8, r0, r8
 800043e:	45b8      	cmp	r8, r7
 8000440:	d907      	bls.n	8000452 <__udivmoddi4+0x24a>
 8000442:	19e7      	adds	r7, r4, r7
 8000444:	f100 31ff 	add.w	r1, r0, #4294967295
 8000448:	d22e      	bcs.n	80004a8 <__udivmoddi4+0x2a0>
 800044a:	45b8      	cmp	r8, r7
 800044c:	d92c      	bls.n	80004a8 <__udivmoddi4+0x2a0>
 800044e:	3802      	subs	r0, #2
 8000450:	4427      	add	r7, r4
 8000452:	ea40 4009 	orr.w	r0, r0, r9, lsl #16
 8000456:	eba7 0708 	sub.w	r7, r7, r8
 800045a:	fba0 8902 	umull	r8, r9, r0, r2
 800045e:	454f      	cmp	r7, r9
 8000460:	46c6      	mov	lr, r8
 8000462:	4649      	mov	r1, r9
 8000464:	d31a      	bcc.n	800049c <__udivmoddi4+0x294>
 8000466:	d017      	beq.n	8000498 <__udivmoddi4+0x290>
 8000468:	b15d      	cbz	r5, 8000482 <__udivmoddi4+0x27a>
 800046a:	ebb3 020e 	subs.w	r2, r3, lr
 800046e:	eb67 0701 	sbc.w	r7, r7, r1
 8000472:	fa07 fc0c 	lsl.w	ip, r7, ip
 8000476:	40f2      	lsrs	r2, r6
 8000478:	ea4c 0202 	orr.w	r2, ip, r2
 800047c:	40f7      	lsrs	r7, r6
 800047e:	e9c5 2700 	strd	r2, r7, [r5]
 8000482:	2600      	movs	r6, #0
 8000484:	4631      	mov	r1, r6
 8000486:	e8bd 87f0 	ldmia.w	sp!, {r4, r5, r6, r7, r8, r9, sl, pc}
 800048a:	462e      	mov	r6, r5
 800048c:	4628      	mov	r0, r5
 800048e:	e70b      	b.n	80002a8 <__udivmoddi4+0xa0>
 8000490:	4606      	mov	r6, r0
 8000492:	e6e9      	b.n	8000268 <__udivmoddi4+0x60>
 8000494:	4618      	mov	r0, r3
 8000496:	e6fd      	b.n	8000294 <__udivmoddi4+0x8c>
 8000498:	4543      	cmp	r3, r8
 800049a:	d2e5      	bcs.n	8000468 <__udivmoddi4+0x260>
 800049c:	ebb8 0e02 	subs.w	lr, r8, r2
 80004a0:	eb69 0104 	sbc.w	r1, r9, r4
 80004a4:	3801      	subs	r0, #1
 80004a6:	e7df      	b.n	8000468 <__udivmoddi4+0x260>
 80004a8:	4608      	mov	r0, r1
 80004aa:	e7d2      	b.n	8000452 <__udivmoddi4+0x24a>
 80004ac:	4660      	mov	r0, ip
 80004ae:	e78d      	b.n	80003cc <__udivmoddi4+0x1c4>
 80004b0:	4681      	mov	r9, r0
 80004b2:	e7b9      	b.n	8000428 <__udivmoddi4+0x220>
 80004b4:	4666      	mov	r6, ip
 80004b6:	e775      	b.n	80003a4 <__udivmoddi4+0x19c>
 80004b8:	4630      	mov	r0, r6
 80004ba:	e74a      	b.n	8000352 <__udivmoddi4+0x14a>
 80004bc:	f1ac 0c02 	sub.w	ip, ip, #2
 80004c0:	4439      	add	r1, r7
 80004c2:	e713      	b.n	80002ec <__udivmoddi4+0xe4>
 80004c4:	3802      	subs	r0, #2
 80004c6:	443c      	add	r4, r7
 80004c8:	e724      	b.n	8000314 <__udivmoddi4+0x10c>
 80004ca:	bf00      	nop

080004cc <__aeabi_idiv0>:
 80004cc:	4770      	bx	lr
 80004ce:	bf00      	nop

080004d0 <fsm_new>:

#include "fsm.h"



fsm_t* fsm_new (fsm_trans_t* tt){
 80004d0:	b580      	push	{r7, lr}
 80004d2:	b084      	sub	sp, #16
 80004d4:	af00      	add	r7, sp, #0
 80004d6:	6078      	str	r0, [r7, #4]

  fsm_t* this = (fsm_t*) malloc (sizeof (fsm_t));
 80004d8:	2008      	movs	r0, #8
 80004da:	f009 ffe1 	bl	800a4a0 <malloc>
 80004de:	4603      	mov	r3, r0
 80004e0:	60fb      	str	r3, [r7, #12]
  fsm_init (this, tt);
 80004e2:	6879      	ldr	r1, [r7, #4]
 80004e4:	68f8      	ldr	r0, [r7, #12]
 80004e6:	f000 f805 	bl	80004f4 <fsm_init>
  return this;
 80004ea:	68fb      	ldr	r3, [r7, #12]

}
 80004ec:	4618      	mov	r0, r3
 80004ee:	3710      	adds	r7, #16
 80004f0:	46bd      	mov	sp, r7
 80004f2:	bd80      	pop	{r7, pc}

080004f4 <fsm_init>:



void fsm_init (fsm_t* this, fsm_trans_t* tt){
 80004f4:	b480      	push	{r7}
 80004f6:	b083      	sub	sp, #12
 80004f8:	af00      	add	r7, sp, #0
 80004fa:	6078      	str	r0, [r7, #4]
 80004fc:	6039      	str	r1, [r7, #0]

  this->tt = tt;
 80004fe:	687b      	ldr	r3, [r7, #4]
 8000500:	683a      	ldr	r2, [r7, #0]
 8000502:	605a      	str	r2, [r3, #4]
  this->current_state = tt[0].orig_state;
 8000504:	683b      	ldr	r3, [r7, #0]
 8000506:	681a      	ldr	r2, [r3, #0]
 8000508:	687b      	ldr	r3, [r7, #4]
 800050a:	601a      	str	r2, [r3, #0]

}
 800050c:	bf00      	nop
 800050e:	370c      	adds	r7, #12
 8000510:	46bd      	mov	sp, r7
 8000512:	f85d 7b04 	ldr.w	r7, [sp], #4
 8000516:	4770      	bx	lr

08000518 <fsm_fire>:


void fsm_fire (fsm_t* this) {
 8000518:	b580      	push	{r7, lr}
 800051a:	b084      	sub	sp, #16
 800051c:	af00      	add	r7, sp, #0
 800051e:	6078      	str	r0, [r7, #4]

  fsm_trans_t* t;

  for (t = this->tt; t->orig_state >= 0; ++t) {
 8000520:	687b      	ldr	r3, [r7, #4]
 8000522:	685b      	ldr	r3, [r3, #4]
 8000524:	60fb      	str	r3, [r7, #12]
 8000526:	e01c      	b.n	8000562 <fsm_fire+0x4a>

    if ((this->current_state == t->orig_state) && t->in(this)) {
 8000528:	687b      	ldr	r3, [r7, #4]
 800052a:	681a      	ldr	r2, [r3, #0]
 800052c:	68fb      	ldr	r3, [r7, #12]
 800052e:	681b      	ldr	r3, [r3, #0]
 8000530:	429a      	cmp	r2, r3
 8000532:	d113      	bne.n	800055c <fsm_fire+0x44>
 8000534:	68fb      	ldr	r3, [r7, #12]
 8000536:	685b      	ldr	r3, [r3, #4]
 8000538:	6878      	ldr	r0, [r7, #4]
 800053a:	4798      	blx	r3
 800053c:	4603      	mov	r3, r0
 800053e:	2b00      	cmp	r3, #0
 8000540:	d00c      	beq.n	800055c <fsm_fire+0x44>

      this->current_state = t->dest_state;
 8000542:	68fb      	ldr	r3, [r7, #12]
 8000544:	689a      	ldr	r2, [r3, #8]
 8000546:	687b      	ldr	r3, [r7, #4]
 8000548:	601a      	str	r2, [r3, #0]

      if (t->out)
 800054a:	68fb      	ldr	r3, [r7, #12]
 800054c:	68db      	ldr	r3, [r3, #12]
 800054e:	2b00      	cmp	r3, #0
 8000550:	d00c      	beq.n	800056c <fsm_fire+0x54>

        t->out(this);
 8000552:	68fb      	ldr	r3, [r7, #12]
 8000554:	68db      	ldr	r3, [r3, #12]
 8000556:	6878      	ldr	r0, [r7, #4]
 8000558:	4798      	blx	r3

      break;
 800055a:	e007      	b.n	800056c <fsm_fire+0x54>
  for (t = this->tt; t->orig_state >= 0; ++t) {
 800055c:	68fb      	ldr	r3, [r7, #12]
 800055e:	3310      	adds	r3, #16
 8000560:	60fb      	str	r3, [r7, #12]
 8000562:	68fb      	ldr	r3, [r7, #12]
 8000564:	681b      	ldr	r3, [r3, #0]
 8000566:	2b00      	cmp	r3, #0
 8000568:	dade      	bge.n	8000528 <fsm_fire+0x10>

    }

  }

}
 800056a:	e000      	b.n	800056e <fsm_fire+0x56>
      break;
 800056c:	bf00      	nop
}
 800056e:	bf00      	nop
 8000570:	3710      	adds	r7, #16
 8000572:	46bd      	mov	sp, r7
 8000574:	bd80      	pop	{r7, pc}
	...

08000578 <MX_GPIO_Init>:
        * Output
        * EVENT_OUT
        * EXTI
*/
void MX_GPIO_Init(void)
{
 8000578:	b580      	push	{r7, lr}
 800057a:	b08c      	sub	sp, #48	; 0x30
 800057c:	af00      	add	r7, sp, #0

  GPIO_InitTypeDef GPIO_InitStruct = {0};
 800057e:	f107 031c 	add.w	r3, r7, #28
 8000582:	2200      	movs	r2, #0
 8000584:	601a      	str	r2, [r3, #0]
 8000586:	605a      	str	r2, [r3, #4]
 8000588:	609a      	str	r2, [r3, #8]
 800058a:	60da      	str	r2, [r3, #12]
 800058c:	611a      	str	r2, [r3, #16]

  /* GPIO Ports Clock Enable */
  __HAL_RCC_GPIOE_CLK_ENABLE();
 800058e:	2300      	movs	r3, #0
 8000590:	61bb      	str	r3, [r7, #24]
 8000592:	4b65      	ldr	r3, [pc, #404]	; (8000728 <MX_GPIO_Init+0x1b0>)
 8000594:	6b1b      	ldr	r3, [r3, #48]	; 0x30
 8000596:	4a64      	ldr	r2, [pc, #400]	; (8000728 <MX_GPIO_Init+0x1b0>)
 8000598:	f043 0310 	orr.w	r3, r3, #16
 800059c:	6313      	str	r3, [r2, #48]	; 0x30
 800059e:	4b62      	ldr	r3, [pc, #392]	; (8000728 <MX_GPIO_Init+0x1b0>)
 80005a0:	6b1b      	ldr	r3, [r3, #48]	; 0x30
 80005a2:	f003 0310 	and.w	r3, r3, #16
 80005a6:	61bb      	str	r3, [r7, #24]
 80005a8:	69bb      	ldr	r3, [r7, #24]
  __HAL_RCC_GPIOC_CLK_ENABLE();
 80005aa:	2300      	movs	r3, #0
 80005ac:	617b      	str	r3, [r7, #20]
 80005ae:	4b5e      	ldr	r3, [pc, #376]	; (8000728 <MX_GPIO_Init+0x1b0>)
 80005b0:	6b1b      	ldr	r3, [r3, #48]	; 0x30
 80005b2:	4a5d      	ldr	r2, [pc, #372]	; (8000728 <MX_GPIO_Init+0x1b0>)
 80005b4:	f043 0304 	orr.w	r3, r3, #4
 80005b8:	6313      	str	r3, [r2, #48]	; 0x30
 80005ba:	4b5b      	ldr	r3, [pc, #364]	; (8000728 <MX_GPIO_Init+0x1b0>)
 80005bc:	6b1b      	ldr	r3, [r3, #48]	; 0x30
 80005be:	f003 0304 	and.w	r3, r3, #4
 80005c2:	617b      	str	r3, [r7, #20]
 80005c4:	697b      	ldr	r3, [r7, #20]
  __HAL_RCC_GPIOH_CLK_ENABLE();
 80005c6:	2300      	movs	r3, #0
 80005c8:	613b      	str	r3, [r7, #16]
 80005ca:	4b57      	ldr	r3, [pc, #348]	; (8000728 <MX_GPIO_Init+0x1b0>)
 80005cc:	6b1b      	ldr	r3, [r3, #48]	; 0x30
 80005ce:	4a56      	ldr	r2, [pc, #344]	; (8000728 <MX_GPIO_Init+0x1b0>)
 80005d0:	f043 0380 	orr.w	r3, r3, #128	; 0x80
 80005d4:	6313      	str	r3, [r2, #48]	; 0x30
 80005d6:	4b54      	ldr	r3, [pc, #336]	; (8000728 <MX_GPIO_Init+0x1b0>)
 80005d8:	6b1b      	ldr	r3, [r3, #48]	; 0x30
 80005da:	f003 0380 	and.w	r3, r3, #128	; 0x80
 80005de:	613b      	str	r3, [r7, #16]
 80005e0:	693b      	ldr	r3, [r7, #16]
  __HAL_RCC_GPIOA_CLK_ENABLE();
 80005e2:	2300      	movs	r3, #0
 80005e4:	60fb      	str	r3, [r7, #12]
 80005e6:	4b50      	ldr	r3, [pc, #320]	; (8000728 <MX_GPIO_Init+0x1b0>)
 80005e8:	6b1b      	ldr	r3, [r3, #48]	; 0x30
 80005ea:	4a4f      	ldr	r2, [pc, #316]	; (8000728 <MX_GPIO_Init+0x1b0>)
 80005ec:	f043 0301 	orr.w	r3, r3, #1
 80005f0:	6313      	str	r3, [r2, #48]	; 0x30
 80005f2:	4b4d      	ldr	r3, [pc, #308]	; (8000728 <MX_GPIO_Init+0x1b0>)
 80005f4:	6b1b      	ldr	r3, [r3, #48]	; 0x30
 80005f6:	f003 0301 	and.w	r3, r3, #1
 80005fa:	60fb      	str	r3, [r7, #12]
 80005fc:	68fb      	ldr	r3, [r7, #12]
  __HAL_RCC_GPIOB_CLK_ENABLE();
 80005fe:	2300      	movs	r3, #0
 8000600:	60bb      	str	r3, [r7, #8]
 8000602:	4b49      	ldr	r3, [pc, #292]	; (8000728 <MX_GPIO_Init+0x1b0>)
 8000604:	6b1b      	ldr	r3, [r3, #48]	; 0x30
 8000606:	4a48      	ldr	r2, [pc, #288]	; (8000728 <MX_GPIO_Init+0x1b0>)
 8000608:	f043 0302 	orr.w	r3, r3, #2
 800060c:	6313      	str	r3, [r2, #48]	; 0x30
 800060e:	4b46      	ldr	r3, [pc, #280]	; (8000728 <MX_GPIO_Init+0x1b0>)
 8000610:	6b1b      	ldr	r3, [r3, #48]	; 0x30
 8000612:	f003 0302 	and.w	r3, r3, #2
 8000616:	60bb      	str	r3, [r7, #8]
 8000618:	68bb      	ldr	r3, [r7, #8]
  __HAL_RCC_GPIOD_CLK_ENABLE();
 800061a:	2300      	movs	r3, #0
 800061c:	607b      	str	r3, [r7, #4]
 800061e:	4b42      	ldr	r3, [pc, #264]	; (8000728 <MX_GPIO_Init+0x1b0>)
 8000620:	6b1b      	ldr	r3, [r3, #48]	; 0x30
 8000622:	4a41      	ldr	r2, [pc, #260]	; (8000728 <MX_GPIO_Init+0x1b0>)
 8000624:	f043 0308 	orr.w	r3, r3, #8
 8000628:	6313      	str	r3, [r2, #48]	; 0x30
 800062a:	4b3f      	ldr	r3, [pc, #252]	; (8000728 <MX_GPIO_Init+0x1b0>)
 800062c:	6b1b      	ldr	r3, [r3, #48]	; 0x30
 800062e:	f003 0308 	and.w	r3, r3, #8
 8000632:	607b      	str	r3, [r7, #4]
 8000634:	687b      	ldr	r3, [r7, #4]

  /*Configure GPIO pin Output Level */
  HAL_GPIO_WritePin(CS_I2C_SPI_GPIO_Port, CS_I2C_SPI_Pin, GPIO_PIN_RESET);
 8000636:	2200      	movs	r2, #0
 8000638:	2108      	movs	r1, #8
 800063a:	483c      	ldr	r0, [pc, #240]	; (800072c <MX_GPIO_Init+0x1b4>)
 800063c:	f001 fa1e 	bl	8001a7c <HAL_GPIO_WritePin>

  /*Configure GPIO pin Output Level */
  HAL_GPIO_WritePin(OTG_FS_PowerSwitchOn_GPIO_Port, OTG_FS_PowerSwitchOn_Pin, GPIO_PIN_SET);
 8000640:	2201      	movs	r2, #1
 8000642:	2101      	movs	r1, #1
 8000644:	483a      	ldr	r0, [pc, #232]	; (8000730 <MX_GPIO_Init+0x1b8>)
 8000646:	f001 fa19 	bl	8001a7c <HAL_GPIO_WritePin>

  /*Configure GPIO pin Output Level */
  HAL_GPIO_WritePin(GPIOD, LD4_Pin|LD3_Pin|LD5_Pin|LD6_Pin
 800064a:	2200      	movs	r2, #0
 800064c:	f24f 0110 	movw	r1, #61456	; 0xf010
 8000650:	4838      	ldr	r0, [pc, #224]	; (8000734 <MX_GPIO_Init+0x1bc>)
 8000652:	f001 fa13 	bl	8001a7c <HAL_GPIO_WritePin>
                          |Audio_RST_Pin, GPIO_PIN_RESET);

  /*Configure GPIO pin : PtPin */
  GPIO_InitStruct.Pin = DATA_Ready_Pin;
 8000656:	2304      	movs	r3, #4
 8000658:	61fb      	str	r3, [r7, #28]
  GPIO_InitStruct.Mode = GPIO_MODE_INPUT;
 800065a:	2300      	movs	r3, #0
 800065c:	623b      	str	r3, [r7, #32]
  GPIO_InitStruct.Pull = GPIO_NOPULL;
 800065e:	2300      	movs	r3, #0
 8000660:	627b      	str	r3, [r7, #36]	; 0x24
  HAL_GPIO_Init(DATA_Ready_GPIO_Port, &GPIO_InitStruct);
 8000662:	f107 031c 	add.w	r3, r7, #28
 8000666:	4619      	mov	r1, r3
 8000668:	4830      	ldr	r0, [pc, #192]	; (800072c <MX_GPIO_Init+0x1b4>)
 800066a:	f001 f883 	bl	8001774 <HAL_GPIO_Init>

  /*Configure GPIO pin : PtPin */
  GPIO_InitStruct.Pin = CS_I2C_SPI_Pin;
 800066e:	2308      	movs	r3, #8
 8000670:	61fb      	str	r3, [r7, #28]
  GPIO_InitStruct.Mode = GPIO_MODE_OUTPUT_PP;
 8000672:	2301      	movs	r3, #1
 8000674:	623b      	str	r3, [r7, #32]
  GPIO_InitStruct.Pull = GPIO_NOPULL;
 8000676:	2300      	movs	r3, #0
 8000678:	627b      	str	r3, [r7, #36]	; 0x24
  GPIO_InitStruct.Speed = GPIO_SPEED_FREQ_LOW;
 800067a:	2300      	movs	r3, #0
 800067c:	62bb      	str	r3, [r7, #40]	; 0x28
  HAL_GPIO_Init(CS_I2C_SPI_GPIO_Port, &GPIO_InitStruct);
 800067e:	f107 031c 	add.w	r3, r7, #28
 8000682:	4619      	mov	r1, r3
 8000684:	4829      	ldr	r0, [pc, #164]	; (800072c <MX_GPIO_Init+0x1b4>)
 8000686:	f001 f875 	bl	8001774 <HAL_GPIO_Init>

  /*Configure GPIO pins : PEPin PEPin PEPin */
  GPIO_InitStruct.Pin = INT1_Pin|INT2_Pin|MEMS_INT2_Pin;
 800068a:	2332      	movs	r3, #50	; 0x32
 800068c:	61fb      	str	r3, [r7, #28]
  GPIO_InitStruct.Mode = GPIO_MODE_EVT_RISING;
 800068e:	f44f 1390 	mov.w	r3, #1179648	; 0x120000
 8000692:	623b      	str	r3, [r7, #32]
  GPIO_InitStruct.Pull = GPIO_NOPULL;
 8000694:	2300      	movs	r3, #0
 8000696:	627b      	str	r3, [r7, #36]	; 0x24
  HAL_GPIO_Init(GPIOE, &GPIO_InitStruct);
 8000698:	f107 031c 	add.w	r3, r7, #28
 800069c:	4619      	mov	r1, r3
 800069e:	4823      	ldr	r0, [pc, #140]	; (800072c <MX_GPIO_Init+0x1b4>)
 80006a0:	f001 f868 	bl	8001774 <HAL_GPIO_Init>

  /*Configure GPIO pin : PtPin */
  GPIO_InitStruct.Pin = OTG_FS_PowerSwitchOn_Pin;
 80006a4:	2301      	movs	r3, #1
 80006a6:	61fb      	str	r3, [r7, #28]
  GPIO_InitStruct.Mode = GPIO_MODE_OUTPUT_PP;
 80006a8:	2301      	movs	r3, #1
 80006aa:	623b      	str	r3, [r7, #32]
  GPIO_InitStruct.Pull = GPIO_NOPULL;
 80006ac:	2300      	movs	r3, #0
 80006ae:	627b      	str	r3, [r7, #36]	; 0x24
  GPIO_InitStruct.Speed = GPIO_SPEED_FREQ_LOW;
 80006b0:	2300      	movs	r3, #0
 80006b2:	62bb      	str	r3, [r7, #40]	; 0x28
  HAL_GPIO_Init(OTG_FS_PowerSwitchOn_GPIO_Port, &GPIO_InitStruct);
 80006b4:	f107 031c 	add.w	r3, r7, #28
 80006b8:	4619      	mov	r1, r3
 80006ba:	481d      	ldr	r0, [pc, #116]	; (8000730 <MX_GPIO_Init+0x1b8>)
 80006bc:	f001 f85a 	bl	8001774 <HAL_GPIO_Init>

  /*Configure GPIO pin : PtPin */
  GPIO_InitStruct.Pin = GPIO_BUTTON_Pin;
 80006c0:	2301      	movs	r3, #1
 80006c2:	61fb      	str	r3, [r7, #28]
  GPIO_InitStruct.Mode = GPIO_MODE_IT_RISING;
 80006c4:	f44f 1388 	mov.w	r3, #1114112	; 0x110000
 80006c8:	623b      	str	r3, [r7, #32]
  GPIO_InitStruct.Pull = GPIO_NOPULL;
 80006ca:	2300      	movs	r3, #0
 80006cc:	627b      	str	r3, [r7, #36]	; 0x24
  HAL_GPIO_Init(GPIO_BUTTON_GPIO_Port, &GPIO_InitStruct);
 80006ce:	f107 031c 	add.w	r3, r7, #28
 80006d2:	4619      	mov	r1, r3
 80006d4:	4818      	ldr	r0, [pc, #96]	; (8000738 <MX_GPIO_Init+0x1c0>)
 80006d6:	f001 f84d 	bl	8001774 <HAL_GPIO_Init>

  /*Configure GPIO pins : PDPin PDPin PDPin PDPin
                           PDPin */
  GPIO_InitStruct.Pin = LD4_Pin|LD3_Pin|LD5_Pin|LD6_Pin
 80006da:	f24f 0310 	movw	r3, #61456	; 0xf010
 80006de:	61fb      	str	r3, [r7, #28]
                          |Audio_RST_Pin;
  GPIO_InitStruct.Mode = GPIO_MODE_OUTPUT_PP;
 80006e0:	2301      	movs	r3, #1
 80006e2:	623b      	str	r3, [r7, #32]
  GPIO_InitStruct.Pull = GPIO_NOPULL;
 80006e4:	2300      	movs	r3, #0
 80006e6:	627b      	str	r3, [r7, #36]	; 0x24
  GPIO_InitStruct.Speed = GPIO_SPEED_FREQ_LOW;
 80006e8:	2300      	movs	r3, #0
 80006ea:	62bb      	str	r3, [r7, #40]	; 0x28
  HAL_GPIO_Init(GPIOD, &GPIO_InitStruct);
 80006ec:	f107 031c 	add.w	r3, r7, #28
 80006f0:	4619      	mov	r1, r3
 80006f2:	4810      	ldr	r0, [pc, #64]	; (8000734 <MX_GPIO_Init+0x1bc>)
 80006f4:	f001 f83e 	bl	8001774 <HAL_GPIO_Init>

  /*Configure GPIO pin : PtPin */
  GPIO_InitStruct.Pin = OTG_FS_OverCurrent_Pin;
 80006f8:	2320      	movs	r3, #32
 80006fa:	61fb      	str	r3, [r7, #28]
  GPIO_InitStruct.Mode = GPIO_MODE_INPUT;
 80006fc:	2300      	movs	r3, #0
 80006fe:	623b      	str	r3, [r7, #32]
  GPIO_InitStruct.Pull = GPIO_NOPULL;
 8000700:	2300      	movs	r3, #0
 8000702:	627b      	str	r3, [r7, #36]	; 0x24
  HAL_GPIO_Init(OTG_FS_OverCurrent_GPIO_Port, &GPIO_InitStruct);
 8000704:	f107 031c 	add.w	r3, r7, #28
 8000708:	4619      	mov	r1, r3
 800070a:	480a      	ldr	r0, [pc, #40]	; (8000734 <MX_GPIO_Init+0x1bc>)
 800070c:	f001 f832 	bl	8001774 <HAL_GPIO_Init>

  /* EXTI interrupt init*/
  HAL_NVIC_SetPriority(EXTI0_IRQn, 0, 0);
 8000710:	2200      	movs	r2, #0
 8000712:	2100      	movs	r1, #0
 8000714:	2006      	movs	r0, #6
 8000716:	f000 ffc6 	bl	80016a6 <HAL_NVIC_SetPriority>
  HAL_NVIC_EnableIRQ(EXTI0_IRQn);
 800071a:	2006      	movs	r0, #6
 800071c:	f000 ffdf 	bl	80016de <HAL_NVIC_EnableIRQ>

}
 8000720:	bf00      	nop
 8000722:	3730      	adds	r7, #48	; 0x30
 8000724:	46bd      	mov	sp, r7
 8000726:	bd80      	pop	{r7, pc}
 8000728:	40023800 	.word	0x40023800
 800072c:	40021000 	.word	0x40021000
 8000730:	40020800 	.word	0x40020800
 8000734:	40020c00 	.word	0x40020c00
 8000738:	40020000 	.word	0x40020000

0800073c <MX_I2C1_Init>:

I2C_HandleTypeDef hi2c1;

/* I2C1 init function */
void MX_I2C1_Init(void)
{
 800073c:	b580      	push	{r7, lr}
 800073e:	af00      	add	r7, sp, #0
  /* USER CODE END I2C1_Init 0 */

  /* USER CODE BEGIN I2C1_Init 1 */

  /* USER CODE END I2C1_Init 1 */
  hi2c1.Instance = I2C1;
 8000740:	4b12      	ldr	r3, [pc, #72]	; (800078c <MX_I2C1_Init+0x50>)
 8000742:	4a13      	ldr	r2, [pc, #76]	; (8000790 <MX_I2C1_Init+0x54>)
 8000744:	601a      	str	r2, [r3, #0]
  hi2c1.Init.ClockSpeed = 100000;
 8000746:	4b11      	ldr	r3, [pc, #68]	; (800078c <MX_I2C1_Init+0x50>)
 8000748:	4a12      	ldr	r2, [pc, #72]	; (8000794 <MX_I2C1_Init+0x58>)
 800074a:	605a      	str	r2, [r3, #4]
  hi2c1.Init.DutyCycle = I2C_DUTYCYCLE_2;
 800074c:	4b0f      	ldr	r3, [pc, #60]	; (800078c <MX_I2C1_Init+0x50>)
 800074e:	2200      	movs	r2, #0
 8000750:	609a      	str	r2, [r3, #8]
  hi2c1.Init.OwnAddress1 = 0;
 8000752:	4b0e      	ldr	r3, [pc, #56]	; (800078c <MX_I2C1_Init+0x50>)
 8000754:	2200      	movs	r2, #0
 8000756:	60da      	str	r2, [r3, #12]
  hi2c1.Init.AddressingMode = I2C_ADDRESSINGMODE_7BIT;
 8000758:	4b0c      	ldr	r3, [pc, #48]	; (800078c <MX_I2C1_Init+0x50>)
 800075a:	f44f 4280 	mov.w	r2, #16384	; 0x4000
 800075e:	611a      	str	r2, [r3, #16]
  hi2c1.Init.DualAddressMode = I2C_DUALADDRESS_DISABLE;
 8000760:	4b0a      	ldr	r3, [pc, #40]	; (800078c <MX_I2C1_Init+0x50>)
 8000762:	2200      	movs	r2, #0
 8000764:	615a      	str	r2, [r3, #20]
  hi2c1.Init.OwnAddress2 = 0;
 8000766:	4b09      	ldr	r3, [pc, #36]	; (800078c <MX_I2C1_Init+0x50>)
 8000768:	2200      	movs	r2, #0
 800076a:	619a      	str	r2, [r3, #24]
  hi2c1.Init.GeneralCallMode = I2C_GENERALCALL_DISABLE;
 800076c:	4b07      	ldr	r3, [pc, #28]	; (800078c <MX_I2C1_Init+0x50>)
 800076e:	2200      	movs	r2, #0
 8000770:	61da      	str	r2, [r3, #28]
  hi2c1.Init.NoStretchMode = I2C_NOSTRETCH_DISABLE;
 8000772:	4b06      	ldr	r3, [pc, #24]	; (800078c <MX_I2C1_Init+0x50>)
 8000774:	2200      	movs	r2, #0
 8000776:	621a      	str	r2, [r3, #32]
  if (HAL_I2C_Init(&hi2c1) != HAL_OK)
 8000778:	4804      	ldr	r0, [pc, #16]	; (800078c <MX_I2C1_Init+0x50>)
 800077a:	f002 ff47 	bl	800360c <HAL_I2C_Init>
 800077e:	4603      	mov	r3, r0
 8000780:	2b00      	cmp	r3, #0
 8000782:	d001      	beq.n	8000788 <MX_I2C1_Init+0x4c>
  {
    Error_Handler();
 8000784:	f000 fbb2 	bl	8000eec <Error_Handler>
  }
  /* USER CODE BEGIN I2C1_Init 2 */

  /* USER CODE END I2C1_Init 2 */

}
 8000788:	bf00      	nop
 800078a:	bd80      	pop	{r7, pc}
 800078c:	2000016c 	.word	0x2000016c
 8000790:	40005400 	.word	0x40005400
 8000794:	000186a0 	.word	0x000186a0

08000798 <HAL_I2C_MspInit>:

void HAL_I2C_MspInit(I2C_HandleTypeDef* i2cHandle)
{
 8000798:	b580      	push	{r7, lr}
 800079a:	b08a      	sub	sp, #40	; 0x28
 800079c:	af00      	add	r7, sp, #0
 800079e:	6078      	str	r0, [r7, #4]

  GPIO_InitTypeDef GPIO_InitStruct = {0};
 80007a0:	f107 0314 	add.w	r3, r7, #20
 80007a4:	2200      	movs	r2, #0
 80007a6:	601a      	str	r2, [r3, #0]
 80007a8:	605a      	str	r2, [r3, #4]
 80007aa:	609a      	str	r2, [r3, #8]
 80007ac:	60da      	str	r2, [r3, #12]
 80007ae:	611a      	str	r2, [r3, #16]
  if(i2cHandle->Instance==I2C1)
 80007b0:	687b      	ldr	r3, [r7, #4]
 80007b2:	681b      	ldr	r3, [r3, #0]
 80007b4:	4a21      	ldr	r2, [pc, #132]	; (800083c <HAL_I2C_MspInit+0xa4>)
 80007b6:	4293      	cmp	r3, r2
 80007b8:	d13c      	bne.n	8000834 <HAL_I2C_MspInit+0x9c>
  {
  /* USER CODE BEGIN I2C1_MspInit 0 */

  /* USER CODE END I2C1_MspInit 0 */

    __HAL_RCC_GPIOB_CLK_ENABLE();
 80007ba:	2300      	movs	r3, #0
 80007bc:	613b      	str	r3, [r7, #16]
 80007be:	4b20      	ldr	r3, [pc, #128]	; (8000840 <HAL_I2C_MspInit+0xa8>)
 80007c0:	6b1b      	ldr	r3, [r3, #48]	; 0x30
 80007c2:	4a1f      	ldr	r2, [pc, #124]	; (8000840 <HAL_I2C_MspInit+0xa8>)
 80007c4:	f043 0302 	orr.w	r3, r3, #2
 80007c8:	6313      	str	r3, [r2, #48]	; 0x30
 80007ca:	4b1d      	ldr	r3, [pc, #116]	; (8000840 <HAL_I2C_MspInit+0xa8>)
 80007cc:	6b1b      	ldr	r3, [r3, #48]	; 0x30
 80007ce:	f003 0302 	and.w	r3, r3, #2
 80007d2:	613b      	str	r3, [r7, #16]
 80007d4:	693b      	ldr	r3, [r7, #16]
    /**I2C1 GPIO Configuration
    PB6     ------> I2C1_SCL
    PB9     ------> I2C1_SDA
    */
    GPIO_InitStruct.Pin = Audio_SCL_Pin|Audio_SDA_Pin;
 80007d6:	f44f 7310 	mov.w	r3, #576	; 0x240
 80007da:	617b      	str	r3, [r7, #20]
    GPIO_InitStruct.Mode = GPIO_MODE_AF_OD;
 80007dc:	2312      	movs	r3, #18
 80007de:	61bb      	str	r3, [r7, #24]
    GPIO_InitStruct.Pull = GPIO_PULLUP;
 80007e0:	2301      	movs	r3, #1
 80007e2:	61fb      	str	r3, [r7, #28]
    GPIO_InitStruct.Speed = GPIO_SPEED_FREQ_LOW;
 80007e4:	2300      	movs	r3, #0
 80007e6:	623b      	str	r3, [r7, #32]
    GPIO_InitStruct.Alternate = GPIO_AF4_I2C1;
 80007e8:	2304      	movs	r3, #4
 80007ea:	627b      	str	r3, [r7, #36]	; 0x24
    HAL_GPIO_Init(GPIOB, &GPIO_InitStruct);
 80007ec:	f107 0314 	add.w	r3, r7, #20
 80007f0:	4619      	mov	r1, r3
 80007f2:	4814      	ldr	r0, [pc, #80]	; (8000844 <HAL_I2C_MspInit+0xac>)
 80007f4:	f000 ffbe 	bl	8001774 <HAL_GPIO_Init>

    /* I2C1 clock enable */
    __HAL_RCC_I2C1_CLK_ENABLE();
 80007f8:	2300      	movs	r3, #0
 80007fa:	60fb      	str	r3, [r7, #12]
 80007fc:	4b10      	ldr	r3, [pc, #64]	; (8000840 <HAL_I2C_MspInit+0xa8>)
 80007fe:	6c1b      	ldr	r3, [r3, #64]	; 0x40
 8000800:	4a0f      	ldr	r2, [pc, #60]	; (8000840 <HAL_I2C_MspInit+0xa8>)
 8000802:	f443 1300 	orr.w	r3, r3, #2097152	; 0x200000
 8000806:	6413      	str	r3, [r2, #64]	; 0x40
 8000808:	4b0d      	ldr	r3, [pc, #52]	; (8000840 <HAL_I2C_MspInit+0xa8>)
 800080a:	6c1b      	ldr	r3, [r3, #64]	; 0x40
 800080c:	f403 1300 	and.w	r3, r3, #2097152	; 0x200000
 8000810:	60fb      	str	r3, [r7, #12]
 8000812:	68fb      	ldr	r3, [r7, #12]

    /* I2C1 interrupt Init */
    HAL_NVIC_SetPriority(I2C1_EV_IRQn, 0, 0);
 8000814:	2200      	movs	r2, #0
 8000816:	2100      	movs	r1, #0
 8000818:	201f      	movs	r0, #31
 800081a:	f000 ff44 	bl	80016a6 <HAL_NVIC_SetPriority>
    HAL_NVIC_EnableIRQ(I2C1_EV_IRQn);
 800081e:	201f      	movs	r0, #31
 8000820:	f000 ff5d 	bl	80016de <HAL_NVIC_EnableIRQ>
    HAL_NVIC_SetPriority(I2C1_ER_IRQn, 0, 0);
 8000824:	2200      	movs	r2, #0
 8000826:	2100      	movs	r1, #0
 8000828:	2020      	movs	r0, #32
 800082a:	f000 ff3c 	bl	80016a6 <HAL_NVIC_SetPriority>
    HAL_NVIC_EnableIRQ(I2C1_ER_IRQn);
 800082e:	2020      	movs	r0, #32
 8000830:	f000 ff55 	bl	80016de <HAL_NVIC_EnableIRQ>
  /* USER CODE BEGIN I2C1_MspInit 1 */

  /* USER CODE END I2C1_MspInit 1 */
  }
}
 8000834:	bf00      	nop
 8000836:	3728      	adds	r7, #40	; 0x28
 8000838:	46bd      	mov	sp, r7
 800083a:	bd80      	pop	{r7, pc}
 800083c:	40005400 	.word	0x40005400
 8000840:	40023800 	.word	0x40023800
 8000844:	40020400 	.word	0x40020400

08000848 <MX_I2S2_Init>:
I2S_HandleTypeDef hi2s2;
I2S_HandleTypeDef hi2s3;

/* I2S2 init function */
void MX_I2S2_Init(void)
{
 8000848:	b580      	push	{r7, lr}
 800084a:	af00      	add	r7, sp, #0
  /* USER CODE END I2S2_Init 0 */

  /* USER CODE BEGIN I2S2_Init 1 */

  /* USER CODE END I2S2_Init 1 */
  hi2s2.Instance = SPI2;
 800084c:	4b12      	ldr	r3, [pc, #72]	; (8000898 <MX_I2S2_Init+0x50>)
 800084e:	4a13      	ldr	r2, [pc, #76]	; (800089c <MX_I2S2_Init+0x54>)
 8000850:	601a      	str	r2, [r3, #0]
  hi2s2.Init.Mode = I2S_MODE_MASTER_TX;
 8000852:	4b11      	ldr	r3, [pc, #68]	; (8000898 <MX_I2S2_Init+0x50>)
 8000854:	f44f 7200 	mov.w	r2, #512	; 0x200
 8000858:	605a      	str	r2, [r3, #4]
  hi2s2.Init.Standard = I2S_STANDARD_PHILIPS;
 800085a:	4b0f      	ldr	r3, [pc, #60]	; (8000898 <MX_I2S2_Init+0x50>)
 800085c:	2200      	movs	r2, #0
 800085e:	609a      	str	r2, [r3, #8]
  hi2s2.Init.DataFormat = I2S_DATAFORMAT_16B;
 8000860:	4b0d      	ldr	r3, [pc, #52]	; (8000898 <MX_I2S2_Init+0x50>)
 8000862:	2200      	movs	r2, #0
 8000864:	60da      	str	r2, [r3, #12]
  hi2s2.Init.MCLKOutput = I2S_MCLKOUTPUT_DISABLE;
 8000866:	4b0c      	ldr	r3, [pc, #48]	; (8000898 <MX_I2S2_Init+0x50>)
 8000868:	2200      	movs	r2, #0
 800086a:	611a      	str	r2, [r3, #16]
  hi2s2.Init.AudioFreq = I2S_AUDIOFREQ_96K;
 800086c:	4b0a      	ldr	r3, [pc, #40]	; (8000898 <MX_I2S2_Init+0x50>)
 800086e:	4a0c      	ldr	r2, [pc, #48]	; (80008a0 <MX_I2S2_Init+0x58>)
 8000870:	615a      	str	r2, [r3, #20]
  hi2s2.Init.CPOL = I2S_CPOL_LOW;
 8000872:	4b09      	ldr	r3, [pc, #36]	; (8000898 <MX_I2S2_Init+0x50>)
 8000874:	2200      	movs	r2, #0
 8000876:	619a      	str	r2, [r3, #24]
  hi2s2.Init.ClockSource = I2S_CLOCK_PLL;
 8000878:	4b07      	ldr	r3, [pc, #28]	; (8000898 <MX_I2S2_Init+0x50>)
 800087a:	2200      	movs	r2, #0
 800087c:	61da      	str	r2, [r3, #28]
  hi2s2.Init.FullDuplexMode = I2S_FULLDUPLEXMODE_ENABLE;
 800087e:	4b06      	ldr	r3, [pc, #24]	; (8000898 <MX_I2S2_Init+0x50>)
 8000880:	2201      	movs	r2, #1
 8000882:	621a      	str	r2, [r3, #32]
  if (HAL_I2S_Init(&hi2s2) != HAL_OK)
 8000884:	4804      	ldr	r0, [pc, #16]	; (8000898 <MX_I2S2_Init+0x50>)
 8000886:	f004 fcd7 	bl	8005238 <HAL_I2S_Init>
 800088a:	4603      	mov	r3, r0
 800088c:	2b00      	cmp	r3, #0
 800088e:	d001      	beq.n	8000894 <MX_I2S2_Init+0x4c>
  {
    Error_Handler();
 8000890:	f000 fb2c 	bl	8000eec <Error_Handler>
  }
  /* USER CODE BEGIN I2S2_Init 2 */

  /* USER CODE END I2S2_Init 2 */

}
 8000894:	bf00      	nop
 8000896:	bd80      	pop	{r7, pc}
 8000898:	200001c0 	.word	0x200001c0
 800089c:	40003800 	.word	0x40003800
 80008a0:	00017700 	.word	0x00017700

080008a4 <MX_I2S3_Init>:
/* I2S3 init function */
void MX_I2S3_Init(void)
{
 80008a4:	b580      	push	{r7, lr}
 80008a6:	af00      	add	r7, sp, #0
  /* USER CODE END I2S3_Init 0 */

  /* USER CODE BEGIN I2S3_Init 1 */

  /* USER CODE END I2S3_Init 1 */
  hi2s3.Instance = SPI3;
 80008a8:	4b13      	ldr	r3, [pc, #76]	; (80008f8 <MX_I2S3_Init+0x54>)
 80008aa:	4a14      	ldr	r2, [pc, #80]	; (80008fc <MX_I2S3_Init+0x58>)
 80008ac:	601a      	str	r2, [r3, #0]
  hi2s3.Init.Mode = I2S_MODE_MASTER_TX;
 80008ae:	4b12      	ldr	r3, [pc, #72]	; (80008f8 <MX_I2S3_Init+0x54>)
 80008b0:	f44f 7200 	mov.w	r2, #512	; 0x200
 80008b4:	605a      	str	r2, [r3, #4]
  hi2s3.Init.Standard = I2S_STANDARD_PHILIPS;
 80008b6:	4b10      	ldr	r3, [pc, #64]	; (80008f8 <MX_I2S3_Init+0x54>)
 80008b8:	2200      	movs	r2, #0
 80008ba:	609a      	str	r2, [r3, #8]
  hi2s3.Init.DataFormat = I2S_DATAFORMAT_16B;
 80008bc:	4b0e      	ldr	r3, [pc, #56]	; (80008f8 <MX_I2S3_Init+0x54>)
 80008be:	2200      	movs	r2, #0
 80008c0:	60da      	str	r2, [r3, #12]
  hi2s3.Init.MCLKOutput = I2S_MCLKOUTPUT_ENABLE;
 80008c2:	4b0d      	ldr	r3, [pc, #52]	; (80008f8 <MX_I2S3_Init+0x54>)
 80008c4:	f44f 7200 	mov.w	r2, #512	; 0x200
 80008c8:	611a      	str	r2, [r3, #16]
  hi2s3.Init.AudioFreq = I2S_AUDIOFREQ_96K;
 80008ca:	4b0b      	ldr	r3, [pc, #44]	; (80008f8 <MX_I2S3_Init+0x54>)
 80008cc:	4a0c      	ldr	r2, [pc, #48]	; (8000900 <MX_I2S3_Init+0x5c>)
 80008ce:	615a      	str	r2, [r3, #20]
  hi2s3.Init.CPOL = I2S_CPOL_LOW;
 80008d0:	4b09      	ldr	r3, [pc, #36]	; (80008f8 <MX_I2S3_Init+0x54>)
 80008d2:	2200      	movs	r2, #0
 80008d4:	619a      	str	r2, [r3, #24]
  hi2s3.Init.ClockSource = I2S_CLOCK_PLL;
 80008d6:	4b08      	ldr	r3, [pc, #32]	; (80008f8 <MX_I2S3_Init+0x54>)
 80008d8:	2200      	movs	r2, #0
 80008da:	61da      	str	r2, [r3, #28]
  hi2s3.Init.FullDuplexMode = I2S_FULLDUPLEXMODE_DISABLE;
 80008dc:	4b06      	ldr	r3, [pc, #24]	; (80008f8 <MX_I2S3_Init+0x54>)
 80008de:	2200      	movs	r2, #0
 80008e0:	621a      	str	r2, [r3, #32]
  if (HAL_I2S_Init(&hi2s3) != HAL_OK)
 80008e2:	4805      	ldr	r0, [pc, #20]	; (80008f8 <MX_I2S3_Init+0x54>)
 80008e4:	f004 fca8 	bl	8005238 <HAL_I2S_Init>
 80008e8:	4603      	mov	r3, r0
 80008ea:	2b00      	cmp	r3, #0
 80008ec:	d001      	beq.n	80008f2 <MX_I2S3_Init+0x4e>
  {
    Error_Handler();
 80008ee:	f000 fafd 	bl	8000eec <Error_Handler>
  }
  /* USER CODE BEGIN I2S3_Init 2 */

  /* USER CODE END I2S3_Init 2 */

}
 80008f2:	bf00      	nop
 80008f4:	bd80      	pop	{r7, pc}
 80008f6:	bf00      	nop
 80008f8:	20000208 	.word	0x20000208
 80008fc:	40003c00 	.word	0x40003c00
 8000900:	00017700 	.word	0x00017700

08000904 <HAL_I2S_MspInit>:

void HAL_I2S_MspInit(I2S_HandleTypeDef* i2sHandle)
{
 8000904:	b580      	push	{r7, lr}
 8000906:	b08e      	sub	sp, #56	; 0x38
 8000908:	af00      	add	r7, sp, #0
 800090a:	6078      	str	r0, [r7, #4]

  GPIO_InitTypeDef GPIO_InitStruct = {0};
 800090c:	f107 0324 	add.w	r3, r7, #36	; 0x24
 8000910:	2200      	movs	r2, #0
 8000912:	601a      	str	r2, [r3, #0]
 8000914:	605a      	str	r2, [r3, #4]
 8000916:	609a      	str	r2, [r3, #8]
 8000918:	60da      	str	r2, [r3, #12]
 800091a:	611a      	str	r2, [r3, #16]
  if(i2sHandle->Instance==SPI2)
 800091c:	687b      	ldr	r3, [r7, #4]
 800091e:	681b      	ldr	r3, [r3, #0]
 8000920:	4a59      	ldr	r2, [pc, #356]	; (8000a88 <HAL_I2S_MspInit+0x184>)
 8000922:	4293      	cmp	r3, r2
 8000924:	d15b      	bne.n	80009de <HAL_I2S_MspInit+0xda>
  {
  /* USER CODE BEGIN SPI2_MspInit 0 */

  /* USER CODE END SPI2_MspInit 0 */
    /* I2S2 clock enable */
    __HAL_RCC_SPI2_CLK_ENABLE();
 8000926:	2300      	movs	r3, #0
 8000928:	623b      	str	r3, [r7, #32]
 800092a:	4b58      	ldr	r3, [pc, #352]	; (8000a8c <HAL_I2S_MspInit+0x188>)
 800092c:	6c1b      	ldr	r3, [r3, #64]	; 0x40
 800092e:	4a57      	ldr	r2, [pc, #348]	; (8000a8c <HAL_I2S_MspInit+0x188>)
 8000930:	f443 4380 	orr.w	r3, r3, #16384	; 0x4000
 8000934:	6413      	str	r3, [r2, #64]	; 0x40
 8000936:	4b55      	ldr	r3, [pc, #340]	; (8000a8c <HAL_I2S_MspInit+0x188>)
 8000938:	6c1b      	ldr	r3, [r3, #64]	; 0x40
 800093a:	f403 4380 	and.w	r3, r3, #16384	; 0x4000
 800093e:	623b      	str	r3, [r7, #32]
 8000940:	6a3b      	ldr	r3, [r7, #32]

    __HAL_RCC_GPIOC_CLK_ENABLE();
 8000942:	2300      	movs	r3, #0
 8000944:	61fb      	str	r3, [r7, #28]
 8000946:	4b51      	ldr	r3, [pc, #324]	; (8000a8c <HAL_I2S_MspInit+0x188>)
 8000948:	6b1b      	ldr	r3, [r3, #48]	; 0x30
 800094a:	4a50      	ldr	r2, [pc, #320]	; (8000a8c <HAL_I2S_MspInit+0x188>)
 800094c:	f043 0304 	orr.w	r3, r3, #4
 8000950:	6313      	str	r3, [r2, #48]	; 0x30
 8000952:	4b4e      	ldr	r3, [pc, #312]	; (8000a8c <HAL_I2S_MspInit+0x188>)
 8000954:	6b1b      	ldr	r3, [r3, #48]	; 0x30
 8000956:	f003 0304 	and.w	r3, r3, #4
 800095a:	61fb      	str	r3, [r7, #28]
 800095c:	69fb      	ldr	r3, [r7, #28]
    __HAL_RCC_GPIOB_CLK_ENABLE();
 800095e:	2300      	movs	r3, #0
 8000960:	61bb      	str	r3, [r7, #24]
 8000962:	4b4a      	ldr	r3, [pc, #296]	; (8000a8c <HAL_I2S_MspInit+0x188>)
 8000964:	6b1b      	ldr	r3, [r3, #48]	; 0x30
 8000966:	4a49      	ldr	r2, [pc, #292]	; (8000a8c <HAL_I2S_MspInit+0x188>)
 8000968:	f043 0302 	orr.w	r3, r3, #2
 800096c:	6313      	str	r3, [r2, #48]	; 0x30
 800096e:	4b47      	ldr	r3, [pc, #284]	; (8000a8c <HAL_I2S_MspInit+0x188>)
 8000970:	6b1b      	ldr	r3, [r3, #48]	; 0x30
 8000972:	f003 0302 	and.w	r3, r3, #2
 8000976:	61bb      	str	r3, [r7, #24]
 8000978:	69bb      	ldr	r3, [r7, #24]
    PC2     ------> I2S2_ext_SD
    PC3     ------> I2S2_SD
    PB10     ------> I2S2_CK
    PB12     ------> I2S2_WS
    */
    GPIO_InitStruct.Pin = GPIO_PIN_2;
 800097a:	2304      	movs	r3, #4
 800097c:	627b      	str	r3, [r7, #36]	; 0x24
    GPIO_InitStruct.Mode = GPIO_MODE_AF_PP;
 800097e:	2302      	movs	r3, #2
 8000980:	62bb      	str	r3, [r7, #40]	; 0x28
    GPIO_InitStruct.Pull = GPIO_NOPULL;
 8000982:	2300      	movs	r3, #0
 8000984:	62fb      	str	r3, [r7, #44]	; 0x2c
    GPIO_InitStruct.Speed = GPIO_SPEED_FREQ_LOW;
 8000986:	2300      	movs	r3, #0
 8000988:	633b      	str	r3, [r7, #48]	; 0x30
    GPIO_InitStruct.Alternate = GPIO_AF6_I2S2ext;
 800098a:	2306      	movs	r3, #6
 800098c:	637b      	str	r3, [r7, #52]	; 0x34
    HAL_GPIO_Init(GPIOC, &GPIO_InitStruct);
 800098e:	f107 0324 	add.w	r3, r7, #36	; 0x24
 8000992:	4619      	mov	r1, r3
 8000994:	483e      	ldr	r0, [pc, #248]	; (8000a90 <HAL_I2S_MspInit+0x18c>)
 8000996:	f000 feed 	bl	8001774 <HAL_GPIO_Init>

    GPIO_InitStruct.Pin = PDM_OUT_Pin;
 800099a:	2308      	movs	r3, #8
 800099c:	627b      	str	r3, [r7, #36]	; 0x24
    GPIO_InitStruct.Mode = GPIO_MODE_AF_PP;
 800099e:	2302      	movs	r3, #2
 80009a0:	62bb      	str	r3, [r7, #40]	; 0x28
    GPIO_InitStruct.Pull = GPIO_NOPULL;
 80009a2:	2300      	movs	r3, #0
 80009a4:	62fb      	str	r3, [r7, #44]	; 0x2c
    GPIO_InitStruct.Speed = GPIO_SPEED_FREQ_LOW;
 80009a6:	2300      	movs	r3, #0
 80009a8:	633b      	str	r3, [r7, #48]	; 0x30
    GPIO_InitStruct.Alternate = GPIO_AF5_SPI2;
 80009aa:	2305      	movs	r3, #5
 80009ac:	637b      	str	r3, [r7, #52]	; 0x34
    HAL_GPIO_Init(PDM_OUT_GPIO_Port, &GPIO_InitStruct);
 80009ae:	f107 0324 	add.w	r3, r7, #36	; 0x24
 80009b2:	4619      	mov	r1, r3
 80009b4:	4836      	ldr	r0, [pc, #216]	; (8000a90 <HAL_I2S_MspInit+0x18c>)
 80009b6:	f000 fedd 	bl	8001774 <HAL_GPIO_Init>

    GPIO_InitStruct.Pin = CLK_IN_Pin|GPIO_PIN_12;
 80009ba:	f44f 53a0 	mov.w	r3, #5120	; 0x1400
 80009be:	627b      	str	r3, [r7, #36]	; 0x24
    GPIO_InitStruct.Mode = GPIO_MODE_AF_PP;
 80009c0:	2302      	movs	r3, #2
 80009c2:	62bb      	str	r3, [r7, #40]	; 0x28
    GPIO_InitStruct.Pull = GPIO_NOPULL;
 80009c4:	2300      	movs	r3, #0
 80009c6:	62fb      	str	r3, [r7, #44]	; 0x2c
    GPIO_InitStruct.Speed = GPIO_SPEED_FREQ_LOW;
 80009c8:	2300      	movs	r3, #0
 80009ca:	633b      	str	r3, [r7, #48]	; 0x30
    GPIO_InitStruct.Alternate = GPIO_AF5_SPI2;
 80009cc:	2305      	movs	r3, #5
 80009ce:	637b      	str	r3, [r7, #52]	; 0x34
    HAL_GPIO_Init(GPIOB, &GPIO_InitStruct);
 80009d0:	f107 0324 	add.w	r3, r7, #36	; 0x24
 80009d4:	4619      	mov	r1, r3
 80009d6:	482f      	ldr	r0, [pc, #188]	; (8000a94 <HAL_I2S_MspInit+0x190>)
 80009d8:	f000 fecc 	bl	8001774 <HAL_GPIO_Init>

  /* USER CODE BEGIN SPI3_MspInit 1 */

  /* USER CODE END SPI3_MspInit 1 */
  }
}
 80009dc:	e04f      	b.n	8000a7e <HAL_I2S_MspInit+0x17a>
  else if(i2sHandle->Instance==SPI3)
 80009de:	687b      	ldr	r3, [r7, #4]
 80009e0:	681b      	ldr	r3, [r3, #0]
 80009e2:	4a2d      	ldr	r2, [pc, #180]	; (8000a98 <HAL_I2S_MspInit+0x194>)
 80009e4:	4293      	cmp	r3, r2
 80009e6:	d14a      	bne.n	8000a7e <HAL_I2S_MspInit+0x17a>
    __HAL_RCC_SPI3_CLK_ENABLE();
 80009e8:	2300      	movs	r3, #0
 80009ea:	617b      	str	r3, [r7, #20]
 80009ec:	4b27      	ldr	r3, [pc, #156]	; (8000a8c <HAL_I2S_MspInit+0x188>)
 80009ee:	6c1b      	ldr	r3, [r3, #64]	; 0x40
 80009f0:	4a26      	ldr	r2, [pc, #152]	; (8000a8c <HAL_I2S_MspInit+0x188>)
 80009f2:	f443 4300 	orr.w	r3, r3, #32768	; 0x8000
 80009f6:	6413      	str	r3, [r2, #64]	; 0x40
 80009f8:	4b24      	ldr	r3, [pc, #144]	; (8000a8c <HAL_I2S_MspInit+0x188>)
 80009fa:	6c1b      	ldr	r3, [r3, #64]	; 0x40
 80009fc:	f403 4300 	and.w	r3, r3, #32768	; 0x8000
 8000a00:	617b      	str	r3, [r7, #20]
 8000a02:	697b      	ldr	r3, [r7, #20]
    __HAL_RCC_GPIOA_CLK_ENABLE();
 8000a04:	2300      	movs	r3, #0
 8000a06:	613b      	str	r3, [r7, #16]
 8000a08:	4b20      	ldr	r3, [pc, #128]	; (8000a8c <HAL_I2S_MspInit+0x188>)
 8000a0a:	6b1b      	ldr	r3, [r3, #48]	; 0x30
 8000a0c:	4a1f      	ldr	r2, [pc, #124]	; (8000a8c <HAL_I2S_MspInit+0x188>)
 8000a0e:	f043 0301 	orr.w	r3, r3, #1
 8000a12:	6313      	str	r3, [r2, #48]	; 0x30
 8000a14:	4b1d      	ldr	r3, [pc, #116]	; (8000a8c <HAL_I2S_MspInit+0x188>)
 8000a16:	6b1b      	ldr	r3, [r3, #48]	; 0x30
 8000a18:	f003 0301 	and.w	r3, r3, #1
 8000a1c:	613b      	str	r3, [r7, #16]
 8000a1e:	693b      	ldr	r3, [r7, #16]
    __HAL_RCC_GPIOC_CLK_ENABLE();
 8000a20:	2300      	movs	r3, #0
 8000a22:	60fb      	str	r3, [r7, #12]
 8000a24:	4b19      	ldr	r3, [pc, #100]	; (8000a8c <HAL_I2S_MspInit+0x188>)
 8000a26:	6b1b      	ldr	r3, [r3, #48]	; 0x30
 8000a28:	4a18      	ldr	r2, [pc, #96]	; (8000a8c <HAL_I2S_MspInit+0x188>)
 8000a2a:	f043 0304 	orr.w	r3, r3, #4
 8000a2e:	6313      	str	r3, [r2, #48]	; 0x30
 8000a30:	4b16      	ldr	r3, [pc, #88]	; (8000a8c <HAL_I2S_MspInit+0x188>)
 8000a32:	6b1b      	ldr	r3, [r3, #48]	; 0x30
 8000a34:	f003 0304 	and.w	r3, r3, #4
 8000a38:	60fb      	str	r3, [r7, #12]
 8000a3a:	68fb      	ldr	r3, [r7, #12]
    GPIO_InitStruct.Pin = I2S3_WS_Pin;
 8000a3c:	2310      	movs	r3, #16
 8000a3e:	627b      	str	r3, [r7, #36]	; 0x24
    GPIO_InitStruct.Mode = GPIO_MODE_AF_PP;
 8000a40:	2302      	movs	r3, #2
 8000a42:	62bb      	str	r3, [r7, #40]	; 0x28
    GPIO_InitStruct.Pull = GPIO_NOPULL;
 8000a44:	2300      	movs	r3, #0
 8000a46:	62fb      	str	r3, [r7, #44]	; 0x2c
    GPIO_InitStruct.Speed = GPIO_SPEED_FREQ_LOW;
 8000a48:	2300      	movs	r3, #0
 8000a4a:	633b      	str	r3, [r7, #48]	; 0x30
    GPIO_InitStruct.Alternate = GPIO_AF6_SPI3;
 8000a4c:	2306      	movs	r3, #6
 8000a4e:	637b      	str	r3, [r7, #52]	; 0x34
    HAL_GPIO_Init(I2S3_WS_GPIO_Port, &GPIO_InitStruct);
 8000a50:	f107 0324 	add.w	r3, r7, #36	; 0x24
 8000a54:	4619      	mov	r1, r3
 8000a56:	4811      	ldr	r0, [pc, #68]	; (8000a9c <HAL_I2S_MspInit+0x198>)
 8000a58:	f000 fe8c 	bl	8001774 <HAL_GPIO_Init>
    GPIO_InitStruct.Pin = I2S3_MCK_Pin|I2S3_SCK_Pin|I2S3_SD_Pin;
 8000a5c:	f44f 53a4 	mov.w	r3, #5248	; 0x1480
 8000a60:	627b      	str	r3, [r7, #36]	; 0x24
    GPIO_InitStruct.Mode = GPIO_MODE_AF_PP;
 8000a62:	2302      	movs	r3, #2
 8000a64:	62bb      	str	r3, [r7, #40]	; 0x28
    GPIO_InitStruct.Pull = GPIO_NOPULL;
 8000a66:	2300      	movs	r3, #0
 8000a68:	62fb      	str	r3, [r7, #44]	; 0x2c
    GPIO_InitStruct.Speed = GPIO_SPEED_FREQ_LOW;
 8000a6a:	2300      	movs	r3, #0
 8000a6c:	633b      	str	r3, [r7, #48]	; 0x30
    GPIO_InitStruct.Alternate = GPIO_AF6_SPI3;
 8000a6e:	2306      	movs	r3, #6
 8000a70:	637b      	str	r3, [r7, #52]	; 0x34
    HAL_GPIO_Init(GPIOC, &GPIO_InitStruct);
 8000a72:	f107 0324 	add.w	r3, r7, #36	; 0x24
 8000a76:	4619      	mov	r1, r3
 8000a78:	4805      	ldr	r0, [pc, #20]	; (8000a90 <HAL_I2S_MspInit+0x18c>)
 8000a7a:	f000 fe7b 	bl	8001774 <HAL_GPIO_Init>
}
 8000a7e:	bf00      	nop
 8000a80:	3738      	adds	r7, #56	; 0x38
 8000a82:	46bd      	mov	sp, r7
 8000a84:	bd80      	pop	{r7, pc}
 8000a86:	bf00      	nop
 8000a88:	40003800 	.word	0x40003800
 8000a8c:	40023800 	.word	0x40023800
 8000a90:	40020800 	.word	0x40020800
 8000a94:	40020400 	.word	0x40020400
 8000a98:	40003c00 	.word	0x40003c00
 8000a9c:	40020000 	.word	0x40020000

08000aa0 <button_pressed>:

/* Private user code ---------------------------------------------------------*/
/* USER CODE BEGIN 0 */
//malloc (sizeof (muestra1));

static int button_pressed (fsm_t* this){
 8000aa0:	b480      	push	{r7}
 8000aa2:	b083      	sub	sp, #12
 8000aa4:	af00      	add	r7, sp, #0
 8000aa6:	6078      	str	r0, [r7, #4]
	if(*boton)
 8000aa8:	4b07      	ldr	r3, [pc, #28]	; (8000ac8 <button_pressed+0x28>)
 8000aaa:	681b      	ldr	r3, [r3, #0]
 8000aac:	781b      	ldrb	r3, [r3, #0]
 8000aae:	b2db      	uxtb	r3, r3
 8000ab0:	2b00      	cmp	r3, #0
 8000ab2:	d001      	beq.n	8000ab8 <button_pressed+0x18>
		return 1;
 8000ab4:	2301      	movs	r3, #1
 8000ab6:	e000      	b.n	8000aba <button_pressed+0x1a>
	else
		return 0;
 8000ab8:	2300      	movs	r3, #0
}
 8000aba:	4618      	mov	r0, r3
 8000abc:	370c      	adds	r7, #12
 8000abe:	46bd      	mov	sp, r7
 8000ac0:	f85d 7b04 	ldr.w	r7, [sp], #4
 8000ac4:	4770      	bx	lr
 8000ac6:	bf00      	nop
 8000ac8:	20000150 	.word	0x20000150

08000acc <start_count>:

static void start_count (fsm_t * this){
 8000acc:	b580      	push	{r7, lr}
 8000ace:	b082      	sub	sp, #8
 8000ad0:	af00      	add	r7, sp, #0
 8000ad2:	6078      	str	r0, [r7, #4]
	boton = 0;
 8000ad4:	4b0a      	ldr	r3, [pc, #40]	; (8000b00 <start_count+0x34>)
 8000ad6:	2200      	movs	r2, #0
 8000ad8:	601a      	str	r2, [r3, #0]
	HAL_GPIO_WritePin(GPIOD,(uint16_t) LD6_Pin,0); //Blue
 8000ada:	2200      	movs	r2, #0
 8000adc:	f44f 4100 	mov.w	r1, #32768	; 0x8000
 8000ae0:	4808      	ldr	r0, [pc, #32]	; (8000b04 <start_count+0x38>)
 8000ae2:	f000 ffcb 	bl	8001a7c <HAL_GPIO_WritePin>
	HAL_TIM_Base_Start_IT(&htim2);
 8000ae6:	4808      	ldr	r0, [pc, #32]	; (8000b08 <start_count+0x3c>)
 8000ae8:	f005 fece 	bl	8006888 <HAL_TIM_Base_Start_IT>
	HAL_TIM_Base_Start_IT(&htim3);
 8000aec:	4807      	ldr	r0, [pc, #28]	; (8000b0c <start_count+0x40>)
 8000aee:	f005 fecb 	bl	8006888 <HAL_TIM_Base_Start_IT>
	muestras=0;
 8000af2:	4b07      	ldr	r3, [pc, #28]	; (8000b10 <start_count+0x44>)
 8000af4:	2200      	movs	r2, #0
 8000af6:	601a      	str	r2, [r3, #0]
}
 8000af8:	bf00      	nop
 8000afa:	3708      	adds	r7, #8
 8000afc:	46bd      	mov	sp, r7
 8000afe:	bd80      	pop	{r7, pc}
 8000b00:	20000150 	.word	0x20000150
 8000b04:	40020c00 	.word	0x40020c00
 8000b08:	200002f0 	.word	0x200002f0
 8000b0c:	200002a8 	.word	0x200002a8
 8000b10:	20000158 	.word	0x20000158

08000b14 <stop_count>:

static void stop_count (fsm_t * this){
 8000b14:	b580      	push	{r7, lr}
 8000b16:	b082      	sub	sp, #8
 8000b18:	af00      	add	r7, sp, #0
 8000b1a:	6078      	str	r0, [r7, #4]
	boton = 0;
 8000b1c:	4b13      	ldr	r3, [pc, #76]	; (8000b6c <stop_count+0x58>)
 8000b1e:	2200      	movs	r2, #0
 8000b20:	601a      	str	r2, [r3, #0]
	HAL_GPIO_WritePin(GPIOD, (uint16_t) LD6_Pin,0); //Blue
 8000b22:	2200      	movs	r2, #0
 8000b24:	f44f 4100 	mov.w	r1, #32768	; 0x8000
 8000b28:	4811      	ldr	r0, [pc, #68]	; (8000b70 <stop_count+0x5c>)
 8000b2a:	f000 ffa7 	bl	8001a7c <HAL_GPIO_WritePin>
	HAL_GPIO_WritePin(GPIOD, (uint16_t) LD5_Pin,0); //Red
 8000b2e:	2200      	movs	r2, #0
 8000b30:	f44f 4180 	mov.w	r1, #16384	; 0x4000
 8000b34:	480e      	ldr	r0, [pc, #56]	; (8000b70 <stop_count+0x5c>)
 8000b36:	f000 ffa1 	bl	8001a7c <HAL_GPIO_WritePin>
	HAL_GPIO_WritePin(GPIOD, (uint16_t) LD3_Pin,0); //Orange
 8000b3a:	2200      	movs	r2, #0
 8000b3c:	f44f 5100 	mov.w	r1, #8192	; 0x2000
 8000b40:	480b      	ldr	r0, [pc, #44]	; (8000b70 <stop_count+0x5c>)
 8000b42:	f000 ff9b 	bl	8001a7c <HAL_GPIO_WritePin>
	HAL_GPIO_WritePin(GPIOD, (uint16_t) LD4_Pin,0); //Green
 8000b46:	2200      	movs	r2, #0
 8000b48:	f44f 5180 	mov.w	r1, #4096	; 0x1000
 8000b4c:	4808      	ldr	r0, [pc, #32]	; (8000b70 <stop_count+0x5c>)
 8000b4e:	f000 ff95 	bl	8001a7c <HAL_GPIO_WritePin>
	HAL_TIM_Base_Stop_IT(&htim2);
 8000b52:	4808      	ldr	r0, [pc, #32]	; (8000b74 <stop_count+0x60>)
 8000b54:	f005 fefa 	bl	800694c <HAL_TIM_Base_Stop_IT>
	HAL_TIM_Base_Stop_IT(&htim3);
 8000b58:	4807      	ldr	r0, [pc, #28]	; (8000b78 <stop_count+0x64>)
 8000b5a:	f005 fef7 	bl	800694c <HAL_TIM_Base_Stop_IT>
	muestras=0;
 8000b5e:	4b07      	ldr	r3, [pc, #28]	; (8000b7c <stop_count+0x68>)
 8000b60:	2200      	movs	r2, #0
 8000b62:	601a      	str	r2, [r3, #0]
}
 8000b64:	bf00      	nop
 8000b66:	3708      	adds	r7, #8
 8000b68:	46bd      	mov	sp, r7
 8000b6a:	bd80      	pop	{r7, pc}
 8000b6c:	20000150 	.word	0x20000150
 8000b70:	40020c00 	.word	0x40020c00
 8000b74:	200002f0 	.word	0x200002f0
 8000b78:	200002a8 	.word	0x200002a8
 8000b7c:	20000158 	.word	0x20000158

08000b80 <second>:

static int second (fsm_t * this) {
 8000b80:	b480      	push	{r7}
 8000b82:	b083      	sub	sp, #12
 8000b84:	af00      	add	r7, sp, #0
 8000b86:	6078      	str	r0, [r7, #4]
	if(*segundo)
 8000b88:	4b07      	ldr	r3, [pc, #28]	; (8000ba8 <second+0x28>)
 8000b8a:	681b      	ldr	r3, [r3, #0]
 8000b8c:	781b      	ldrb	r3, [r3, #0]
 8000b8e:	b2db      	uxtb	r3, r3
 8000b90:	2b00      	cmp	r3, #0
 8000b92:	d001      	beq.n	8000b98 <second+0x18>
		return 1;
 8000b94:	2301      	movs	r3, #1
 8000b96:	e000      	b.n	8000b9a <second+0x1a>
	else
		return 0;
 8000b98:	2300      	movs	r3, #0
}
 8000b9a:	4618      	mov	r0, r3
 8000b9c:	370c      	adds	r7, #12
 8000b9e:	46bd      	mov	sp, r7
 8000ba0:	f85d 7b04 	ldr.w	r7, [sp], #4
 8000ba4:	4770      	bx	lr
 8000ba6:	bf00      	nop
 8000ba8:	2000014c 	.word	0x2000014c

08000bac <counting>:

static void counting (fsm_t* this){
 8000bac:	b580      	push	{r7, lr}
 8000bae:	b082      	sub	sp, #8
 8000bb0:	af00      	add	r7, sp, #0
 8000bb2:	6078      	str	r0, [r7, #4]
	//Segundo
	segundo = 0;
 8000bb4:	4b05      	ldr	r3, [pc, #20]	; (8000bcc <counting+0x20>)
 8000bb6:	2200      	movs	r2, #0
 8000bb8:	601a      	str	r2, [r3, #0]
	HAL_GPIO_TogglePin(GPIOD, (uint16_t) LD6_Pin); //Blue
 8000bba:	f44f 4100 	mov.w	r1, #32768	; 0x8000
 8000bbe:	4804      	ldr	r0, [pc, #16]	; (8000bd0 <counting+0x24>)
 8000bc0:	f000 ff75 	bl	8001aae <HAL_GPIO_TogglePin>
}
 8000bc4:	bf00      	nop
 8000bc6:	3708      	adds	r7, #8
 8000bc8:	46bd      	mov	sp, r7
 8000bca:	bd80      	pop	{r7, pc}
 8000bcc:	2000014c 	.word	0x2000014c
 8000bd0:	40020c00 	.word	0x40020c00

08000bd4 <keep>:

static int keep (fsm_t* this){
 8000bd4:	b480      	push	{r7}
 8000bd6:	b083      	sub	sp, #12
 8000bd8:	af00      	add	r7, sp, #0
 8000bda:	6078      	str	r0, [r7, #4]
	if(*interruptTimer)
 8000bdc:	4b07      	ldr	r3, [pc, #28]	; (8000bfc <keep+0x28>)
 8000bde:	681b      	ldr	r3, [r3, #0]
 8000be0:	781b      	ldrb	r3, [r3, #0]
 8000be2:	b2db      	uxtb	r3, r3
 8000be4:	2b00      	cmp	r3, #0
 8000be6:	d001      	beq.n	8000bec <keep+0x18>
		return 1;
 8000be8:	2301      	movs	r3, #1
 8000bea:	e000      	b.n	8000bee <keep+0x1a>
	else
		return 0;
 8000bec:	2300      	movs	r3, #0
}
 8000bee:	4618      	mov	r0, r3
 8000bf0:	370c      	adds	r7, #12
 8000bf2:	46bd      	mov	sp, r7
 8000bf4:	f85d 7b04 	ldr.w	r7, [sp], #4
 8000bf8:	4770      	bx	lr
 8000bfa:	bf00      	nop
 8000bfc:	20000154 	.word	0x20000154

08000c00 <count_samples>:

static void count_samples (fsm_t * this){
 8000c00:	b480      	push	{r7}
 8000c02:	b083      	sub	sp, #12
 8000c04:	af00      	add	r7, sp, #0
 8000c06:	6078      	str	r0, [r7, #4]
	//Poner muestra aqui del acelerometro
	interruptTimer=0;
 8000c08:	4b06      	ldr	r3, [pc, #24]	; (8000c24 <count_samples+0x24>)
 8000c0a:	2200      	movs	r2, #0
 8000c0c:	601a      	str	r2, [r3, #0]
	muestras++;
 8000c0e:	4b06      	ldr	r3, [pc, #24]	; (8000c28 <count_samples+0x28>)
 8000c10:	681b      	ldr	r3, [r3, #0]
 8000c12:	3301      	adds	r3, #1
 8000c14:	4a04      	ldr	r2, [pc, #16]	; (8000c28 <count_samples+0x28>)
 8000c16:	6013      	str	r3, [r2, #0]
}
 8000c18:	bf00      	nop
 8000c1a:	370c      	adds	r7, #12
 8000c1c:	46bd      	mov	sp, r7
 8000c1e:	f85d 7b04 	ldr.w	r7, [sp], #4
 8000c22:	4770      	bx	lr
 8000c24:	20000154 	.word	0x20000154
 8000c28:	20000158 	.word	0x20000158

08000c2c <return_init>:

static void return_init (fsm_t * this){
 8000c2c:	b580      	push	{r7, lr}
 8000c2e:	b082      	sub	sp, #8
 8000c30:	af00      	add	r7, sp, #0
 8000c32:	6078      	str	r0, [r7, #4]
	//Igual luce demasiado poco
	HAL_GPIO_WritePin(GPIOD, (uint16_t) LD6_Pin,0); //Blue
 8000c34:	2200      	movs	r2, #0
 8000c36:	f44f 4100 	mov.w	r1, #32768	; 0x8000
 8000c3a:	480c      	ldr	r0, [pc, #48]	; (8000c6c <return_init+0x40>)
 8000c3c:	f000 ff1e 	bl	8001a7c <HAL_GPIO_WritePin>
	HAL_GPIO_WritePin(GPIOD, (uint16_t) LD5_Pin,0); //Red
 8000c40:	2200      	movs	r2, #0
 8000c42:	f44f 4180 	mov.w	r1, #16384	; 0x4000
 8000c46:	4809      	ldr	r0, [pc, #36]	; (8000c6c <return_init+0x40>)
 8000c48:	f000 ff18 	bl	8001a7c <HAL_GPIO_WritePin>
	HAL_GPIO_WritePin(GPIOD, (uint16_t) LD3_Pin,0); //Orange
 8000c4c:	2200      	movs	r2, #0
 8000c4e:	f44f 5100 	mov.w	r1, #8192	; 0x2000
 8000c52:	4806      	ldr	r0, [pc, #24]	; (8000c6c <return_init+0x40>)
 8000c54:	f000 ff12 	bl	8001a7c <HAL_GPIO_WritePin>
	HAL_GPIO_WritePin(GPIOD, (uint16_t) LD4_Pin,0); //Green
 8000c58:	2200      	movs	r2, #0
 8000c5a:	f44f 5180 	mov.w	r1, #4096	; 0x1000
 8000c5e:	4803      	ldr	r0, [pc, #12]	; (8000c6c <return_init+0x40>)
 8000c60:	f000 ff0c 	bl	8001a7c <HAL_GPIO_WritePin>
}
 8000c64:	bf00      	nop
 8000c66:	3708      	adds	r7, #8
 8000c68:	46bd      	mov	sp, r7
 8000c6a:	bd80      	pop	{r7, pc}
 8000c6c:	40020c00 	.word	0x40020c00

08000c70 <extreme>:

static int extreme (fsm_t* this){
 8000c70:	b480      	push	{r7}
 8000c72:	b083      	sub	sp, #12
 8000c74:	af00      	add	r7, sp, #0
 8000c76:	6078      	str	r0, [r7, #4]
	//Extreme
	return (muestras >= 3000);
 8000c78:	4b07      	ldr	r3, [pc, #28]	; (8000c98 <extreme+0x28>)
 8000c7a:	681b      	ldr	r3, [r3, #0]
 8000c7c:	f640 32b7 	movw	r2, #2999	; 0xbb7
 8000c80:	4293      	cmp	r3, r2
 8000c82:	bfcc      	ite	gt
 8000c84:	2301      	movgt	r3, #1
 8000c86:	2300      	movle	r3, #0
 8000c88:	b2db      	uxtb	r3, r3
}
 8000c8a:	4618      	mov	r0, r3
 8000c8c:	370c      	adds	r7, #12
 8000c8e:	46bd      	mov	sp, r7
 8000c90:	f85d 7b04 	ldr.w	r7, [sp], #4
 8000c94:	4770      	bx	lr
 8000c96:	bf00      	nop
 8000c98:	20000158 	.word	0x20000158

08000c9c <extr_light>:

static void extr_light (fsm_t* this){
 8000c9c:	b580      	push	{r7, lr}
 8000c9e:	b082      	sub	sp, #8
 8000ca0:	af00      	add	r7, sp, #0
 8000ca2:	6078      	str	r0, [r7, #4]
	//Extreme lights
	//segundo = 0;
	HAL_GPIO_WritePin(GPIOD, (uint16_t) LD5_Pin,1); //Red
 8000ca4:	2201      	movs	r2, #1
 8000ca6:	f44f 4180 	mov.w	r1, #16384	; 0x4000
 8000caa:	4805      	ldr	r0, [pc, #20]	; (8000cc0 <extr_light+0x24>)
 8000cac:	f000 fee6 	bl	8001a7c <HAL_GPIO_WritePin>
	muestras = 0;
 8000cb0:	4b04      	ldr	r3, [pc, #16]	; (8000cc4 <extr_light+0x28>)
 8000cb2:	2200      	movs	r2, #0
 8000cb4:	601a      	str	r2, [r3, #0]
}
 8000cb6:	bf00      	nop
 8000cb8:	3708      	adds	r7, #8
 8000cba:	46bd      	mov	sp, r7
 8000cbc:	bd80      	pop	{r7, pc}
 8000cbe:	bf00      	nop
 8000cc0:	40020c00 	.word	0x40020c00
 8000cc4:	20000158 	.word	0x20000158

08000cc8 <high>:

static int high (fsm_t* this){
 8000cc8:	b480      	push	{r7}
 8000cca:	b083      	sub	sp, #12
 8000ccc:	af00      	add	r7, sp, #0
 8000cce:	6078      	str	r0, [r7, #4]
	//High
	return (muestras < 3000 && muestras >= 2400);
 8000cd0:	4b09      	ldr	r3, [pc, #36]	; (8000cf8 <high+0x30>)
 8000cd2:	681b      	ldr	r3, [r3, #0]
 8000cd4:	f640 32b7 	movw	r2, #2999	; 0xbb7
 8000cd8:	4293      	cmp	r3, r2
 8000cda:	dc06      	bgt.n	8000cea <high+0x22>
 8000cdc:	4b06      	ldr	r3, [pc, #24]	; (8000cf8 <high+0x30>)
 8000cde:	681b      	ldr	r3, [r3, #0]
 8000ce0:	f5b3 6f16 	cmp.w	r3, #2400	; 0x960
 8000ce4:	db01      	blt.n	8000cea <high+0x22>
 8000ce6:	2301      	movs	r3, #1
 8000ce8:	e000      	b.n	8000cec <high+0x24>
 8000cea:	2300      	movs	r3, #0
}
 8000cec:	4618      	mov	r0, r3
 8000cee:	370c      	adds	r7, #12
 8000cf0:	46bd      	mov	sp, r7
 8000cf2:	f85d 7b04 	ldr.w	r7, [sp], #4
 8000cf6:	4770      	bx	lr
 8000cf8:	20000158 	.word	0x20000158

08000cfc <high_light>:

static void high_light (fsm_t* this){
 8000cfc:	b580      	push	{r7, lr}
 8000cfe:	b082      	sub	sp, #8
 8000d00:	af00      	add	r7, sp, #0
 8000d02:	6078      	str	r0, [r7, #4]
	//High lights
	//segundo = 0;
	HAL_GPIO_WritePin(GPIOD, (uint16_t) LD3_Pin,1); //Orange
 8000d04:	2201      	movs	r2, #1
 8000d06:	f44f 5100 	mov.w	r1, #8192	; 0x2000
 8000d0a:	4805      	ldr	r0, [pc, #20]	; (8000d20 <high_light+0x24>)
 8000d0c:	f000 feb6 	bl	8001a7c <HAL_GPIO_WritePin>
	muestras = 0;
 8000d10:	4b04      	ldr	r3, [pc, #16]	; (8000d24 <high_light+0x28>)
 8000d12:	2200      	movs	r2, #0
 8000d14:	601a      	str	r2, [r3, #0]
}
 8000d16:	bf00      	nop
 8000d18:	3708      	adds	r7, #8
 8000d1a:	46bd      	mov	sp, r7
 8000d1c:	bd80      	pop	{r7, pc}
 8000d1e:	bf00      	nop
 8000d20:	40020c00 	.word	0x40020c00
 8000d24:	20000158 	.word	0x20000158

08000d28 <normal>:

static int normal (fsm_t* this){
 8000d28:	b480      	push	{r7}
 8000d2a:	b083      	sub	sp, #12
 8000d2c:	af00      	add	r7, sp, #0
 8000d2e:	6078      	str	r0, [r7, #4]
	//Normal
	return (muestras < 2400);
 8000d30:	4b07      	ldr	r3, [pc, #28]	; (8000d50 <normal+0x28>)
 8000d32:	681b      	ldr	r3, [r3, #0]
 8000d34:	f640 125f 	movw	r2, #2399	; 0x95f
 8000d38:	4293      	cmp	r3, r2
 8000d3a:	bfd4      	ite	le
 8000d3c:	2301      	movle	r3, #1
 8000d3e:	2300      	movgt	r3, #0
 8000d40:	b2db      	uxtb	r3, r3
}
 8000d42:	4618      	mov	r0, r3
 8000d44:	370c      	adds	r7, #12
 8000d46:	46bd      	mov	sp, r7
 8000d48:	f85d 7b04 	ldr.w	r7, [sp], #4
 8000d4c:	4770      	bx	lr
 8000d4e:	bf00      	nop
 8000d50:	20000158 	.word	0x20000158

08000d54 <norm_light>:

static void norm_light (fsm_t* this){
 8000d54:	b580      	push	{r7, lr}
 8000d56:	b082      	sub	sp, #8
 8000d58:	af00      	add	r7, sp, #0
 8000d5a:	6078      	str	r0, [r7, #4]
	//Normal lights
	//segundo = 0;
	HAL_GPIO_WritePin(GPIOD, (uint16_t) LD4_Pin,1); //Green
 8000d5c:	2201      	movs	r2, #1
 8000d5e:	f44f 5180 	mov.w	r1, #4096	; 0x1000
 8000d62:	4805      	ldr	r0, [pc, #20]	; (8000d78 <norm_light+0x24>)
 8000d64:	f000 fe8a 	bl	8001a7c <HAL_GPIO_WritePin>
	muestras = 0;
 8000d68:	4b04      	ldr	r3, [pc, #16]	; (8000d7c <norm_light+0x28>)
 8000d6a:	2200      	movs	r2, #0
 8000d6c:	601a      	str	r2, [r3, #0]
}
 8000d6e:	bf00      	nop
 8000d70:	3708      	adds	r7, #8
 8000d72:	46bd      	mov	sp, r7
 8000d74:	bd80      	pop	{r7, pc}
 8000d76:	bf00      	nop
 8000d78:	40020c00 	.word	0x40020c00
 8000d7c:	20000158 	.word	0x20000158

08000d80 <main>:
/**
  * @brief  The application entry point.
  * @retval int
  */
int main(void)
{
 8000d80:	b580      	push	{r7, lr}
 8000d82:	b082      	sub	sp, #8
 8000d84:	af00      	add	r7, sp, #0
  /* USER CODE END 1 */

  /* MCU Configuration--------------------------------------------------------*/

  /* Reset of all peripherals, Initializes the Flash interface and the Systick. */
  HAL_Init();
 8000d86:	f000 fb1d 	bl	80013c4 <HAL_Init>
  /* USER CODE BEGIN Init */

  /* USER CODE END Init */

  /* Configure the system clock */
  SystemClock_Config();
 8000d8a:	f000 f827 	bl	8000ddc <SystemClock_Config>

/* Configure the peripherals common clocks */
  PeriphCommonClock_Config();
 8000d8e:	f000 f88d 	bl	8000eac <PeriphCommonClock_Config>
  /* USER CODE BEGIN SysInit */

  /* USER CODE END SysInit */

  /* Initialize all configured peripherals */
  MX_GPIO_Init();
 8000d92:	f7ff fbf1 	bl	8000578 <MX_GPIO_Init>
  MX_I2C1_Init();
 8000d96:	f7ff fcd1 	bl	800073c <MX_I2C1_Init>
  MX_I2S2_Init();
 8000d9a:	f7ff fd55 	bl	8000848 <MX_I2S2_Init>
  MX_I2S3_Init();
 8000d9e:	f7ff fd81 	bl	80008a4 <MX_I2S3_Init>
  MX_SPI1_Init();
 8000da2:	f000 f8a9 	bl	8000ef8 <MX_SPI1_Init>
  MX_USB_HOST_Init();
 8000da6:	f009 f849 	bl	8009e3c <MX_USB_HOST_Init>
  MX_TIM2_Init();
 8000daa:	f000 fa03 	bl	80011b4 <MX_TIM2_Init>
  MX_TIM3_Init();
 8000dae:	f000 fa4d 	bl	800124c <MX_TIM3_Init>
  /* USER CODE BEGIN 2 */
  fsm_t* aem_fsm = fsm_new (aem);
 8000db2:	4808      	ldr	r0, [pc, #32]	; (8000dd4 <main+0x54>)
 8000db4:	f7ff fb8c 	bl	80004d0 <fsm_new>
 8000db8:	6078      	str	r0, [r7, #4]
  fsm_t* icm_fsm = fsm_new (icm);
 8000dba:	4807      	ldr	r0, [pc, #28]	; (8000dd8 <main+0x58>)
 8000dbc:	f7ff fb88 	bl	80004d0 <fsm_new>
 8000dc0:	6038      	str	r0, [r7, #0]

  while (1)
  {

    /* USER CODE END WHILE */
    MX_USB_HOST_Process();
 8000dc2:	f009 f861 	bl	8009e88 <MX_USB_HOST_Process>

    /* USER CODE BEGIN 3 */
    fsm_fire (aem_fsm);
 8000dc6:	6878      	ldr	r0, [r7, #4]
 8000dc8:	f7ff fba6 	bl	8000518 <fsm_fire>
    fsm_fire (icm_fsm);
 8000dcc:	6838      	ldr	r0, [r7, #0]
 8000dce:	f7ff fba3 	bl	8000518 <fsm_fire>
    MX_USB_HOST_Process();
 8000dd2:	e7f6      	b.n	8000dc2 <main+0x42>
 8000dd4:	20000000 	.word	0x20000000
 8000dd8:	20000040 	.word	0x20000040

08000ddc <SystemClock_Config>:
/**
  * @brief System Clock Configuration
  * @retval None
  */
void SystemClock_Config(void)
{
 8000ddc:	b580      	push	{r7, lr}
 8000dde:	b094      	sub	sp, #80	; 0x50
 8000de0:	af00      	add	r7, sp, #0
  RCC_OscInitTypeDef RCC_OscInitStruct = {0};
 8000de2:	f107 0320 	add.w	r3, r7, #32
 8000de6:	2230      	movs	r2, #48	; 0x30
 8000de8:	2100      	movs	r1, #0
 8000dea:	4618      	mov	r0, r3
 8000dec:	f009 fb68 	bl	800a4c0 <memset>
  RCC_ClkInitTypeDef RCC_ClkInitStruct = {0};
 8000df0:	f107 030c 	add.w	r3, r7, #12
 8000df4:	2200      	movs	r2, #0
 8000df6:	601a      	str	r2, [r3, #0]
 8000df8:	605a      	str	r2, [r3, #4]
 8000dfa:	609a      	str	r2, [r3, #8]
 8000dfc:	60da      	str	r2, [r3, #12]
 8000dfe:	611a      	str	r2, [r3, #16]

  /** Configure the main internal regulator output voltage
  */
  __HAL_RCC_PWR_CLK_ENABLE();
 8000e00:	2300      	movs	r3, #0
 8000e02:	60bb      	str	r3, [r7, #8]
 8000e04:	4b27      	ldr	r3, [pc, #156]	; (8000ea4 <SystemClock_Config+0xc8>)
 8000e06:	6c1b      	ldr	r3, [r3, #64]	; 0x40
 8000e08:	4a26      	ldr	r2, [pc, #152]	; (8000ea4 <SystemClock_Config+0xc8>)
 8000e0a:	f043 5380 	orr.w	r3, r3, #268435456	; 0x10000000
 8000e0e:	6413      	str	r3, [r2, #64]	; 0x40
 8000e10:	4b24      	ldr	r3, [pc, #144]	; (8000ea4 <SystemClock_Config+0xc8>)
 8000e12:	6c1b      	ldr	r3, [r3, #64]	; 0x40
 8000e14:	f003 5380 	and.w	r3, r3, #268435456	; 0x10000000
 8000e18:	60bb      	str	r3, [r7, #8]
 8000e1a:	68bb      	ldr	r3, [r7, #8]
  __HAL_PWR_VOLTAGESCALING_CONFIG(PWR_REGULATOR_VOLTAGE_SCALE1);
 8000e1c:	2300      	movs	r3, #0
 8000e1e:	607b      	str	r3, [r7, #4]
 8000e20:	4b21      	ldr	r3, [pc, #132]	; (8000ea8 <SystemClock_Config+0xcc>)
 8000e22:	681b      	ldr	r3, [r3, #0]
 8000e24:	4a20      	ldr	r2, [pc, #128]	; (8000ea8 <SystemClock_Config+0xcc>)
 8000e26:	f443 4340 	orr.w	r3, r3, #49152	; 0xc000
 8000e2a:	6013      	str	r3, [r2, #0]
 8000e2c:	4b1e      	ldr	r3, [pc, #120]	; (8000ea8 <SystemClock_Config+0xcc>)
 8000e2e:	681b      	ldr	r3, [r3, #0]
 8000e30:	f403 4340 	and.w	r3, r3, #49152	; 0xc000
 8000e34:	607b      	str	r3, [r7, #4]
 8000e36:	687b      	ldr	r3, [r7, #4]
  /** Initializes the RCC Oscillators according to the specified parameters
  * in the RCC_OscInitTypeDef structure.
  */
  RCC_OscInitStruct.OscillatorType = RCC_OSCILLATORTYPE_HSE;
 8000e38:	2301      	movs	r3, #1
 8000e3a:	623b      	str	r3, [r7, #32]
  RCC_OscInitStruct.HSEState = RCC_HSE_BYPASS;
 8000e3c:	f44f 23a0 	mov.w	r3, #327680	; 0x50000
 8000e40:	627b      	str	r3, [r7, #36]	; 0x24
  RCC_OscInitStruct.PLL.PLLState = RCC_PLL_ON;
 8000e42:	2302      	movs	r3, #2
 8000e44:	63bb      	str	r3, [r7, #56]	; 0x38
  RCC_OscInitStruct.PLL.PLLSource = RCC_PLLSOURCE_HSE;
 8000e46:	f44f 0380 	mov.w	r3, #4194304	; 0x400000
 8000e4a:	63fb      	str	r3, [r7, #60]	; 0x3c
  RCC_OscInitStruct.PLL.PLLM = 4;
 8000e4c:	2304      	movs	r3, #4
 8000e4e:	643b      	str	r3, [r7, #64]	; 0x40
  RCC_OscInitStruct.PLL.PLLN = 192;
 8000e50:	23c0      	movs	r3, #192	; 0xc0
 8000e52:	647b      	str	r3, [r7, #68]	; 0x44
  RCC_OscInitStruct.PLL.PLLP = RCC_PLLP_DIV4;
 8000e54:	2304      	movs	r3, #4
 8000e56:	64bb      	str	r3, [r7, #72]	; 0x48
  RCC_OscInitStruct.PLL.PLLQ = 8;
 8000e58:	2308      	movs	r3, #8
 8000e5a:	64fb      	str	r3, [r7, #76]	; 0x4c
  if (HAL_RCC_OscConfig(&RCC_OscInitStruct) != HAL_OK)
 8000e5c:	f107 0320 	add.w	r3, r7, #32
 8000e60:	4618      	mov	r0, r3
 8000e62:	f004 fe89 	bl	8005b78 <HAL_RCC_OscConfig>
 8000e66:	4603      	mov	r3, r0
 8000e68:	2b00      	cmp	r3, #0
 8000e6a:	d001      	beq.n	8000e70 <SystemClock_Config+0x94>
  {
    Error_Handler();
 8000e6c:	f000 f83e 	bl	8000eec <Error_Handler>
  }
  /** Initializes the CPU, AHB and APB buses clocks
  */
  RCC_ClkInitStruct.ClockType = RCC_CLOCKTYPE_HCLK|RCC_CLOCKTYPE_SYSCLK
 8000e70:	230f      	movs	r3, #15
 8000e72:	60fb      	str	r3, [r7, #12]
                              |RCC_CLOCKTYPE_PCLK1|RCC_CLOCKTYPE_PCLK2;
  RCC_ClkInitStruct.SYSCLKSource = RCC_SYSCLKSOURCE_PLLCLK;
 8000e74:	2302      	movs	r3, #2
 8000e76:	613b      	str	r3, [r7, #16]
  RCC_ClkInitStruct.AHBCLKDivider = RCC_SYSCLK_DIV1;
 8000e78:	2300      	movs	r3, #0
 8000e7a:	617b      	str	r3, [r7, #20]
  RCC_ClkInitStruct.APB1CLKDivider = RCC_HCLK_DIV4;
 8000e7c:	f44f 53a0 	mov.w	r3, #5120	; 0x1400
 8000e80:	61bb      	str	r3, [r7, #24]
  RCC_ClkInitStruct.APB2CLKDivider = RCC_HCLK_DIV1;
 8000e82:	2300      	movs	r3, #0
 8000e84:	61fb      	str	r3, [r7, #28]

  if (HAL_RCC_ClockConfig(&RCC_ClkInitStruct, FLASH_LATENCY_3) != HAL_OK)
 8000e86:	f107 030c 	add.w	r3, r7, #12
 8000e8a:	2103      	movs	r1, #3
 8000e8c:	4618      	mov	r0, r3
 8000e8e:	f005 f8eb 	bl	8006068 <HAL_RCC_ClockConfig>
 8000e92:	4603      	mov	r3, r0
 8000e94:	2b00      	cmp	r3, #0
 8000e96:	d001      	beq.n	8000e9c <SystemClock_Config+0xc0>
  {
    Error_Handler();
 8000e98:	f000 f828 	bl	8000eec <Error_Handler>
  }
}
 8000e9c:	bf00      	nop
 8000e9e:	3750      	adds	r7, #80	; 0x50
 8000ea0:	46bd      	mov	sp, r7
 8000ea2:	bd80      	pop	{r7, pc}
 8000ea4:	40023800 	.word	0x40023800
 8000ea8:	40007000 	.word	0x40007000

08000eac <PeriphCommonClock_Config>:
/**
  * @brief Peripherals Common Clock Configuration
  * @retval None
  */
void PeriphCommonClock_Config(void)
{
 8000eac:	b580      	push	{r7, lr}
 8000eae:	b086      	sub	sp, #24
 8000eb0:	af00      	add	r7, sp, #0
  RCC_PeriphCLKInitTypeDef PeriphClkInitStruct = {0};
 8000eb2:	463b      	mov	r3, r7
 8000eb4:	2200      	movs	r2, #0
 8000eb6:	601a      	str	r2, [r3, #0]
 8000eb8:	605a      	str	r2, [r3, #4]
 8000eba:	609a      	str	r2, [r3, #8]
 8000ebc:	60da      	str	r2, [r3, #12]
 8000ebe:	611a      	str	r2, [r3, #16]
 8000ec0:	615a      	str	r2, [r3, #20]

  /** Initializes the peripherals clock
  */
  PeriphClkInitStruct.PeriphClockSelection = RCC_PERIPHCLK_I2S;
 8000ec2:	2301      	movs	r3, #1
 8000ec4:	603b      	str	r3, [r7, #0]
  PeriphClkInitStruct.PLLI2S.PLLI2SN = 200;
 8000ec6:	23c8      	movs	r3, #200	; 0xc8
 8000ec8:	60bb      	str	r3, [r7, #8]
  PeriphClkInitStruct.PLLI2S.PLLI2SM = 5;
 8000eca:	2305      	movs	r3, #5
 8000ecc:	607b      	str	r3, [r7, #4]
  PeriphClkInitStruct.PLLI2S.PLLI2SR = 2;
 8000ece:	2302      	movs	r3, #2
 8000ed0:	60fb      	str	r3, [r7, #12]
  if (HAL_RCCEx_PeriphCLKConfig(&PeriphClkInitStruct) != HAL_OK)
 8000ed2:	463b      	mov	r3, r7
 8000ed4:	4618      	mov	r0, r3
 8000ed6:	f005 faaf 	bl	8006438 <HAL_RCCEx_PeriphCLKConfig>
 8000eda:	4603      	mov	r3, r0
 8000edc:	2b00      	cmp	r3, #0
 8000ede:	d001      	beq.n	8000ee4 <PeriphCommonClock_Config+0x38>
  {
    Error_Handler();
 8000ee0:	f000 f804 	bl	8000eec <Error_Handler>
  }
}
 8000ee4:	bf00      	nop
 8000ee6:	3718      	adds	r7, #24
 8000ee8:	46bd      	mov	sp, r7
 8000eea:	bd80      	pop	{r7, pc}

08000eec <Error_Handler>:
/**
  * @brief  This function is executed in case of error occurrence.
  * @retval None
  */
void Error_Handler(void)
{
 8000eec:	b480      	push	{r7}
 8000eee:	af00      	add	r7, sp, #0
  \details Disables IRQ interrupts by setting the I-bit in the CPSR.
           Can only be executed in Privileged modes.
 */
__STATIC_FORCEINLINE void __disable_irq(void)
{
  __ASM volatile ("cpsid i" : : : "memory");
 8000ef0:	b672      	cpsid	i
}
 8000ef2:	bf00      	nop
  /* USER CODE BEGIN Error_Handler_Debug */
  /* User can add his own implementation to report the HAL error return state */
  __disable_irq();
  while (1)
 8000ef4:	e7fe      	b.n	8000ef4 <Error_Handler+0x8>
	...

08000ef8 <MX_SPI1_Init>:

SPI_HandleTypeDef hspi1;

/* SPI1 init function */
void MX_SPI1_Init(void)
{
 8000ef8:	b580      	push	{r7, lr}
 8000efa:	af00      	add	r7, sp, #0
  /* USER CODE END SPI1_Init 0 */

  /* USER CODE BEGIN SPI1_Init 1 */

  /* USER CODE END SPI1_Init 1 */
  hspi1.Instance = SPI1;
 8000efc:	4b17      	ldr	r3, [pc, #92]	; (8000f5c <MX_SPI1_Init+0x64>)
 8000efe:	4a18      	ldr	r2, [pc, #96]	; (8000f60 <MX_SPI1_Init+0x68>)
 8000f00:	601a      	str	r2, [r3, #0]
  hspi1.Init.Mode = SPI_MODE_MASTER;
 8000f02:	4b16      	ldr	r3, [pc, #88]	; (8000f5c <MX_SPI1_Init+0x64>)
 8000f04:	f44f 7282 	mov.w	r2, #260	; 0x104
 8000f08:	605a      	str	r2, [r3, #4]
  hspi1.Init.Direction = SPI_DIRECTION_2LINES;
 8000f0a:	4b14      	ldr	r3, [pc, #80]	; (8000f5c <MX_SPI1_Init+0x64>)
 8000f0c:	2200      	movs	r2, #0
 8000f0e:	609a      	str	r2, [r3, #8]
  hspi1.Init.DataSize = SPI_DATASIZE_8BIT;
 8000f10:	4b12      	ldr	r3, [pc, #72]	; (8000f5c <MX_SPI1_Init+0x64>)
 8000f12:	2200      	movs	r2, #0
 8000f14:	60da      	str	r2, [r3, #12]
  hspi1.Init.CLKPolarity = SPI_POLARITY_LOW;
 8000f16:	4b11      	ldr	r3, [pc, #68]	; (8000f5c <MX_SPI1_Init+0x64>)
 8000f18:	2200      	movs	r2, #0
 8000f1a:	611a      	str	r2, [r3, #16]
  hspi1.Init.CLKPhase = SPI_PHASE_1EDGE;
 8000f1c:	4b0f      	ldr	r3, [pc, #60]	; (8000f5c <MX_SPI1_Init+0x64>)
 8000f1e:	2200      	movs	r2, #0
 8000f20:	615a      	str	r2, [r3, #20]
  hspi1.Init.NSS = SPI_NSS_SOFT;
 8000f22:	4b0e      	ldr	r3, [pc, #56]	; (8000f5c <MX_SPI1_Init+0x64>)
 8000f24:	f44f 7200 	mov.w	r2, #512	; 0x200
 8000f28:	619a      	str	r2, [r3, #24]
  hspi1.Init.BaudRatePrescaler = SPI_BAUDRATEPRESCALER_2;
 8000f2a:	4b0c      	ldr	r3, [pc, #48]	; (8000f5c <MX_SPI1_Init+0x64>)
 8000f2c:	2200      	movs	r2, #0
 8000f2e:	61da      	str	r2, [r3, #28]
  hspi1.Init.FirstBit = SPI_FIRSTBIT_MSB;
 8000f30:	4b0a      	ldr	r3, [pc, #40]	; (8000f5c <MX_SPI1_Init+0x64>)
 8000f32:	2200      	movs	r2, #0
 8000f34:	621a      	str	r2, [r3, #32]
  hspi1.Init.TIMode = SPI_TIMODE_DISABLE;
 8000f36:	4b09      	ldr	r3, [pc, #36]	; (8000f5c <MX_SPI1_Init+0x64>)
 8000f38:	2200      	movs	r2, #0
 8000f3a:	625a      	str	r2, [r3, #36]	; 0x24
  hspi1.Init.CRCCalculation = SPI_CRCCALCULATION_DISABLE;
 8000f3c:	4b07      	ldr	r3, [pc, #28]	; (8000f5c <MX_SPI1_Init+0x64>)
 8000f3e:	2200      	movs	r2, #0
 8000f40:	629a      	str	r2, [r3, #40]	; 0x28
  hspi1.Init.CRCPolynomial = 10;
 8000f42:	4b06      	ldr	r3, [pc, #24]	; (8000f5c <MX_SPI1_Init+0x64>)
 8000f44:	220a      	movs	r2, #10
 8000f46:	62da      	str	r2, [r3, #44]	; 0x2c
  if (HAL_SPI_Init(&hspi1) != HAL_OK)
 8000f48:	4804      	ldr	r0, [pc, #16]	; (8000f5c <MX_SPI1_Init+0x64>)
 8000f4a:	f005 fbc5 	bl	80066d8 <HAL_SPI_Init>
 8000f4e:	4603      	mov	r3, r0
 8000f50:	2b00      	cmp	r3, #0
 8000f52:	d001      	beq.n	8000f58 <MX_SPI1_Init+0x60>
  {
    Error_Handler();
 8000f54:	f7ff ffca 	bl	8000eec <Error_Handler>
  }
  /* USER CODE BEGIN SPI1_Init 2 */

  /* USER CODE END SPI1_Init 2 */

}
 8000f58:	bf00      	nop
 8000f5a:	bd80      	pop	{r7, pc}
 8000f5c:	20000250 	.word	0x20000250
 8000f60:	40013000 	.word	0x40013000

08000f64 <HAL_SPI_MspInit>:

void HAL_SPI_MspInit(SPI_HandleTypeDef* spiHandle)
{
 8000f64:	b580      	push	{r7, lr}
 8000f66:	b08a      	sub	sp, #40	; 0x28
 8000f68:	af00      	add	r7, sp, #0
 8000f6a:	6078      	str	r0, [r7, #4]

  GPIO_InitTypeDef GPIO_InitStruct = {0};
 8000f6c:	f107 0314 	add.w	r3, r7, #20
 8000f70:	2200      	movs	r2, #0
 8000f72:	601a      	str	r2, [r3, #0]
 8000f74:	605a      	str	r2, [r3, #4]
 8000f76:	609a      	str	r2, [r3, #8]
 8000f78:	60da      	str	r2, [r3, #12]
 8000f7a:	611a      	str	r2, [r3, #16]
  if(spiHandle->Instance==SPI1)
 8000f7c:	687b      	ldr	r3, [r7, #4]
 8000f7e:	681b      	ldr	r3, [r3, #0]
 8000f80:	4a19      	ldr	r2, [pc, #100]	; (8000fe8 <HAL_SPI_MspInit+0x84>)
 8000f82:	4293      	cmp	r3, r2
 8000f84:	d12b      	bne.n	8000fde <HAL_SPI_MspInit+0x7a>
  {
  /* USER CODE BEGIN SPI1_MspInit 0 */

  /* USER CODE END SPI1_MspInit 0 */
    /* SPI1 clock enable */
    __HAL_RCC_SPI1_CLK_ENABLE();
 8000f86:	2300      	movs	r3, #0
 8000f88:	613b      	str	r3, [r7, #16]
 8000f8a:	4b18      	ldr	r3, [pc, #96]	; (8000fec <HAL_SPI_MspInit+0x88>)
 8000f8c:	6c5b      	ldr	r3, [r3, #68]	; 0x44
 8000f8e:	4a17      	ldr	r2, [pc, #92]	; (8000fec <HAL_SPI_MspInit+0x88>)
 8000f90:	f443 5380 	orr.w	r3, r3, #4096	; 0x1000
 8000f94:	6453      	str	r3, [r2, #68]	; 0x44
 8000f96:	4b15      	ldr	r3, [pc, #84]	; (8000fec <HAL_SPI_MspInit+0x88>)
 8000f98:	6c5b      	ldr	r3, [r3, #68]	; 0x44
 8000f9a:	f403 5380 	and.w	r3, r3, #4096	; 0x1000
 8000f9e:	613b      	str	r3, [r7, #16]
 8000fa0:	693b      	ldr	r3, [r7, #16]

    __HAL_RCC_GPIOA_CLK_ENABLE();
 8000fa2:	2300      	movs	r3, #0
 8000fa4:	60fb      	str	r3, [r7, #12]
 8000fa6:	4b11      	ldr	r3, [pc, #68]	; (8000fec <HAL_SPI_MspInit+0x88>)
 8000fa8:	6b1b      	ldr	r3, [r3, #48]	; 0x30
 8000faa:	4a10      	ldr	r2, [pc, #64]	; (8000fec <HAL_SPI_MspInit+0x88>)
 8000fac:	f043 0301 	orr.w	r3, r3, #1
 8000fb0:	6313      	str	r3, [r2, #48]	; 0x30
 8000fb2:	4b0e      	ldr	r3, [pc, #56]	; (8000fec <HAL_SPI_MspInit+0x88>)
 8000fb4:	6b1b      	ldr	r3, [r3, #48]	; 0x30
 8000fb6:	f003 0301 	and.w	r3, r3, #1
 8000fba:	60fb      	str	r3, [r7, #12]
 8000fbc:	68fb      	ldr	r3, [r7, #12]
    /**SPI1 GPIO Configuration
    PA5     ------> SPI1_SCK
    PA6     ------> SPI1_MISO
    PA7     ------> SPI1_MOSI
    */
    GPIO_InitStruct.Pin = SPI1_SCK_Pin|SPI1_MISO_Pin|SPI1_MOSI_Pin;
 8000fbe:	23e0      	movs	r3, #224	; 0xe0
 8000fc0:	617b      	str	r3, [r7, #20]
    GPIO_InitStruct.Mode = GPIO_MODE_AF_PP;
 8000fc2:	2302      	movs	r3, #2
 8000fc4:	61bb      	str	r3, [r7, #24]
    GPIO_InitStruct.Pull = GPIO_NOPULL;
 8000fc6:	2300      	movs	r3, #0
 8000fc8:	61fb      	str	r3, [r7, #28]
    GPIO_InitStruct.Speed = GPIO_SPEED_FREQ_VERY_HIGH;
 8000fca:	2303      	movs	r3, #3
 8000fcc:	623b      	str	r3, [r7, #32]
    GPIO_InitStruct.Alternate = GPIO_AF5_SPI1;
 8000fce:	2305      	movs	r3, #5
 8000fd0:	627b      	str	r3, [r7, #36]	; 0x24
    HAL_GPIO_Init(GPIOA, &GPIO_InitStruct);
 8000fd2:	f107 0314 	add.w	r3, r7, #20
 8000fd6:	4619      	mov	r1, r3
 8000fd8:	4805      	ldr	r0, [pc, #20]	; (8000ff0 <HAL_SPI_MspInit+0x8c>)
 8000fda:	f000 fbcb 	bl	8001774 <HAL_GPIO_Init>

  /* USER CODE BEGIN SPI1_MspInit 1 */

  /* USER CODE END SPI1_MspInit 1 */
  }
}
 8000fde:	bf00      	nop
 8000fe0:	3728      	adds	r7, #40	; 0x28
 8000fe2:	46bd      	mov	sp, r7
 8000fe4:	bd80      	pop	{r7, pc}
 8000fe6:	bf00      	nop
 8000fe8:	40013000 	.word	0x40013000
 8000fec:	40023800 	.word	0x40023800
 8000ff0:	40020000 	.word	0x40020000

08000ff4 <HAL_MspInit>:
/* USER CODE END 0 */
/**
  * Initializes the Global MSP.
  */
void HAL_MspInit(void)
{
 8000ff4:	b580      	push	{r7, lr}
 8000ff6:	b082      	sub	sp, #8
 8000ff8:	af00      	add	r7, sp, #0
  /* USER CODE BEGIN MspInit 0 */

  /* USER CODE END MspInit 0 */

  __HAL_RCC_SYSCFG_CLK_ENABLE();
 8000ffa:	2300      	movs	r3, #0
 8000ffc:	607b      	str	r3, [r7, #4]
 8000ffe:	4b10      	ldr	r3, [pc, #64]	; (8001040 <HAL_MspInit+0x4c>)
 8001000:	6c5b      	ldr	r3, [r3, #68]	; 0x44
 8001002:	4a0f      	ldr	r2, [pc, #60]	; (8001040 <HAL_MspInit+0x4c>)
 8001004:	f443 4380 	orr.w	r3, r3, #16384	; 0x4000
 8001008:	6453      	str	r3, [r2, #68]	; 0x44
 800100a:	4b0d      	ldr	r3, [pc, #52]	; (8001040 <HAL_MspInit+0x4c>)
 800100c:	6c5b      	ldr	r3, [r3, #68]	; 0x44
 800100e:	f403 4380 	and.w	r3, r3, #16384	; 0x4000
 8001012:	607b      	str	r3, [r7, #4]
 8001014:	687b      	ldr	r3, [r7, #4]
  __HAL_RCC_PWR_CLK_ENABLE();
 8001016:	2300      	movs	r3, #0
 8001018:	603b      	str	r3, [r7, #0]
 800101a:	4b09      	ldr	r3, [pc, #36]	; (8001040 <HAL_MspInit+0x4c>)
 800101c:	6c1b      	ldr	r3, [r3, #64]	; 0x40
 800101e:	4a08      	ldr	r2, [pc, #32]	; (8001040 <HAL_MspInit+0x4c>)
 8001020:	f043 5380 	orr.w	r3, r3, #268435456	; 0x10000000
 8001024:	6413      	str	r3, [r2, #64]	; 0x40
 8001026:	4b06      	ldr	r3, [pc, #24]	; (8001040 <HAL_MspInit+0x4c>)
 8001028:	6c1b      	ldr	r3, [r3, #64]	; 0x40
 800102a:	f003 5380 	and.w	r3, r3, #268435456	; 0x10000000
 800102e:	603b      	str	r3, [r7, #0]
 8001030:	683b      	ldr	r3, [r7, #0]

  HAL_NVIC_SetPriorityGrouping(NVIC_PRIORITYGROUP_0);
 8001032:	2007      	movs	r0, #7
 8001034:	f000 fb2c 	bl	8001690 <HAL_NVIC_SetPriorityGrouping>
  /* System interrupt init*/

  /* USER CODE BEGIN MspInit 1 */

  /* USER CODE END MspInit 1 */
}
 8001038:	bf00      	nop
 800103a:	3708      	adds	r7, #8
 800103c:	46bd      	mov	sp, r7
 800103e:	bd80      	pop	{r7, pc}
 8001040:	40023800 	.word	0x40023800

08001044 <NMI_Handler>:
/******************************************************************************/
/**
  * @brief This function handles Non maskable interrupt.
  */
void NMI_Handler(void)
{
 8001044:	b480      	push	{r7}
 8001046:	af00      	add	r7, sp, #0
  /* USER CODE BEGIN NonMaskableInt_IRQn 0 */

  /* USER CODE END NonMaskableInt_IRQn 0 */
  /* USER CODE BEGIN NonMaskableInt_IRQn 1 */
  while (1)
 8001048:	e7fe      	b.n	8001048 <NMI_Handler+0x4>

0800104a <HardFault_Handler>:

/**
  * @brief This function handles Hard fault interrupt.
  */
void HardFault_Handler(void)
{
 800104a:	b480      	push	{r7}
 800104c:	af00      	add	r7, sp, #0
  /* USER CODE BEGIN HardFault_IRQn 0 */

  /* USER CODE END HardFault_IRQn 0 */
  while (1)
 800104e:	e7fe      	b.n	800104e <HardFault_Handler+0x4>

08001050 <MemManage_Handler>:

/**
  * @brief This function handles Memory management fault.
  */
void MemManage_Handler(void)
{
 8001050:	b480      	push	{r7}
 8001052:	af00      	add	r7, sp, #0
  /* USER CODE BEGIN MemoryManagement_IRQn 0 */

  /* USER CODE END MemoryManagement_IRQn 0 */
  while (1)
 8001054:	e7fe      	b.n	8001054 <MemManage_Handler+0x4>

08001056 <BusFault_Handler>:

/**
  * @brief This function handles Pre-fetch fault, memory access fault.
  */
void BusFault_Handler(void)
{
 8001056:	b480      	push	{r7}
 8001058:	af00      	add	r7, sp, #0
  /* USER CODE BEGIN BusFault_IRQn 0 */

  /* USER CODE END BusFault_IRQn 0 */
  while (1)
 800105a:	e7fe      	b.n	800105a <BusFault_Handler+0x4>

0800105c <UsageFault_Handler>:

/**
  * @brief This function handles Undefined instruction or illegal state.
  */
void UsageFault_Handler(void)
{
 800105c:	b480      	push	{r7}
 800105e:	af00      	add	r7, sp, #0
  /* USER CODE BEGIN UsageFault_IRQn 0 */

  /* USER CODE END UsageFault_IRQn 0 */
  while (1)
 8001060:	e7fe      	b.n	8001060 <UsageFault_Handler+0x4>

08001062 <SVC_Handler>:

/**
  * @brief This function handles System service call via SWI instruction.
  */
void SVC_Handler(void)
{
 8001062:	b480      	push	{r7}
 8001064:	af00      	add	r7, sp, #0

  /* USER CODE END SVCall_IRQn 0 */
  /* USER CODE BEGIN SVCall_IRQn 1 */

  /* USER CODE END SVCall_IRQn 1 */
}
 8001066:	bf00      	nop
 8001068:	46bd      	mov	sp, r7
 800106a:	f85d 7b04 	ldr.w	r7, [sp], #4
 800106e:	4770      	bx	lr

08001070 <DebugMon_Handler>:

/**
  * @brief This function handles Debug monitor.
  */
void DebugMon_Handler(void)
{
 8001070:	b480      	push	{r7}
 8001072:	af00      	add	r7, sp, #0

  /* USER CODE END DebugMonitor_IRQn 0 */
  /* USER CODE BEGIN DebugMonitor_IRQn 1 */

  /* USER CODE END DebugMonitor_IRQn 1 */
}
 8001074:	bf00      	nop
 8001076:	46bd      	mov	sp, r7
 8001078:	f85d 7b04 	ldr.w	r7, [sp], #4
 800107c:	4770      	bx	lr

0800107e <PendSV_Handler>:

/**
  * @brief This function handles Pendable request for system service.
  */
void PendSV_Handler(void)
{
 800107e:	b480      	push	{r7}
 8001080:	af00      	add	r7, sp, #0

  /* USER CODE END PendSV_IRQn 0 */
  /* USER CODE BEGIN PendSV_IRQn 1 */

  /* USER CODE END PendSV_IRQn 1 */
}
 8001082:	bf00      	nop
 8001084:	46bd      	mov	sp, r7
 8001086:	f85d 7b04 	ldr.w	r7, [sp], #4
 800108a:	4770      	bx	lr

0800108c <SysTick_Handler>:

/**
  * @brief This function handles System tick timer.
  */
void SysTick_Handler(void)
{
 800108c:	b580      	push	{r7, lr}
 800108e:	af00      	add	r7, sp, #0
  /* USER CODE BEGIN SysTick_IRQn 0 */

  /* USER CODE END SysTick_IRQn 0 */
  HAL_IncTick();
 8001090:	f000 f9ea 	bl	8001468 <HAL_IncTick>
  /* USER CODE BEGIN SysTick_IRQn 1 */

  /* USER CODE END SysTick_IRQn 1 */
}
 8001094:	bf00      	nop
 8001096:	bd80      	pop	{r7, pc}

08001098 <EXTI0_IRQHandler>:

/**
  * @brief This function handles EXTI line0 interrupt.
  */
void EXTI0_IRQHandler(void)
{
 8001098:	b580      	push	{r7, lr}
 800109a:	b082      	sub	sp, #8
 800109c:	af00      	add	r7, sp, #0
  /* USER CODE BEGIN EXTI0_IRQn 0 */
  char* boton = 1;
 800109e:	2301      	movs	r3, #1
 80010a0:	607b      	str	r3, [r7, #4]
  /* USER CODE END EXTI0_IRQn 0 */
  HAL_GPIO_EXTI_IRQHandler(GPIO_PIN_0);
 80010a2:	2001      	movs	r0, #1
 80010a4:	f000 fd1e 	bl	8001ae4 <HAL_GPIO_EXTI_IRQHandler>
  /* USER CODE BEGIN EXTI0_IRQn 1 */

  /* USER CODE END EXTI0_IRQn 1 */
}
 80010a8:	bf00      	nop
 80010aa:	3708      	adds	r7, #8
 80010ac:	46bd      	mov	sp, r7
 80010ae:	bd80      	pop	{r7, pc}

080010b0 <TIM2_IRQHandler>:

/**
  * @brief This function handles TIM2 global interrupt.
  */
void TIM2_IRQHandler(void)
{
 80010b0:	b580      	push	{r7, lr}
 80010b2:	b082      	sub	sp, #8
 80010b4:	af00      	add	r7, sp, #0
  /* USER CODE BEGIN TIM2_IRQn 0 */
  char* segundo = 1;
 80010b6:	2301      	movs	r3, #1
 80010b8:	607b      	str	r3, [r7, #4]
  /* USER CODE END TIM2_IRQn 0 */
  HAL_TIM_IRQHandler(&htim2);
 80010ba:	4803      	ldr	r0, [pc, #12]	; (80010c8 <TIM2_IRQHandler+0x18>)
 80010bc:	f005 fc75 	bl	80069aa <HAL_TIM_IRQHandler>
  /* USER CODE BEGIN TIM2_IRQn 1 */

  /* USER CODE END TIM2_IRQn 1 */
}
 80010c0:	bf00      	nop
 80010c2:	3708      	adds	r7, #8
 80010c4:	46bd      	mov	sp, r7
 80010c6:	bd80      	pop	{r7, pc}
 80010c8:	200002f0 	.word	0x200002f0

080010cc <TIM3_IRQHandler>:

/**
  * @brief This function handles TIM3 global interrupt.
  */
void TIM3_IRQHandler(void)
{
 80010cc:	b580      	push	{r7, lr}
 80010ce:	b082      	sub	sp, #8
 80010d0:	af00      	add	r7, sp, #0
  /* USER CODE BEGIN TIM3_IRQn 0 */
  char* interruptTimer = 1;
 80010d2:	2301      	movs	r3, #1
 80010d4:	607b      	str	r3, [r7, #4]
  /* USER CODE END TIM3_IRQn 0 */
  HAL_TIM_IRQHandler(&htim3);
 80010d6:	4803      	ldr	r0, [pc, #12]	; (80010e4 <TIM3_IRQHandler+0x18>)
 80010d8:	f005 fc67 	bl	80069aa <HAL_TIM_IRQHandler>
  /* USER CODE BEGIN TIM3_IRQn 1 */

  /* USER CODE END TIM3_IRQn 1 */
}
 80010dc:	bf00      	nop
 80010de:	3708      	adds	r7, #8
 80010e0:	46bd      	mov	sp, r7
 80010e2:	bd80      	pop	{r7, pc}
 80010e4:	200002a8 	.word	0x200002a8

080010e8 <I2C1_EV_IRQHandler>:

/**
  * @brief This function handles I2C1 event interrupt.
  */
void I2C1_EV_IRQHandler(void)
{
 80010e8:	b580      	push	{r7, lr}
 80010ea:	af00      	add	r7, sp, #0
  /* USER CODE BEGIN I2C1_EV_IRQn 0 */

  /* USER CODE END I2C1_EV_IRQn 0 */
  HAL_I2C_EV_IRQHandler(&hi2c1);
 80010ec:	4802      	ldr	r0, [pc, #8]	; (80010f8 <I2C1_EV_IRQHandler+0x10>)
 80010ee:	f002 fbd1 	bl	8003894 <HAL_I2C_EV_IRQHandler>
  /* USER CODE BEGIN I2C1_EV_IRQn 1 */

  /* USER CODE END I2C1_EV_IRQn 1 */
}
 80010f2:	bf00      	nop
 80010f4:	bd80      	pop	{r7, pc}
 80010f6:	bf00      	nop
 80010f8:	2000016c 	.word	0x2000016c

080010fc <I2C1_ER_IRQHandler>:

/**
  * @brief This function handles I2C1 error interrupt.
  */
void I2C1_ER_IRQHandler(void)
{
 80010fc:	b580      	push	{r7, lr}
 80010fe:	af00      	add	r7, sp, #0
  /* USER CODE BEGIN I2C1_ER_IRQn 0 */

  /* USER CODE END I2C1_ER_IRQn 0 */
  HAL_I2C_ER_IRQHandler(&hi2c1);
 8001100:	4802      	ldr	r0, [pc, #8]	; (800110c <I2C1_ER_IRQHandler+0x10>)
 8001102:	f002 fd38 	bl	8003b76 <HAL_I2C_ER_IRQHandler>
  /* USER CODE BEGIN I2C1_ER_IRQn 1 */

  /* USER CODE END I2C1_ER_IRQn 1 */
}
 8001106:	bf00      	nop
 8001108:	bd80      	pop	{r7, pc}
 800110a:	bf00      	nop
 800110c:	2000016c 	.word	0x2000016c

08001110 <OTG_FS_IRQHandler>:

/**
  * @brief This function handles USB On The Go FS global interrupt.
  */
void OTG_FS_IRQHandler(void)
{
 8001110:	b580      	push	{r7, lr}
 8001112:	af00      	add	r7, sp, #0
  /* USER CODE BEGIN OTG_FS_IRQn 0 */

  /* USER CODE END OTG_FS_IRQn 0 */
  HAL_HCD_IRQHandler(&hhcd_USB_OTG_FS);
 8001114:	4802      	ldr	r0, [pc, #8]	; (8001120 <OTG_FS_IRQHandler+0x10>)
 8001116:	f000 ff73 	bl	8002000 <HAL_HCD_IRQHandler>
  /* USER CODE BEGIN OTG_FS_IRQn 1 */

  /* USER CODE END OTG_FS_IRQn 1 */
}
 800111a:	bf00      	nop
 800111c:	bd80      	pop	{r7, pc}
 800111e:	bf00      	nop
 8001120:	20000714 	.word	0x20000714

08001124 <_sbrk>:
 *
 * @param incr Memory size
 * @return Pointer to allocated memory
 */
void *_sbrk(ptrdiff_t incr)
{
 8001124:	b580      	push	{r7, lr}
 8001126:	b086      	sub	sp, #24
 8001128:	af00      	add	r7, sp, #0
 800112a:	6078      	str	r0, [r7, #4]
  extern uint8_t _end; /* Symbol defined in the linker script */
  extern uint8_t _estack; /* Symbol defined in the linker script */
  extern uint32_t _Min_Stack_Size; /* Symbol defined in the linker script */
  const uint32_t stack_limit = (uint32_t)&_estack - (uint32_t)&_Min_Stack_Size;
 800112c:	4a14      	ldr	r2, [pc, #80]	; (8001180 <_sbrk+0x5c>)
 800112e:	4b15      	ldr	r3, [pc, #84]	; (8001184 <_sbrk+0x60>)
 8001130:	1ad3      	subs	r3, r2, r3
 8001132:	617b      	str	r3, [r7, #20]
  const uint8_t *max_heap = (uint8_t *)stack_limit;
 8001134:	697b      	ldr	r3, [r7, #20]
 8001136:	613b      	str	r3, [r7, #16]
  uint8_t *prev_heap_end;

  /* Initialize heap end at first call */
  if (NULL == __sbrk_heap_end)
 8001138:	4b13      	ldr	r3, [pc, #76]	; (8001188 <_sbrk+0x64>)
 800113a:	681b      	ldr	r3, [r3, #0]
 800113c:	2b00      	cmp	r3, #0
 800113e:	d102      	bne.n	8001146 <_sbrk+0x22>
  {
    __sbrk_heap_end = &_end;
 8001140:	4b11      	ldr	r3, [pc, #68]	; (8001188 <_sbrk+0x64>)
 8001142:	4a12      	ldr	r2, [pc, #72]	; (800118c <_sbrk+0x68>)
 8001144:	601a      	str	r2, [r3, #0]
  }

  /* Protect heap from growing into the reserved MSP stack */
  if (__sbrk_heap_end + incr > max_heap)
 8001146:	4b10      	ldr	r3, [pc, #64]	; (8001188 <_sbrk+0x64>)
 8001148:	681a      	ldr	r2, [r3, #0]
 800114a:	687b      	ldr	r3, [r7, #4]
 800114c:	4413      	add	r3, r2
 800114e:	693a      	ldr	r2, [r7, #16]
 8001150:	429a      	cmp	r2, r3
 8001152:	d207      	bcs.n	8001164 <_sbrk+0x40>
  {
    errno = ENOMEM;
 8001154:	f009 f97a 	bl	800a44c <__errno>
 8001158:	4603      	mov	r3, r0
 800115a:	220c      	movs	r2, #12
 800115c:	601a      	str	r2, [r3, #0]
    return (void *)-1;
 800115e:	f04f 33ff 	mov.w	r3, #4294967295
 8001162:	e009      	b.n	8001178 <_sbrk+0x54>
  }

  prev_heap_end = __sbrk_heap_end;
 8001164:	4b08      	ldr	r3, [pc, #32]	; (8001188 <_sbrk+0x64>)
 8001166:	681b      	ldr	r3, [r3, #0]
 8001168:	60fb      	str	r3, [r7, #12]
  __sbrk_heap_end += incr;
 800116a:	4b07      	ldr	r3, [pc, #28]	; (8001188 <_sbrk+0x64>)
 800116c:	681a      	ldr	r2, [r3, #0]
 800116e:	687b      	ldr	r3, [r7, #4]
 8001170:	4413      	add	r3, r2
 8001172:	4a05      	ldr	r2, [pc, #20]	; (8001188 <_sbrk+0x64>)
 8001174:	6013      	str	r3, [r2, #0]

  return (void *)prev_heap_end;
 8001176:	68fb      	ldr	r3, [r7, #12]
}
 8001178:	4618      	mov	r0, r3
 800117a:	3718      	adds	r7, #24
 800117c:	46bd      	mov	sp, r7
 800117e:	bd80      	pop	{r7, pc}
 8001180:	20020000 	.word	0x20020000
 8001184:	00000400 	.word	0x00000400
 8001188:	2000015c 	.word	0x2000015c
 800118c:	20000a28 	.word	0x20000a28

08001190 <SystemInit>:
  *         configuration.
  * @param  None
  * @retval None
  */
void SystemInit(void)
{
 8001190:	b480      	push	{r7}
 8001192:	af00      	add	r7, sp, #0
  /* FPU settings ------------------------------------------------------------*/
  #if (__FPU_PRESENT == 1) && (__FPU_USED == 1)
    SCB->CPACR |= ((3UL << 10*2)|(3UL << 11*2));  /* set CP10 and CP11 Full Access */
 8001194:	4b06      	ldr	r3, [pc, #24]	; (80011b0 <SystemInit+0x20>)
 8001196:	f8d3 3088 	ldr.w	r3, [r3, #136]	; 0x88
 800119a:	4a05      	ldr	r2, [pc, #20]	; (80011b0 <SystemInit+0x20>)
 800119c:	f443 0370 	orr.w	r3, r3, #15728640	; 0xf00000
 80011a0:	f8c2 3088 	str.w	r3, [r2, #136]	; 0x88

  /* Configure the Vector Table location -------------------------------------*/
#if defined(USER_VECT_TAB_ADDRESS)
  SCB->VTOR = VECT_TAB_BASE_ADDRESS | VECT_TAB_OFFSET; /* Vector Table Relocation in Internal SRAM */
#endif /* USER_VECT_TAB_ADDRESS */
}
 80011a4:	bf00      	nop
 80011a6:	46bd      	mov	sp, r7
 80011a8:	f85d 7b04 	ldr.w	r7, [sp], #4
 80011ac:	4770      	bx	lr
 80011ae:	bf00      	nop
 80011b0:	e000ed00 	.word	0xe000ed00

080011b4 <MX_TIM2_Init>:
TIM_HandleTypeDef htim2;
TIM_HandleTypeDef htim3;

/* TIM2 init function */
void MX_TIM2_Init(void)
{
 80011b4:	b580      	push	{r7, lr}
 80011b6:	b086      	sub	sp, #24
 80011b8:	af00      	add	r7, sp, #0

  /* USER CODE BEGIN TIM2_Init 0 */

  /* USER CODE END TIM2_Init 0 */

  TIM_ClockConfigTypeDef sClockSourceConfig = {0};
 80011ba:	f107 0308 	add.w	r3, r7, #8
 80011be:	2200      	movs	r2, #0
 80011c0:	601a      	str	r2, [r3, #0]
 80011c2:	605a      	str	r2, [r3, #4]
 80011c4:	609a      	str	r2, [r3, #8]
 80011c6:	60da      	str	r2, [r3, #12]
  TIM_MasterConfigTypeDef sMasterConfig = {0};
 80011c8:	463b      	mov	r3, r7
 80011ca:	2200      	movs	r2, #0
 80011cc:	601a      	str	r2, [r3, #0]
 80011ce:	605a      	str	r2, [r3, #4]

  /* USER CODE BEGIN TIM2_Init 1 */

  /* USER CODE END TIM2_Init 1 */
  htim2.Instance = TIM2;
 80011d0:	4b1d      	ldr	r3, [pc, #116]	; (8001248 <MX_TIM2_Init+0x94>)
 80011d2:	f04f 4280 	mov.w	r2, #1073741824	; 0x40000000
 80011d6:	601a      	str	r2, [r3, #0]
  htim2.Init.Prescaler = 47999;
 80011d8:	4b1b      	ldr	r3, [pc, #108]	; (8001248 <MX_TIM2_Init+0x94>)
 80011da:	f64b 327f 	movw	r2, #47999	; 0xbb7f
 80011de:	605a      	str	r2, [r3, #4]
  htim2.Init.CounterMode = TIM_COUNTERMODE_UP;
 80011e0:	4b19      	ldr	r3, [pc, #100]	; (8001248 <MX_TIM2_Init+0x94>)
 80011e2:	2200      	movs	r2, #0
 80011e4:	609a      	str	r2, [r3, #8]
  htim2.Init.Period = 9;
 80011e6:	4b18      	ldr	r3, [pc, #96]	; (8001248 <MX_TIM2_Init+0x94>)
 80011e8:	2209      	movs	r2, #9
 80011ea:	60da      	str	r2, [r3, #12]
  htim2.Init.ClockDivision = TIM_CLOCKDIVISION_DIV1;
 80011ec:	4b16      	ldr	r3, [pc, #88]	; (8001248 <MX_TIM2_Init+0x94>)
 80011ee:	2200      	movs	r2, #0
 80011f0:	611a      	str	r2, [r3, #16]
  htim2.Init.AutoReloadPreload = TIM_AUTORELOAD_PRELOAD_DISABLE;
 80011f2:	4b15      	ldr	r3, [pc, #84]	; (8001248 <MX_TIM2_Init+0x94>)
 80011f4:	2200      	movs	r2, #0
 80011f6:	619a      	str	r2, [r3, #24]
  if (HAL_TIM_Base_Init(&htim2) != HAL_OK)
 80011f8:	4813      	ldr	r0, [pc, #76]	; (8001248 <MX_TIM2_Init+0x94>)
 80011fa:	f005 faf6 	bl	80067ea <HAL_TIM_Base_Init>
 80011fe:	4603      	mov	r3, r0
 8001200:	2b00      	cmp	r3, #0
 8001202:	d001      	beq.n	8001208 <MX_TIM2_Init+0x54>
  {
    Error_Handler();
 8001204:	f7ff fe72 	bl	8000eec <Error_Handler>
  }
  sClockSourceConfig.ClockSource = TIM_CLOCKSOURCE_INTERNAL;
 8001208:	f44f 5380 	mov.w	r3, #4096	; 0x1000
 800120c:	60bb      	str	r3, [r7, #8]
  if (HAL_TIM_ConfigClockSource(&htim2, &sClockSourceConfig) != HAL_OK)
 800120e:	f107 0308 	add.w	r3, r7, #8
 8001212:	4619      	mov	r1, r3
 8001214:	480c      	ldr	r0, [pc, #48]	; (8001248 <MX_TIM2_Init+0x94>)
 8001216:	f005 fcd0 	bl	8006bba <HAL_TIM_ConfigClockSource>
 800121a:	4603      	mov	r3, r0
 800121c:	2b00      	cmp	r3, #0
 800121e:	d001      	beq.n	8001224 <MX_TIM2_Init+0x70>
  {
    Error_Handler();
 8001220:	f7ff fe64 	bl	8000eec <Error_Handler>
  }
  sMasterConfig.MasterOutputTrigger = TIM_TRGO_UPDATE;
 8001224:	2320      	movs	r3, #32
 8001226:	603b      	str	r3, [r7, #0]
  sMasterConfig.MasterSlaveMode = TIM_MASTERSLAVEMODE_DISABLE;
 8001228:	2300      	movs	r3, #0
 800122a:	607b      	str	r3, [r7, #4]
  if (HAL_TIMEx_MasterConfigSynchronization(&htim2, &sMasterConfig) != HAL_OK)
 800122c:	463b      	mov	r3, r7
 800122e:	4619      	mov	r1, r3
 8001230:	4805      	ldr	r0, [pc, #20]	; (8001248 <MX_TIM2_Init+0x94>)
 8001232:	f005 fed5 	bl	8006fe0 <HAL_TIMEx_MasterConfigSynchronization>
 8001236:	4603      	mov	r3, r0
 8001238:	2b00      	cmp	r3, #0
 800123a:	d001      	beq.n	8001240 <MX_TIM2_Init+0x8c>
  {
    Error_Handler();
 800123c:	f7ff fe56 	bl	8000eec <Error_Handler>
  }
  /* USER CODE BEGIN TIM2_Init 2 */

  /* USER CODE END TIM2_Init 2 */

}
 8001240:	bf00      	nop
 8001242:	3718      	adds	r7, #24
 8001244:	46bd      	mov	sp, r7
 8001246:	bd80      	pop	{r7, pc}
 8001248:	200002f0 	.word	0x200002f0

0800124c <MX_TIM3_Init>:
/* TIM3 init function */
void MX_TIM3_Init(void)
{
 800124c:	b580      	push	{r7, lr}
 800124e:	b086      	sub	sp, #24
 8001250:	af00      	add	r7, sp, #0

  /* USER CODE BEGIN TIM3_Init 0 */

  /* USER CODE END TIM3_Init 0 */

  TIM_ClockConfigTypeDef sClockSourceConfig = {0};
 8001252:	f107 0308 	add.w	r3, r7, #8
 8001256:	2200      	movs	r2, #0
 8001258:	601a      	str	r2, [r3, #0]
 800125a:	605a      	str	r2, [r3, #4]
 800125c:	609a      	str	r2, [r3, #8]
 800125e:	60da      	str	r2, [r3, #12]
  TIM_MasterConfigTypeDef sMasterConfig = {0};
 8001260:	463b      	mov	r3, r7
 8001262:	2200      	movs	r2, #0
 8001264:	601a      	str	r2, [r3, #0]
 8001266:	605a      	str	r2, [r3, #4]

  /* USER CODE BEGIN TIM3_Init 1 */

  /* USER CODE END TIM3_Init 1 */
  htim3.Instance = TIM3;
 8001268:	4b1d      	ldr	r3, [pc, #116]	; (80012e0 <MX_TIM3_Init+0x94>)
 800126a:	4a1e      	ldr	r2, [pc, #120]	; (80012e4 <MX_TIM3_Init+0x98>)
 800126c:	601a      	str	r2, [r3, #0]
  htim3.Init.Prescaler = 47999;
 800126e:	4b1c      	ldr	r3, [pc, #112]	; (80012e0 <MX_TIM3_Init+0x94>)
 8001270:	f64b 327f 	movw	r2, #47999	; 0xbb7f
 8001274:	605a      	str	r2, [r3, #4]
  htim3.Init.CounterMode = TIM_COUNTERMODE_UP;
 8001276:	4b1a      	ldr	r3, [pc, #104]	; (80012e0 <MX_TIM3_Init+0x94>)
 8001278:	2200      	movs	r2, #0
 800127a:	609a      	str	r2, [r3, #8]
  htim3.Init.Period = 9;
 800127c:	4b18      	ldr	r3, [pc, #96]	; (80012e0 <MX_TIM3_Init+0x94>)
 800127e:	2209      	movs	r2, #9
 8001280:	60da      	str	r2, [r3, #12]
  htim3.Init.ClockDivision = TIM_CLOCKDIVISION_DIV1;
 8001282:	4b17      	ldr	r3, [pc, #92]	; (80012e0 <MX_TIM3_Init+0x94>)
 8001284:	2200      	movs	r2, #0
 8001286:	611a      	str	r2, [r3, #16]
  htim3.Init.AutoReloadPreload = TIM_AUTORELOAD_PRELOAD_DISABLE;
 8001288:	4b15      	ldr	r3, [pc, #84]	; (80012e0 <MX_TIM3_Init+0x94>)
 800128a:	2200      	movs	r2, #0
 800128c:	619a      	str	r2, [r3, #24]
  if (HAL_TIM_Base_Init(&htim3) != HAL_OK)
 800128e:	4814      	ldr	r0, [pc, #80]	; (80012e0 <MX_TIM3_Init+0x94>)
 8001290:	f005 faab 	bl	80067ea <HAL_TIM_Base_Init>
 8001294:	4603      	mov	r3, r0
 8001296:	2b00      	cmp	r3, #0
 8001298:	d001      	beq.n	800129e <MX_TIM3_Init+0x52>
  {
    Error_Handler();
 800129a:	f7ff fe27 	bl	8000eec <Error_Handler>
  }
  sClockSourceConfig.ClockSource = TIM_CLOCKSOURCE_INTERNAL;
 800129e:	f44f 5380 	mov.w	r3, #4096	; 0x1000
 80012a2:	60bb      	str	r3, [r7, #8]
  if (HAL_TIM_ConfigClockSource(&htim3, &sClockSourceConfig) != HAL_OK)
 80012a4:	f107 0308 	add.w	r3, r7, #8
 80012a8:	4619      	mov	r1, r3
 80012aa:	480d      	ldr	r0, [pc, #52]	; (80012e0 <MX_TIM3_Init+0x94>)
 80012ac:	f005 fc85 	bl	8006bba <HAL_TIM_ConfigClockSource>
 80012b0:	4603      	mov	r3, r0
 80012b2:	2b00      	cmp	r3, #0
 80012b4:	d001      	beq.n	80012ba <MX_TIM3_Init+0x6e>
  {
    Error_Handler();
 80012b6:	f7ff fe19 	bl	8000eec <Error_Handler>
  }
  sMasterConfig.MasterOutputTrigger = TIM_TRGO_RESET;
 80012ba:	2300      	movs	r3, #0
 80012bc:	603b      	str	r3, [r7, #0]
  sMasterConfig.MasterSlaveMode = TIM_MASTERSLAVEMODE_DISABLE;
 80012be:	2300      	movs	r3, #0
 80012c0:	607b      	str	r3, [r7, #4]
  if (HAL_TIMEx_MasterConfigSynchronization(&htim3, &sMasterConfig) != HAL_OK)
 80012c2:	463b      	mov	r3, r7
 80012c4:	4619      	mov	r1, r3
 80012c6:	4806      	ldr	r0, [pc, #24]	; (80012e0 <MX_TIM3_Init+0x94>)
 80012c8:	f005 fe8a 	bl	8006fe0 <HAL_TIMEx_MasterConfigSynchronization>
 80012cc:	4603      	mov	r3, r0
 80012ce:	2b00      	cmp	r3, #0
 80012d0:	d001      	beq.n	80012d6 <MX_TIM3_Init+0x8a>
  {
    Error_Handler();
 80012d2:	f7ff fe0b 	bl	8000eec <Error_Handler>
  }
  /* USER CODE BEGIN TIM3_Init 2 */

  /* USER CODE END TIM3_Init 2 */

}
 80012d6:	bf00      	nop
 80012d8:	3718      	adds	r7, #24
 80012da:	46bd      	mov	sp, r7
 80012dc:	bd80      	pop	{r7, pc}
 80012de:	bf00      	nop
 80012e0:	200002a8 	.word	0x200002a8
 80012e4:	40000400 	.word	0x40000400

080012e8 <HAL_TIM_Base_MspInit>:

void HAL_TIM_Base_MspInit(TIM_HandleTypeDef* tim_baseHandle)
{
 80012e8:	b580      	push	{r7, lr}
 80012ea:	b084      	sub	sp, #16
 80012ec:	af00      	add	r7, sp, #0
 80012ee:	6078      	str	r0, [r7, #4]

  if(tim_baseHandle->Instance==TIM2)
 80012f0:	687b      	ldr	r3, [r7, #4]
 80012f2:	681b      	ldr	r3, [r3, #0]
 80012f4:	f1b3 4f80 	cmp.w	r3, #1073741824	; 0x40000000
 80012f8:	d116      	bne.n	8001328 <HAL_TIM_Base_MspInit+0x40>
  {
  /* USER CODE BEGIN TIM2_MspInit 0 */

  /* USER CODE END TIM2_MspInit 0 */
    /* TIM2 clock enable */
    __HAL_RCC_TIM2_CLK_ENABLE();
 80012fa:	2300      	movs	r3, #0
 80012fc:	60fb      	str	r3, [r7, #12]
 80012fe:	4b1a      	ldr	r3, [pc, #104]	; (8001368 <HAL_TIM_Base_MspInit+0x80>)
 8001300:	6c1b      	ldr	r3, [r3, #64]	; 0x40
 8001302:	4a19      	ldr	r2, [pc, #100]	; (8001368 <HAL_TIM_Base_MspInit+0x80>)
 8001304:	f043 0301 	orr.w	r3, r3, #1
 8001308:	6413      	str	r3, [r2, #64]	; 0x40
 800130a:	4b17      	ldr	r3, [pc, #92]	; (8001368 <HAL_TIM_Base_MspInit+0x80>)
 800130c:	6c1b      	ldr	r3, [r3, #64]	; 0x40
 800130e:	f003 0301 	and.w	r3, r3, #1
 8001312:	60fb      	str	r3, [r7, #12]
 8001314:	68fb      	ldr	r3, [r7, #12]

    /* TIM2 interrupt Init */
    HAL_NVIC_SetPriority(TIM2_IRQn, 0, 1);
 8001316:	2201      	movs	r2, #1
 8001318:	2100      	movs	r1, #0
 800131a:	201c      	movs	r0, #28
 800131c:	f000 f9c3 	bl	80016a6 <HAL_NVIC_SetPriority>
    HAL_NVIC_EnableIRQ(TIM2_IRQn);
 8001320:	201c      	movs	r0, #28
 8001322:	f000 f9dc 	bl	80016de <HAL_NVIC_EnableIRQ>
    HAL_NVIC_EnableIRQ(TIM3_IRQn);
  /* USER CODE BEGIN TIM3_MspInit 1 */

  /* USER CODE END TIM3_MspInit 1 */
  }
}
 8001326:	e01a      	b.n	800135e <HAL_TIM_Base_MspInit+0x76>
  else if(tim_baseHandle->Instance==TIM3)
 8001328:	687b      	ldr	r3, [r7, #4]
 800132a:	681b      	ldr	r3, [r3, #0]
 800132c:	4a0f      	ldr	r2, [pc, #60]	; (800136c <HAL_TIM_Base_MspInit+0x84>)
 800132e:	4293      	cmp	r3, r2
 8001330:	d115      	bne.n	800135e <HAL_TIM_Base_MspInit+0x76>
    __HAL_RCC_TIM3_CLK_ENABLE();
 8001332:	2300      	movs	r3, #0
 8001334:	60bb      	str	r3, [r7, #8]
 8001336:	4b0c      	ldr	r3, [pc, #48]	; (8001368 <HAL_TIM_Base_MspInit+0x80>)
 8001338:	6c1b      	ldr	r3, [r3, #64]	; 0x40
 800133a:	4a0b      	ldr	r2, [pc, #44]	; (8001368 <HAL_TIM_Base_MspInit+0x80>)
 800133c:	f043 0302 	orr.w	r3, r3, #2
 8001340:	6413      	str	r3, [r2, #64]	; 0x40
 8001342:	4b09      	ldr	r3, [pc, #36]	; (8001368 <HAL_TIM_Base_MspInit+0x80>)
 8001344:	6c1b      	ldr	r3, [r3, #64]	; 0x40
 8001346:	f003 0302 	and.w	r3, r3, #2
 800134a:	60bb      	str	r3, [r7, #8]
 800134c:	68bb      	ldr	r3, [r7, #8]
    HAL_NVIC_SetPriority(TIM3_IRQn, 0, 0);
 800134e:	2200      	movs	r2, #0
 8001350:	2100      	movs	r1, #0
 8001352:	201d      	movs	r0, #29
 8001354:	f000 f9a7 	bl	80016a6 <HAL_NVIC_SetPriority>
    HAL_NVIC_EnableIRQ(TIM3_IRQn);
 8001358:	201d      	movs	r0, #29
 800135a:	f000 f9c0 	bl	80016de <HAL_NVIC_EnableIRQ>
}
 800135e:	bf00      	nop
 8001360:	3710      	adds	r7, #16
 8001362:	46bd      	mov	sp, r7
 8001364:	bd80      	pop	{r7, pc}
 8001366:	bf00      	nop
 8001368:	40023800 	.word	0x40023800
 800136c:	40000400 	.word	0x40000400

08001370 <Reset_Handler>:

    .section  .text.Reset_Handler
  .weak  Reset_Handler
  .type  Reset_Handler, %function
Reset_Handler:  
  ldr   sp, =_estack    		 /* set stack pointer */
 8001370:	f8df d034 	ldr.w	sp, [pc, #52]	; 80013a8 <LoopFillZerobss+0x12>

/* Copy the data segment initializers from flash to SRAM */  
  ldr r0, =_sdata
 8001374:	480d      	ldr	r0, [pc, #52]	; (80013ac <LoopFillZerobss+0x16>)
  ldr r1, =_edata
 8001376:	490e      	ldr	r1, [pc, #56]	; (80013b0 <LoopFillZerobss+0x1a>)
  ldr r2, =_sidata
 8001378:	4a0e      	ldr	r2, [pc, #56]	; (80013b4 <LoopFillZerobss+0x1e>)
  movs r3, #0
 800137a:	2300      	movs	r3, #0
  b LoopCopyDataInit
 800137c:	e002      	b.n	8001384 <LoopCopyDataInit>

0800137e <CopyDataInit>:

CopyDataInit:
  ldr r4, [r2, r3]
 800137e:	58d4      	ldr	r4, [r2, r3]
  str r4, [r0, r3]
 8001380:	50c4      	str	r4, [r0, r3]
  adds r3, r3, #4
 8001382:	3304      	adds	r3, #4

08001384 <LoopCopyDataInit>:

LoopCopyDataInit:
  adds r4, r0, r3
 8001384:	18c4      	adds	r4, r0, r3
  cmp r4, r1
 8001386:	428c      	cmp	r4, r1
  bcc CopyDataInit
 8001388:	d3f9      	bcc.n	800137e <CopyDataInit>
  
/* Zero fill the bss segment. */
  ldr r2, =_sbss
 800138a:	4a0b      	ldr	r2, [pc, #44]	; (80013b8 <LoopFillZerobss+0x22>)
  ldr r4, =_ebss
 800138c:	4c0b      	ldr	r4, [pc, #44]	; (80013bc <LoopFillZerobss+0x26>)
  movs r3, #0
 800138e:	2300      	movs	r3, #0
  b LoopFillZerobss
 8001390:	e001      	b.n	8001396 <LoopFillZerobss>

08001392 <FillZerobss>:

FillZerobss:
  str  r3, [r2]
 8001392:	6013      	str	r3, [r2, #0]
  adds r2, r2, #4
 8001394:	3204      	adds	r2, #4

08001396 <LoopFillZerobss>:

LoopFillZerobss:
  cmp r2, r4
 8001396:	42a2      	cmp	r2, r4
  bcc FillZerobss
 8001398:	d3fb      	bcc.n	8001392 <FillZerobss>

/* Call the clock system intitialization function.*/
  bl  SystemInit   
 800139a:	f7ff fef9 	bl	8001190 <SystemInit>
/* Call static constructors */
    bl __libc_init_array
 800139e:	f009 f85b 	bl	800a458 <__libc_init_array>
/* Call the application's entry point.*/
  bl  main
 80013a2:	f7ff fced 	bl	8000d80 <main>
  bx  lr    
 80013a6:	4770      	bx	lr
  ldr   sp, =_estack    		 /* set stack pointer */
 80013a8:	20020000 	.word	0x20020000
  ldr r0, =_sdata
 80013ac:	20000000 	.word	0x20000000
  ldr r1, =_edata
 80013b0:	20000130 	.word	0x20000130
  ldr r2, =_sidata
 80013b4:	0800a6a4 	.word	0x0800a6a4
  ldr r2, =_sbss
 80013b8:	20000130 	.word	0x20000130
  ldr r4, =_ebss
 80013bc:	20000a28 	.word	0x20000a28

080013c0 <ADC_IRQHandler>:
 * @retval None       
*/
    .section  .text.Default_Handler,"ax",%progbits
Default_Handler:
Infinite_Loop:
  b  Infinite_Loop
 80013c0:	e7fe      	b.n	80013c0 <ADC_IRQHandler>
	...

080013c4 <HAL_Init>:
  *         need to ensure that the SysTick time base is always set to 1 millisecond
  *         to have correct HAL operation.
  * @retval HAL status
  */
HAL_StatusTypeDef HAL_Init(void)
{
 80013c4:	b580      	push	{r7, lr}
 80013c6:	af00      	add	r7, sp, #0
  /* Configure Flash prefetch, Instruction cache, Data cache */ 
#if (INSTRUCTION_CACHE_ENABLE != 0U)
  __HAL_FLASH_INSTRUCTION_CACHE_ENABLE();
 80013c8:	4b0e      	ldr	r3, [pc, #56]	; (8001404 <HAL_Init+0x40>)
 80013ca:	681b      	ldr	r3, [r3, #0]
 80013cc:	4a0d      	ldr	r2, [pc, #52]	; (8001404 <HAL_Init+0x40>)
 80013ce:	f443 7300 	orr.w	r3, r3, #512	; 0x200
 80013d2:	6013      	str	r3, [r2, #0]
#endif /* INSTRUCTION_CACHE_ENABLE */

#if (DATA_CACHE_ENABLE != 0U)
  __HAL_FLASH_DATA_CACHE_ENABLE();
 80013d4:	4b0b      	ldr	r3, [pc, #44]	; (8001404 <HAL_Init+0x40>)
 80013d6:	681b      	ldr	r3, [r3, #0]
 80013d8:	4a0a      	ldr	r2, [pc, #40]	; (8001404 <HAL_Init+0x40>)
 80013da:	f443 6380 	orr.w	r3, r3, #1024	; 0x400
 80013de:	6013      	str	r3, [r2, #0]
#endif /* DATA_CACHE_ENABLE */

#if (PREFETCH_ENABLE != 0U)
  __HAL_FLASH_PREFETCH_BUFFER_ENABLE();
 80013e0:	4b08      	ldr	r3, [pc, #32]	; (8001404 <HAL_Init+0x40>)
 80013e2:	681b      	ldr	r3, [r3, #0]
 80013e4:	4a07      	ldr	r2, [pc, #28]	; (8001404 <HAL_Init+0x40>)
 80013e6:	f443 7380 	orr.w	r3, r3, #256	; 0x100
 80013ea:	6013      	str	r3, [r2, #0]
#endif /* PREFETCH_ENABLE */

  /* Set Interrupt Group Priority */
  HAL_NVIC_SetPriorityGrouping(NVIC_PRIORITYGROUP_4);
 80013ec:	2003      	movs	r0, #3
 80013ee:	f000 f94f 	bl	8001690 <HAL_NVIC_SetPriorityGrouping>

  /* Use systick as time base source and configure 1ms tick (default clock after Reset is HSI) */
  HAL_InitTick(TICK_INT_PRIORITY);
 80013f2:	2000      	movs	r0, #0
 80013f4:	f000 f808 	bl	8001408 <HAL_InitTick>

  /* Init the low level hardware */
  HAL_MspInit();
 80013f8:	f7ff fdfc 	bl	8000ff4 <HAL_MspInit>

  /* Return function status */
  return HAL_OK;
 80013fc:	2300      	movs	r3, #0
}
 80013fe:	4618      	mov	r0, r3
 8001400:	bd80      	pop	{r7, pc}
 8001402:	bf00      	nop
 8001404:	40023c00 	.word	0x40023c00

08001408 <HAL_InitTick>:
  *       implementation  in user file.
  * @param TickPriority Tick interrupt priority.
  * @retval HAL status
  */
__weak HAL_StatusTypeDef HAL_InitTick(uint32_t TickPriority)
{
 8001408:	b580      	push	{r7, lr}
 800140a:	b082      	sub	sp, #8
 800140c:	af00      	add	r7, sp, #0
 800140e:	6078      	str	r0, [r7, #4]
  /* Configure the SysTick to have interrupt in 1ms time basis*/
  if (HAL_SYSTICK_Config(SystemCoreClock / (1000U / uwTickFreq)) > 0U)
 8001410:	4b12      	ldr	r3, [pc, #72]	; (800145c <HAL_InitTick+0x54>)
 8001412:	681a      	ldr	r2, [r3, #0]
 8001414:	4b12      	ldr	r3, [pc, #72]	; (8001460 <HAL_InitTick+0x58>)
 8001416:	781b      	ldrb	r3, [r3, #0]
 8001418:	4619      	mov	r1, r3
 800141a:	f44f 737a 	mov.w	r3, #1000	; 0x3e8
 800141e:	fbb3 f3f1 	udiv	r3, r3, r1
 8001422:	fbb2 f3f3 	udiv	r3, r2, r3
 8001426:	4618      	mov	r0, r3
 8001428:	f000 f967 	bl	80016fa <HAL_SYSTICK_Config>
 800142c:	4603      	mov	r3, r0
 800142e:	2b00      	cmp	r3, #0
 8001430:	d001      	beq.n	8001436 <HAL_InitTick+0x2e>
  {
    return HAL_ERROR;
 8001432:	2301      	movs	r3, #1
 8001434:	e00e      	b.n	8001454 <HAL_InitTick+0x4c>
  }

  /* Configure the SysTick IRQ priority */
  if (TickPriority < (1UL << __NVIC_PRIO_BITS))
 8001436:	687b      	ldr	r3, [r7, #4]
 8001438:	2b0f      	cmp	r3, #15
 800143a:	d80a      	bhi.n	8001452 <HAL_InitTick+0x4a>
  {
    HAL_NVIC_SetPriority(SysTick_IRQn, TickPriority, 0U);
 800143c:	2200      	movs	r2, #0
 800143e:	6879      	ldr	r1, [r7, #4]
 8001440:	f04f 30ff 	mov.w	r0, #4294967295
 8001444:	f000 f92f 	bl	80016a6 <HAL_NVIC_SetPriority>
    uwTickPrio = TickPriority;
 8001448:	4a06      	ldr	r2, [pc, #24]	; (8001464 <HAL_InitTick+0x5c>)
 800144a:	687b      	ldr	r3, [r7, #4]
 800144c:	6013      	str	r3, [r2, #0]
  {
    return HAL_ERROR;
  }

  /* Return function status */
  return HAL_OK;
 800144e:	2300      	movs	r3, #0
 8001450:	e000      	b.n	8001454 <HAL_InitTick+0x4c>
    return HAL_ERROR;
 8001452:	2301      	movs	r3, #1
}
 8001454:	4618      	mov	r0, r3
 8001456:	3708      	adds	r7, #8
 8001458:	46bd      	mov	sp, r7
 800145a:	bd80      	pop	{r7, pc}
 800145c:	200000a0 	.word	0x200000a0
 8001460:	200000a8 	.word	0x200000a8
 8001464:	200000a4 	.word	0x200000a4

08001468 <HAL_IncTick>:
 * @note This function is declared as __weak to be overwritten in case of other 
  *      implementations in user file.
  * @retval None
  */
__weak void HAL_IncTick(void)
{
 8001468:	b480      	push	{r7}
 800146a:	af00      	add	r7, sp, #0
  uwTick += uwTickFreq;
 800146c:	4b06      	ldr	r3, [pc, #24]	; (8001488 <HAL_IncTick+0x20>)
 800146e:	781b      	ldrb	r3, [r3, #0]
 8001470:	461a      	mov	r2, r3
 8001472:	4b06      	ldr	r3, [pc, #24]	; (800148c <HAL_IncTick+0x24>)
 8001474:	681b      	ldr	r3, [r3, #0]
 8001476:	4413      	add	r3, r2
 8001478:	4a04      	ldr	r2, [pc, #16]	; (800148c <HAL_IncTick+0x24>)
 800147a:	6013      	str	r3, [r2, #0]
}
 800147c:	bf00      	nop
 800147e:	46bd      	mov	sp, r7
 8001480:	f85d 7b04 	ldr.w	r7, [sp], #4
 8001484:	4770      	bx	lr
 8001486:	bf00      	nop
 8001488:	200000a8 	.word	0x200000a8
 800148c:	20000338 	.word	0x20000338

08001490 <HAL_GetTick>:
  * @note This function is declared as __weak to be overwritten in case of other 
  *       implementations in user file.
  * @retval tick value
  */
__weak uint32_t HAL_GetTick(void)
{
 8001490:	b480      	push	{r7}
 8001492:	af00      	add	r7, sp, #0
  return uwTick;
 8001494:	4b03      	ldr	r3, [pc, #12]	; (80014a4 <HAL_GetTick+0x14>)
 8001496:	681b      	ldr	r3, [r3, #0]
}
 8001498:	4618      	mov	r0, r3
 800149a:	46bd      	mov	sp, r7
 800149c:	f85d 7b04 	ldr.w	r7, [sp], #4
 80014a0:	4770      	bx	lr
 80014a2:	bf00      	nop
 80014a4:	20000338 	.word	0x20000338

080014a8 <HAL_Delay>:
  *       implementations in user file.
  * @param Delay specifies the delay time length, in milliseconds.
  * @retval None
  */
__weak void HAL_Delay(uint32_t Delay)
{
 80014a8:	b580      	push	{r7, lr}
 80014aa:	b084      	sub	sp, #16
 80014ac:	af00      	add	r7, sp, #0
 80014ae:	6078      	str	r0, [r7, #4]
  uint32_t tickstart = HAL_GetTick();
 80014b0:	f7ff ffee 	bl	8001490 <HAL_GetTick>
 80014b4:	60b8      	str	r0, [r7, #8]
  uint32_t wait = Delay;
 80014b6:	687b      	ldr	r3, [r7, #4]
 80014b8:	60fb      	str	r3, [r7, #12]

  /* Add a freq to guarantee minimum wait */
  if (wait < HAL_MAX_DELAY)
 80014ba:	68fb      	ldr	r3, [r7, #12]
 80014bc:	f1b3 3fff 	cmp.w	r3, #4294967295
 80014c0:	d005      	beq.n	80014ce <HAL_Delay+0x26>
  {
    wait += (uint32_t)(uwTickFreq);
 80014c2:	4b0a      	ldr	r3, [pc, #40]	; (80014ec <HAL_Delay+0x44>)
 80014c4:	781b      	ldrb	r3, [r3, #0]
 80014c6:	461a      	mov	r2, r3
 80014c8:	68fb      	ldr	r3, [r7, #12]
 80014ca:	4413      	add	r3, r2
 80014cc:	60fb      	str	r3, [r7, #12]
  }

  while((HAL_GetTick() - tickstart) < wait)
 80014ce:	bf00      	nop
 80014d0:	f7ff ffde 	bl	8001490 <HAL_GetTick>
 80014d4:	4602      	mov	r2, r0
 80014d6:	68bb      	ldr	r3, [r7, #8]
 80014d8:	1ad3      	subs	r3, r2, r3
 80014da:	68fa      	ldr	r2, [r7, #12]
 80014dc:	429a      	cmp	r2, r3
 80014de:	d8f7      	bhi.n	80014d0 <HAL_Delay+0x28>
  {
  }
}
 80014e0:	bf00      	nop
 80014e2:	bf00      	nop
 80014e4:	3710      	adds	r7, #16
 80014e6:	46bd      	mov	sp, r7
 80014e8:	bd80      	pop	{r7, pc}
 80014ea:	bf00      	nop
 80014ec:	200000a8 	.word	0x200000a8

080014f0 <__NVIC_SetPriorityGrouping>:
           In case of a conflict between priority grouping and available
           priority bits (__NVIC_PRIO_BITS), the smallest possible priority group is set.
  \param [in]      PriorityGroup  Priority grouping field.
 */
__STATIC_INLINE void __NVIC_SetPriorityGrouping(uint32_t PriorityGroup)
{
 80014f0:	b480      	push	{r7}
 80014f2:	b085      	sub	sp, #20
 80014f4:	af00      	add	r7, sp, #0
 80014f6:	6078      	str	r0, [r7, #4]
  uint32_t reg_value;
  uint32_t PriorityGroupTmp = (PriorityGroup & (uint32_t)0x07UL);             /* only values 0..7 are used          */
 80014f8:	687b      	ldr	r3, [r7, #4]
 80014fa:	f003 0307 	and.w	r3, r3, #7
 80014fe:	60fb      	str	r3, [r7, #12]

  reg_value  =  SCB->AIRCR;                                                   /* read old register configuration    */
 8001500:	4b0c      	ldr	r3, [pc, #48]	; (8001534 <__NVIC_SetPriorityGrouping+0x44>)
 8001502:	68db      	ldr	r3, [r3, #12]
 8001504:	60bb      	str	r3, [r7, #8]
  reg_value &= ~((uint32_t)(SCB_AIRCR_VECTKEY_Msk | SCB_AIRCR_PRIGROUP_Msk)); /* clear bits to change               */
 8001506:	68ba      	ldr	r2, [r7, #8]
 8001508:	f64f 03ff 	movw	r3, #63743	; 0xf8ff
 800150c:	4013      	ands	r3, r2
 800150e:	60bb      	str	r3, [r7, #8]
  reg_value  =  (reg_value                                   |
                ((uint32_t)0x5FAUL << SCB_AIRCR_VECTKEY_Pos) |
                (PriorityGroupTmp << SCB_AIRCR_PRIGROUP_Pos)  );              /* Insert write key and priority group */
 8001510:	68fb      	ldr	r3, [r7, #12]
 8001512:	021a      	lsls	r2, r3, #8
                ((uint32_t)0x5FAUL << SCB_AIRCR_VECTKEY_Pos) |
 8001514:	68bb      	ldr	r3, [r7, #8]
 8001516:	4313      	orrs	r3, r2
  reg_value  =  (reg_value                                   |
 8001518:	f043 63bf 	orr.w	r3, r3, #100139008	; 0x5f80000
 800151c:	f443 3300 	orr.w	r3, r3, #131072	; 0x20000
 8001520:	60bb      	str	r3, [r7, #8]
  SCB->AIRCR =  reg_value;
 8001522:	4a04      	ldr	r2, [pc, #16]	; (8001534 <__NVIC_SetPriorityGrouping+0x44>)
 8001524:	68bb      	ldr	r3, [r7, #8]
 8001526:	60d3      	str	r3, [r2, #12]
}
 8001528:	bf00      	nop
 800152a:	3714      	adds	r7, #20
 800152c:	46bd      	mov	sp, r7
 800152e:	f85d 7b04 	ldr.w	r7, [sp], #4
 8001532:	4770      	bx	lr
 8001534:	e000ed00 	.word	0xe000ed00

08001538 <__NVIC_GetPriorityGrouping>:
  \brief   Get Priority Grouping
  \details Reads the priority grouping field from the NVIC Interrupt Controller.
  \return                Priority grouping field (SCB->AIRCR [10:8] PRIGROUP field).
 */
__STATIC_INLINE uint32_t __NVIC_GetPriorityGrouping(void)
{
 8001538:	b480      	push	{r7}
 800153a:	af00      	add	r7, sp, #0
  return ((uint32_t)((SCB->AIRCR & SCB_AIRCR_PRIGROUP_Msk) >> SCB_AIRCR_PRIGROUP_Pos));
 800153c:	4b04      	ldr	r3, [pc, #16]	; (8001550 <__NVIC_GetPriorityGrouping+0x18>)
 800153e:	68db      	ldr	r3, [r3, #12]
 8001540:	0a1b      	lsrs	r3, r3, #8
 8001542:	f003 0307 	and.w	r3, r3, #7
}
 8001546:	4618      	mov	r0, r3
 8001548:	46bd      	mov	sp, r7
 800154a:	f85d 7b04 	ldr.w	r7, [sp], #4
 800154e:	4770      	bx	lr
 8001550:	e000ed00 	.word	0xe000ed00

08001554 <__NVIC_EnableIRQ>:
  \details Enables a device specific interrupt in the NVIC interrupt controller.
  \param [in]      IRQn  Device specific interrupt number.
  \note    IRQn must not be negative.
 */
__STATIC_INLINE void __NVIC_EnableIRQ(IRQn_Type IRQn)
{
 8001554:	b480      	push	{r7}
 8001556:	b083      	sub	sp, #12
 8001558:	af00      	add	r7, sp, #0
 800155a:	4603      	mov	r3, r0
 800155c:	71fb      	strb	r3, [r7, #7]
  if ((int32_t)(IRQn) >= 0)
 800155e:	f997 3007 	ldrsb.w	r3, [r7, #7]
 8001562:	2b00      	cmp	r3, #0
 8001564:	db0b      	blt.n	800157e <__NVIC_EnableIRQ+0x2a>
  {
    NVIC->ISER[(((uint32_t)IRQn) >> 5UL)] = (uint32_t)(1UL << (((uint32_t)IRQn) & 0x1FUL));
 8001566:	79fb      	ldrb	r3, [r7, #7]
 8001568:	f003 021f 	and.w	r2, r3, #31
 800156c:	4907      	ldr	r1, [pc, #28]	; (800158c <__NVIC_EnableIRQ+0x38>)
 800156e:	f997 3007 	ldrsb.w	r3, [r7, #7]
 8001572:	095b      	lsrs	r3, r3, #5
 8001574:	2001      	movs	r0, #1
 8001576:	fa00 f202 	lsl.w	r2, r0, r2
 800157a:	f841 2023 	str.w	r2, [r1, r3, lsl #2]
  }
}
 800157e:	bf00      	nop
 8001580:	370c      	adds	r7, #12
 8001582:	46bd      	mov	sp, r7
 8001584:	f85d 7b04 	ldr.w	r7, [sp], #4
 8001588:	4770      	bx	lr
 800158a:	bf00      	nop
 800158c:	e000e100 	.word	0xe000e100

08001590 <__NVIC_SetPriority>:
  \param [in]      IRQn  Interrupt number.
  \param [in]  priority  Priority to set.
  \note    The priority cannot be set for every processor exception.
 */
__STATIC_INLINE void __NVIC_SetPriority(IRQn_Type IRQn, uint32_t priority)
{
 8001590:	b480      	push	{r7}
 8001592:	b083      	sub	sp, #12
 8001594:	af00      	add	r7, sp, #0
 8001596:	4603      	mov	r3, r0
 8001598:	6039      	str	r1, [r7, #0]
 800159a:	71fb      	strb	r3, [r7, #7]
  if ((int32_t)(IRQn) >= 0)
 800159c:	f997 3007 	ldrsb.w	r3, [r7, #7]
 80015a0:	2b00      	cmp	r3, #0
 80015a2:	db0a      	blt.n	80015ba <__NVIC_SetPriority+0x2a>
  {
    NVIC->IP[((uint32_t)IRQn)]               = (uint8_t)((priority << (8U - __NVIC_PRIO_BITS)) & (uint32_t)0xFFUL);
 80015a4:	683b      	ldr	r3, [r7, #0]
 80015a6:	b2da      	uxtb	r2, r3
 80015a8:	490c      	ldr	r1, [pc, #48]	; (80015dc <__NVIC_SetPriority+0x4c>)
 80015aa:	f997 3007 	ldrsb.w	r3, [r7, #7]
 80015ae:	0112      	lsls	r2, r2, #4
 80015b0:	b2d2      	uxtb	r2, r2
 80015b2:	440b      	add	r3, r1
 80015b4:	f883 2300 	strb.w	r2, [r3, #768]	; 0x300
  }
  else
  {
    SCB->SHP[(((uint32_t)IRQn) & 0xFUL)-4UL] = (uint8_t)((priority << (8U - __NVIC_PRIO_BITS)) & (uint32_t)0xFFUL);
  }
}
 80015b8:	e00a      	b.n	80015d0 <__NVIC_SetPriority+0x40>
    SCB->SHP[(((uint32_t)IRQn) & 0xFUL)-4UL] = (uint8_t)((priority << (8U - __NVIC_PRIO_BITS)) & (uint32_t)0xFFUL);
 80015ba:	683b      	ldr	r3, [r7, #0]
 80015bc:	b2da      	uxtb	r2, r3
 80015be:	4908      	ldr	r1, [pc, #32]	; (80015e0 <__NVIC_SetPriority+0x50>)
 80015c0:	79fb      	ldrb	r3, [r7, #7]
 80015c2:	f003 030f 	and.w	r3, r3, #15
 80015c6:	3b04      	subs	r3, #4
 80015c8:	0112      	lsls	r2, r2, #4
 80015ca:	b2d2      	uxtb	r2, r2
 80015cc:	440b      	add	r3, r1
 80015ce:	761a      	strb	r2, [r3, #24]
}
 80015d0:	bf00      	nop
 80015d2:	370c      	adds	r7, #12
 80015d4:	46bd      	mov	sp, r7
 80015d6:	f85d 7b04 	ldr.w	r7, [sp], #4
 80015da:	4770      	bx	lr
 80015dc:	e000e100 	.word	0xe000e100
 80015e0:	e000ed00 	.word	0xe000ed00

080015e4 <NVIC_EncodePriority>:
  \param [in]   PreemptPriority  Preemptive priority value (starting from 0).
  \param [in]       SubPriority  Subpriority value (starting from 0).
  \return                        Encoded priority. Value can be used in the function \ref NVIC_SetPriority().
 */
__STATIC_INLINE uint32_t NVIC_EncodePriority (uint32_t PriorityGroup, uint32_t PreemptPriority, uint32_t SubPriority)
{
 80015e4:	b480      	push	{r7}
 80015e6:	b089      	sub	sp, #36	; 0x24
 80015e8:	af00      	add	r7, sp, #0
 80015ea:	60f8      	str	r0, [r7, #12]
 80015ec:	60b9      	str	r1, [r7, #8]
 80015ee:	607a      	str	r2, [r7, #4]
  uint32_t PriorityGroupTmp = (PriorityGroup & (uint32_t)0x07UL);   /* only values 0..7 are used          */
 80015f0:	68fb      	ldr	r3, [r7, #12]
 80015f2:	f003 0307 	and.w	r3, r3, #7
 80015f6:	61fb      	str	r3, [r7, #28]
  uint32_t PreemptPriorityBits;
  uint32_t SubPriorityBits;

  PreemptPriorityBits = ((7UL - PriorityGroupTmp) > (uint32_t)(__NVIC_PRIO_BITS)) ? (uint32_t)(__NVIC_PRIO_BITS) : (uint32_t)(7UL - PriorityGroupTmp);
 80015f8:	69fb      	ldr	r3, [r7, #28]
 80015fa:	f1c3 0307 	rsb	r3, r3, #7
 80015fe:	2b04      	cmp	r3, #4
 8001600:	bf28      	it	cs
 8001602:	2304      	movcs	r3, #4
 8001604:	61bb      	str	r3, [r7, #24]
  SubPriorityBits     = ((PriorityGroupTmp + (uint32_t)(__NVIC_PRIO_BITS)) < (uint32_t)7UL) ? (uint32_t)0UL : (uint32_t)((PriorityGroupTmp - 7UL) + (uint32_t)(__NVIC_PRIO_BITS));
 8001606:	69fb      	ldr	r3, [r7, #28]
 8001608:	3304      	adds	r3, #4
 800160a:	2b06      	cmp	r3, #6
 800160c:	d902      	bls.n	8001614 <NVIC_EncodePriority+0x30>
 800160e:	69fb      	ldr	r3, [r7, #28]
 8001610:	3b03      	subs	r3, #3
 8001612:	e000      	b.n	8001616 <NVIC_EncodePriority+0x32>
 8001614:	2300      	movs	r3, #0
 8001616:	617b      	str	r3, [r7, #20]

  return (
           ((PreemptPriority & (uint32_t)((1UL << (PreemptPriorityBits)) - 1UL)) << SubPriorityBits) |
 8001618:	f04f 32ff 	mov.w	r2, #4294967295
 800161c:	69bb      	ldr	r3, [r7, #24]
 800161e:	fa02 f303 	lsl.w	r3, r2, r3
 8001622:	43da      	mvns	r2, r3
 8001624:	68bb      	ldr	r3, [r7, #8]
 8001626:	401a      	ands	r2, r3
 8001628:	697b      	ldr	r3, [r7, #20]
 800162a:	409a      	lsls	r2, r3
           ((SubPriority     & (uint32_t)((1UL << (SubPriorityBits    )) - 1UL)))
 800162c:	f04f 31ff 	mov.w	r1, #4294967295
 8001630:	697b      	ldr	r3, [r7, #20]
 8001632:	fa01 f303 	lsl.w	r3, r1, r3
 8001636:	43d9      	mvns	r1, r3
 8001638:	687b      	ldr	r3, [r7, #4]
 800163a:	400b      	ands	r3, r1
           ((PreemptPriority & (uint32_t)((1UL << (PreemptPriorityBits)) - 1UL)) << SubPriorityBits) |
 800163c:	4313      	orrs	r3, r2
         );
}
 800163e:	4618      	mov	r0, r3
 8001640:	3724      	adds	r7, #36	; 0x24
 8001642:	46bd      	mov	sp, r7
 8001644:	f85d 7b04 	ldr.w	r7, [sp], #4
 8001648:	4770      	bx	lr
	...

0800164c <SysTick_Config>:
  \note    When the variable <b>__Vendor_SysTickConfig</b> is set to 1, then the
           function <b>SysTick_Config</b> is not included. In this case, the file <b><i>device</i>.h</b>
           must contain a vendor-specific implementation of this function.
 */
__STATIC_INLINE uint32_t SysTick_Config(uint32_t ticks)
{
 800164c:	b580      	push	{r7, lr}
 800164e:	b082      	sub	sp, #8
 8001650:	af00      	add	r7, sp, #0
 8001652:	6078      	str	r0, [r7, #4]
  if ((ticks - 1UL) > SysTick_LOAD_RELOAD_Msk)
 8001654:	687b      	ldr	r3, [r7, #4]
 8001656:	3b01      	subs	r3, #1
 8001658:	f1b3 7f80 	cmp.w	r3, #16777216	; 0x1000000
 800165c:	d301      	bcc.n	8001662 <SysTick_Config+0x16>
  {
    return (1UL);                                                   /* Reload value impossible */
 800165e:	2301      	movs	r3, #1
 8001660:	e00f      	b.n	8001682 <SysTick_Config+0x36>
  }

  SysTick->LOAD  = (uint32_t)(ticks - 1UL);                         /* set reload register */
 8001662:	4a0a      	ldr	r2, [pc, #40]	; (800168c <SysTick_Config+0x40>)
 8001664:	687b      	ldr	r3, [r7, #4]
 8001666:	3b01      	subs	r3, #1
 8001668:	6053      	str	r3, [r2, #4]
  NVIC_SetPriority (SysTick_IRQn, (1UL << __NVIC_PRIO_BITS) - 1UL); /* set Priority for Systick Interrupt */
 800166a:	210f      	movs	r1, #15
 800166c:	f04f 30ff 	mov.w	r0, #4294967295
 8001670:	f7ff ff8e 	bl	8001590 <__NVIC_SetPriority>
  SysTick->VAL   = 0UL;                                             /* Load the SysTick Counter Value */
 8001674:	4b05      	ldr	r3, [pc, #20]	; (800168c <SysTick_Config+0x40>)
 8001676:	2200      	movs	r2, #0
 8001678:	609a      	str	r2, [r3, #8]
  SysTick->CTRL  = SysTick_CTRL_CLKSOURCE_Msk |
 800167a:	4b04      	ldr	r3, [pc, #16]	; (800168c <SysTick_Config+0x40>)
 800167c:	2207      	movs	r2, #7
 800167e:	601a      	str	r2, [r3, #0]
                   SysTick_CTRL_TICKINT_Msk   |
                   SysTick_CTRL_ENABLE_Msk;                         /* Enable SysTick IRQ and SysTick Timer */
  return (0UL);                                                     /* Function successful */
 8001680:	2300      	movs	r3, #0
}
 8001682:	4618      	mov	r0, r3
 8001684:	3708      	adds	r7, #8
 8001686:	46bd      	mov	sp, r7
 8001688:	bd80      	pop	{r7, pc}
 800168a:	bf00      	nop
 800168c:	e000e010 	.word	0xe000e010

08001690 <HAL_NVIC_SetPriorityGrouping>:
  * @note   When the NVIC_PriorityGroup_0 is selected, IRQ preemption is no more possible. 
  *         The pending IRQ priority will be managed only by the subpriority. 
  * @retval None
  */
void HAL_NVIC_SetPriorityGrouping(uint32_t PriorityGroup)
{
 8001690:	b580      	push	{r7, lr}
 8001692:	b082      	sub	sp, #8
 8001694:	af00      	add	r7, sp, #0
 8001696:	6078      	str	r0, [r7, #4]
  /* Check the parameters */
  assert_param(IS_NVIC_PRIORITY_GROUP(PriorityGroup));
  
  /* Set the PRIGROUP[10:8] bits according to the PriorityGroup parameter value */
  NVIC_SetPriorityGrouping(PriorityGroup);
 8001698:	6878      	ldr	r0, [r7, #4]
 800169a:	f7ff ff29 	bl	80014f0 <__NVIC_SetPriorityGrouping>
}
 800169e:	bf00      	nop
 80016a0:	3708      	adds	r7, #8
 80016a2:	46bd      	mov	sp, r7
 80016a4:	bd80      	pop	{r7, pc}

080016a6 <HAL_NVIC_SetPriority>:
  *         This parameter can be a value between 0 and 15
  *         A lower priority value indicates a higher priority.          
  * @retval None
  */
void HAL_NVIC_SetPriority(IRQn_Type IRQn, uint32_t PreemptPriority, uint32_t SubPriority)
{ 
 80016a6:	b580      	push	{r7, lr}
 80016a8:	b086      	sub	sp, #24
 80016aa:	af00      	add	r7, sp, #0
 80016ac:	4603      	mov	r3, r0
 80016ae:	60b9      	str	r1, [r7, #8]
 80016b0:	607a      	str	r2, [r7, #4]
 80016b2:	73fb      	strb	r3, [r7, #15]
  uint32_t prioritygroup = 0x00U;
 80016b4:	2300      	movs	r3, #0
 80016b6:	617b      	str	r3, [r7, #20]
  
  /* Check the parameters */
  assert_param(IS_NVIC_SUB_PRIORITY(SubPriority));
  assert_param(IS_NVIC_PREEMPTION_PRIORITY(PreemptPriority));
  
  prioritygroup = NVIC_GetPriorityGrouping();
 80016b8:	f7ff ff3e 	bl	8001538 <__NVIC_GetPriorityGrouping>
 80016bc:	6178      	str	r0, [r7, #20]
  
  NVIC_SetPriority(IRQn, NVIC_EncodePriority(prioritygroup, PreemptPriority, SubPriority));
 80016be:	687a      	ldr	r2, [r7, #4]
 80016c0:	68b9      	ldr	r1, [r7, #8]
 80016c2:	6978      	ldr	r0, [r7, #20]
 80016c4:	f7ff ff8e 	bl	80015e4 <NVIC_EncodePriority>
 80016c8:	4602      	mov	r2, r0
 80016ca:	f997 300f 	ldrsb.w	r3, [r7, #15]
 80016ce:	4611      	mov	r1, r2
 80016d0:	4618      	mov	r0, r3
 80016d2:	f7ff ff5d 	bl	8001590 <__NVIC_SetPriority>
}
 80016d6:	bf00      	nop
 80016d8:	3718      	adds	r7, #24
 80016da:	46bd      	mov	sp, r7
 80016dc:	bd80      	pop	{r7, pc}

080016de <HAL_NVIC_EnableIRQ>:
  *         This parameter can be an enumerator of IRQn_Type enumeration
  *         (For the complete STM32 Devices IRQ Channels list, please refer to the appropriate CMSIS device file (stm32f4xxxx.h))
  * @retval None
  */
void HAL_NVIC_EnableIRQ(IRQn_Type IRQn)
{
 80016de:	b580      	push	{r7, lr}
 80016e0:	b082      	sub	sp, #8
 80016e2:	af00      	add	r7, sp, #0
 80016e4:	4603      	mov	r3, r0
 80016e6:	71fb      	strb	r3, [r7, #7]
  /* Check the parameters */
  assert_param(IS_NVIC_DEVICE_IRQ(IRQn));
  
  /* Enable interrupt */
  NVIC_EnableIRQ(IRQn);
 80016e8:	f997 3007 	ldrsb.w	r3, [r7, #7]
 80016ec:	4618      	mov	r0, r3
 80016ee:	f7ff ff31 	bl	8001554 <__NVIC_EnableIRQ>
}
 80016f2:	bf00      	nop
 80016f4:	3708      	adds	r7, #8
 80016f6:	46bd      	mov	sp, r7
 80016f8:	bd80      	pop	{r7, pc}

080016fa <HAL_SYSTICK_Config>:
  * @param  TicksNumb Specifies the ticks Number of ticks between two interrupts.
  * @retval status:  - 0  Function succeeded.
  *                  - 1  Function failed.
  */
uint32_t HAL_SYSTICK_Config(uint32_t TicksNumb)
{
 80016fa:	b580      	push	{r7, lr}
 80016fc:	b082      	sub	sp, #8
 80016fe:	af00      	add	r7, sp, #0
 8001700:	6078      	str	r0, [r7, #4]
   return SysTick_Config(TicksNumb);
 8001702:	6878      	ldr	r0, [r7, #4]
 8001704:	f7ff ffa2 	bl	800164c <SysTick_Config>
 8001708:	4603      	mov	r3, r0
}
 800170a:	4618      	mov	r0, r3
 800170c:	3708      	adds	r7, #8
 800170e:	46bd      	mov	sp, r7
 8001710:	bd80      	pop	{r7, pc}

08001712 <HAL_DMA_Abort_IT>:
  * @param  hdma   pointer to a DMA_HandleTypeDef structure that contains
  *                 the configuration information for the specified DMA Stream.
  * @retval HAL status
  */
HAL_StatusTypeDef HAL_DMA_Abort_IT(DMA_HandleTypeDef *hdma)
{
 8001712:	b480      	push	{r7}
 8001714:	b083      	sub	sp, #12
 8001716:	af00      	add	r7, sp, #0
 8001718:	6078      	str	r0, [r7, #4]
  if(hdma->State != HAL_DMA_STATE_BUSY)
 800171a:	687b      	ldr	r3, [r7, #4]
 800171c:	f893 3035 	ldrb.w	r3, [r3, #53]	; 0x35
 8001720:	b2db      	uxtb	r3, r3
 8001722:	2b02      	cmp	r3, #2
 8001724:	d004      	beq.n	8001730 <HAL_DMA_Abort_IT+0x1e>
  {
    hdma->ErrorCode = HAL_DMA_ERROR_NO_XFER;
 8001726:	687b      	ldr	r3, [r7, #4]
 8001728:	2280      	movs	r2, #128	; 0x80
 800172a:	655a      	str	r2, [r3, #84]	; 0x54
    return HAL_ERROR;
 800172c:	2301      	movs	r3, #1
 800172e:	e00c      	b.n	800174a <HAL_DMA_Abort_IT+0x38>
  }
  else
  {
    /* Set Abort State  */
    hdma->State = HAL_DMA_STATE_ABORT;
 8001730:	687b      	ldr	r3, [r7, #4]
 8001732:	2205      	movs	r2, #5
 8001734:	f883 2035 	strb.w	r2, [r3, #53]	; 0x35
    
    /* Disable the stream */
    __HAL_DMA_DISABLE(hdma);
 8001738:	687b      	ldr	r3, [r7, #4]
 800173a:	681b      	ldr	r3, [r3, #0]
 800173c:	681a      	ldr	r2, [r3, #0]
 800173e:	687b      	ldr	r3, [r7, #4]
 8001740:	681b      	ldr	r3, [r3, #0]
 8001742:	f022 0201 	bic.w	r2, r2, #1
 8001746:	601a      	str	r2, [r3, #0]
  }

  return HAL_OK;
 8001748:	2300      	movs	r3, #0
}
 800174a:	4618      	mov	r0, r3
 800174c:	370c      	adds	r7, #12
 800174e:	46bd      	mov	sp, r7
 8001750:	f85d 7b04 	ldr.w	r7, [sp], #4
 8001754:	4770      	bx	lr

08001756 <HAL_DMA_GetState>:
  * @param  hdma pointer to a DMA_HandleTypeDef structure that contains
  *               the configuration information for the specified DMA Stream.
  * @retval HAL state
  */
HAL_DMA_StateTypeDef HAL_DMA_GetState(DMA_HandleTypeDef *hdma)
{
 8001756:	b480      	push	{r7}
 8001758:	b083      	sub	sp, #12
 800175a:	af00      	add	r7, sp, #0
 800175c:	6078      	str	r0, [r7, #4]
  return hdma->State;
 800175e:	687b      	ldr	r3, [r7, #4]
 8001760:	f893 3035 	ldrb.w	r3, [r3, #53]	; 0x35
 8001764:	b2db      	uxtb	r3, r3
}
 8001766:	4618      	mov	r0, r3
 8001768:	370c      	adds	r7, #12
 800176a:	46bd      	mov	sp, r7
 800176c:	f85d 7b04 	ldr.w	r7, [sp], #4
 8001770:	4770      	bx	lr
	...

08001774 <HAL_GPIO_Init>:
  * @param  GPIO_Init pointer to a GPIO_InitTypeDef structure that contains
  *         the configuration information for the specified GPIO peripheral.
  * @retval None
  */
void HAL_GPIO_Init(GPIO_TypeDef  *GPIOx, GPIO_InitTypeDef *GPIO_Init)
{
 8001774:	b480      	push	{r7}
 8001776:	b089      	sub	sp, #36	; 0x24
 8001778:	af00      	add	r7, sp, #0
 800177a:	6078      	str	r0, [r7, #4]
 800177c:	6039      	str	r1, [r7, #0]
  uint32_t position;
  uint32_t ioposition = 0x00U;
 800177e:	2300      	movs	r3, #0
 8001780:	617b      	str	r3, [r7, #20]
  uint32_t iocurrent = 0x00U;
 8001782:	2300      	movs	r3, #0
 8001784:	613b      	str	r3, [r7, #16]
  uint32_t temp = 0x00U;
 8001786:	2300      	movs	r3, #0
 8001788:	61bb      	str	r3, [r7, #24]
  assert_param(IS_GPIO_ALL_INSTANCE(GPIOx));
  assert_param(IS_GPIO_PIN(GPIO_Init->Pin));
  assert_param(IS_GPIO_MODE(GPIO_Init->Mode));

  /* Configure the port pins */
  for(position = 0U; position < GPIO_NUMBER; position++)
 800178a:	2300      	movs	r3, #0
 800178c:	61fb      	str	r3, [r7, #28]
 800178e:	e159      	b.n	8001a44 <HAL_GPIO_Init+0x2d0>
  {
    /* Get the IO position */
    ioposition = 0x01U << position;
 8001790:	2201      	movs	r2, #1
 8001792:	69fb      	ldr	r3, [r7, #28]
 8001794:	fa02 f303 	lsl.w	r3, r2, r3
 8001798:	617b      	str	r3, [r7, #20]
    /* Get the current IO position */
    iocurrent = (uint32_t)(GPIO_Init->Pin) & ioposition;
 800179a:	683b      	ldr	r3, [r7, #0]
 800179c:	681b      	ldr	r3, [r3, #0]
 800179e:	697a      	ldr	r2, [r7, #20]
 80017a0:	4013      	ands	r3, r2
 80017a2:	613b      	str	r3, [r7, #16]

    if(iocurrent == ioposition)
 80017a4:	693a      	ldr	r2, [r7, #16]
 80017a6:	697b      	ldr	r3, [r7, #20]
 80017a8:	429a      	cmp	r2, r3
 80017aa:	f040 8148 	bne.w	8001a3e <HAL_GPIO_Init+0x2ca>
    {
      /*--------------------- GPIO Mode Configuration ------------------------*/
      /* In case of Output or Alternate function mode selection */
      if(((GPIO_Init->Mode & GPIO_MODE) == MODE_OUTPUT) || \
 80017ae:	683b      	ldr	r3, [r7, #0]
 80017b0:	685b      	ldr	r3, [r3, #4]
 80017b2:	f003 0303 	and.w	r3, r3, #3
 80017b6:	2b01      	cmp	r3, #1
 80017b8:	d005      	beq.n	80017c6 <HAL_GPIO_Init+0x52>
          (GPIO_Init->Mode & GPIO_MODE) == MODE_AF)
 80017ba:	683b      	ldr	r3, [r7, #0]
 80017bc:	685b      	ldr	r3, [r3, #4]
 80017be:	f003 0303 	and.w	r3, r3, #3
      if(((GPIO_Init->Mode & GPIO_MODE) == MODE_OUTPUT) || \
 80017c2:	2b02      	cmp	r3, #2
 80017c4:	d130      	bne.n	8001828 <HAL_GPIO_Init+0xb4>
      {
        /* Check the Speed parameter */
        assert_param(IS_GPIO_SPEED(GPIO_Init->Speed));
        /* Configure the IO Speed */
        temp = GPIOx->OSPEEDR; 
 80017c6:	687b      	ldr	r3, [r7, #4]
 80017c8:	689b      	ldr	r3, [r3, #8]
 80017ca:	61bb      	str	r3, [r7, #24]
        temp &= ~(GPIO_OSPEEDER_OSPEEDR0 << (position * 2U));
 80017cc:	69fb      	ldr	r3, [r7, #28]
 80017ce:	005b      	lsls	r3, r3, #1
 80017d0:	2203      	movs	r2, #3
 80017d2:	fa02 f303 	lsl.w	r3, r2, r3
 80017d6:	43db      	mvns	r3, r3
 80017d8:	69ba      	ldr	r2, [r7, #24]
 80017da:	4013      	ands	r3, r2
 80017dc:	61bb      	str	r3, [r7, #24]
        temp |= (GPIO_Init->Speed << (position * 2U));
 80017de:	683b      	ldr	r3, [r7, #0]
 80017e0:	68da      	ldr	r2, [r3, #12]
 80017e2:	69fb      	ldr	r3, [r7, #28]
 80017e4:	005b      	lsls	r3, r3, #1
 80017e6:	fa02 f303 	lsl.w	r3, r2, r3
 80017ea:	69ba      	ldr	r2, [r7, #24]
 80017ec:	4313      	orrs	r3, r2
 80017ee:	61bb      	str	r3, [r7, #24]
        GPIOx->OSPEEDR = temp;
 80017f0:	687b      	ldr	r3, [r7, #4]
 80017f2:	69ba      	ldr	r2, [r7, #24]
 80017f4:	609a      	str	r2, [r3, #8]

        /* Configure the IO Output Type */
        temp = GPIOx->OTYPER;
 80017f6:	687b      	ldr	r3, [r7, #4]
 80017f8:	685b      	ldr	r3, [r3, #4]
 80017fa:	61bb      	str	r3, [r7, #24]
        temp &= ~(GPIO_OTYPER_OT_0 << position) ;
 80017fc:	2201      	movs	r2, #1
 80017fe:	69fb      	ldr	r3, [r7, #28]
 8001800:	fa02 f303 	lsl.w	r3, r2, r3
 8001804:	43db      	mvns	r3, r3
 8001806:	69ba      	ldr	r2, [r7, #24]
 8001808:	4013      	ands	r3, r2
 800180a:	61bb      	str	r3, [r7, #24]
        temp |= (((GPIO_Init->Mode & OUTPUT_TYPE) >> OUTPUT_TYPE_Pos) << position);
 800180c:	683b      	ldr	r3, [r7, #0]
 800180e:	685b      	ldr	r3, [r3, #4]
 8001810:	091b      	lsrs	r3, r3, #4
 8001812:	f003 0201 	and.w	r2, r3, #1
 8001816:	69fb      	ldr	r3, [r7, #28]
 8001818:	fa02 f303 	lsl.w	r3, r2, r3
 800181c:	69ba      	ldr	r2, [r7, #24]
 800181e:	4313      	orrs	r3, r2
 8001820:	61bb      	str	r3, [r7, #24]
        GPIOx->OTYPER = temp;
 8001822:	687b      	ldr	r3, [r7, #4]
 8001824:	69ba      	ldr	r2, [r7, #24]
 8001826:	605a      	str	r2, [r3, #4]
       }

      if((GPIO_Init->Mode & GPIO_MODE) != MODE_ANALOG)
 8001828:	683b      	ldr	r3, [r7, #0]
 800182a:	685b      	ldr	r3, [r3, #4]
 800182c:	f003 0303 	and.w	r3, r3, #3
 8001830:	2b03      	cmp	r3, #3
 8001832:	d017      	beq.n	8001864 <HAL_GPIO_Init+0xf0>
      {
        /* Check the parameters */
        assert_param(IS_GPIO_PULL(GPIO_Init->Pull));
        
        /* Activate the Pull-up or Pull down resistor for the current IO */
        temp = GPIOx->PUPDR;
 8001834:	687b      	ldr	r3, [r7, #4]
 8001836:	68db      	ldr	r3, [r3, #12]
 8001838:	61bb      	str	r3, [r7, #24]
        temp &= ~(GPIO_PUPDR_PUPDR0 << (position * 2U));
 800183a:	69fb      	ldr	r3, [r7, #28]
 800183c:	005b      	lsls	r3, r3, #1
 800183e:	2203      	movs	r2, #3
 8001840:	fa02 f303 	lsl.w	r3, r2, r3
 8001844:	43db      	mvns	r3, r3
 8001846:	69ba      	ldr	r2, [r7, #24]
 8001848:	4013      	ands	r3, r2
 800184a:	61bb      	str	r3, [r7, #24]
        temp |= ((GPIO_Init->Pull) << (position * 2U));
 800184c:	683b      	ldr	r3, [r7, #0]
 800184e:	689a      	ldr	r2, [r3, #8]
 8001850:	69fb      	ldr	r3, [r7, #28]
 8001852:	005b      	lsls	r3, r3, #1
 8001854:	fa02 f303 	lsl.w	r3, r2, r3
 8001858:	69ba      	ldr	r2, [r7, #24]
 800185a:	4313      	orrs	r3, r2
 800185c:	61bb      	str	r3, [r7, #24]
        GPIOx->PUPDR = temp;
 800185e:	687b      	ldr	r3, [r7, #4]
 8001860:	69ba      	ldr	r2, [r7, #24]
 8001862:	60da      	str	r2, [r3, #12]
      }

      /* In case of Alternate function mode selection */
      if((GPIO_Init->Mode & GPIO_MODE) == MODE_AF)
 8001864:	683b      	ldr	r3, [r7, #0]
 8001866:	685b      	ldr	r3, [r3, #4]
 8001868:	f003 0303 	and.w	r3, r3, #3
 800186c:	2b02      	cmp	r3, #2
 800186e:	d123      	bne.n	80018b8 <HAL_GPIO_Init+0x144>
      {
        /* Check the Alternate function parameter */
        assert_param(IS_GPIO_AF(GPIO_Init->Alternate));
        /* Configure Alternate function mapped with the current IO */
        temp = GPIOx->AFR[position >> 3U];
 8001870:	69fb      	ldr	r3, [r7, #28]
 8001872:	08da      	lsrs	r2, r3, #3
 8001874:	687b      	ldr	r3, [r7, #4]
 8001876:	3208      	adds	r2, #8
 8001878:	f853 3022 	ldr.w	r3, [r3, r2, lsl #2]
 800187c:	61bb      	str	r3, [r7, #24]
        temp &= ~(0xFU << ((uint32_t)(position & 0x07U) * 4U)) ;
 800187e:	69fb      	ldr	r3, [r7, #28]
 8001880:	f003 0307 	and.w	r3, r3, #7
 8001884:	009b      	lsls	r3, r3, #2
 8001886:	220f      	movs	r2, #15
 8001888:	fa02 f303 	lsl.w	r3, r2, r3
 800188c:	43db      	mvns	r3, r3
 800188e:	69ba      	ldr	r2, [r7, #24]
 8001890:	4013      	ands	r3, r2
 8001892:	61bb      	str	r3, [r7, #24]
        temp |= ((uint32_t)(GPIO_Init->Alternate) << (((uint32_t)position & 0x07U) * 4U));
 8001894:	683b      	ldr	r3, [r7, #0]
 8001896:	691a      	ldr	r2, [r3, #16]
 8001898:	69fb      	ldr	r3, [r7, #28]
 800189a:	f003 0307 	and.w	r3, r3, #7
 800189e:	009b      	lsls	r3, r3, #2
 80018a0:	fa02 f303 	lsl.w	r3, r2, r3
 80018a4:	69ba      	ldr	r2, [r7, #24]
 80018a6:	4313      	orrs	r3, r2
 80018a8:	61bb      	str	r3, [r7, #24]
        GPIOx->AFR[position >> 3U] = temp;
 80018aa:	69fb      	ldr	r3, [r7, #28]
 80018ac:	08da      	lsrs	r2, r3, #3
 80018ae:	687b      	ldr	r3, [r7, #4]
 80018b0:	3208      	adds	r2, #8
 80018b2:	69b9      	ldr	r1, [r7, #24]
 80018b4:	f843 1022 	str.w	r1, [r3, r2, lsl #2]
      }

      /* Configure IO Direction mode (Input, Output, Alternate or Analog) */
      temp = GPIOx->MODER;
 80018b8:	687b      	ldr	r3, [r7, #4]
 80018ba:	681b      	ldr	r3, [r3, #0]
 80018bc:	61bb      	str	r3, [r7, #24]
      temp &= ~(GPIO_MODER_MODER0 << (position * 2U));
 80018be:	69fb      	ldr	r3, [r7, #28]
 80018c0:	005b      	lsls	r3, r3, #1
 80018c2:	2203      	movs	r2, #3
 80018c4:	fa02 f303 	lsl.w	r3, r2, r3
 80018c8:	43db      	mvns	r3, r3
 80018ca:	69ba      	ldr	r2, [r7, #24]
 80018cc:	4013      	ands	r3, r2
 80018ce:	61bb      	str	r3, [r7, #24]
      temp |= ((GPIO_Init->Mode & GPIO_MODE) << (position * 2U));
 80018d0:	683b      	ldr	r3, [r7, #0]
 80018d2:	685b      	ldr	r3, [r3, #4]
 80018d4:	f003 0203 	and.w	r2, r3, #3
 80018d8:	69fb      	ldr	r3, [r7, #28]
 80018da:	005b      	lsls	r3, r3, #1
 80018dc:	fa02 f303 	lsl.w	r3, r2, r3
 80018e0:	69ba      	ldr	r2, [r7, #24]
 80018e2:	4313      	orrs	r3, r2
 80018e4:	61bb      	str	r3, [r7, #24]
      GPIOx->MODER = temp;
 80018e6:	687b      	ldr	r3, [r7, #4]
 80018e8:	69ba      	ldr	r2, [r7, #24]
 80018ea:	601a      	str	r2, [r3, #0]

      /*--------------------- EXTI Mode Configuration ------------------------*/
      /* Configure the External Interrupt or event for the current IO */
      if((GPIO_Init->Mode & EXTI_MODE) != 0x00U)
 80018ec:	683b      	ldr	r3, [r7, #0]
 80018ee:	685b      	ldr	r3, [r3, #4]
 80018f0:	f403 3340 	and.w	r3, r3, #196608	; 0x30000
 80018f4:	2b00      	cmp	r3, #0
 80018f6:	f000 80a2 	beq.w	8001a3e <HAL_GPIO_Init+0x2ca>
      {
        /* Enable SYSCFG Clock */
        __HAL_RCC_SYSCFG_CLK_ENABLE();
 80018fa:	2300      	movs	r3, #0
 80018fc:	60fb      	str	r3, [r7, #12]
 80018fe:	4b57      	ldr	r3, [pc, #348]	; (8001a5c <HAL_GPIO_Init+0x2e8>)
 8001900:	6c5b      	ldr	r3, [r3, #68]	; 0x44
 8001902:	4a56      	ldr	r2, [pc, #344]	; (8001a5c <HAL_GPIO_Init+0x2e8>)
 8001904:	f443 4380 	orr.w	r3, r3, #16384	; 0x4000
 8001908:	6453      	str	r3, [r2, #68]	; 0x44
 800190a:	4b54      	ldr	r3, [pc, #336]	; (8001a5c <HAL_GPIO_Init+0x2e8>)
 800190c:	6c5b      	ldr	r3, [r3, #68]	; 0x44
 800190e:	f403 4380 	and.w	r3, r3, #16384	; 0x4000
 8001912:	60fb      	str	r3, [r7, #12]
 8001914:	68fb      	ldr	r3, [r7, #12]

        temp = SYSCFG->EXTICR[position >> 2U];
 8001916:	4a52      	ldr	r2, [pc, #328]	; (8001a60 <HAL_GPIO_Init+0x2ec>)
 8001918:	69fb      	ldr	r3, [r7, #28]
 800191a:	089b      	lsrs	r3, r3, #2
 800191c:	3302      	adds	r3, #2
 800191e:	f852 3023 	ldr.w	r3, [r2, r3, lsl #2]
 8001922:	61bb      	str	r3, [r7, #24]
        temp &= ~(0x0FU << (4U * (position & 0x03U)));
 8001924:	69fb      	ldr	r3, [r7, #28]
 8001926:	f003 0303 	and.w	r3, r3, #3
 800192a:	009b      	lsls	r3, r3, #2
 800192c:	220f      	movs	r2, #15
 800192e:	fa02 f303 	lsl.w	r3, r2, r3
 8001932:	43db      	mvns	r3, r3
 8001934:	69ba      	ldr	r2, [r7, #24]
 8001936:	4013      	ands	r3, r2
 8001938:	61bb      	str	r3, [r7, #24]
        temp |= ((uint32_t)(GPIO_GET_INDEX(GPIOx)) << (4U * (position & 0x03U)));
 800193a:	687b      	ldr	r3, [r7, #4]
 800193c:	4a49      	ldr	r2, [pc, #292]	; (8001a64 <HAL_GPIO_Init+0x2f0>)
 800193e:	4293      	cmp	r3, r2
 8001940:	d019      	beq.n	8001976 <HAL_GPIO_Init+0x202>
 8001942:	687b      	ldr	r3, [r7, #4]
 8001944:	4a48      	ldr	r2, [pc, #288]	; (8001a68 <HAL_GPIO_Init+0x2f4>)
 8001946:	4293      	cmp	r3, r2
 8001948:	d013      	beq.n	8001972 <HAL_GPIO_Init+0x1fe>
 800194a:	687b      	ldr	r3, [r7, #4]
 800194c:	4a47      	ldr	r2, [pc, #284]	; (8001a6c <HAL_GPIO_Init+0x2f8>)
 800194e:	4293      	cmp	r3, r2
 8001950:	d00d      	beq.n	800196e <HAL_GPIO_Init+0x1fa>
 8001952:	687b      	ldr	r3, [r7, #4]
 8001954:	4a46      	ldr	r2, [pc, #280]	; (8001a70 <HAL_GPIO_Init+0x2fc>)
 8001956:	4293      	cmp	r3, r2
 8001958:	d007      	beq.n	800196a <HAL_GPIO_Init+0x1f6>
 800195a:	687b      	ldr	r3, [r7, #4]
 800195c:	4a45      	ldr	r2, [pc, #276]	; (8001a74 <HAL_GPIO_Init+0x300>)
 800195e:	4293      	cmp	r3, r2
 8001960:	d101      	bne.n	8001966 <HAL_GPIO_Init+0x1f2>
 8001962:	2304      	movs	r3, #4
 8001964:	e008      	b.n	8001978 <HAL_GPIO_Init+0x204>
 8001966:	2307      	movs	r3, #7
 8001968:	e006      	b.n	8001978 <HAL_GPIO_Init+0x204>
 800196a:	2303      	movs	r3, #3
 800196c:	e004      	b.n	8001978 <HAL_GPIO_Init+0x204>
 800196e:	2302      	movs	r3, #2
 8001970:	e002      	b.n	8001978 <HAL_GPIO_Init+0x204>
 8001972:	2301      	movs	r3, #1
 8001974:	e000      	b.n	8001978 <HAL_GPIO_Init+0x204>
 8001976:	2300      	movs	r3, #0
 8001978:	69fa      	ldr	r2, [r7, #28]
 800197a:	f002 0203 	and.w	r2, r2, #3
 800197e:	0092      	lsls	r2, r2, #2
 8001980:	4093      	lsls	r3, r2
 8001982:	69ba      	ldr	r2, [r7, #24]
 8001984:	4313      	orrs	r3, r2
 8001986:	61bb      	str	r3, [r7, #24]
        SYSCFG->EXTICR[position >> 2U] = temp;
 8001988:	4935      	ldr	r1, [pc, #212]	; (8001a60 <HAL_GPIO_Init+0x2ec>)
 800198a:	69fb      	ldr	r3, [r7, #28]
 800198c:	089b      	lsrs	r3, r3, #2
 800198e:	3302      	adds	r3, #2
 8001990:	69ba      	ldr	r2, [r7, #24]
 8001992:	f841 2023 	str.w	r2, [r1, r3, lsl #2]

        /* Clear EXTI line configuration */
        temp = EXTI->IMR;
 8001996:	4b38      	ldr	r3, [pc, #224]	; (8001a78 <HAL_GPIO_Init+0x304>)
 8001998:	681b      	ldr	r3, [r3, #0]
 800199a:	61bb      	str	r3, [r7, #24]
        temp &= ~((uint32_t)iocurrent);
 800199c:	693b      	ldr	r3, [r7, #16]
 800199e:	43db      	mvns	r3, r3
 80019a0:	69ba      	ldr	r2, [r7, #24]
 80019a2:	4013      	ands	r3, r2
 80019a4:	61bb      	str	r3, [r7, #24]
        if((GPIO_Init->Mode & EXTI_IT) != 0x00U)
 80019a6:	683b      	ldr	r3, [r7, #0]
 80019a8:	685b      	ldr	r3, [r3, #4]
 80019aa:	f403 3380 	and.w	r3, r3, #65536	; 0x10000
 80019ae:	2b00      	cmp	r3, #0
 80019b0:	d003      	beq.n	80019ba <HAL_GPIO_Init+0x246>
        {
          temp |= iocurrent;
 80019b2:	69ba      	ldr	r2, [r7, #24]
 80019b4:	693b      	ldr	r3, [r7, #16]
 80019b6:	4313      	orrs	r3, r2
 80019b8:	61bb      	str	r3, [r7, #24]
        }
        EXTI->IMR = temp;
 80019ba:	4a2f      	ldr	r2, [pc, #188]	; (8001a78 <HAL_GPIO_Init+0x304>)
 80019bc:	69bb      	ldr	r3, [r7, #24]
 80019be:	6013      	str	r3, [r2, #0]

        temp = EXTI->EMR;
 80019c0:	4b2d      	ldr	r3, [pc, #180]	; (8001a78 <HAL_GPIO_Init+0x304>)
 80019c2:	685b      	ldr	r3, [r3, #4]
 80019c4:	61bb      	str	r3, [r7, #24]
        temp &= ~((uint32_t)iocurrent);
 80019c6:	693b      	ldr	r3, [r7, #16]
 80019c8:	43db      	mvns	r3, r3
 80019ca:	69ba      	ldr	r2, [r7, #24]
 80019cc:	4013      	ands	r3, r2
 80019ce:	61bb      	str	r3, [r7, #24]
        if((GPIO_Init->Mode & EXTI_EVT) != 0x00U)
 80019d0:	683b      	ldr	r3, [r7, #0]
 80019d2:	685b      	ldr	r3, [r3, #4]
 80019d4:	f403 3300 	and.w	r3, r3, #131072	; 0x20000
 80019d8:	2b00      	cmp	r3, #0
 80019da:	d003      	beq.n	80019e4 <HAL_GPIO_Init+0x270>
        {
          temp |= iocurrent;
 80019dc:	69ba      	ldr	r2, [r7, #24]
 80019de:	693b      	ldr	r3, [r7, #16]
 80019e0:	4313      	orrs	r3, r2
 80019e2:	61bb      	str	r3, [r7, #24]
        }
        EXTI->EMR = temp;
 80019e4:	4a24      	ldr	r2, [pc, #144]	; (8001a78 <HAL_GPIO_Init+0x304>)
 80019e6:	69bb      	ldr	r3, [r7, #24]
 80019e8:	6053      	str	r3, [r2, #4]

        /* Clear Rising Falling edge configuration */
        temp = EXTI->RTSR;
 80019ea:	4b23      	ldr	r3, [pc, #140]	; (8001a78 <HAL_GPIO_Init+0x304>)
 80019ec:	689b      	ldr	r3, [r3, #8]
 80019ee:	61bb      	str	r3, [r7, #24]
        temp &= ~((uint32_t)iocurrent);
 80019f0:	693b      	ldr	r3, [r7, #16]
 80019f2:	43db      	mvns	r3, r3
 80019f4:	69ba      	ldr	r2, [r7, #24]
 80019f6:	4013      	ands	r3, r2
 80019f8:	61bb      	str	r3, [r7, #24]
        if((GPIO_Init->Mode & TRIGGER_RISING) != 0x00U)
 80019fa:	683b      	ldr	r3, [r7, #0]
 80019fc:	685b      	ldr	r3, [r3, #4]
 80019fe:	f403 1380 	and.w	r3, r3, #1048576	; 0x100000
 8001a02:	2b00      	cmp	r3, #0
 8001a04:	d003      	beq.n	8001a0e <HAL_GPIO_Init+0x29a>
        {
          temp |= iocurrent;
 8001a06:	69ba      	ldr	r2, [r7, #24]
 8001a08:	693b      	ldr	r3, [r7, #16]
 8001a0a:	4313      	orrs	r3, r2
 8001a0c:	61bb      	str	r3, [r7, #24]
        }
        EXTI->RTSR = temp;
 8001a0e:	4a1a      	ldr	r2, [pc, #104]	; (8001a78 <HAL_GPIO_Init+0x304>)
 8001a10:	69bb      	ldr	r3, [r7, #24]
 8001a12:	6093      	str	r3, [r2, #8]

        temp = EXTI->FTSR;
 8001a14:	4b18      	ldr	r3, [pc, #96]	; (8001a78 <HAL_GPIO_Init+0x304>)
 8001a16:	68db      	ldr	r3, [r3, #12]
 8001a18:	61bb      	str	r3, [r7, #24]
        temp &= ~((uint32_t)iocurrent);
 8001a1a:	693b      	ldr	r3, [r7, #16]
 8001a1c:	43db      	mvns	r3, r3
 8001a1e:	69ba      	ldr	r2, [r7, #24]
 8001a20:	4013      	ands	r3, r2
 8001a22:	61bb      	str	r3, [r7, #24]
        if((GPIO_Init->Mode & TRIGGER_FALLING) != 0x00U)
 8001a24:	683b      	ldr	r3, [r7, #0]
 8001a26:	685b      	ldr	r3, [r3, #4]
 8001a28:	f403 1300 	and.w	r3, r3, #2097152	; 0x200000
 8001a2c:	2b00      	cmp	r3, #0
 8001a2e:	d003      	beq.n	8001a38 <HAL_GPIO_Init+0x2c4>
        {
          temp |= iocurrent;
 8001a30:	69ba      	ldr	r2, [r7, #24]
 8001a32:	693b      	ldr	r3, [r7, #16]
 8001a34:	4313      	orrs	r3, r2
 8001a36:	61bb      	str	r3, [r7, #24]
        }
        EXTI->FTSR = temp;
 8001a38:	4a0f      	ldr	r2, [pc, #60]	; (8001a78 <HAL_GPIO_Init+0x304>)
 8001a3a:	69bb      	ldr	r3, [r7, #24]
 8001a3c:	60d3      	str	r3, [r2, #12]
  for(position = 0U; position < GPIO_NUMBER; position++)
 8001a3e:	69fb      	ldr	r3, [r7, #28]
 8001a40:	3301      	adds	r3, #1
 8001a42:	61fb      	str	r3, [r7, #28]
 8001a44:	69fb      	ldr	r3, [r7, #28]
 8001a46:	2b0f      	cmp	r3, #15
 8001a48:	f67f aea2 	bls.w	8001790 <HAL_GPIO_Init+0x1c>
      }
    }
  }
}
 8001a4c:	bf00      	nop
 8001a4e:	bf00      	nop
 8001a50:	3724      	adds	r7, #36	; 0x24
 8001a52:	46bd      	mov	sp, r7
 8001a54:	f85d 7b04 	ldr.w	r7, [sp], #4
 8001a58:	4770      	bx	lr
 8001a5a:	bf00      	nop
 8001a5c:	40023800 	.word	0x40023800
 8001a60:	40013800 	.word	0x40013800
 8001a64:	40020000 	.word	0x40020000
 8001a68:	40020400 	.word	0x40020400
 8001a6c:	40020800 	.word	0x40020800
 8001a70:	40020c00 	.word	0x40020c00
 8001a74:	40021000 	.word	0x40021000
 8001a78:	40013c00 	.word	0x40013c00

08001a7c <HAL_GPIO_WritePin>:
  *            @arg GPIO_PIN_RESET: to clear the port pin
  *            @arg GPIO_PIN_SET: to set the port pin
  * @retval None
  */
void HAL_GPIO_WritePin(GPIO_TypeDef* GPIOx, uint16_t GPIO_Pin, GPIO_PinState PinState)
{
 8001a7c:	b480      	push	{r7}
 8001a7e:	b083      	sub	sp, #12
 8001a80:	af00      	add	r7, sp, #0
 8001a82:	6078      	str	r0, [r7, #4]
 8001a84:	460b      	mov	r3, r1
 8001a86:	807b      	strh	r3, [r7, #2]
 8001a88:	4613      	mov	r3, r2
 8001a8a:	707b      	strb	r3, [r7, #1]
  /* Check the parameters */
  assert_param(IS_GPIO_PIN(GPIO_Pin));
  assert_param(IS_GPIO_PIN_ACTION(PinState));

  if(PinState != GPIO_PIN_RESET)
 8001a8c:	787b      	ldrb	r3, [r7, #1]
 8001a8e:	2b00      	cmp	r3, #0
 8001a90:	d003      	beq.n	8001a9a <HAL_GPIO_WritePin+0x1e>
  {
    GPIOx->BSRR = GPIO_Pin;
 8001a92:	887a      	ldrh	r2, [r7, #2]
 8001a94:	687b      	ldr	r3, [r7, #4]
 8001a96:	619a      	str	r2, [r3, #24]
  }
  else
  {
    GPIOx->BSRR = (uint32_t)GPIO_Pin << 16U;
  }
}
 8001a98:	e003      	b.n	8001aa2 <HAL_GPIO_WritePin+0x26>
    GPIOx->BSRR = (uint32_t)GPIO_Pin << 16U;
 8001a9a:	887b      	ldrh	r3, [r7, #2]
 8001a9c:	041a      	lsls	r2, r3, #16
 8001a9e:	687b      	ldr	r3, [r7, #4]
 8001aa0:	619a      	str	r2, [r3, #24]
}
 8001aa2:	bf00      	nop
 8001aa4:	370c      	adds	r7, #12
 8001aa6:	46bd      	mov	sp, r7
 8001aa8:	f85d 7b04 	ldr.w	r7, [sp], #4
 8001aac:	4770      	bx	lr

08001aae <HAL_GPIO_TogglePin>:
  *                      x can be (A..I) to select the GPIO peripheral for STM32F40XX and STM32F427X devices.
  * @param  GPIO_Pin Specifies the pins to be toggled.
  * @retval None
  */
void HAL_GPIO_TogglePin(GPIO_TypeDef* GPIOx, uint16_t GPIO_Pin)
{
 8001aae:	b480      	push	{r7}
 8001ab0:	b085      	sub	sp, #20
 8001ab2:	af00      	add	r7, sp, #0
 8001ab4:	6078      	str	r0, [r7, #4]
 8001ab6:	460b      	mov	r3, r1
 8001ab8:	807b      	strh	r3, [r7, #2]

  /* Check the parameters */
  assert_param(IS_GPIO_PIN(GPIO_Pin));

  /* get current Ouput Data Register value */
  odr = GPIOx->ODR;
 8001aba:	687b      	ldr	r3, [r7, #4]
 8001abc:	695b      	ldr	r3, [r3, #20]
 8001abe:	60fb      	str	r3, [r7, #12]

  /* Set selected pins that were at low level, and reset ones that were high */
  GPIOx->BSRR = ((odr & GPIO_Pin) << GPIO_NUMBER) | (~odr & GPIO_Pin);
 8001ac0:	887a      	ldrh	r2, [r7, #2]
 8001ac2:	68fb      	ldr	r3, [r7, #12]
 8001ac4:	4013      	ands	r3, r2
 8001ac6:	041a      	lsls	r2, r3, #16
 8001ac8:	68fb      	ldr	r3, [r7, #12]
 8001aca:	43d9      	mvns	r1, r3
 8001acc:	887b      	ldrh	r3, [r7, #2]
 8001ace:	400b      	ands	r3, r1
 8001ad0:	431a      	orrs	r2, r3
 8001ad2:	687b      	ldr	r3, [r7, #4]
 8001ad4:	619a      	str	r2, [r3, #24]
}
 8001ad6:	bf00      	nop
 8001ad8:	3714      	adds	r7, #20
 8001ada:	46bd      	mov	sp, r7
 8001adc:	f85d 7b04 	ldr.w	r7, [sp], #4
 8001ae0:	4770      	bx	lr
	...

08001ae4 <HAL_GPIO_EXTI_IRQHandler>:
  * @brief  This function handles EXTI interrupt request.
  * @param  GPIO_Pin Specifies the pins connected EXTI line
  * @retval None
  */
void HAL_GPIO_EXTI_IRQHandler(uint16_t GPIO_Pin)
{
 8001ae4:	b580      	push	{r7, lr}
 8001ae6:	b082      	sub	sp, #8
 8001ae8:	af00      	add	r7, sp, #0
 8001aea:	4603      	mov	r3, r0
 8001aec:	80fb      	strh	r3, [r7, #6]
  /* EXTI line interrupt detected */
  if(__HAL_GPIO_EXTI_GET_IT(GPIO_Pin) != RESET)
 8001aee:	4b08      	ldr	r3, [pc, #32]	; (8001b10 <HAL_GPIO_EXTI_IRQHandler+0x2c>)
 8001af0:	695a      	ldr	r2, [r3, #20]
 8001af2:	88fb      	ldrh	r3, [r7, #6]
 8001af4:	4013      	ands	r3, r2
 8001af6:	2b00      	cmp	r3, #0
 8001af8:	d006      	beq.n	8001b08 <HAL_GPIO_EXTI_IRQHandler+0x24>
  {
    __HAL_GPIO_EXTI_CLEAR_IT(GPIO_Pin);
 8001afa:	4a05      	ldr	r2, [pc, #20]	; (8001b10 <HAL_GPIO_EXTI_IRQHandler+0x2c>)
 8001afc:	88fb      	ldrh	r3, [r7, #6]
 8001afe:	6153      	str	r3, [r2, #20]
    HAL_GPIO_EXTI_Callback(GPIO_Pin);
 8001b00:	88fb      	ldrh	r3, [r7, #6]
 8001b02:	4618      	mov	r0, r3
 8001b04:	f000 f806 	bl	8001b14 <HAL_GPIO_EXTI_Callback>
  }
}
 8001b08:	bf00      	nop
 8001b0a:	3708      	adds	r7, #8
 8001b0c:	46bd      	mov	sp, r7
 8001b0e:	bd80      	pop	{r7, pc}
 8001b10:	40013c00 	.word	0x40013c00

08001b14 <HAL_GPIO_EXTI_Callback>:
  * @brief  EXTI line detection callbacks.
  * @param  GPIO_Pin Specifies the pins connected EXTI line
  * @retval None
  */
__weak void HAL_GPIO_EXTI_Callback(uint16_t GPIO_Pin)
{
 8001b14:	b480      	push	{r7}
 8001b16:	b083      	sub	sp, #12
 8001b18:	af00      	add	r7, sp, #0
 8001b1a:	4603      	mov	r3, r0
 8001b1c:	80fb      	strh	r3, [r7, #6]
  /* Prevent unused argument(s) compilation warning */
  UNUSED(GPIO_Pin);
  /* NOTE: This function Should not be modified, when the callback is needed,
           the HAL_GPIO_EXTI_Callback could be implemented in the user file
   */
}
 8001b1e:	bf00      	nop
 8001b20:	370c      	adds	r7, #12
 8001b22:	46bd      	mov	sp, r7
 8001b24:	f85d 7b04 	ldr.w	r7, [sp], #4
 8001b28:	4770      	bx	lr

08001b2a <HAL_HCD_Init>:
  * @brief  Initialize the host driver.
  * @param  hhcd HCD handle
  * @retval HAL status
  */
HAL_StatusTypeDef HAL_HCD_Init(HCD_HandleTypeDef *hhcd)
{
 8001b2a:	b5f0      	push	{r4, r5, r6, r7, lr}
 8001b2c:	b08f      	sub	sp, #60	; 0x3c
 8001b2e:	af0a      	add	r7, sp, #40	; 0x28
 8001b30:	6078      	str	r0, [r7, #4]
  USB_OTG_GlobalTypeDef *USBx;

  /* Check the HCD handle allocation */
  if (hhcd == NULL)
 8001b32:	687b      	ldr	r3, [r7, #4]
 8001b34:	2b00      	cmp	r3, #0
 8001b36:	d101      	bne.n	8001b3c <HAL_HCD_Init+0x12>
  {
    return HAL_ERROR;
 8001b38:	2301      	movs	r3, #1
 8001b3a:	e054      	b.n	8001be6 <HAL_HCD_Init+0xbc>
  }

  /* Check the parameters */
  assert_param(IS_HCD_ALL_INSTANCE(hhcd->Instance));

  USBx = hhcd->Instance;
 8001b3c:	687b      	ldr	r3, [r7, #4]
 8001b3e:	681b      	ldr	r3, [r3, #0]
 8001b40:	60fb      	str	r3, [r7, #12]

  if (hhcd->State == HAL_HCD_STATE_RESET)
 8001b42:	687b      	ldr	r3, [r7, #4]
 8001b44:	f893 32f9 	ldrb.w	r3, [r3, #761]	; 0x2f9
 8001b48:	b2db      	uxtb	r3, r3
 8001b4a:	2b00      	cmp	r3, #0
 8001b4c:	d106      	bne.n	8001b5c <HAL_HCD_Init+0x32>
  {
    /* Allocate lock resource and initialize it */
    hhcd->Lock = HAL_UNLOCKED;
 8001b4e:	687b      	ldr	r3, [r7, #4]
 8001b50:	2200      	movs	r2, #0
 8001b52:	f883 22f8 	strb.w	r2, [r3, #760]	; 0x2f8

    /* Init the low level hardware */
    hhcd->MspInitCallback(hhcd);
#else
    /* Init the low level hardware : GPIO, CLOCK, NVIC... */
    HAL_HCD_MspInit(hhcd);
 8001b56:	6878      	ldr	r0, [r7, #4]
 8001b58:	f008 f9ce 	bl	8009ef8 <HAL_HCD_MspInit>
#endif /* (USE_HAL_HCD_REGISTER_CALLBACKS) */
  }

  hhcd->State = HAL_HCD_STATE_BUSY;
 8001b5c:	687b      	ldr	r3, [r7, #4]
 8001b5e:	2203      	movs	r2, #3
 8001b60:	f883 22f9 	strb.w	r2, [r3, #761]	; 0x2f9

  /* Disable DMA mode for FS instance */
  if ((USBx->CID & (0x1U << 8)) == 0U)
 8001b64:	68fb      	ldr	r3, [r7, #12]
 8001b66:	6bdb      	ldr	r3, [r3, #60]	; 0x3c
 8001b68:	f403 7380 	and.w	r3, r3, #256	; 0x100
 8001b6c:	2b00      	cmp	r3, #0
 8001b6e:	d102      	bne.n	8001b76 <HAL_HCD_Init+0x4c>
  {
    hhcd->Init.dma_enable = 0U;
 8001b70:	687b      	ldr	r3, [r7, #4]
 8001b72:	2200      	movs	r2, #0
 8001b74:	611a      	str	r2, [r3, #16]
  }

  /* Disable the Interrupts */
  __HAL_HCD_DISABLE(hhcd);
 8001b76:	687b      	ldr	r3, [r7, #4]
 8001b78:	681b      	ldr	r3, [r3, #0]
 8001b7a:	4618      	mov	r0, r3
 8001b7c:	f005 fb24 	bl	80071c8 <USB_DisableGlobalInt>

  /* Init the Core (common init.) */
  (void)USB_CoreInit(hhcd->Instance, hhcd->Init);
 8001b80:	687b      	ldr	r3, [r7, #4]
 8001b82:	681b      	ldr	r3, [r3, #0]
 8001b84:	603b      	str	r3, [r7, #0]
 8001b86:	687e      	ldr	r6, [r7, #4]
 8001b88:	466d      	mov	r5, sp
 8001b8a:	f106 0410 	add.w	r4, r6, #16
 8001b8e:	cc0f      	ldmia	r4!, {r0, r1, r2, r3}
 8001b90:	c50f      	stmia	r5!, {r0, r1, r2, r3}
 8001b92:	cc0f      	ldmia	r4!, {r0, r1, r2, r3}
 8001b94:	c50f      	stmia	r5!, {r0, r1, r2, r3}
 8001b96:	e894 0003 	ldmia.w	r4, {r0, r1}
 8001b9a:	e885 0003 	stmia.w	r5, {r0, r1}
 8001b9e:	1d33      	adds	r3, r6, #4
 8001ba0:	cb0e      	ldmia	r3, {r1, r2, r3}
 8001ba2:	6838      	ldr	r0, [r7, #0]
 8001ba4:	f005 fa9e 	bl	80070e4 <USB_CoreInit>

  /* Force Host Mode*/
  (void)USB_SetCurrentMode(hhcd->Instance, USB_HOST_MODE);
 8001ba8:	687b      	ldr	r3, [r7, #4]
 8001baa:	681b      	ldr	r3, [r3, #0]
 8001bac:	2101      	movs	r1, #1
 8001bae:	4618      	mov	r0, r3
 8001bb0:	f005 fb1b 	bl	80071ea <USB_SetCurrentMode>

  /* Init Host */
  (void)USB_HostInit(hhcd->Instance, hhcd->Init);
 8001bb4:	687b      	ldr	r3, [r7, #4]
 8001bb6:	681b      	ldr	r3, [r3, #0]
 8001bb8:	603b      	str	r3, [r7, #0]
 8001bba:	687e      	ldr	r6, [r7, #4]
 8001bbc:	466d      	mov	r5, sp
 8001bbe:	f106 0410 	add.w	r4, r6, #16
 8001bc2:	cc0f      	ldmia	r4!, {r0, r1, r2, r3}
 8001bc4:	c50f      	stmia	r5!, {r0, r1, r2, r3}
 8001bc6:	cc0f      	ldmia	r4!, {r0, r1, r2, r3}
 8001bc8:	c50f      	stmia	r5!, {r0, r1, r2, r3}
 8001bca:	e894 0003 	ldmia.w	r4, {r0, r1}
 8001bce:	e885 0003 	stmia.w	r5, {r0, r1}
 8001bd2:	1d33      	adds	r3, r6, #4
 8001bd4:	cb0e      	ldmia	r3, {r1, r2, r3}
 8001bd6:	6838      	ldr	r0, [r7, #0]
 8001bd8:	f005 fc82 	bl	80074e0 <USB_HostInit>

  hhcd->State = HAL_HCD_STATE_READY;
 8001bdc:	687b      	ldr	r3, [r7, #4]
 8001bde:	2201      	movs	r2, #1
 8001be0:	f883 22f9 	strb.w	r2, [r3, #761]	; 0x2f9

  return HAL_OK;
 8001be4:	2300      	movs	r3, #0
}
 8001be6:	4618      	mov	r0, r3
 8001be8:	3714      	adds	r7, #20
 8001bea:	46bd      	mov	sp, r7
 8001bec:	bdf0      	pop	{r4, r5, r6, r7, pc}

08001bee <HAL_HCD_HC_Init>:
                                  uint8_t epnum,
                                  uint8_t dev_address,
                                  uint8_t speed,
                                  uint8_t ep_type,
                                  uint16_t mps)
{
 8001bee:	b590      	push	{r4, r7, lr}
 8001bf0:	b089      	sub	sp, #36	; 0x24
 8001bf2:	af04      	add	r7, sp, #16
 8001bf4:	6078      	str	r0, [r7, #4]
 8001bf6:	4608      	mov	r0, r1
 8001bf8:	4611      	mov	r1, r2
 8001bfa:	461a      	mov	r2, r3
 8001bfc:	4603      	mov	r3, r0
 8001bfe:	70fb      	strb	r3, [r7, #3]
 8001c00:	460b      	mov	r3, r1
 8001c02:	70bb      	strb	r3, [r7, #2]
 8001c04:	4613      	mov	r3, r2
 8001c06:	707b      	strb	r3, [r7, #1]
  HAL_StatusTypeDef status;

  __HAL_LOCK(hhcd);
 8001c08:	687b      	ldr	r3, [r7, #4]
 8001c0a:	f893 32f8 	ldrb.w	r3, [r3, #760]	; 0x2f8
 8001c0e:	2b01      	cmp	r3, #1
 8001c10:	d101      	bne.n	8001c16 <HAL_HCD_HC_Init+0x28>
 8001c12:	2302      	movs	r3, #2
 8001c14:	e076      	b.n	8001d04 <HAL_HCD_HC_Init+0x116>
 8001c16:	687b      	ldr	r3, [r7, #4]
 8001c18:	2201      	movs	r2, #1
 8001c1a:	f883 22f8 	strb.w	r2, [r3, #760]	; 0x2f8
  hhcd->hc[ch_num].do_ping = 0U;
 8001c1e:	78fb      	ldrb	r3, [r7, #3]
 8001c20:	687a      	ldr	r2, [r7, #4]
 8001c22:	212c      	movs	r1, #44	; 0x2c
 8001c24:	fb01 f303 	mul.w	r3, r1, r3
 8001c28:	4413      	add	r3, r2
 8001c2a:	333d      	adds	r3, #61	; 0x3d
 8001c2c:	2200      	movs	r2, #0
 8001c2e:	701a      	strb	r2, [r3, #0]
  hhcd->hc[ch_num].dev_addr = dev_address;
 8001c30:	78fb      	ldrb	r3, [r7, #3]
 8001c32:	687a      	ldr	r2, [r7, #4]
 8001c34:	212c      	movs	r1, #44	; 0x2c
 8001c36:	fb01 f303 	mul.w	r3, r1, r3
 8001c3a:	4413      	add	r3, r2
 8001c3c:	3338      	adds	r3, #56	; 0x38
 8001c3e:	787a      	ldrb	r2, [r7, #1]
 8001c40:	701a      	strb	r2, [r3, #0]
  hhcd->hc[ch_num].max_packet = mps;
 8001c42:	78fb      	ldrb	r3, [r7, #3]
 8001c44:	687a      	ldr	r2, [r7, #4]
 8001c46:	212c      	movs	r1, #44	; 0x2c
 8001c48:	fb01 f303 	mul.w	r3, r1, r3
 8001c4c:	4413      	add	r3, r2
 8001c4e:	3340      	adds	r3, #64	; 0x40
 8001c50:	8d3a      	ldrh	r2, [r7, #40]	; 0x28
 8001c52:	801a      	strh	r2, [r3, #0]
  hhcd->hc[ch_num].ch_num = ch_num;
 8001c54:	78fb      	ldrb	r3, [r7, #3]
 8001c56:	687a      	ldr	r2, [r7, #4]
 8001c58:	212c      	movs	r1, #44	; 0x2c
 8001c5a:	fb01 f303 	mul.w	r3, r1, r3
 8001c5e:	4413      	add	r3, r2
 8001c60:	3339      	adds	r3, #57	; 0x39
 8001c62:	78fa      	ldrb	r2, [r7, #3]
 8001c64:	701a      	strb	r2, [r3, #0]
  hhcd->hc[ch_num].ep_type = ep_type;
 8001c66:	78fb      	ldrb	r3, [r7, #3]
 8001c68:	687a      	ldr	r2, [r7, #4]
 8001c6a:	212c      	movs	r1, #44	; 0x2c
 8001c6c:	fb01 f303 	mul.w	r3, r1, r3
 8001c70:	4413      	add	r3, r2
 8001c72:	333f      	adds	r3, #63	; 0x3f
 8001c74:	f897 2024 	ldrb.w	r2, [r7, #36]	; 0x24
 8001c78:	701a      	strb	r2, [r3, #0]
  hhcd->hc[ch_num].ep_num = epnum & 0x7FU;
 8001c7a:	78fb      	ldrb	r3, [r7, #3]
 8001c7c:	78ba      	ldrb	r2, [r7, #2]
 8001c7e:	f002 027f 	and.w	r2, r2, #127	; 0x7f
 8001c82:	b2d0      	uxtb	r0, r2
 8001c84:	687a      	ldr	r2, [r7, #4]
 8001c86:	212c      	movs	r1, #44	; 0x2c
 8001c88:	fb01 f303 	mul.w	r3, r1, r3
 8001c8c:	4413      	add	r3, r2
 8001c8e:	333a      	adds	r3, #58	; 0x3a
 8001c90:	4602      	mov	r2, r0
 8001c92:	701a      	strb	r2, [r3, #0]

  if ((epnum & 0x80U) == 0x80U)
 8001c94:	f997 3002 	ldrsb.w	r3, [r7, #2]
 8001c98:	2b00      	cmp	r3, #0
 8001c9a:	da09      	bge.n	8001cb0 <HAL_HCD_HC_Init+0xc2>
  {
    hhcd->hc[ch_num].ep_is_in = 1U;
 8001c9c:	78fb      	ldrb	r3, [r7, #3]
 8001c9e:	687a      	ldr	r2, [r7, #4]
 8001ca0:	212c      	movs	r1, #44	; 0x2c
 8001ca2:	fb01 f303 	mul.w	r3, r1, r3
 8001ca6:	4413      	add	r3, r2
 8001ca8:	333b      	adds	r3, #59	; 0x3b
 8001caa:	2201      	movs	r2, #1
 8001cac:	701a      	strb	r2, [r3, #0]
 8001cae:	e008      	b.n	8001cc2 <HAL_HCD_HC_Init+0xd4>
  }
  else
  {
    hhcd->hc[ch_num].ep_is_in = 0U;
 8001cb0:	78fb      	ldrb	r3, [r7, #3]
 8001cb2:	687a      	ldr	r2, [r7, #4]
 8001cb4:	212c      	movs	r1, #44	; 0x2c
 8001cb6:	fb01 f303 	mul.w	r3, r1, r3
 8001cba:	4413      	add	r3, r2
 8001cbc:	333b      	adds	r3, #59	; 0x3b
 8001cbe:	2200      	movs	r2, #0
 8001cc0:	701a      	strb	r2, [r3, #0]
  }

  hhcd->hc[ch_num].speed = speed;
 8001cc2:	78fb      	ldrb	r3, [r7, #3]
 8001cc4:	687a      	ldr	r2, [r7, #4]
 8001cc6:	212c      	movs	r1, #44	; 0x2c
 8001cc8:	fb01 f303 	mul.w	r3, r1, r3
 8001ccc:	4413      	add	r3, r2
 8001cce:	333c      	adds	r3, #60	; 0x3c
 8001cd0:	f897 2020 	ldrb.w	r2, [r7, #32]
 8001cd4:	701a      	strb	r2, [r3, #0]

  status =  USB_HC_Init(hhcd->Instance,
 8001cd6:	687b      	ldr	r3, [r7, #4]
 8001cd8:	6818      	ldr	r0, [r3, #0]
 8001cda:	787c      	ldrb	r4, [r7, #1]
 8001cdc:	78ba      	ldrb	r2, [r7, #2]
 8001cde:	78f9      	ldrb	r1, [r7, #3]
 8001ce0:	8d3b      	ldrh	r3, [r7, #40]	; 0x28
 8001ce2:	9302      	str	r3, [sp, #8]
 8001ce4:	f897 3024 	ldrb.w	r3, [r7, #36]	; 0x24
 8001ce8:	9301      	str	r3, [sp, #4]
 8001cea:	f897 3020 	ldrb.w	r3, [r7, #32]
 8001cee:	9300      	str	r3, [sp, #0]
 8001cf0:	4623      	mov	r3, r4
 8001cf2:	f005 fd6f 	bl	80077d4 <USB_HC_Init>
 8001cf6:	4603      	mov	r3, r0
 8001cf8:	73fb      	strb	r3, [r7, #15]
                        epnum,
                        dev_address,
                        speed,
                        ep_type,
                        mps);
  __HAL_UNLOCK(hhcd);
 8001cfa:	687b      	ldr	r3, [r7, #4]
 8001cfc:	2200      	movs	r2, #0
 8001cfe:	f883 22f8 	strb.w	r2, [r3, #760]	; 0x2f8

  return status;
 8001d02:	7bfb      	ldrb	r3, [r7, #15]
}
 8001d04:	4618      	mov	r0, r3
 8001d06:	3714      	adds	r7, #20
 8001d08:	46bd      	mov	sp, r7
 8001d0a:	bd90      	pop	{r4, r7, pc}

08001d0c <HAL_HCD_HC_Halt>:
  * @param  ch_num Channel number.
  *         This parameter can be a value from 1 to 15
  * @retval HAL status
  */
HAL_StatusTypeDef HAL_HCD_HC_Halt(HCD_HandleTypeDef *hhcd, uint8_t ch_num)
{
 8001d0c:	b580      	push	{r7, lr}
 8001d0e:	b084      	sub	sp, #16
 8001d10:	af00      	add	r7, sp, #0
 8001d12:	6078      	str	r0, [r7, #4]
 8001d14:	460b      	mov	r3, r1
 8001d16:	70fb      	strb	r3, [r7, #3]
  HAL_StatusTypeDef status = HAL_OK;
 8001d18:	2300      	movs	r3, #0
 8001d1a:	73fb      	strb	r3, [r7, #15]

  __HAL_LOCK(hhcd);
 8001d1c:	687b      	ldr	r3, [r7, #4]
 8001d1e:	f893 32f8 	ldrb.w	r3, [r3, #760]	; 0x2f8
 8001d22:	2b01      	cmp	r3, #1
 8001d24:	d101      	bne.n	8001d2a <HAL_HCD_HC_Halt+0x1e>
 8001d26:	2302      	movs	r3, #2
 8001d28:	e00f      	b.n	8001d4a <HAL_HCD_HC_Halt+0x3e>
 8001d2a:	687b      	ldr	r3, [r7, #4]
 8001d2c:	2201      	movs	r2, #1
 8001d2e:	f883 22f8 	strb.w	r2, [r3, #760]	; 0x2f8
  (void)USB_HC_Halt(hhcd->Instance, (uint8_t)ch_num);
 8001d32:	687b      	ldr	r3, [r7, #4]
 8001d34:	681b      	ldr	r3, [r3, #0]
 8001d36:	78fa      	ldrb	r2, [r7, #3]
 8001d38:	4611      	mov	r1, r2
 8001d3a:	4618      	mov	r0, r3
 8001d3c:	f005 ffab 	bl	8007c96 <USB_HC_Halt>
  __HAL_UNLOCK(hhcd);
 8001d40:	687b      	ldr	r3, [r7, #4]
 8001d42:	2200      	movs	r2, #0
 8001d44:	f883 22f8 	strb.w	r2, [r3, #760]	; 0x2f8

  return status;
 8001d48:	7bfb      	ldrb	r3, [r7, #15]
}
 8001d4a:	4618      	mov	r0, r3
 8001d4c:	3710      	adds	r7, #16
 8001d4e:	46bd      	mov	sp, r7
 8001d50:	bd80      	pop	{r7, pc}
	...

08001d54 <HAL_HCD_HC_SubmitRequest>:
                                           uint8_t ep_type,
                                           uint8_t token,
                                           uint8_t *pbuff,
                                           uint16_t length,
                                           uint8_t do_ping)
{
 8001d54:	b580      	push	{r7, lr}
 8001d56:	b082      	sub	sp, #8
 8001d58:	af00      	add	r7, sp, #0
 8001d5a:	6078      	str	r0, [r7, #4]
 8001d5c:	4608      	mov	r0, r1
 8001d5e:	4611      	mov	r1, r2
 8001d60:	461a      	mov	r2, r3
 8001d62:	4603      	mov	r3, r0
 8001d64:	70fb      	strb	r3, [r7, #3]
 8001d66:	460b      	mov	r3, r1
 8001d68:	70bb      	strb	r3, [r7, #2]
 8001d6a:	4613      	mov	r3, r2
 8001d6c:	707b      	strb	r3, [r7, #1]
  hhcd->hc[ch_num].ep_is_in = direction;
 8001d6e:	78fb      	ldrb	r3, [r7, #3]
 8001d70:	687a      	ldr	r2, [r7, #4]
 8001d72:	212c      	movs	r1, #44	; 0x2c
 8001d74:	fb01 f303 	mul.w	r3, r1, r3
 8001d78:	4413      	add	r3, r2
 8001d7a:	333b      	adds	r3, #59	; 0x3b
 8001d7c:	78ba      	ldrb	r2, [r7, #2]
 8001d7e:	701a      	strb	r2, [r3, #0]
  hhcd->hc[ch_num].ep_type  = ep_type;
 8001d80:	78fb      	ldrb	r3, [r7, #3]
 8001d82:	687a      	ldr	r2, [r7, #4]
 8001d84:	212c      	movs	r1, #44	; 0x2c
 8001d86:	fb01 f303 	mul.w	r3, r1, r3
 8001d8a:	4413      	add	r3, r2
 8001d8c:	333f      	adds	r3, #63	; 0x3f
 8001d8e:	787a      	ldrb	r2, [r7, #1]
 8001d90:	701a      	strb	r2, [r3, #0]

  if (token == 0U)
 8001d92:	7c3b      	ldrb	r3, [r7, #16]
 8001d94:	2b00      	cmp	r3, #0
 8001d96:	d112      	bne.n	8001dbe <HAL_HCD_HC_SubmitRequest+0x6a>
  {
    hhcd->hc[ch_num].data_pid = HC_PID_SETUP;
 8001d98:	78fb      	ldrb	r3, [r7, #3]
 8001d9a:	687a      	ldr	r2, [r7, #4]
 8001d9c:	212c      	movs	r1, #44	; 0x2c
 8001d9e:	fb01 f303 	mul.w	r3, r1, r3
 8001da2:	4413      	add	r3, r2
 8001da4:	3342      	adds	r3, #66	; 0x42
 8001da6:	2203      	movs	r2, #3
 8001da8:	701a      	strb	r2, [r3, #0]
    hhcd->hc[ch_num].do_ping = do_ping;
 8001daa:	78fb      	ldrb	r3, [r7, #3]
 8001dac:	687a      	ldr	r2, [r7, #4]
 8001dae:	212c      	movs	r1, #44	; 0x2c
 8001db0:	fb01 f303 	mul.w	r3, r1, r3
 8001db4:	4413      	add	r3, r2
 8001db6:	333d      	adds	r3, #61	; 0x3d
 8001db8:	7f3a      	ldrb	r2, [r7, #28]
 8001dba:	701a      	strb	r2, [r3, #0]
 8001dbc:	e008      	b.n	8001dd0 <HAL_HCD_HC_SubmitRequest+0x7c>
  }
  else
  {
    hhcd->hc[ch_num].data_pid = HC_PID_DATA1;
 8001dbe:	78fb      	ldrb	r3, [r7, #3]
 8001dc0:	687a      	ldr	r2, [r7, #4]
 8001dc2:	212c      	movs	r1, #44	; 0x2c
 8001dc4:	fb01 f303 	mul.w	r3, r1, r3
 8001dc8:	4413      	add	r3, r2
 8001dca:	3342      	adds	r3, #66	; 0x42
 8001dcc:	2202      	movs	r2, #2
 8001dce:	701a      	strb	r2, [r3, #0]
  }

  /* Manage Data Toggle */
  switch (ep_type)
 8001dd0:	787b      	ldrb	r3, [r7, #1]
 8001dd2:	2b03      	cmp	r3, #3
 8001dd4:	f200 80c6 	bhi.w	8001f64 <HAL_HCD_HC_SubmitRequest+0x210>
 8001dd8:	a201      	add	r2, pc, #4	; (adr r2, 8001de0 <HAL_HCD_HC_SubmitRequest+0x8c>)
 8001dda:	f852 f023 	ldr.w	pc, [r2, r3, lsl #2]
 8001dde:	bf00      	nop
 8001de0:	08001df1 	.word	0x08001df1
 8001de4:	08001f51 	.word	0x08001f51
 8001de8:	08001e55 	.word	0x08001e55
 8001dec:	08001ed3 	.word	0x08001ed3
  {
    case EP_TYPE_CTRL:
      if ((token == 1U) && (direction == 0U)) /*send data */
 8001df0:	7c3b      	ldrb	r3, [r7, #16]
 8001df2:	2b01      	cmp	r3, #1
 8001df4:	f040 80b8 	bne.w	8001f68 <HAL_HCD_HC_SubmitRequest+0x214>
 8001df8:	78bb      	ldrb	r3, [r7, #2]
 8001dfa:	2b00      	cmp	r3, #0
 8001dfc:	f040 80b4 	bne.w	8001f68 <HAL_HCD_HC_SubmitRequest+0x214>
      {
        if (length == 0U)
 8001e00:	8b3b      	ldrh	r3, [r7, #24]
 8001e02:	2b00      	cmp	r3, #0
 8001e04:	d108      	bne.n	8001e18 <HAL_HCD_HC_SubmitRequest+0xc4>
        {
          /* For Status OUT stage, Length==0, Status Out PID = 1 */
          hhcd->hc[ch_num].toggle_out = 1U;
 8001e06:	78fb      	ldrb	r3, [r7, #3]
 8001e08:	687a      	ldr	r2, [r7, #4]
 8001e0a:	212c      	movs	r1, #44	; 0x2c
 8001e0c:	fb01 f303 	mul.w	r3, r1, r3
 8001e10:	4413      	add	r3, r2
 8001e12:	3355      	adds	r3, #85	; 0x55
 8001e14:	2201      	movs	r2, #1
 8001e16:	701a      	strb	r2, [r3, #0]
        }

        /* Set the Data Toggle bit as per the Flag */
        if (hhcd->hc[ch_num].toggle_out == 0U)
 8001e18:	78fb      	ldrb	r3, [r7, #3]
 8001e1a:	687a      	ldr	r2, [r7, #4]
 8001e1c:	212c      	movs	r1, #44	; 0x2c
 8001e1e:	fb01 f303 	mul.w	r3, r1, r3
 8001e22:	4413      	add	r3, r2
 8001e24:	3355      	adds	r3, #85	; 0x55
 8001e26:	781b      	ldrb	r3, [r3, #0]
 8001e28:	2b00      	cmp	r3, #0
 8001e2a:	d109      	bne.n	8001e40 <HAL_HCD_HC_SubmitRequest+0xec>
        {
          /* Put the PID 0 */
          hhcd->hc[ch_num].data_pid = HC_PID_DATA0;
 8001e2c:	78fb      	ldrb	r3, [r7, #3]
 8001e2e:	687a      	ldr	r2, [r7, #4]
 8001e30:	212c      	movs	r1, #44	; 0x2c
 8001e32:	fb01 f303 	mul.w	r3, r1, r3
 8001e36:	4413      	add	r3, r2
 8001e38:	3342      	adds	r3, #66	; 0x42
 8001e3a:	2200      	movs	r2, #0
 8001e3c:	701a      	strb	r2, [r3, #0]
        {
          /* Put the PID 1 */
          hhcd->hc[ch_num].data_pid = HC_PID_DATA1;
        }
      }
      break;
 8001e3e:	e093      	b.n	8001f68 <HAL_HCD_HC_SubmitRequest+0x214>
          hhcd->hc[ch_num].data_pid = HC_PID_DATA1;
 8001e40:	78fb      	ldrb	r3, [r7, #3]
 8001e42:	687a      	ldr	r2, [r7, #4]
 8001e44:	212c      	movs	r1, #44	; 0x2c
 8001e46:	fb01 f303 	mul.w	r3, r1, r3
 8001e4a:	4413      	add	r3, r2
 8001e4c:	3342      	adds	r3, #66	; 0x42
 8001e4e:	2202      	movs	r2, #2
 8001e50:	701a      	strb	r2, [r3, #0]
      break;
 8001e52:	e089      	b.n	8001f68 <HAL_HCD_HC_SubmitRequest+0x214>

    case EP_TYPE_BULK:
      if (direction == 0U)
 8001e54:	78bb      	ldrb	r3, [r7, #2]
 8001e56:	2b00      	cmp	r3, #0
 8001e58:	d11d      	bne.n	8001e96 <HAL_HCD_HC_SubmitRequest+0x142>
      {
        /* Set the Data Toggle bit as per the Flag */
        if (hhcd->hc[ch_num].toggle_out == 0U)
 8001e5a:	78fb      	ldrb	r3, [r7, #3]
 8001e5c:	687a      	ldr	r2, [r7, #4]
 8001e5e:	212c      	movs	r1, #44	; 0x2c
 8001e60:	fb01 f303 	mul.w	r3, r1, r3
 8001e64:	4413      	add	r3, r2
 8001e66:	3355      	adds	r3, #85	; 0x55
 8001e68:	781b      	ldrb	r3, [r3, #0]
 8001e6a:	2b00      	cmp	r3, #0
 8001e6c:	d109      	bne.n	8001e82 <HAL_HCD_HC_SubmitRequest+0x12e>
        {
          /* Put the PID 0 */
          hhcd->hc[ch_num].data_pid = HC_PID_DATA0;
 8001e6e:	78fb      	ldrb	r3, [r7, #3]
 8001e70:	687a      	ldr	r2, [r7, #4]
 8001e72:	212c      	movs	r1, #44	; 0x2c
 8001e74:	fb01 f303 	mul.w	r3, r1, r3
 8001e78:	4413      	add	r3, r2
 8001e7a:	3342      	adds	r3, #66	; 0x42
 8001e7c:	2200      	movs	r2, #0
 8001e7e:	701a      	strb	r2, [r3, #0]
        {
          hhcd->hc[ch_num].data_pid = HC_PID_DATA1;
        }
      }

      break;
 8001e80:	e073      	b.n	8001f6a <HAL_HCD_HC_SubmitRequest+0x216>
          hhcd->hc[ch_num].data_pid = HC_PID_DATA1;
 8001e82:	78fb      	ldrb	r3, [r7, #3]
 8001e84:	687a      	ldr	r2, [r7, #4]
 8001e86:	212c      	movs	r1, #44	; 0x2c
 8001e88:	fb01 f303 	mul.w	r3, r1, r3
 8001e8c:	4413      	add	r3, r2
 8001e8e:	3342      	adds	r3, #66	; 0x42
 8001e90:	2202      	movs	r2, #2
 8001e92:	701a      	strb	r2, [r3, #0]
      break;
 8001e94:	e069      	b.n	8001f6a <HAL_HCD_HC_SubmitRequest+0x216>
        if (hhcd->hc[ch_num].toggle_in == 0U)
 8001e96:	78fb      	ldrb	r3, [r7, #3]
 8001e98:	687a      	ldr	r2, [r7, #4]
 8001e9a:	212c      	movs	r1, #44	; 0x2c
 8001e9c:	fb01 f303 	mul.w	r3, r1, r3
 8001ea0:	4413      	add	r3, r2
 8001ea2:	3354      	adds	r3, #84	; 0x54
 8001ea4:	781b      	ldrb	r3, [r3, #0]
 8001ea6:	2b00      	cmp	r3, #0
 8001ea8:	d109      	bne.n	8001ebe <HAL_HCD_HC_SubmitRequest+0x16a>
          hhcd->hc[ch_num].data_pid = HC_PID_DATA0;
 8001eaa:	78fb      	ldrb	r3, [r7, #3]
 8001eac:	687a      	ldr	r2, [r7, #4]
 8001eae:	212c      	movs	r1, #44	; 0x2c
 8001eb0:	fb01 f303 	mul.w	r3, r1, r3
 8001eb4:	4413      	add	r3, r2
 8001eb6:	3342      	adds	r3, #66	; 0x42
 8001eb8:	2200      	movs	r2, #0
 8001eba:	701a      	strb	r2, [r3, #0]
      break;
 8001ebc:	e055      	b.n	8001f6a <HAL_HCD_HC_SubmitRequest+0x216>
          hhcd->hc[ch_num].data_pid = HC_PID_DATA1;
 8001ebe:	78fb      	ldrb	r3, [r7, #3]
 8001ec0:	687a      	ldr	r2, [r7, #4]
 8001ec2:	212c      	movs	r1, #44	; 0x2c
 8001ec4:	fb01 f303 	mul.w	r3, r1, r3
 8001ec8:	4413      	add	r3, r2
 8001eca:	3342      	adds	r3, #66	; 0x42
 8001ecc:	2202      	movs	r2, #2
 8001ece:	701a      	strb	r2, [r3, #0]
      break;
 8001ed0:	e04b      	b.n	8001f6a <HAL_HCD_HC_SubmitRequest+0x216>
    case EP_TYPE_INTR:
      if (direction == 0U)
 8001ed2:	78bb      	ldrb	r3, [r7, #2]
 8001ed4:	2b00      	cmp	r3, #0
 8001ed6:	d11d      	bne.n	8001f14 <HAL_HCD_HC_SubmitRequest+0x1c0>
      {
        /* Set the Data Toggle bit as per the Flag */
        if (hhcd->hc[ch_num].toggle_out == 0U)
 8001ed8:	78fb      	ldrb	r3, [r7, #3]
 8001eda:	687a      	ldr	r2, [r7, #4]
 8001edc:	212c      	movs	r1, #44	; 0x2c
 8001ede:	fb01 f303 	mul.w	r3, r1, r3
 8001ee2:	4413      	add	r3, r2
 8001ee4:	3355      	adds	r3, #85	; 0x55
 8001ee6:	781b      	ldrb	r3, [r3, #0]
 8001ee8:	2b00      	cmp	r3, #0
 8001eea:	d109      	bne.n	8001f00 <HAL_HCD_HC_SubmitRequest+0x1ac>
        {
          /* Put the PID 0 */
          hhcd->hc[ch_num].data_pid = HC_PID_DATA0;
 8001eec:	78fb      	ldrb	r3, [r7, #3]
 8001eee:	687a      	ldr	r2, [r7, #4]
 8001ef0:	212c      	movs	r1, #44	; 0x2c
 8001ef2:	fb01 f303 	mul.w	r3, r1, r3
 8001ef6:	4413      	add	r3, r2
 8001ef8:	3342      	adds	r3, #66	; 0x42
 8001efa:	2200      	movs	r2, #0
 8001efc:	701a      	strb	r2, [r3, #0]
        else
        {
          hhcd->hc[ch_num].data_pid = HC_PID_DATA1;
        }
      }
      break;
 8001efe:	e034      	b.n	8001f6a <HAL_HCD_HC_SubmitRequest+0x216>
          hhcd->hc[ch_num].data_pid = HC_PID_DATA1;
 8001f00:	78fb      	ldrb	r3, [r7, #3]
 8001f02:	687a      	ldr	r2, [r7, #4]
 8001f04:	212c      	movs	r1, #44	; 0x2c
 8001f06:	fb01 f303 	mul.w	r3, r1, r3
 8001f0a:	4413      	add	r3, r2
 8001f0c:	3342      	adds	r3, #66	; 0x42
 8001f0e:	2202      	movs	r2, #2
 8001f10:	701a      	strb	r2, [r3, #0]
      break;
 8001f12:	e02a      	b.n	8001f6a <HAL_HCD_HC_SubmitRequest+0x216>
        if (hhcd->hc[ch_num].toggle_in == 0U)
 8001f14:	78fb      	ldrb	r3, [r7, #3]
 8001f16:	687a      	ldr	r2, [r7, #4]
 8001f18:	212c      	movs	r1, #44	; 0x2c
 8001f1a:	fb01 f303 	mul.w	r3, r1, r3
 8001f1e:	4413      	add	r3, r2
 8001f20:	3354      	adds	r3, #84	; 0x54
 8001f22:	781b      	ldrb	r3, [r3, #0]
 8001f24:	2b00      	cmp	r3, #0
 8001f26:	d109      	bne.n	8001f3c <HAL_HCD_HC_SubmitRequest+0x1e8>
          hhcd->hc[ch_num].data_pid = HC_PID_DATA0;
 8001f28:	78fb      	ldrb	r3, [r7, #3]
 8001f2a:	687a      	ldr	r2, [r7, #4]
 8001f2c:	212c      	movs	r1, #44	; 0x2c
 8001f2e:	fb01 f303 	mul.w	r3, r1, r3
 8001f32:	4413      	add	r3, r2
 8001f34:	3342      	adds	r3, #66	; 0x42
 8001f36:	2200      	movs	r2, #0
 8001f38:	701a      	strb	r2, [r3, #0]
      break;
 8001f3a:	e016      	b.n	8001f6a <HAL_HCD_HC_SubmitRequest+0x216>
          hhcd->hc[ch_num].data_pid = HC_PID_DATA1;
 8001f3c:	78fb      	ldrb	r3, [r7, #3]
 8001f3e:	687a      	ldr	r2, [r7, #4]
 8001f40:	212c      	movs	r1, #44	; 0x2c
 8001f42:	fb01 f303 	mul.w	r3, r1, r3
 8001f46:	4413      	add	r3, r2
 8001f48:	3342      	adds	r3, #66	; 0x42
 8001f4a:	2202      	movs	r2, #2
 8001f4c:	701a      	strb	r2, [r3, #0]
      break;
 8001f4e:	e00c      	b.n	8001f6a <HAL_HCD_HC_SubmitRequest+0x216>

    case EP_TYPE_ISOC:
      hhcd->hc[ch_num].data_pid = HC_PID_DATA0;
 8001f50:	78fb      	ldrb	r3, [r7, #3]
 8001f52:	687a      	ldr	r2, [r7, #4]
 8001f54:	212c      	movs	r1, #44	; 0x2c
 8001f56:	fb01 f303 	mul.w	r3, r1, r3
 8001f5a:	4413      	add	r3, r2
 8001f5c:	3342      	adds	r3, #66	; 0x42
 8001f5e:	2200      	movs	r2, #0
 8001f60:	701a      	strb	r2, [r3, #0]
      break;
 8001f62:	e002      	b.n	8001f6a <HAL_HCD_HC_SubmitRequest+0x216>

    default:
      break;
 8001f64:	bf00      	nop
 8001f66:	e000      	b.n	8001f6a <HAL_HCD_HC_SubmitRequest+0x216>
      break;
 8001f68:	bf00      	nop
  }

  hhcd->hc[ch_num].xfer_buff = pbuff;
 8001f6a:	78fb      	ldrb	r3, [r7, #3]
 8001f6c:	687a      	ldr	r2, [r7, #4]
 8001f6e:	212c      	movs	r1, #44	; 0x2c
 8001f70:	fb01 f303 	mul.w	r3, r1, r3
 8001f74:	4413      	add	r3, r2
 8001f76:	3344      	adds	r3, #68	; 0x44
 8001f78:	697a      	ldr	r2, [r7, #20]
 8001f7a:	601a      	str	r2, [r3, #0]
  hhcd->hc[ch_num].xfer_len  = length;
 8001f7c:	78fb      	ldrb	r3, [r7, #3]
 8001f7e:	8b3a      	ldrh	r2, [r7, #24]
 8001f80:	6879      	ldr	r1, [r7, #4]
 8001f82:	202c      	movs	r0, #44	; 0x2c
 8001f84:	fb00 f303 	mul.w	r3, r0, r3
 8001f88:	440b      	add	r3, r1
 8001f8a:	334c      	adds	r3, #76	; 0x4c
 8001f8c:	601a      	str	r2, [r3, #0]
  hhcd->hc[ch_num].urb_state = URB_IDLE;
 8001f8e:	78fb      	ldrb	r3, [r7, #3]
 8001f90:	687a      	ldr	r2, [r7, #4]
 8001f92:	212c      	movs	r1, #44	; 0x2c
 8001f94:	fb01 f303 	mul.w	r3, r1, r3
 8001f98:	4413      	add	r3, r2
 8001f9a:	3360      	adds	r3, #96	; 0x60
 8001f9c:	2200      	movs	r2, #0
 8001f9e:	701a      	strb	r2, [r3, #0]
  hhcd->hc[ch_num].xfer_count = 0U;
 8001fa0:	78fb      	ldrb	r3, [r7, #3]
 8001fa2:	687a      	ldr	r2, [r7, #4]
 8001fa4:	212c      	movs	r1, #44	; 0x2c
 8001fa6:	fb01 f303 	mul.w	r3, r1, r3
 8001faa:	4413      	add	r3, r2
 8001fac:	3350      	adds	r3, #80	; 0x50
 8001fae:	2200      	movs	r2, #0
 8001fb0:	601a      	str	r2, [r3, #0]
  hhcd->hc[ch_num].ch_num = ch_num;
 8001fb2:	78fb      	ldrb	r3, [r7, #3]
 8001fb4:	687a      	ldr	r2, [r7, #4]
 8001fb6:	212c      	movs	r1, #44	; 0x2c
 8001fb8:	fb01 f303 	mul.w	r3, r1, r3
 8001fbc:	4413      	add	r3, r2
 8001fbe:	3339      	adds	r3, #57	; 0x39
 8001fc0:	78fa      	ldrb	r2, [r7, #3]
 8001fc2:	701a      	strb	r2, [r3, #0]
  hhcd->hc[ch_num].state = HC_IDLE;
 8001fc4:	78fb      	ldrb	r3, [r7, #3]
 8001fc6:	687a      	ldr	r2, [r7, #4]
 8001fc8:	212c      	movs	r1, #44	; 0x2c
 8001fca:	fb01 f303 	mul.w	r3, r1, r3
 8001fce:	4413      	add	r3, r2
 8001fd0:	3361      	adds	r3, #97	; 0x61
 8001fd2:	2200      	movs	r2, #0
 8001fd4:	701a      	strb	r2, [r3, #0]

  return USB_HC_StartXfer(hhcd->Instance, &hhcd->hc[ch_num], (uint8_t)hhcd->Init.dma_enable);
 8001fd6:	687b      	ldr	r3, [r7, #4]
 8001fd8:	6818      	ldr	r0, [r3, #0]
 8001fda:	78fb      	ldrb	r3, [r7, #3]
 8001fdc:	222c      	movs	r2, #44	; 0x2c
 8001fde:	fb02 f303 	mul.w	r3, r2, r3
 8001fe2:	3338      	adds	r3, #56	; 0x38
 8001fe4:	687a      	ldr	r2, [r7, #4]
 8001fe6:	18d1      	adds	r1, r2, r3
 8001fe8:	687b      	ldr	r3, [r7, #4]
 8001fea:	691b      	ldr	r3, [r3, #16]
 8001fec:	b2db      	uxtb	r3, r3
 8001fee:	461a      	mov	r2, r3
 8001ff0:	f005 fcfe 	bl	80079f0 <USB_HC_StartXfer>
 8001ff4:	4603      	mov	r3, r0
}
 8001ff6:	4618      	mov	r0, r3
 8001ff8:	3708      	adds	r7, #8
 8001ffa:	46bd      	mov	sp, r7
 8001ffc:	bd80      	pop	{r7, pc}
 8001ffe:	bf00      	nop

08002000 <HAL_HCD_IRQHandler>:
  * @brief  Handle HCD interrupt request.
  * @param  hhcd HCD handle
  * @retval None
  */
void HAL_HCD_IRQHandler(HCD_HandleTypeDef *hhcd)
{
 8002000:	b580      	push	{r7, lr}
 8002002:	b086      	sub	sp, #24
 8002004:	af00      	add	r7, sp, #0
 8002006:	6078      	str	r0, [r7, #4]
  USB_OTG_GlobalTypeDef *USBx = hhcd->Instance;
 8002008:	687b      	ldr	r3, [r7, #4]
 800200a:	681b      	ldr	r3, [r3, #0]
 800200c:	613b      	str	r3, [r7, #16]
  uint32_t USBx_BASE = (uint32_t)USBx;
 800200e:	693b      	ldr	r3, [r7, #16]
 8002010:	60fb      	str	r3, [r7, #12]
  uint32_t i;
  uint32_t interrupt;

  /* Ensure that we are in device mode */
  if (USB_GetMode(hhcd->Instance) == USB_OTG_MODE_HOST)
 8002012:	687b      	ldr	r3, [r7, #4]
 8002014:	681b      	ldr	r3, [r3, #0]
 8002016:	4618      	mov	r0, r3
 8002018:	f005 fa21 	bl	800745e <USB_GetMode>
 800201c:	4603      	mov	r3, r0
 800201e:	2b01      	cmp	r3, #1
 8002020:	f040 80f6 	bne.w	8002210 <HAL_HCD_IRQHandler+0x210>
  {
    /* Avoid spurious interrupt */
    if (__HAL_HCD_IS_INVALID_INTERRUPT(hhcd))
 8002024:	687b      	ldr	r3, [r7, #4]
 8002026:	681b      	ldr	r3, [r3, #0]
 8002028:	4618      	mov	r0, r3
 800202a:	f005 fa05 	bl	8007438 <USB_ReadInterrupts>
 800202e:	4603      	mov	r3, r0
 8002030:	2b00      	cmp	r3, #0
 8002032:	f000 80ec 	beq.w	800220e <HAL_HCD_IRQHandler+0x20e>
    {
      return;
    }

    if (__HAL_HCD_GET_FLAG(hhcd, USB_OTG_GINTSTS_PXFR_INCOMPISOOUT))
 8002036:	687b      	ldr	r3, [r7, #4]
 8002038:	681b      	ldr	r3, [r3, #0]
 800203a:	4618      	mov	r0, r3
 800203c:	f005 f9fc 	bl	8007438 <USB_ReadInterrupts>
 8002040:	4603      	mov	r3, r0
 8002042:	f403 1300 	and.w	r3, r3, #2097152	; 0x200000
 8002046:	f5b3 1f00 	cmp.w	r3, #2097152	; 0x200000
 800204a:	d104      	bne.n	8002056 <HAL_HCD_IRQHandler+0x56>
    {
      /* Incorrect mode, acknowledge the interrupt */
      __HAL_HCD_CLEAR_FLAG(hhcd, USB_OTG_GINTSTS_PXFR_INCOMPISOOUT);
 800204c:	687b      	ldr	r3, [r7, #4]
 800204e:	681b      	ldr	r3, [r3, #0]
 8002050:	f44f 1200 	mov.w	r2, #2097152	; 0x200000
 8002054:	615a      	str	r2, [r3, #20]
    }

    if (__HAL_HCD_GET_FLAG(hhcd, USB_OTG_GINTSTS_IISOIXFR))
 8002056:	687b      	ldr	r3, [r7, #4]
 8002058:	681b      	ldr	r3, [r3, #0]
 800205a:	4618      	mov	r0, r3
 800205c:	f005 f9ec 	bl	8007438 <USB_ReadInterrupts>
 8002060:	4603      	mov	r3, r0
 8002062:	f403 1380 	and.w	r3, r3, #1048576	; 0x100000
 8002066:	f5b3 1f80 	cmp.w	r3, #1048576	; 0x100000
 800206a:	d104      	bne.n	8002076 <HAL_HCD_IRQHandler+0x76>
    {
      /* Incorrect mode, acknowledge the interrupt */
      __HAL_HCD_CLEAR_FLAG(hhcd, USB_OTG_GINTSTS_IISOIXFR);
 800206c:	687b      	ldr	r3, [r7, #4]
 800206e:	681b      	ldr	r3, [r3, #0]
 8002070:	f44f 1280 	mov.w	r2, #1048576	; 0x100000
 8002074:	615a      	str	r2, [r3, #20]
    }

    if (__HAL_HCD_GET_FLAG(hhcd, USB_OTG_GINTSTS_PTXFE))
 8002076:	687b      	ldr	r3, [r7, #4]
 8002078:	681b      	ldr	r3, [r3, #0]
 800207a:	4618      	mov	r0, r3
 800207c:	f005 f9dc 	bl	8007438 <USB_ReadInterrupts>
 8002080:	4603      	mov	r3, r0
 8002082:	f003 6380 	and.w	r3, r3, #67108864	; 0x4000000
 8002086:	f1b3 6f80 	cmp.w	r3, #67108864	; 0x4000000
 800208a:	d104      	bne.n	8002096 <HAL_HCD_IRQHandler+0x96>
    {
      /* Incorrect mode, acknowledge the interrupt */
      __HAL_HCD_CLEAR_FLAG(hhcd, USB_OTG_GINTSTS_PTXFE);
 800208c:	687b      	ldr	r3, [r7, #4]
 800208e:	681b      	ldr	r3, [r3, #0]
 8002090:	f04f 6280 	mov.w	r2, #67108864	; 0x4000000
 8002094:	615a      	str	r2, [r3, #20]
    }

    if (__HAL_HCD_GET_FLAG(hhcd, USB_OTG_GINTSTS_MMIS))
 8002096:	687b      	ldr	r3, [r7, #4]
 8002098:	681b      	ldr	r3, [r3, #0]
 800209a:	4618      	mov	r0, r3
 800209c:	f005 f9cc 	bl	8007438 <USB_ReadInterrupts>
 80020a0:	4603      	mov	r3, r0
 80020a2:	f003 0302 	and.w	r3, r3, #2
 80020a6:	2b02      	cmp	r3, #2
 80020a8:	d103      	bne.n	80020b2 <HAL_HCD_IRQHandler+0xb2>
    {
      /* Incorrect mode, acknowledge the interrupt */
      __HAL_HCD_CLEAR_FLAG(hhcd, USB_OTG_GINTSTS_MMIS);
 80020aa:	687b      	ldr	r3, [r7, #4]
 80020ac:	681b      	ldr	r3, [r3, #0]
 80020ae:	2202      	movs	r2, #2
 80020b0:	615a      	str	r2, [r3, #20]
    }

    /* Handle Host Disconnect Interrupts */
    if (__HAL_HCD_GET_FLAG(hhcd, USB_OTG_GINTSTS_DISCINT))
 80020b2:	687b      	ldr	r3, [r7, #4]
 80020b4:	681b      	ldr	r3, [r3, #0]
 80020b6:	4618      	mov	r0, r3
 80020b8:	f005 f9be 	bl	8007438 <USB_ReadInterrupts>
 80020bc:	4603      	mov	r3, r0
 80020be:	f003 5300 	and.w	r3, r3, #536870912	; 0x20000000
 80020c2:	f1b3 5f00 	cmp.w	r3, #536870912	; 0x20000000
 80020c6:	d11c      	bne.n	8002102 <HAL_HCD_IRQHandler+0x102>
    {
      __HAL_HCD_CLEAR_FLAG(hhcd, USB_OTG_GINTSTS_DISCINT);
 80020c8:	687b      	ldr	r3, [r7, #4]
 80020ca:	681b      	ldr	r3, [r3, #0]
 80020cc:	f04f 5200 	mov.w	r2, #536870912	; 0x20000000
 80020d0:	615a      	str	r2, [r3, #20]

      if ((USBx_HPRT0 & USB_OTG_HPRT_PCSTS) == 0U)
 80020d2:	68fb      	ldr	r3, [r7, #12]
 80020d4:	f503 6388 	add.w	r3, r3, #1088	; 0x440
 80020d8:	681b      	ldr	r3, [r3, #0]
 80020da:	f003 0301 	and.w	r3, r3, #1
 80020de:	2b00      	cmp	r3, #0
 80020e0:	d10f      	bne.n	8002102 <HAL_HCD_IRQHandler+0x102>
      {
        /* Flush USB Fifo */
        (void)USB_FlushTxFifo(USBx, 0x10U);
 80020e2:	2110      	movs	r1, #16
 80020e4:	6938      	ldr	r0, [r7, #16]
 80020e6:	f005 f8cd 	bl	8007284 <USB_FlushTxFifo>
        (void)USB_FlushRxFifo(USBx);
 80020ea:	6938      	ldr	r0, [r7, #16]
 80020ec:	f005 f8ee 	bl	80072cc <USB_FlushRxFifo>

        /* Restore FS Clock */
        (void)USB_InitFSLSPClkSel(hhcd->Instance, HCFG_48_MHZ);
 80020f0:	687b      	ldr	r3, [r7, #4]
 80020f2:	681b      	ldr	r3, [r3, #0]
 80020f4:	2101      	movs	r1, #1
 80020f6:	4618      	mov	r0, r3
 80020f8:	f005 faa6 	bl	8007648 <USB_InitFSLSPClkSel>

        /* Handle Host Port Disconnect Interrupt */
#if (USE_HAL_HCD_REGISTER_CALLBACKS == 1U)
        hhcd->DisconnectCallback(hhcd);
#else
        HAL_HCD_Disconnect_Callback(hhcd);
 80020fc:	6878      	ldr	r0, [r7, #4]
 80020fe:	f007 ff79 	bl	8009ff4 <HAL_HCD_Disconnect_Callback>
#endif /* USE_HAL_HCD_REGISTER_CALLBACKS */
      }
    }

    /* Handle Host Port Interrupts */
    if (__HAL_HCD_GET_FLAG(hhcd, USB_OTG_GINTSTS_HPRTINT))
 8002102:	687b      	ldr	r3, [r7, #4]
 8002104:	681b      	ldr	r3, [r3, #0]
 8002106:	4618      	mov	r0, r3
 8002108:	f005 f996 	bl	8007438 <USB_ReadInterrupts>
 800210c:	4603      	mov	r3, r0
 800210e:	f003 7380 	and.w	r3, r3, #16777216	; 0x1000000
 8002112:	f1b3 7f80 	cmp.w	r3, #16777216	; 0x1000000
 8002116:	d102      	bne.n	800211e <HAL_HCD_IRQHandler+0x11e>
    {
      HCD_Port_IRQHandler(hhcd);
 8002118:	6878      	ldr	r0, [r7, #4]
 800211a:	f001 fa03 	bl	8003524 <HCD_Port_IRQHandler>
    }

    /* Handle Host SOF Interrupt */
    if (__HAL_HCD_GET_FLAG(hhcd, USB_OTG_GINTSTS_SOF))
 800211e:	687b      	ldr	r3, [r7, #4]
 8002120:	681b      	ldr	r3, [r3, #0]
 8002122:	4618      	mov	r0, r3
 8002124:	f005 f988 	bl	8007438 <USB_ReadInterrupts>
 8002128:	4603      	mov	r3, r0
 800212a:	f003 0308 	and.w	r3, r3, #8
 800212e:	2b08      	cmp	r3, #8
 8002130:	d106      	bne.n	8002140 <HAL_HCD_IRQHandler+0x140>
    {
#if (USE_HAL_HCD_REGISTER_CALLBACKS == 1U)
      hhcd->SOFCallback(hhcd);
#else
      HAL_HCD_SOF_Callback(hhcd);
 8002132:	6878      	ldr	r0, [r7, #4]
 8002134:	f007 ff42 	bl	8009fbc <HAL_HCD_SOF_Callback>
#endif /* USE_HAL_HCD_REGISTER_CALLBACKS */

      __HAL_HCD_CLEAR_FLAG(hhcd, USB_OTG_GINTSTS_SOF);
 8002138:	687b      	ldr	r3, [r7, #4]
 800213a:	681b      	ldr	r3, [r3, #0]
 800213c:	2208      	movs	r2, #8
 800213e:	615a      	str	r2, [r3, #20]
    }

    /* Handle Rx Queue Level Interrupts */
    if ((__HAL_HCD_GET_FLAG(hhcd, USB_OTG_GINTSTS_RXFLVL)) != 0U)
 8002140:	687b      	ldr	r3, [r7, #4]
 8002142:	681b      	ldr	r3, [r3, #0]
 8002144:	4618      	mov	r0, r3
 8002146:	f005 f977 	bl	8007438 <USB_ReadInterrupts>
 800214a:	4603      	mov	r3, r0
 800214c:	f003 0310 	and.w	r3, r3, #16
 8002150:	2b10      	cmp	r3, #16
 8002152:	d101      	bne.n	8002158 <HAL_HCD_IRQHandler+0x158>
 8002154:	2301      	movs	r3, #1
 8002156:	e000      	b.n	800215a <HAL_HCD_IRQHandler+0x15a>
 8002158:	2300      	movs	r3, #0
 800215a:	2b00      	cmp	r3, #0
 800215c:	d012      	beq.n	8002184 <HAL_HCD_IRQHandler+0x184>
    {
      USB_MASK_INTERRUPT(hhcd->Instance, USB_OTG_GINTSTS_RXFLVL);
 800215e:	687b      	ldr	r3, [r7, #4]
 8002160:	681b      	ldr	r3, [r3, #0]
 8002162:	699a      	ldr	r2, [r3, #24]
 8002164:	687b      	ldr	r3, [r7, #4]
 8002166:	681b      	ldr	r3, [r3, #0]
 8002168:	f022 0210 	bic.w	r2, r2, #16
 800216c:	619a      	str	r2, [r3, #24]

      HCD_RXQLVL_IRQHandler(hhcd);
 800216e:	6878      	ldr	r0, [r7, #4]
 8002170:	f001 f906 	bl	8003380 <HCD_RXQLVL_IRQHandler>

      USB_UNMASK_INTERRUPT(hhcd->Instance, USB_OTG_GINTSTS_RXFLVL);
 8002174:	687b      	ldr	r3, [r7, #4]
 8002176:	681b      	ldr	r3, [r3, #0]
 8002178:	699a      	ldr	r2, [r3, #24]
 800217a:	687b      	ldr	r3, [r7, #4]
 800217c:	681b      	ldr	r3, [r3, #0]
 800217e:	f042 0210 	orr.w	r2, r2, #16
 8002182:	619a      	str	r2, [r3, #24]
    }

    /* Handle Host channel Interrupt */
    if (__HAL_HCD_GET_FLAG(hhcd, USB_OTG_GINTSTS_HCINT))
 8002184:	687b      	ldr	r3, [r7, #4]
 8002186:	681b      	ldr	r3, [r3, #0]
 8002188:	4618      	mov	r0, r3
 800218a:	f005 f955 	bl	8007438 <USB_ReadInterrupts>
 800218e:	4603      	mov	r3, r0
 8002190:	f003 7300 	and.w	r3, r3, #33554432	; 0x2000000
 8002194:	f1b3 7f00 	cmp.w	r3, #33554432	; 0x2000000
 8002198:	d13a      	bne.n	8002210 <HAL_HCD_IRQHandler+0x210>
    {
      interrupt = USB_HC_ReadInterrupt(hhcd->Instance);
 800219a:	687b      	ldr	r3, [r7, #4]
 800219c:	681b      	ldr	r3, [r3, #0]
 800219e:	4618      	mov	r0, r3
 80021a0:	f005 fd68 	bl	8007c74 <USB_HC_ReadInterrupt>
 80021a4:	60b8      	str	r0, [r7, #8]
      for (i = 0U; i < hhcd->Init.Host_channels; i++)
 80021a6:	2300      	movs	r3, #0
 80021a8:	617b      	str	r3, [r7, #20]
 80021aa:	e025      	b.n	80021f8 <HAL_HCD_IRQHandler+0x1f8>
      {
        if ((interrupt & (1UL << (i & 0xFU))) != 0U)
 80021ac:	697b      	ldr	r3, [r7, #20]
 80021ae:	f003 030f 	and.w	r3, r3, #15
 80021b2:	68ba      	ldr	r2, [r7, #8]
 80021b4:	fa22 f303 	lsr.w	r3, r2, r3
 80021b8:	f003 0301 	and.w	r3, r3, #1
 80021bc:	2b00      	cmp	r3, #0
 80021be:	d018      	beq.n	80021f2 <HAL_HCD_IRQHandler+0x1f2>
        {
          if ((USBx_HC(i)->HCCHAR & USB_OTG_HCCHAR_EPDIR) == USB_OTG_HCCHAR_EPDIR)
 80021c0:	697b      	ldr	r3, [r7, #20]
 80021c2:	015a      	lsls	r2, r3, #5
 80021c4:	68fb      	ldr	r3, [r7, #12]
 80021c6:	4413      	add	r3, r2
 80021c8:	f503 63a0 	add.w	r3, r3, #1280	; 0x500
 80021cc:	681b      	ldr	r3, [r3, #0]
 80021ce:	f403 4300 	and.w	r3, r3, #32768	; 0x8000
 80021d2:	f5b3 4f00 	cmp.w	r3, #32768	; 0x8000
 80021d6:	d106      	bne.n	80021e6 <HAL_HCD_IRQHandler+0x1e6>
          {
            HCD_HC_IN_IRQHandler(hhcd, (uint8_t)i);
 80021d8:	697b      	ldr	r3, [r7, #20]
 80021da:	b2db      	uxtb	r3, r3
 80021dc:	4619      	mov	r1, r3
 80021de:	6878      	ldr	r0, [r7, #4]
 80021e0:	f000 f8ab 	bl	800233a <HCD_HC_IN_IRQHandler>
 80021e4:	e005      	b.n	80021f2 <HAL_HCD_IRQHandler+0x1f2>
          }
          else
          {
            HCD_HC_OUT_IRQHandler(hhcd, (uint8_t)i);
 80021e6:	697b      	ldr	r3, [r7, #20]
 80021e8:	b2db      	uxtb	r3, r3
 80021ea:	4619      	mov	r1, r3
 80021ec:	6878      	ldr	r0, [r7, #4]
 80021ee:	f000 fcc6 	bl	8002b7e <HCD_HC_OUT_IRQHandler>
      for (i = 0U; i < hhcd->Init.Host_channels; i++)
 80021f2:	697b      	ldr	r3, [r7, #20]
 80021f4:	3301      	adds	r3, #1
 80021f6:	617b      	str	r3, [r7, #20]
 80021f8:	687b      	ldr	r3, [r7, #4]
 80021fa:	689b      	ldr	r3, [r3, #8]
 80021fc:	697a      	ldr	r2, [r7, #20]
 80021fe:	429a      	cmp	r2, r3
 8002200:	d3d4      	bcc.n	80021ac <HAL_HCD_IRQHandler+0x1ac>
          }
        }
      }
      __HAL_HCD_CLEAR_FLAG(hhcd, USB_OTG_GINTSTS_HCINT);
 8002202:	687b      	ldr	r3, [r7, #4]
 8002204:	681b      	ldr	r3, [r3, #0]
 8002206:	f04f 7200 	mov.w	r2, #33554432	; 0x2000000
 800220a:	615a      	str	r2, [r3, #20]
 800220c:	e000      	b.n	8002210 <HAL_HCD_IRQHandler+0x210>
      return;
 800220e:	bf00      	nop
    }
  }
}
 8002210:	3718      	adds	r7, #24
 8002212:	46bd      	mov	sp, r7
 8002214:	bd80      	pop	{r7, pc}

08002216 <HAL_HCD_Start>:
  * @brief  Start the host driver.
  * @param  hhcd HCD handle
  * @retval HAL status
  */
HAL_StatusTypeDef HAL_HCD_Start(HCD_HandleTypeDef *hhcd)
{
 8002216:	b580      	push	{r7, lr}
 8002218:	b082      	sub	sp, #8
 800221a:	af00      	add	r7, sp, #0
 800221c:	6078      	str	r0, [r7, #4]
  __HAL_LOCK(hhcd);
 800221e:	687b      	ldr	r3, [r7, #4]
 8002220:	f893 32f8 	ldrb.w	r3, [r3, #760]	; 0x2f8
 8002224:	2b01      	cmp	r3, #1
 8002226:	d101      	bne.n	800222c <HAL_HCD_Start+0x16>
 8002228:	2302      	movs	r3, #2
 800222a:	e013      	b.n	8002254 <HAL_HCD_Start+0x3e>
 800222c:	687b      	ldr	r3, [r7, #4]
 800222e:	2201      	movs	r2, #1
 8002230:	f883 22f8 	strb.w	r2, [r3, #760]	; 0x2f8
  /* Enable port power */
  (void)USB_DriveVbus(hhcd->Instance, 1U);
 8002234:	687b      	ldr	r3, [r7, #4]
 8002236:	681b      	ldr	r3, [r3, #0]
 8002238:	2101      	movs	r1, #1
 800223a:	4618      	mov	r0, r3
 800223c:	f005 fa68 	bl	8007710 <USB_DriveVbus>

  /* Enable global interrupt */
  __HAL_HCD_ENABLE(hhcd);
 8002240:	687b      	ldr	r3, [r7, #4]
 8002242:	681b      	ldr	r3, [r3, #0]
 8002244:	4618      	mov	r0, r3
 8002246:	f004 ffae 	bl	80071a6 <USB_EnableGlobalInt>
  __HAL_UNLOCK(hhcd);
 800224a:	687b      	ldr	r3, [r7, #4]
 800224c:	2200      	movs	r2, #0
 800224e:	f883 22f8 	strb.w	r2, [r3, #760]	; 0x2f8

  return HAL_OK;
 8002252:	2300      	movs	r3, #0
}
 8002254:	4618      	mov	r0, r3
 8002256:	3708      	adds	r7, #8
 8002258:	46bd      	mov	sp, r7
 800225a:	bd80      	pop	{r7, pc}

0800225c <HAL_HCD_Stop>:
