
P2_SEMP.elf:     file format elf32-littlearm

Sections:
Idx Name          Size      VMA       LMA       File off  Algn
  0 .isr_vector   00000198  08000000  08000000  00010000  2**0
                  CONTENTS, ALLOC, LOAD, READONLY, DATA
  1 .text         000062e0  08000198  08000198  00010198  2**2
                  CONTENTS, ALLOC, LOAD, READONLY, CODE
  2 .rodata       00000020  08006478  08006478  00016478  2**0
                  CONTENTS, ALLOC, LOAD, READONLY, DATA
  3 .ARM.extab    00000000  08006498  08006498  0002017c  2**0
                  CONTENTS
  4 .ARM          00000008  08006498  08006498  00016498  2**2
                  CONTENTS, ALLOC, LOAD, READONLY, DATA
  5 .preinit_array 00000000  080064a0  080064a0  0002017c  2**0
                  CONTENTS, ALLOC, LOAD, DATA
  6 .init_array   00000004  080064a0  080064a0  000164a0  2**2
                  CONTENTS, ALLOC, LOAD, DATA
  7 .fini_array   00000004  080064a4  080064a4  000164a4  2**2
                  CONTENTS, ALLOC, LOAD, DATA
  8 .data         0000017c  20000000  080064a8  00020000  2**2
                  CONTENTS, ALLOC, LOAD, DATA
  9 .bss          00000a14  2000017c  08006624  0002017c  2**2
                  ALLOC
 10 ._user_heap_stack 00000600  20000b90  08006624  00020b90  2**0
                  ALLOC
 11 .ARM.attributes 00000030  00000000  00000000  0002017c  2**0
                  CONTENTS, READONLY
 12 .comment      00000053  00000000  00000000  000201ac  2**0
                  CONTENTS, READONLY
 13 .debug_frame  0000053c  00000000  00000000  00020200  2**2
                  CONTENTS, READONLY, DEBUGGING, OCTETS

Disassembly of section .text:

08000198 <__do_global_dtors_aux>:
 8000198:	b510      	push	{r4, lr}
 800019a:	4c05      	ldr	r4, [pc, #20]	; (80001b0 <__do_global_dtors_aux+0x18>)
 800019c:	7823      	ldrb	r3, [r4, #0]
 800019e:	b933      	cbnz	r3, 80001ae <__do_global_dtors_aux+0x16>
 80001a0:	4b04      	ldr	r3, [pc, #16]	; (80001b4 <__do_global_dtors_aux+0x1c>)
 80001a2:	b113      	cbz	r3, 80001aa <__do_global_dtors_aux+0x12>
 80001a4:	4804      	ldr	r0, [pc, #16]	; (80001b8 <__do_global_dtors_aux+0x20>)
 80001a6:	f3af 8000 	nop.w
 80001aa:	2301      	movs	r3, #1
 80001ac:	7023      	strb	r3, [r4, #0]
 80001ae:	bd10      	pop	{r4, pc}
 80001b0:	2000017c 	.word	0x2000017c
 80001b4:	00000000 	.word	0x00000000
 80001b8:	08006460 	.word	0x08006460

080001bc <frame_dummy>:
 80001bc:	b508      	push	{r3, lr}
 80001be:	4b03      	ldr	r3, [pc, #12]	; (80001cc <frame_dummy+0x10>)
 80001c0:	b11b      	cbz	r3, 80001ca <frame_dummy+0xe>
 80001c2:	4903      	ldr	r1, [pc, #12]	; (80001d0 <frame_dummy+0x14>)
 80001c4:	4803      	ldr	r0, [pc, #12]	; (80001d4 <frame_dummy+0x18>)
 80001c6:	f3af 8000 	nop.w
 80001ca:	bd08      	pop	{r3, pc}
 80001cc:	00000000 	.word	0x00000000
 80001d0:	20000180 	.word	0x20000180
 80001d4:	08006460 	.word	0x08006460

080001d8 <__aeabi_drsub>:
 80001d8:	f081 4100 	eor.w	r1, r1, #2147483648	; 0x80000000
 80001dc:	e002      	b.n	80001e4 <__adddf3>
 80001de:	bf00      	nop

080001e0 <__aeabi_dsub>:
 80001e0:	f083 4300 	eor.w	r3, r3, #2147483648	; 0x80000000

080001e4 <__adddf3>:
 80001e4:	b530      	push	{r4, r5, lr}
 80001e6:	ea4f 0441 	mov.w	r4, r1, lsl #1
 80001ea:	ea4f 0543 	mov.w	r5, r3, lsl #1
 80001ee:	ea94 0f05 	teq	r4, r5
 80001f2:	bf08      	it	eq
 80001f4:	ea90 0f02 	teqeq	r0, r2
 80001f8:	bf1f      	itttt	ne
 80001fa:	ea54 0c00 	orrsne.w	ip, r4, r0
 80001fe:	ea55 0c02 	orrsne.w	ip, r5, r2
 8000202:	ea7f 5c64 	mvnsne.w	ip, r4, asr #21
 8000206:	ea7f 5c65 	mvnsne.w	ip, r5, asr #21
 800020a:	f000 80e2 	beq.w	80003d2 <__adddf3+0x1ee>
 800020e:	ea4f 5454 	mov.w	r4, r4, lsr #21
 8000212:	ebd4 5555 	rsbs	r5, r4, r5, lsr #21
 8000216:	bfb8      	it	lt
 8000218:	426d      	neglt	r5, r5
 800021a:	dd0c      	ble.n	8000236 <__adddf3+0x52>
 800021c:	442c      	add	r4, r5
 800021e:	ea80 0202 	eor.w	r2, r0, r2
 8000222:	ea81 0303 	eor.w	r3, r1, r3
 8000226:	ea82 0000 	eor.w	r0, r2, r0
 800022a:	ea83 0101 	eor.w	r1, r3, r1
 800022e:	ea80 0202 	eor.w	r2, r0, r2
 8000232:	ea81 0303 	eor.w	r3, r1, r3
 8000236:	2d36      	cmp	r5, #54	; 0x36
 8000238:	bf88      	it	hi
 800023a:	bd30      	pophi	{r4, r5, pc}
 800023c:	f011 4f00 	tst.w	r1, #2147483648	; 0x80000000
 8000240:	ea4f 3101 	mov.w	r1, r1, lsl #12
 8000244:	f44f 1c80 	mov.w	ip, #1048576	; 0x100000
 8000248:	ea4c 3111 	orr.w	r1, ip, r1, lsr #12
 800024c:	d002      	beq.n	8000254 <__adddf3+0x70>
 800024e:	4240      	negs	r0, r0
 8000250:	eb61 0141 	sbc.w	r1, r1, r1, lsl #1
 8000254:	f013 4f00 	tst.w	r3, #2147483648	; 0x80000000
 8000258:	ea4f 3303 	mov.w	r3, r3, lsl #12
 800025c:	ea4c 3313 	orr.w	r3, ip, r3, lsr #12
 8000260:	d002      	beq.n	8000268 <__adddf3+0x84>
 8000262:	4252      	negs	r2, r2
 8000264:	eb63 0343 	sbc.w	r3, r3, r3, lsl #1
 8000268:	ea94 0f05 	teq	r4, r5
 800026c:	f000 80a7 	beq.w	80003be <__adddf3+0x1da>
 8000270:	f1a4 0401 	sub.w	r4, r4, #1
 8000274:	f1d5 0e20 	rsbs	lr, r5, #32
 8000278:	db0d      	blt.n	8000296 <__adddf3+0xb2>
 800027a:	fa02 fc0e 	lsl.w	ip, r2, lr
 800027e:	fa22 f205 	lsr.w	r2, r2, r5
 8000282:	1880      	adds	r0, r0, r2
 8000284:	f141 0100 	adc.w	r1, r1, #0
 8000288:	fa03 f20e 	lsl.w	r2, r3, lr
 800028c:	1880      	adds	r0, r0, r2
 800028e:	fa43 f305 	asr.w	r3, r3, r5
 8000292:	4159      	adcs	r1, r3
 8000294:	e00e      	b.n	80002b4 <__adddf3+0xd0>
 8000296:	f1a5 0520 	sub.w	r5, r5, #32
 800029a:	f10e 0e20 	add.w	lr, lr, #32
 800029e:	2a01      	cmp	r2, #1
 80002a0:	fa03 fc0e 	lsl.w	ip, r3, lr
 80002a4:	bf28      	it	cs
 80002a6:	f04c 0c02 	orrcs.w	ip, ip, #2
 80002aa:	fa43 f305 	asr.w	r3, r3, r5
 80002ae:	18c0      	adds	r0, r0, r3
 80002b0:	eb51 71e3 	adcs.w	r1, r1, r3, asr #31
 80002b4:	f001 4500 	and.w	r5, r1, #2147483648	; 0x80000000
 80002b8:	d507      	bpl.n	80002ca <__adddf3+0xe6>
 80002ba:	f04f 0e00 	mov.w	lr, #0
 80002be:	f1dc 0c00 	rsbs	ip, ip, #0
 80002c2:	eb7e 0000 	sbcs.w	r0, lr, r0
 80002c6:	eb6e 0101 	sbc.w	r1, lr, r1
 80002ca:	f5b1 1f80 	cmp.w	r1, #1048576	; 0x100000
 80002ce:	d31b      	bcc.n	8000308 <__adddf3+0x124>
 80002d0:	f5b1 1f00 	cmp.w	r1, #2097152	; 0x200000
 80002d4:	d30c      	bcc.n	80002f0 <__adddf3+0x10c>
 80002d6:	0849      	lsrs	r1, r1, #1
 80002d8:	ea5f 0030 	movs.w	r0, r0, rrx
 80002dc:	ea4f 0c3c 	mov.w	ip, ip, rrx
 80002e0:	f104 0401 	add.w	r4, r4, #1
 80002e4:	ea4f 5244 	mov.w	r2, r4, lsl #21
 80002e8:	f512 0f80 	cmn.w	r2, #4194304	; 0x400000
 80002ec:	f080 809a 	bcs.w	8000424 <__adddf3+0x240>
 80002f0:	f1bc 4f00 	cmp.w	ip, #2147483648	; 0x80000000
 80002f4:	bf08      	it	eq
 80002f6:	ea5f 0c50 	movseq.w	ip, r0, lsr #1
 80002fa:	f150 0000 	adcs.w	r0, r0, #0
 80002fe:	eb41 5104 	adc.w	r1, r1, r4, lsl #20
 8000302:	ea41 0105 	orr.w	r1, r1, r5
 8000306:	bd30      	pop	{r4, r5, pc}
 8000308:	ea5f 0c4c 	movs.w	ip, ip, lsl #1
 800030c:	4140      	adcs	r0, r0
 800030e:	eb41 0101 	adc.w	r1, r1, r1
 8000312:	3c01      	subs	r4, #1
 8000314:	bf28      	it	cs
 8000316:	f5b1 1f80 	cmpcs.w	r1, #1048576	; 0x100000
 800031a:	d2e9      	bcs.n	80002f0 <__adddf3+0x10c>
 800031c:	f091 0f00 	teq	r1, #0
 8000320:	bf04      	itt	eq
 8000322:	4601      	moveq	r1, r0
 8000324:	2000      	moveq	r0, #0
 8000326:	fab1 f381 	clz	r3, r1
 800032a:	bf08      	it	eq
 800032c:	3320      	addeq	r3, #32
 800032e:	f1a3 030b 	sub.w	r3, r3, #11
 8000332:	f1b3 0220 	subs.w	r2, r3, #32
 8000336:	da0c      	bge.n	8000352 <__adddf3+0x16e>
 8000338:	320c      	adds	r2, #12
 800033a:	dd08      	ble.n	800034e <__adddf3+0x16a>
 800033c:	f102 0c14 	add.w	ip, r2, #20
 8000340:	f1c2 020c 	rsb	r2, r2, #12
 8000344:	fa01 f00c 	lsl.w	r0, r1, ip
 8000348:	fa21 f102 	lsr.w	r1, r1, r2
 800034c:	e00c      	b.n	8000368 <__adddf3+0x184>
 800034e:	f102 0214 	add.w	r2, r2, #20
 8000352:	bfd8      	it	le
 8000354:	f1c2 0c20 	rsble	ip, r2, #32
 8000358:	fa01 f102 	lsl.w	r1, r1, r2
 800035c:	fa20 fc0c 	lsr.w	ip, r0, ip
 8000360:	bfdc      	itt	le
 8000362:	ea41 010c 	orrle.w	r1, r1, ip
 8000366:	4090      	lslle	r0, r2
 8000368:	1ae4      	subs	r4, r4, r3
 800036a:	bfa2      	ittt	ge
 800036c:	eb01 5104 	addge.w	r1, r1, r4, lsl #20
 8000370:	4329      	orrge	r1, r5
 8000372:	bd30      	popge	{r4, r5, pc}
 8000374:	ea6f 0404 	mvn.w	r4, r4
 8000378:	3c1f      	subs	r4, #31
 800037a:	da1c      	bge.n	80003b6 <__adddf3+0x1d2>
 800037c:	340c      	adds	r4, #12
 800037e:	dc0e      	bgt.n	800039e <__adddf3+0x1ba>
 8000380:	f104 0414 	add.w	r4, r4, #20
 8000384:	f1c4 0220 	rsb	r2, r4, #32
 8000388:	fa20 f004 	lsr.w	r0, r0, r4
 800038c:	fa01 f302 	lsl.w	r3, r1, r2
 8000390:	ea40 0003 	orr.w	r0, r0, r3
 8000394:	fa21 f304 	lsr.w	r3, r1, r4
 8000398:	ea45 0103 	orr.w	r1, r5, r3
 800039c:	bd30      	pop	{r4, r5, pc}
 800039e:	f1c4 040c 	rsb	r4, r4, #12
 80003a2:	f1c4 0220 	rsb	r2, r4, #32
 80003a6:	fa20 f002 	lsr.w	r0, r0, r2
 80003aa:	fa01 f304 	lsl.w	r3, r1, r4
 80003ae:	ea40 0003 	orr.w	r0, r0, r3
 80003b2:	4629      	mov	r1, r5
 80003b4:	bd30      	pop	{r4, r5, pc}
 80003b6:	fa21 f004 	lsr.w	r0, r1, r4
 80003ba:	4629      	mov	r1, r5
 80003bc:	bd30      	pop	{r4, r5, pc}
 80003be:	f094 0f00 	teq	r4, #0
 80003c2:	f483 1380 	eor.w	r3, r3, #1048576	; 0x100000
 80003c6:	bf06      	itte	eq
 80003c8:	f481 1180 	eoreq.w	r1, r1, #1048576	; 0x100000
 80003cc:	3401      	addeq	r4, #1
 80003ce:	3d01      	subne	r5, #1
 80003d0:	e74e      	b.n	8000270 <__adddf3+0x8c>
 80003d2:	ea7f 5c64 	mvns.w	ip, r4, asr #21
 80003d6:	bf18      	it	ne
 80003d8:	ea7f 5c65 	mvnsne.w	ip, r5, asr #21
 80003dc:	d029      	beq.n	8000432 <__adddf3+0x24e>
 80003de:	ea94 0f05 	teq	r4, r5
 80003e2:	bf08      	it	eq
 80003e4:	ea90 0f02 	teqeq	r0, r2
 80003e8:	d005      	beq.n	80003f6 <__adddf3+0x212>
 80003ea:	ea54 0c00 	orrs.w	ip, r4, r0
 80003ee:	bf04      	itt	eq
 80003f0:	4619      	moveq	r1, r3
 80003f2:	4610      	moveq	r0, r2
 80003f4:	bd30      	pop	{r4, r5, pc}
 80003f6:	ea91 0f03 	teq	r1, r3
 80003fa:	bf1e      	ittt	ne
 80003fc:	2100      	movne	r1, #0
 80003fe:	2000      	movne	r0, #0
 8000400:	bd30      	popne	{r4, r5, pc}
 8000402:	ea5f 5c54 	movs.w	ip, r4, lsr #21
 8000406:	d105      	bne.n	8000414 <__adddf3+0x230>
 8000408:	0040      	lsls	r0, r0, #1
 800040a:	4149      	adcs	r1, r1
 800040c:	bf28      	it	cs
 800040e:	f041 4100 	orrcs.w	r1, r1, #2147483648	; 0x80000000
 8000412:	bd30      	pop	{r4, r5, pc}
 8000414:	f514 0480 	adds.w	r4, r4, #4194304	; 0x400000
 8000418:	bf3c      	itt	cc
 800041a:	f501 1180 	addcc.w	r1, r1, #1048576	; 0x100000
 800041e:	bd30      	popcc	{r4, r5, pc}
 8000420:	f001 4500 	and.w	r5, r1, #2147483648	; 0x80000000
 8000424:	f045 41fe 	orr.w	r1, r5, #2130706432	; 0x7f000000
 8000428:	f441 0170 	orr.w	r1, r1, #15728640	; 0xf00000
 800042c:	f04f 0000 	mov.w	r0, #0
 8000430:	bd30      	pop	{r4, r5, pc}
 8000432:	ea7f 5c64 	mvns.w	ip, r4, asr #21
 8000436:	bf1a      	itte	ne
 8000438:	4619      	movne	r1, r3
 800043a:	4610      	movne	r0, r2
 800043c:	ea7f 5c65 	mvnseq.w	ip, r5, asr #21
 8000440:	bf1c      	itt	ne
 8000442:	460b      	movne	r3, r1
 8000444:	4602      	movne	r2, r0
 8000446:	ea50 3401 	orrs.w	r4, r0, r1, lsl #12
 800044a:	bf06      	itte	eq
 800044c:	ea52 3503 	orrseq.w	r5, r2, r3, lsl #12
 8000450:	ea91 0f03 	teqeq	r1, r3
 8000454:	f441 2100 	orrne.w	r1, r1, #524288	; 0x80000
 8000458:	bd30      	pop	{r4, r5, pc}
 800045a:	bf00      	nop

0800045c <__aeabi_ui2d>:
 800045c:	f090 0f00 	teq	r0, #0
 8000460:	bf04      	itt	eq
 8000462:	2100      	moveq	r1, #0
 8000464:	4770      	bxeq	lr
 8000466:	b530      	push	{r4, r5, lr}
 8000468:	f44f 6480 	mov.w	r4, #1024	; 0x400
 800046c:	f104 0432 	add.w	r4, r4, #50	; 0x32
 8000470:	f04f 0500 	mov.w	r5, #0
 8000474:	f04f 0100 	mov.w	r1, #0
 8000478:	e750      	b.n	800031c <__adddf3+0x138>
 800047a:	bf00      	nop

0800047c <__aeabi_i2d>:
 800047c:	f090 0f00 	teq	r0, #0
 8000480:	bf04      	itt	eq
 8000482:	2100      	moveq	r1, #0
 8000484:	4770      	bxeq	lr
 8000486:	b530      	push	{r4, r5, lr}
 8000488:	f44f 6480 	mov.w	r4, #1024	; 0x400
 800048c:	f104 0432 	add.w	r4, r4, #50	; 0x32
 8000490:	f010 4500 	ands.w	r5, r0, #2147483648	; 0x80000000
 8000494:	bf48      	it	mi
 8000496:	4240      	negmi	r0, r0
 8000498:	f04f 0100 	mov.w	r1, #0
 800049c:	e73e      	b.n	800031c <__adddf3+0x138>
 800049e:	bf00      	nop

080004a0 <__aeabi_f2d>:
 80004a0:	0042      	lsls	r2, r0, #1
 80004a2:	ea4f 01e2 	mov.w	r1, r2, asr #3
 80004a6:	ea4f 0131 	mov.w	r1, r1, rrx
 80004aa:	ea4f 7002 	mov.w	r0, r2, lsl #28
 80004ae:	bf1f      	itttt	ne
 80004b0:	f012 437f 	andsne.w	r3, r2, #4278190080	; 0xff000000
 80004b4:	f093 4f7f 	teqne	r3, #4278190080	; 0xff000000
 80004b8:	f081 5160 	eorne.w	r1, r1, #939524096	; 0x38000000
 80004bc:	4770      	bxne	lr
 80004be:	f032 427f 	bics.w	r2, r2, #4278190080	; 0xff000000
 80004c2:	bf08      	it	eq
 80004c4:	4770      	bxeq	lr
 80004c6:	f093 4f7f 	teq	r3, #4278190080	; 0xff000000
 80004ca:	bf04      	itt	eq
 80004cc:	f441 2100 	orreq.w	r1, r1, #524288	; 0x80000
 80004d0:	4770      	bxeq	lr
 80004d2:	b530      	push	{r4, r5, lr}
 80004d4:	f44f 7460 	mov.w	r4, #896	; 0x380
 80004d8:	f001 4500 	and.w	r5, r1, #2147483648	; 0x80000000
 80004dc:	f021 4100 	bic.w	r1, r1, #2147483648	; 0x80000000
 80004e0:	e71c      	b.n	800031c <__adddf3+0x138>
 80004e2:	bf00      	nop

080004e4 <__aeabi_ul2d>:
 80004e4:	ea50 0201 	orrs.w	r2, r0, r1
 80004e8:	bf08      	it	eq
 80004ea:	4770      	bxeq	lr
 80004ec:	b530      	push	{r4, r5, lr}
 80004ee:	f04f 0500 	mov.w	r5, #0
 80004f2:	e00a      	b.n	800050a <__aeabi_l2d+0x16>

080004f4 <__aeabi_l2d>:
 80004f4:	ea50 0201 	orrs.w	r2, r0, r1
 80004f8:	bf08      	it	eq
 80004fa:	4770      	bxeq	lr
 80004fc:	b530      	push	{r4, r5, lr}
 80004fe:	f011 4500 	ands.w	r5, r1, #2147483648	; 0x80000000
 8000502:	d502      	bpl.n	800050a <__aeabi_l2d+0x16>
 8000504:	4240      	negs	r0, r0
 8000506:	eb61 0141 	sbc.w	r1, r1, r1, lsl #1
 800050a:	f44f 6480 	mov.w	r4, #1024	; 0x400
 800050e:	f104 0432 	add.w	r4, r4, #50	; 0x32
 8000512:	ea5f 5c91 	movs.w	ip, r1, lsr #22
 8000516:	f43f aed8 	beq.w	80002ca <__adddf3+0xe6>
 800051a:	f04f 0203 	mov.w	r2, #3
 800051e:	ea5f 0cdc 	movs.w	ip, ip, lsr #3
 8000522:	bf18      	it	ne
 8000524:	3203      	addne	r2, #3
 8000526:	ea5f 0cdc 	movs.w	ip, ip, lsr #3
 800052a:	bf18      	it	ne
 800052c:	3203      	addne	r2, #3
 800052e:	eb02 02dc 	add.w	r2, r2, ip, lsr #3
 8000532:	f1c2 0320 	rsb	r3, r2, #32
 8000536:	fa00 fc03 	lsl.w	ip, r0, r3
 800053a:	fa20 f002 	lsr.w	r0, r0, r2
 800053e:	fa01 fe03 	lsl.w	lr, r1, r3
 8000542:	ea40 000e 	orr.w	r0, r0, lr
 8000546:	fa21 f102 	lsr.w	r1, r1, r2
 800054a:	4414      	add	r4, r2
 800054c:	e6bd      	b.n	80002ca <__adddf3+0xe6>
 800054e:	bf00      	nop

08000550 <__aeabi_dmul>:
 8000550:	b570      	push	{r4, r5, r6, lr}
 8000552:	f04f 0cff 	mov.w	ip, #255	; 0xff
 8000556:	f44c 6ce0 	orr.w	ip, ip, #1792	; 0x700
 800055a:	ea1c 5411 	ands.w	r4, ip, r1, lsr #20
 800055e:	bf1d      	ittte	ne
 8000560:	ea1c 5513 	andsne.w	r5, ip, r3, lsr #20
 8000564:	ea94 0f0c 	teqne	r4, ip
 8000568:	ea95 0f0c 	teqne	r5, ip
 800056c:	f000 f8de 	bleq	800072c <__aeabi_dmul+0x1dc>
 8000570:	442c      	add	r4, r5
 8000572:	ea81 0603 	eor.w	r6, r1, r3
 8000576:	ea21 514c 	bic.w	r1, r1, ip, lsl #21
 800057a:	ea23 534c 	bic.w	r3, r3, ip, lsl #21
 800057e:	ea50 3501 	orrs.w	r5, r0, r1, lsl #12
 8000582:	bf18      	it	ne
 8000584:	ea52 3503 	orrsne.w	r5, r2, r3, lsl #12
 8000588:	f441 1180 	orr.w	r1, r1, #1048576	; 0x100000
 800058c:	f443 1380 	orr.w	r3, r3, #1048576	; 0x100000
 8000590:	d038      	beq.n	8000604 <__aeabi_dmul+0xb4>
 8000592:	fba0 ce02 	umull	ip, lr, r0, r2
 8000596:	f04f 0500 	mov.w	r5, #0
 800059a:	fbe1 e502 	umlal	lr, r5, r1, r2
 800059e:	f006 4200 	and.w	r2, r6, #2147483648	; 0x80000000
 80005a2:	fbe0 e503 	umlal	lr, r5, r0, r3
 80005a6:	f04f 0600 	mov.w	r6, #0
 80005aa:	fbe1 5603 	umlal	r5, r6, r1, r3
 80005ae:	f09c 0f00 	teq	ip, #0
 80005b2:	bf18      	it	ne
 80005b4:	f04e 0e01 	orrne.w	lr, lr, #1
 80005b8:	f1a4 04ff 	sub.w	r4, r4, #255	; 0xff
 80005bc:	f5b6 7f00 	cmp.w	r6, #512	; 0x200
 80005c0:	f564 7440 	sbc.w	r4, r4, #768	; 0x300
 80005c4:	d204      	bcs.n	80005d0 <__aeabi_dmul+0x80>
 80005c6:	ea5f 0e4e 	movs.w	lr, lr, lsl #1
 80005ca:	416d      	adcs	r5, r5
 80005cc:	eb46 0606 	adc.w	r6, r6, r6
 80005d0:	ea42 21c6 	orr.w	r1, r2, r6, lsl #11
 80005d4:	ea41 5155 	orr.w	r1, r1, r5, lsr #21
 80005d8:	ea4f 20c5 	mov.w	r0, r5, lsl #11
 80005dc:	ea40 505e 	orr.w	r0, r0, lr, lsr #21
 80005e0:	ea4f 2ece 	mov.w	lr, lr, lsl #11
 80005e4:	f1b4 0cfd 	subs.w	ip, r4, #253	; 0xfd
 80005e8:	bf88      	it	hi
 80005ea:	f5bc 6fe0 	cmphi.w	ip, #1792	; 0x700
 80005ee:	d81e      	bhi.n	800062e <__aeabi_dmul+0xde>
 80005f0:	f1be 4f00 	cmp.w	lr, #2147483648	; 0x80000000
 80005f4:	bf08      	it	eq
 80005f6:	ea5f 0e50 	movseq.w	lr, r0, lsr #1
 80005fa:	f150 0000 	adcs.w	r0, r0, #0
 80005fe:	eb41 5104 	adc.w	r1, r1, r4, lsl #20
 8000602:	bd70      	pop	{r4, r5, r6, pc}
 8000604:	f006 4600 	and.w	r6, r6, #2147483648	; 0x80000000
 8000608:	ea46 0101 	orr.w	r1, r6, r1
 800060c:	ea40 0002 	orr.w	r0, r0, r2
 8000610:	ea81 0103 	eor.w	r1, r1, r3
 8000614:	ebb4 045c 	subs.w	r4, r4, ip, lsr #1
 8000618:	bfc2      	ittt	gt
 800061a:	ebd4 050c 	rsbsgt	r5, r4, ip
 800061e:	ea41 5104 	orrgt.w	r1, r1, r4, lsl #20
 8000622:	bd70      	popgt	{r4, r5, r6, pc}
 8000624:	f441 1180 	orr.w	r1, r1, #1048576	; 0x100000
 8000628:	f04f 0e00 	mov.w	lr, #0
 800062c:	3c01      	subs	r4, #1
 800062e:	f300 80ab 	bgt.w	8000788 <__aeabi_dmul+0x238>
 8000632:	f114 0f36 	cmn.w	r4, #54	; 0x36
 8000636:	bfde      	ittt	le
 8000638:	2000      	movle	r0, #0
 800063a:	f001 4100 	andle.w	r1, r1, #2147483648	; 0x80000000
 800063e:	bd70      	pople	{r4, r5, r6, pc}
 8000640:	f1c4 0400 	rsb	r4, r4, #0
 8000644:	3c20      	subs	r4, #32
 8000646:	da35      	bge.n	80006b4 <__aeabi_dmul+0x164>
 8000648:	340c      	adds	r4, #12
 800064a:	dc1b      	bgt.n	8000684 <__aeabi_dmul+0x134>
 800064c:	f104 0414 	add.w	r4, r4, #20
 8000650:	f1c4 0520 	rsb	r5, r4, #32
 8000654:	fa00 f305 	lsl.w	r3, r0, r5
 8000658:	fa20 f004 	lsr.w	r0, r0, r4
 800065c:	fa01 f205 	lsl.w	r2, r1, r5
 8000660:	ea40 0002 	orr.w	r0, r0, r2
 8000664:	f001 4200 	and.w	r2, r1, #2147483648	; 0x80000000
 8000668:	f021 4100 	bic.w	r1, r1, #2147483648	; 0x80000000
 800066c:	eb10 70d3 	adds.w	r0, r0, r3, lsr #31
 8000670:	fa21 f604 	lsr.w	r6, r1, r4
 8000674:	eb42 0106 	adc.w	r1, r2, r6
 8000678:	ea5e 0e43 	orrs.w	lr, lr, r3, lsl #1
 800067c:	bf08      	it	eq
 800067e:	ea20 70d3 	biceq.w	r0, r0, r3, lsr #31
 8000682:	bd70      	pop	{r4, r5, r6, pc}
 8000684:	f1c4 040c 	rsb	r4, r4, #12
 8000688:	f1c4 0520 	rsb	r5, r4, #32
 800068c:	fa00 f304 	lsl.w	r3, r0, r4
 8000690:	fa20 f005 	lsr.w	r0, r0, r5
 8000694:	fa01 f204 	lsl.w	r2, r1, r4
 8000698:	ea40 0002 	orr.w	r0, r0, r2
 800069c:	f001 4100 	and.w	r1, r1, #2147483648	; 0x80000000
 80006a0:	eb10 70d3 	adds.w	r0, r0, r3, lsr #31
 80006a4:	f141 0100 	adc.w	r1, r1, #0
 80006a8:	ea5e 0e43 	orrs.w	lr, lr, r3, lsl #1
 80006ac:	bf08      	it	eq
 80006ae:	ea20 70d3 	biceq.w	r0, r0, r3, lsr #31
 80006b2:	bd70      	pop	{r4, r5, r6, pc}
 80006b4:	f1c4 0520 	rsb	r5, r4, #32
 80006b8:	fa00 f205 	lsl.w	r2, r0, r5
 80006bc:	ea4e 0e02 	orr.w	lr, lr, r2
 80006c0:	fa20 f304 	lsr.w	r3, r0, r4
 80006c4:	fa01 f205 	lsl.w	r2, r1, r5
 80006c8:	ea43 0302 	orr.w	r3, r3, r2
 80006cc:	fa21 f004 	lsr.w	r0, r1, r4
 80006d0:	f001 4100 	and.w	r1, r1, #2147483648	; 0x80000000
 80006d4:	fa21 f204 	lsr.w	r2, r1, r4
 80006d8:	ea20 0002 	bic.w	r0, r0, r2
 80006dc:	eb00 70d3 	add.w	r0, r0, r3, lsr #31
 80006e0:	ea5e 0e43 	orrs.w	lr, lr, r3, lsl #1
 80006e4:	bf08      	it	eq
 80006e6:	ea20 70d3 	biceq.w	r0, r0, r3, lsr #31
 80006ea:	bd70      	pop	{r4, r5, r6, pc}
 80006ec:	f094 0f00 	teq	r4, #0
 80006f0:	d10f      	bne.n	8000712 <__aeabi_dmul+0x1c2>
 80006f2:	f001 4600 	and.w	r6, r1, #2147483648	; 0x80000000
 80006f6:	0040      	lsls	r0, r0, #1
 80006f8:	eb41 0101 	adc.w	r1, r1, r1
 80006fc:	f411 1f80 	tst.w	r1, #1048576	; 0x100000
 8000700:	bf08      	it	eq
 8000702:	3c01      	subeq	r4, #1
 8000704:	d0f7      	beq.n	80006f6 <__aeabi_dmul+0x1a6>
 8000706:	ea41 0106 	orr.w	r1, r1, r6
 800070a:	f095 0f00 	teq	r5, #0
 800070e:	bf18      	it	ne
 8000710:	4770      	bxne	lr
 8000712:	f003 4600 	and.w	r6, r3, #2147483648	; 0x80000000
 8000716:	0052      	lsls	r2, r2, #1
 8000718:	eb43 0303 	adc.w	r3, r3, r3
 800071c:	f413 1f80 	tst.w	r3, #1048576	; 0x100000
 8000720:	bf08      	it	eq
 8000722:	3d01      	subeq	r5, #1
 8000724:	d0f7      	beq.n	8000716 <__aeabi_dmul+0x1c6>
 8000726:	ea43 0306 	orr.w	r3, r3, r6
 800072a:	4770      	bx	lr
 800072c:	ea94 0f0c 	teq	r4, ip
 8000730:	ea0c 5513 	and.w	r5, ip, r3, lsr #20
 8000734:	bf18      	it	ne
 8000736:	ea95 0f0c 	teqne	r5, ip
 800073a:	d00c      	beq.n	8000756 <__aeabi_dmul+0x206>
 800073c:	ea50 0641 	orrs.w	r6, r0, r1, lsl #1
 8000740:	bf18      	it	ne
 8000742:	ea52 0643 	orrsne.w	r6, r2, r3, lsl #1
 8000746:	d1d1      	bne.n	80006ec <__aeabi_dmul+0x19c>
 8000748:	ea81 0103 	eor.w	r1, r1, r3
 800074c:	f001 4100 	and.w	r1, r1, #2147483648	; 0x80000000
 8000750:	f04f 0000 	mov.w	r0, #0
 8000754:	bd70      	pop	{r4, r5, r6, pc}
 8000756:	ea50 0641 	orrs.w	r6, r0, r1, lsl #1
 800075a:	bf06      	itte	eq
 800075c:	4610      	moveq	r0, r2
 800075e:	4619      	moveq	r1, r3
 8000760:	ea52 0643 	orrsne.w	r6, r2, r3, lsl #1
 8000764:	d019      	beq.n	800079a <__aeabi_dmul+0x24a>
 8000766:	ea94 0f0c 	teq	r4, ip
 800076a:	d102      	bne.n	8000772 <__aeabi_dmul+0x222>
 800076c:	ea50 3601 	orrs.w	r6, r0, r1, lsl #12
 8000770:	d113      	bne.n	800079a <__aeabi_dmul+0x24a>
 8000772:	ea95 0f0c 	teq	r5, ip
 8000776:	d105      	bne.n	8000784 <__aeabi_dmul+0x234>
 8000778:	ea52 3603 	orrs.w	r6, r2, r3, lsl #12
 800077c:	bf1c      	itt	ne
 800077e:	4610      	movne	r0, r2
 8000780:	4619      	movne	r1, r3
 8000782:	d10a      	bne.n	800079a <__aeabi_dmul+0x24a>
 8000784:	ea81 0103 	eor.w	r1, r1, r3
 8000788:	f001 4100 	and.w	r1, r1, #2147483648	; 0x80000000
 800078c:	f041 41fe 	orr.w	r1, r1, #2130706432	; 0x7f000000
 8000790:	f441 0170 	orr.w	r1, r1, #15728640	; 0xf00000
 8000794:	f04f 0000 	mov.w	r0, #0
 8000798:	bd70      	pop	{r4, r5, r6, pc}
 800079a:	f041 41fe 	orr.w	r1, r1, #2130706432	; 0x7f000000
 800079e:	f441 0178 	orr.w	r1, r1, #16252928	; 0xf80000
 80007a2:	bd70      	pop	{r4, r5, r6, pc}

080007a4 <__aeabi_ddiv>:
 80007a4:	b570      	push	{r4, r5, r6, lr}
 80007a6:	f04f 0cff 	mov.w	ip, #255	; 0xff
 80007aa:	f44c 6ce0 	orr.w	ip, ip, #1792	; 0x700
 80007ae:	ea1c 5411 	ands.w	r4, ip, r1, lsr #20
 80007b2:	bf1d      	ittte	ne
 80007b4:	ea1c 5513 	andsne.w	r5, ip, r3, lsr #20
 80007b8:	ea94 0f0c 	teqne	r4, ip
 80007bc:	ea95 0f0c 	teqne	r5, ip
 80007c0:	f000 f8a7 	bleq	8000912 <__aeabi_ddiv+0x16e>
 80007c4:	eba4 0405 	sub.w	r4, r4, r5
 80007c8:	ea81 0e03 	eor.w	lr, r1, r3
 80007cc:	ea52 3503 	orrs.w	r5, r2, r3, lsl #12
 80007d0:	ea4f 3101 	mov.w	r1, r1, lsl #12
 80007d4:	f000 8088 	beq.w	80008e8 <__aeabi_ddiv+0x144>
 80007d8:	ea4f 3303 	mov.w	r3, r3, lsl #12
 80007dc:	f04f 5580 	mov.w	r5, #268435456	; 0x10000000
 80007e0:	ea45 1313 	orr.w	r3, r5, r3, lsr #4
 80007e4:	ea43 6312 	orr.w	r3, r3, r2, lsr #24
 80007e8:	ea4f 2202 	mov.w	r2, r2, lsl #8
 80007ec:	ea45 1511 	orr.w	r5, r5, r1, lsr #4
 80007f0:	ea45 6510 	orr.w	r5, r5, r0, lsr #24
 80007f4:	ea4f 2600 	mov.w	r6, r0, lsl #8
 80007f8:	f00e 4100 	and.w	r1, lr, #2147483648	; 0x80000000
 80007fc:	429d      	cmp	r5, r3
 80007fe:	bf08      	it	eq
 8000800:	4296      	cmpeq	r6, r2
 8000802:	f144 04fd 	adc.w	r4, r4, #253	; 0xfd
 8000806:	f504 7440 	add.w	r4, r4, #768	; 0x300
 800080a:	d202      	bcs.n	8000812 <__aeabi_ddiv+0x6e>
 800080c:	085b      	lsrs	r3, r3, #1
 800080e:	ea4f 0232 	mov.w	r2, r2, rrx
 8000812:	1ab6      	subs	r6, r6, r2
 8000814:	eb65 0503 	sbc.w	r5, r5, r3
 8000818:	085b      	lsrs	r3, r3, #1
 800081a:	ea4f 0232 	mov.w	r2, r2, rrx
 800081e:	f44f 1080 	mov.w	r0, #1048576	; 0x100000
 8000822:	f44f 2c00 	mov.w	ip, #524288	; 0x80000
 8000826:	ebb6 0e02 	subs.w	lr, r6, r2
 800082a:	eb75 0e03 	sbcs.w	lr, r5, r3
 800082e:	bf22      	ittt	cs
 8000830:	1ab6      	subcs	r6, r6, r2
 8000832:	4675      	movcs	r5, lr
 8000834:	ea40 000c 	orrcs.w	r0, r0, ip
 8000838:	085b      	lsrs	r3, r3, #1
 800083a:	ea4f 0232 	mov.w	r2, r2, rrx
 800083e:	ebb6 0e02 	subs.w	lr, r6, r2
 8000842:	eb75 0e03 	sbcs.w	lr, r5, r3
 8000846:	bf22      	ittt	cs
 8000848:	1ab6      	subcs	r6, r6, r2
 800084a:	4675      	movcs	r5, lr
 800084c:	ea40 005c 	orrcs.w	r0, r0, ip, lsr #1
 8000850:	085b      	lsrs	r3, r3, #1
 8000852:	ea4f 0232 	mov.w	r2, r2, rrx
 8000856:	ebb6 0e02 	subs.w	lr, r6, r2
 800085a:	eb75 0e03 	sbcs.w	lr, r5, r3
 800085e:	bf22      	ittt	cs
 8000860:	1ab6      	subcs	r6, r6, r2
 8000862:	4675      	movcs	r5, lr
 8000864:	ea40 009c 	orrcs.w	r0, r0, ip, lsr #2
 8000868:	085b      	lsrs	r3, r3, #1
 800086a:	ea4f 0232 	mov.w	r2, r2, rrx
 800086e:	ebb6 0e02 	subs.w	lr, r6, r2
 8000872:	eb75 0e03 	sbcs.w	lr, r5, r3
 8000876:	bf22      	ittt	cs
 8000878:	1ab6      	subcs	r6, r6, r2
 800087a:	4675      	movcs	r5, lr
 800087c:	ea40 00dc 	orrcs.w	r0, r0, ip, lsr #3
 8000880:	ea55 0e06 	orrs.w	lr, r5, r6
 8000884:	d018      	beq.n	80008b8 <__aeabi_ddiv+0x114>
 8000886:	ea4f 1505 	mov.w	r5, r5, lsl #4
 800088a:	ea45 7516 	orr.w	r5, r5, r6, lsr #28
 800088e:	ea4f 1606 	mov.w	r6, r6, lsl #4
 8000892:	ea4f 03c3 	mov.w	r3, r3, lsl #3
 8000896:	ea43 7352 	orr.w	r3, r3, r2, lsr #29
 800089a:	ea4f 02c2 	mov.w	r2, r2, lsl #3
 800089e:	ea5f 1c1c 	movs.w	ip, ip, lsr #4
 80008a2:	d1c0      	bne.n	8000826 <__aeabi_ddiv+0x82>
 80008a4:	f411 1f80 	tst.w	r1, #1048576	; 0x100000
 80008a8:	d10b      	bne.n	80008c2 <__aeabi_ddiv+0x11e>
 80008aa:	ea41 0100 	orr.w	r1, r1, r0
 80008ae:	f04f 0000 	mov.w	r0, #0
 80008b2:	f04f 4c00 	mov.w	ip, #2147483648	; 0x80000000
 80008b6:	e7b6      	b.n	8000826 <__aeabi_ddiv+0x82>
 80008b8:	f411 1f80 	tst.w	r1, #1048576	; 0x100000
 80008bc:	bf04      	itt	eq
 80008be:	4301      	orreq	r1, r0
 80008c0:	2000      	moveq	r0, #0
 80008c2:	f1b4 0cfd 	subs.w	ip, r4, #253	; 0xfd
 80008c6:	bf88      	it	hi
 80008c8:	f5bc 6fe0 	cmphi.w	ip, #1792	; 0x700
 80008cc:	f63f aeaf 	bhi.w	800062e <__aeabi_dmul+0xde>
 80008d0:	ebb5 0c03 	subs.w	ip, r5, r3
 80008d4:	bf04      	itt	eq
 80008d6:	ebb6 0c02 	subseq.w	ip, r6, r2
 80008da:	ea5f 0c50 	movseq.w	ip, r0, lsr #1
 80008de:	f150 0000 	adcs.w	r0, r0, #0
 80008e2:	eb41 5104 	adc.w	r1, r1, r4, lsl #20
 80008e6:	bd70      	pop	{r4, r5, r6, pc}
 80008e8:	f00e 4e00 	and.w	lr, lr, #2147483648	; 0x80000000
 80008ec:	ea4e 3111 	orr.w	r1, lr, r1, lsr #12
 80008f0:	eb14 045c 	adds.w	r4, r4, ip, lsr #1
 80008f4:	bfc2      	ittt	gt
 80008f6:	ebd4 050c 	rsbsgt	r5, r4, ip
 80008fa:	ea41 5104 	orrgt.w	r1, r1, r4, lsl #20
 80008fe:	bd70      	popgt	{r4, r5, r6, pc}
 8000900:	f441 1180 	orr.w	r1, r1, #1048576	; 0x100000
 8000904:	f04f 0e00 	mov.w	lr, #0
 8000908:	3c01      	subs	r4, #1
 800090a:	e690      	b.n	800062e <__aeabi_dmul+0xde>
 800090c:	ea45 0e06 	orr.w	lr, r5, r6
 8000910:	e68d      	b.n	800062e <__aeabi_dmul+0xde>
 8000912:	ea0c 5513 	and.w	r5, ip, r3, lsr #20
 8000916:	ea94 0f0c 	teq	r4, ip
 800091a:	bf08      	it	eq
 800091c:	ea95 0f0c 	teqeq	r5, ip
 8000920:	f43f af3b 	beq.w	800079a <__aeabi_dmul+0x24a>
 8000924:	ea94 0f0c 	teq	r4, ip
 8000928:	d10a      	bne.n	8000940 <__aeabi_ddiv+0x19c>
 800092a:	ea50 3401 	orrs.w	r4, r0, r1, lsl #12
 800092e:	f47f af34 	bne.w	800079a <__aeabi_dmul+0x24a>
 8000932:	ea95 0f0c 	teq	r5, ip
 8000936:	f47f af25 	bne.w	8000784 <__aeabi_dmul+0x234>
 800093a:	4610      	mov	r0, r2
 800093c:	4619      	mov	r1, r3
 800093e:	e72c      	b.n	800079a <__aeabi_dmul+0x24a>
 8000940:	ea95 0f0c 	teq	r5, ip
 8000944:	d106      	bne.n	8000954 <__aeabi_ddiv+0x1b0>
 8000946:	ea52 3503 	orrs.w	r5, r2, r3, lsl #12
 800094a:	f43f aefd 	beq.w	8000748 <__aeabi_dmul+0x1f8>
 800094e:	4610      	mov	r0, r2
 8000950:	4619      	mov	r1, r3
 8000952:	e722      	b.n	800079a <__aeabi_dmul+0x24a>
 8000954:	ea50 0641 	orrs.w	r6, r0, r1, lsl #1
 8000958:	bf18      	it	ne
 800095a:	ea52 0643 	orrsne.w	r6, r2, r3, lsl #1
 800095e:	f47f aec5 	bne.w	80006ec <__aeabi_dmul+0x19c>
 8000962:	ea50 0441 	orrs.w	r4, r0, r1, lsl #1
 8000966:	f47f af0d 	bne.w	8000784 <__aeabi_dmul+0x234>
 800096a:	ea52 0543 	orrs.w	r5, r2, r3, lsl #1
 800096e:	f47f aeeb 	bne.w	8000748 <__aeabi_dmul+0x1f8>
 8000972:	e712      	b.n	800079a <__aeabi_dmul+0x24a>

08000974 <__gedf2>:
 8000974:	f04f 3cff 	mov.w	ip, #4294967295	; 0xffffffff
 8000978:	e006      	b.n	8000988 <__cmpdf2+0x4>
 800097a:	bf00      	nop

0800097c <__ledf2>:
 800097c:	f04f 0c01 	mov.w	ip, #1
 8000980:	e002      	b.n	8000988 <__cmpdf2+0x4>
 8000982:	bf00      	nop

08000984 <__cmpdf2>:
 8000984:	f04f 0c01 	mov.w	ip, #1
 8000988:	f84d cd04 	str.w	ip, [sp, #-4]!
 800098c:	ea4f 0c41 	mov.w	ip, r1, lsl #1
 8000990:	ea7f 5c6c 	mvns.w	ip, ip, asr #21
 8000994:	ea4f 0c43 	mov.w	ip, r3, lsl #1
 8000998:	bf18      	it	ne
 800099a:	ea7f 5c6c 	mvnsne.w	ip, ip, asr #21
 800099e:	d01b      	beq.n	80009d8 <__cmpdf2+0x54>
 80009a0:	b001      	add	sp, #4
 80009a2:	ea50 0c41 	orrs.w	ip, r0, r1, lsl #1
 80009a6:	bf0c      	ite	eq
 80009a8:	ea52 0c43 	orrseq.w	ip, r2, r3, lsl #1
 80009ac:	ea91 0f03 	teqne	r1, r3
 80009b0:	bf02      	ittt	eq
 80009b2:	ea90 0f02 	teqeq	r0, r2
 80009b6:	2000      	moveq	r0, #0
 80009b8:	4770      	bxeq	lr
 80009ba:	f110 0f00 	cmn.w	r0, #0
 80009be:	ea91 0f03 	teq	r1, r3
 80009c2:	bf58      	it	pl
 80009c4:	4299      	cmppl	r1, r3
 80009c6:	bf08      	it	eq
 80009c8:	4290      	cmpeq	r0, r2
 80009ca:	bf2c      	ite	cs
 80009cc:	17d8      	asrcs	r0, r3, #31
 80009ce:	ea6f 70e3 	mvncc.w	r0, r3, asr #31
 80009d2:	f040 0001 	orr.w	r0, r0, #1
 80009d6:	4770      	bx	lr
 80009d8:	ea4f 0c41 	mov.w	ip, r1, lsl #1
 80009dc:	ea7f 5c6c 	mvns.w	ip, ip, asr #21
 80009e0:	d102      	bne.n	80009e8 <__cmpdf2+0x64>
 80009e2:	ea50 3c01 	orrs.w	ip, r0, r1, lsl #12
 80009e6:	d107      	bne.n	80009f8 <__cmpdf2+0x74>
 80009e8:	ea4f 0c43 	mov.w	ip, r3, lsl #1
 80009ec:	ea7f 5c6c 	mvns.w	ip, ip, asr #21
 80009f0:	d1d6      	bne.n	80009a0 <__cmpdf2+0x1c>
 80009f2:	ea52 3c03 	orrs.w	ip, r2, r3, lsl #12
 80009f6:	d0d3      	beq.n	80009a0 <__cmpdf2+0x1c>
 80009f8:	f85d 0b04 	ldr.w	r0, [sp], #4
 80009fc:	4770      	bx	lr
 80009fe:	bf00      	nop

08000a00 <__aeabi_cdrcmple>:
 8000a00:	4684      	mov	ip, r0
 8000a02:	4610      	mov	r0, r2
 8000a04:	4662      	mov	r2, ip
 8000a06:	468c      	mov	ip, r1
 8000a08:	4619      	mov	r1, r3
 8000a0a:	4663      	mov	r3, ip
 8000a0c:	e000      	b.n	8000a10 <__aeabi_cdcmpeq>
 8000a0e:	bf00      	nop

08000a10 <__aeabi_cdcmpeq>:
 8000a10:	b501      	push	{r0, lr}
 8000a12:	f7ff ffb7 	bl	8000984 <__cmpdf2>
 8000a16:	2800      	cmp	r0, #0
 8000a18:	bf48      	it	mi
 8000a1a:	f110 0f00 	cmnmi.w	r0, #0
 8000a1e:	bd01      	pop	{r0, pc}

08000a20 <__aeabi_dcmpeq>:
 8000a20:	f84d ed08 	str.w	lr, [sp, #-8]!
 8000a24:	f7ff fff4 	bl	8000a10 <__aeabi_cdcmpeq>
 8000a28:	bf0c      	ite	eq
 8000a2a:	2001      	moveq	r0, #1
 8000a2c:	2000      	movne	r0, #0
 8000a2e:	f85d fb08 	ldr.w	pc, [sp], #8
 8000a32:	bf00      	nop

08000a34 <__aeabi_dcmplt>:
 8000a34:	f84d ed08 	str.w	lr, [sp, #-8]!
 8000a38:	f7ff ffea 	bl	8000a10 <__aeabi_cdcmpeq>
 8000a3c:	bf34      	ite	cc
 8000a3e:	2001      	movcc	r0, #1
 8000a40:	2000      	movcs	r0, #0
 8000a42:	f85d fb08 	ldr.w	pc, [sp], #8
 8000a46:	bf00      	nop

08000a48 <__aeabi_dcmple>:
 8000a48:	f84d ed08 	str.w	lr, [sp, #-8]!
 8000a4c:	f7ff ffe0 	bl	8000a10 <__aeabi_cdcmpeq>
 8000a50:	bf94      	ite	ls
 8000a52:	2001      	movls	r0, #1
 8000a54:	2000      	movhi	r0, #0
 8000a56:	f85d fb08 	ldr.w	pc, [sp], #8
 8000a5a:	bf00      	nop

08000a5c <__aeabi_dcmpge>:
 8000a5c:	f84d ed08 	str.w	lr, [sp, #-8]!
 8000a60:	f7ff ffce 	bl	8000a00 <__aeabi_cdrcmple>
 8000a64:	bf94      	ite	ls
 8000a66:	2001      	movls	r0, #1
 8000a68:	2000      	movhi	r0, #0
 8000a6a:	f85d fb08 	ldr.w	pc, [sp], #8
 8000a6e:	bf00      	nop

08000a70 <__aeabi_dcmpgt>:
 8000a70:	f84d ed08 	str.w	lr, [sp, #-8]!
 8000a74:	f7ff ffc4 	bl	8000a00 <__aeabi_cdrcmple>
 8000a78:	bf34      	ite	cc
 8000a7a:	2001      	movcc	r0, #1
 8000a7c:	2000      	movcs	r0, #0
 8000a7e:	f85d fb08 	ldr.w	pc, [sp], #8
 8000a82:	bf00      	nop

08000a84 <__aeabi_dcmpun>:
 8000a84:	ea4f 0c41 	mov.w	ip, r1, lsl #1
 8000a88:	ea7f 5c6c 	mvns.w	ip, ip, asr #21
 8000a8c:	d102      	bne.n	8000a94 <__aeabi_dcmpun+0x10>
 8000a8e:	ea50 3c01 	orrs.w	ip, r0, r1, lsl #12
 8000a92:	d10a      	bne.n	8000aaa <__aeabi_dcmpun+0x26>
 8000a94:	ea4f 0c43 	mov.w	ip, r3, lsl #1
 8000a98:	ea7f 5c6c 	mvns.w	ip, ip, asr #21
 8000a9c:	d102      	bne.n	8000aa4 <__aeabi_dcmpun+0x20>
 8000a9e:	ea52 3c03 	orrs.w	ip, r2, r3, lsl #12
 8000aa2:	d102      	bne.n	8000aaa <__aeabi_dcmpun+0x26>
 8000aa4:	f04f 0000 	mov.w	r0, #0
 8000aa8:	4770      	bx	lr
 8000aaa:	f04f 0001 	mov.w	r0, #1
 8000aae:	4770      	bx	lr

08000ab0 <__aeabi_d2f>:
 8000ab0:	ea4f 0241 	mov.w	r2, r1, lsl #1
 8000ab4:	f1b2 43e0 	subs.w	r3, r2, #1879048192	; 0x70000000
 8000ab8:	bf24      	itt	cs
 8000aba:	f5b3 1c00 	subscs.w	ip, r3, #2097152	; 0x200000
 8000abe:	f1dc 5cfe 	rsbscs	ip, ip, #532676608	; 0x1fc00000
 8000ac2:	d90d      	bls.n	8000ae0 <__aeabi_d2f+0x30>
 8000ac4:	f001 4c00 	and.w	ip, r1, #2147483648	; 0x80000000
 8000ac8:	ea4f 02c0 	mov.w	r2, r0, lsl #3
 8000acc:	ea4c 7050 	orr.w	r0, ip, r0, lsr #29
 8000ad0:	f1b2 4f00 	cmp.w	r2, #2147483648	; 0x80000000
 8000ad4:	eb40 0083 	adc.w	r0, r0, r3, lsl #2
 8000ad8:	bf08      	it	eq
 8000ada:	f020 0001 	biceq.w	r0, r0, #1
 8000ade:	4770      	bx	lr
 8000ae0:	f011 4f80 	tst.w	r1, #1073741824	; 0x40000000
 8000ae4:	d121      	bne.n	8000b2a <__aeabi_d2f+0x7a>
 8000ae6:	f113 7238 	adds.w	r2, r3, #48234496	; 0x2e00000
 8000aea:	bfbc      	itt	lt
 8000aec:	f001 4000 	andlt.w	r0, r1, #2147483648	; 0x80000000
 8000af0:	4770      	bxlt	lr
 8000af2:	f441 1180 	orr.w	r1, r1, #1048576	; 0x100000
 8000af6:	ea4f 5252 	mov.w	r2, r2, lsr #21
 8000afa:	f1c2 0218 	rsb	r2, r2, #24
 8000afe:	f1c2 0c20 	rsb	ip, r2, #32
 8000b02:	fa10 f30c 	lsls.w	r3, r0, ip
 8000b06:	fa20 f002 	lsr.w	r0, r0, r2
 8000b0a:	bf18      	it	ne
 8000b0c:	f040 0001 	orrne.w	r0, r0, #1
 8000b10:	ea4f 23c1 	mov.w	r3, r1, lsl #11
 8000b14:	ea4f 23d3 	mov.w	r3, r3, lsr #11
 8000b18:	fa03 fc0c 	lsl.w	ip, r3, ip
 8000b1c:	ea40 000c 	orr.w	r0, r0, ip
 8000b20:	fa23 f302 	lsr.w	r3, r3, r2
 8000b24:	ea4f 0343 	mov.w	r3, r3, lsl #1
 8000b28:	e7cc      	b.n	8000ac4 <__aeabi_d2f+0x14>
 8000b2a:	ea7f 5362 	mvns.w	r3, r2, asr #21
 8000b2e:	d107      	bne.n	8000b40 <__aeabi_d2f+0x90>
 8000b30:	ea50 3301 	orrs.w	r3, r0, r1, lsl #12
 8000b34:	bf1e      	ittt	ne
 8000b36:	f04f 40fe 	movne.w	r0, #2130706432	; 0x7f000000
 8000b3a:	f440 0040 	orrne.w	r0, r0, #12582912	; 0xc00000
 8000b3e:	4770      	bxne	lr
 8000b40:	f001 4000 	and.w	r0, r1, #2147483648	; 0x80000000
 8000b44:	f040 40fe 	orr.w	r0, r0, #2130706432	; 0x7f000000
 8000b48:	f440 0000 	orr.w	r0, r0, #8388608	; 0x800000
 8000b4c:	4770      	bx	lr
 8000b4e:	bf00      	nop

08000b50 <__aeabi_uldivmod>:
 8000b50:	b953      	cbnz	r3, 8000b68 <__aeabi_uldivmod+0x18>
 8000b52:	b94a      	cbnz	r2, 8000b68 <__aeabi_uldivmod+0x18>
 8000b54:	2900      	cmp	r1, #0
 8000b56:	bf08      	it	eq
 8000b58:	2800      	cmpeq	r0, #0
 8000b5a:	bf1c      	itt	ne
 8000b5c:	f04f 31ff 	movne.w	r1, #4294967295	; 0xffffffff
 8000b60:	f04f 30ff 	movne.w	r0, #4294967295	; 0xffffffff
 8000b64:	f000 b96e 	b.w	8000e44 <__aeabi_idiv0>
 8000b68:	f1ad 0c08 	sub.w	ip, sp, #8
 8000b6c:	e96d ce04 	strd	ip, lr, [sp, #-16]!
 8000b70:	f000 f806 	bl	8000b80 <__udivmoddi4>
 8000b74:	f8dd e004 	ldr.w	lr, [sp, #4]
 8000b78:	e9dd 2302 	ldrd	r2, r3, [sp, #8]
 8000b7c:	b004      	add	sp, #16
 8000b7e:	4770      	bx	lr

08000b80 <__udivmoddi4>:
 8000b80:	e92d 47f0 	stmdb	sp!, {r4, r5, r6, r7, r8, r9, sl, lr}
 8000b84:	9d08      	ldr	r5, [sp, #32]
 8000b86:	4604      	mov	r4, r0
 8000b88:	468c      	mov	ip, r1
 8000b8a:	2b00      	cmp	r3, #0
 8000b8c:	f040 8083 	bne.w	8000c96 <__udivmoddi4+0x116>
 8000b90:	428a      	cmp	r2, r1
 8000b92:	4617      	mov	r7, r2
 8000b94:	d947      	bls.n	8000c26 <__udivmoddi4+0xa6>
 8000b96:	fab2 f282 	clz	r2, r2
 8000b9a:	b142      	cbz	r2, 8000bae <__udivmoddi4+0x2e>
 8000b9c:	f1c2 0020 	rsb	r0, r2, #32
 8000ba0:	fa24 f000 	lsr.w	r0, r4, r0
 8000ba4:	4091      	lsls	r1, r2
 8000ba6:	4097      	lsls	r7, r2
 8000ba8:	ea40 0c01 	orr.w	ip, r0, r1
 8000bac:	4094      	lsls	r4, r2
 8000bae:	ea4f 4817 	mov.w	r8, r7, lsr #16
 8000bb2:	0c23      	lsrs	r3, r4, #16
 8000bb4:	fbbc f6f8 	udiv	r6, ip, r8
 8000bb8:	fa1f fe87 	uxth.w	lr, r7
 8000bbc:	fb08 c116 	mls	r1, r8, r6, ip
 8000bc0:	ea43 4301 	orr.w	r3, r3, r1, lsl #16
 8000bc4:	fb06 f10e 	mul.w	r1, r6, lr
 8000bc8:	4299      	cmp	r1, r3
 8000bca:	d909      	bls.n	8000be0 <__udivmoddi4+0x60>
 8000bcc:	18fb      	adds	r3, r7, r3
 8000bce:	f106 30ff 	add.w	r0, r6, #4294967295	; 0xffffffff
 8000bd2:	f080 8119 	bcs.w	8000e08 <__udivmoddi4+0x288>
 8000bd6:	4299      	cmp	r1, r3
 8000bd8:	f240 8116 	bls.w	8000e08 <__udivmoddi4+0x288>
 8000bdc:	3e02      	subs	r6, #2
 8000bde:	443b      	add	r3, r7
 8000be0:	1a5b      	subs	r3, r3, r1
 8000be2:	b2a4      	uxth	r4, r4
 8000be4:	fbb3 f0f8 	udiv	r0, r3, r8
 8000be8:	fb08 3310 	mls	r3, r8, r0, r3
 8000bec:	ea44 4403 	orr.w	r4, r4, r3, lsl #16
 8000bf0:	fb00 fe0e 	mul.w	lr, r0, lr
 8000bf4:	45a6      	cmp	lr, r4
 8000bf6:	d909      	bls.n	8000c0c <__udivmoddi4+0x8c>
 8000bf8:	193c      	adds	r4, r7, r4
 8000bfa:	f100 33ff 	add.w	r3, r0, #4294967295	; 0xffffffff
 8000bfe:	f080 8105 	bcs.w	8000e0c <__udivmoddi4+0x28c>
 8000c02:	45a6      	cmp	lr, r4
 8000c04:	f240 8102 	bls.w	8000e0c <__udivmoddi4+0x28c>
 8000c08:	3802      	subs	r0, #2
 8000c0a:	443c      	add	r4, r7
 8000c0c:	ea40 4006 	orr.w	r0, r0, r6, lsl #16
 8000c10:	eba4 040e 	sub.w	r4, r4, lr
 8000c14:	2600      	movs	r6, #0
 8000c16:	b11d      	cbz	r5, 8000c20 <__udivmoddi4+0xa0>
 8000c18:	40d4      	lsrs	r4, r2
 8000c1a:	2300      	movs	r3, #0
 8000c1c:	e9c5 4300 	strd	r4, r3, [r5]
 8000c20:	4631      	mov	r1, r6
 8000c22:	e8bd 87f0 	ldmia.w	sp!, {r4, r5, r6, r7, r8, r9, sl, pc}
 8000c26:	b902      	cbnz	r2, 8000c2a <__udivmoddi4+0xaa>
 8000c28:	deff      	udf	#255	; 0xff
 8000c2a:	fab2 f282 	clz	r2, r2
 8000c2e:	2a00      	cmp	r2, #0
 8000c30:	d150      	bne.n	8000cd4 <__udivmoddi4+0x154>
 8000c32:	1bcb      	subs	r3, r1, r7
 8000c34:	ea4f 4e17 	mov.w	lr, r7, lsr #16
 8000c38:	fa1f f887 	uxth.w	r8, r7
 8000c3c:	2601      	movs	r6, #1
 8000c3e:	fbb3 fcfe 	udiv	ip, r3, lr
 8000c42:	0c21      	lsrs	r1, r4, #16
 8000c44:	fb0e 331c 	mls	r3, lr, ip, r3
 8000c48:	ea41 4103 	orr.w	r1, r1, r3, lsl #16
 8000c4c:	fb08 f30c 	mul.w	r3, r8, ip
 8000c50:	428b      	cmp	r3, r1
 8000c52:	d907      	bls.n	8000c64 <__udivmoddi4+0xe4>
 8000c54:	1879      	adds	r1, r7, r1
 8000c56:	f10c 30ff 	add.w	r0, ip, #4294967295	; 0xffffffff
 8000c5a:	d202      	bcs.n	8000c62 <__udivmoddi4+0xe2>
 8000c5c:	428b      	cmp	r3, r1
 8000c5e:	f200 80e9 	bhi.w	8000e34 <__udivmoddi4+0x2b4>
 8000c62:	4684      	mov	ip, r0
 8000c64:	1ac9      	subs	r1, r1, r3
 8000c66:	b2a3      	uxth	r3, r4
 8000c68:	fbb1 f0fe 	udiv	r0, r1, lr
 8000c6c:	fb0e 1110 	mls	r1, lr, r0, r1
 8000c70:	ea43 4401 	orr.w	r4, r3, r1, lsl #16
 8000c74:	fb08 f800 	mul.w	r8, r8, r0
 8000c78:	45a0      	cmp	r8, r4
 8000c7a:	d907      	bls.n	8000c8c <__udivmoddi4+0x10c>
 8000c7c:	193c      	adds	r4, r7, r4
 8000c7e:	f100 33ff 	add.w	r3, r0, #4294967295	; 0xffffffff
 8000c82:	d202      	bcs.n	8000c8a <__udivmoddi4+0x10a>
 8000c84:	45a0      	cmp	r8, r4
 8000c86:	f200 80d9 	bhi.w	8000e3c <__udivmoddi4+0x2bc>
 8000c8a:	4618      	mov	r0, r3
 8000c8c:	eba4 0408 	sub.w	r4, r4, r8
 8000c90:	ea40 400c 	orr.w	r0, r0, ip, lsl #16
 8000c94:	e7bf      	b.n	8000c16 <__udivmoddi4+0x96>
 8000c96:	428b      	cmp	r3, r1
 8000c98:	d909      	bls.n	8000cae <__udivmoddi4+0x12e>
 8000c9a:	2d00      	cmp	r5, #0
 8000c9c:	f000 80b1 	beq.w	8000e02 <__udivmoddi4+0x282>
 8000ca0:	2600      	movs	r6, #0
 8000ca2:	e9c5 0100 	strd	r0, r1, [r5]
 8000ca6:	4630      	mov	r0, r6
 8000ca8:	4631      	mov	r1, r6
 8000caa:	e8bd 87f0 	ldmia.w	sp!, {r4, r5, r6, r7, r8, r9, sl, pc}
 8000cae:	fab3 f683 	clz	r6, r3
 8000cb2:	2e00      	cmp	r6, #0
 8000cb4:	d14a      	bne.n	8000d4c <__udivmoddi4+0x1cc>
 8000cb6:	428b      	cmp	r3, r1
 8000cb8:	d302      	bcc.n	8000cc0 <__udivmoddi4+0x140>
 8000cba:	4282      	cmp	r2, r0
 8000cbc:	f200 80b8 	bhi.w	8000e30 <__udivmoddi4+0x2b0>
 8000cc0:	1a84      	subs	r4, r0, r2
 8000cc2:	eb61 0103 	sbc.w	r1, r1, r3
 8000cc6:	2001      	movs	r0, #1
 8000cc8:	468c      	mov	ip, r1
 8000cca:	2d00      	cmp	r5, #0
 8000ccc:	d0a8      	beq.n	8000c20 <__udivmoddi4+0xa0>
 8000cce:	e9c5 4c00 	strd	r4, ip, [r5]
 8000cd2:	e7a5      	b.n	8000c20 <__udivmoddi4+0xa0>
 8000cd4:	f1c2 0320 	rsb	r3, r2, #32
 8000cd8:	fa20 f603 	lsr.w	r6, r0, r3
 8000cdc:	4097      	lsls	r7, r2
 8000cde:	fa01 f002 	lsl.w	r0, r1, r2
 8000ce2:	ea4f 4e17 	mov.w	lr, r7, lsr #16
 8000ce6:	40d9      	lsrs	r1, r3
 8000ce8:	4330      	orrs	r0, r6
 8000cea:	0c03      	lsrs	r3, r0, #16
 8000cec:	fbb1 f6fe 	udiv	r6, r1, lr
 8000cf0:	fa1f f887 	uxth.w	r8, r7
 8000cf4:	fb0e 1116 	mls	r1, lr, r6, r1
 8000cf8:	ea43 4301 	orr.w	r3, r3, r1, lsl #16
 8000cfc:	fb06 f108 	mul.w	r1, r6, r8
 8000d00:	4299      	cmp	r1, r3
 8000d02:	fa04 f402 	lsl.w	r4, r4, r2
 8000d06:	d909      	bls.n	8000d1c <__udivmoddi4+0x19c>
 8000d08:	18fb      	adds	r3, r7, r3
 8000d0a:	f106 3cff 	add.w	ip, r6, #4294967295	; 0xffffffff
 8000d0e:	f080 808d 	bcs.w	8000e2c <__udivmoddi4+0x2ac>
 8000d12:	4299      	cmp	r1, r3
 8000d14:	f240 808a 	bls.w	8000e2c <__udivmoddi4+0x2ac>
 8000d18:	3e02      	subs	r6, #2
 8000d1a:	443b      	add	r3, r7
 8000d1c:	1a5b      	subs	r3, r3, r1
 8000d1e:	b281      	uxth	r1, r0
 8000d20:	fbb3 f0fe 	udiv	r0, r3, lr
 8000d24:	fb0e 3310 	mls	r3, lr, r0, r3
 8000d28:	ea41 4103 	orr.w	r1, r1, r3, lsl #16
 8000d2c:	fb00 f308 	mul.w	r3, r0, r8
 8000d30:	428b      	cmp	r3, r1
 8000d32:	d907      	bls.n	8000d44 <__udivmoddi4+0x1c4>
 8000d34:	1879      	adds	r1, r7, r1
 8000d36:	f100 3cff 	add.w	ip, r0, #4294967295	; 0xffffffff
 8000d3a:	d273      	bcs.n	8000e24 <__udivmoddi4+0x2a4>
 8000d3c:	428b      	cmp	r3, r1
 8000d3e:	d971      	bls.n	8000e24 <__udivmoddi4+0x2a4>
 8000d40:	3802      	subs	r0, #2
 8000d42:	4439      	add	r1, r7
 8000d44:	1acb      	subs	r3, r1, r3
 8000d46:	ea40 4606 	orr.w	r6, r0, r6, lsl #16
 8000d4a:	e778      	b.n	8000c3e <__udivmoddi4+0xbe>
 8000d4c:	f1c6 0c20 	rsb	ip, r6, #32
 8000d50:	fa03 f406 	lsl.w	r4, r3, r6
 8000d54:	fa22 f30c 	lsr.w	r3, r2, ip
 8000d58:	431c      	orrs	r4, r3
 8000d5a:	fa20 f70c 	lsr.w	r7, r0, ip
 8000d5e:	fa01 f306 	lsl.w	r3, r1, r6
 8000d62:	ea4f 4e14 	mov.w	lr, r4, lsr #16
 8000d66:	fa21 f10c 	lsr.w	r1, r1, ip
 8000d6a:	431f      	orrs	r7, r3
 8000d6c:	0c3b      	lsrs	r3, r7, #16
 8000d6e:	fbb1 f9fe 	udiv	r9, r1, lr
 8000d72:	fa1f f884 	uxth.w	r8, r4
 8000d76:	fb0e 1119 	mls	r1, lr, r9, r1
 8000d7a:	ea43 4101 	orr.w	r1, r3, r1, lsl #16
 8000d7e:	fb09 fa08 	mul.w	sl, r9, r8
 8000d82:	458a      	cmp	sl, r1
 8000d84:	fa02 f206 	lsl.w	r2, r2, r6
 8000d88:	fa00 f306 	lsl.w	r3, r0, r6
 8000d8c:	d908      	bls.n	8000da0 <__udivmoddi4+0x220>
 8000d8e:	1861      	adds	r1, r4, r1
 8000d90:	f109 30ff 	add.w	r0, r9, #4294967295	; 0xffffffff
 8000d94:	d248      	bcs.n	8000e28 <__udivmoddi4+0x2a8>
 8000d96:	458a      	cmp	sl, r1
 8000d98:	d946      	bls.n	8000e28 <__udivmoddi4+0x2a8>
 8000d9a:	f1a9 0902 	sub.w	r9, r9, #2
 8000d9e:	4421      	add	r1, r4
 8000da0:	eba1 010a 	sub.w	r1, r1, sl
 8000da4:	b2bf      	uxth	r7, r7
 8000da6:	fbb1 f0fe 	udiv	r0, r1, lr
 8000daa:	fb0e 1110 	mls	r1, lr, r0, r1
 8000dae:	ea47 4701 	orr.w	r7, r7, r1, lsl #16
 8000db2:	fb00 f808 	mul.w	r8, r0, r8
 8000db6:	45b8      	cmp	r8, r7
 8000db8:	d907      	bls.n	8000dca <__udivmoddi4+0x24a>
 8000dba:	19e7      	adds	r7, r4, r7
 8000dbc:	f100 31ff 	add.w	r1, r0, #4294967295	; 0xffffffff
 8000dc0:	d22e      	bcs.n	8000e20 <__udivmoddi4+0x2a0>
 8000dc2:	45b8      	cmp	r8, r7
 8000dc4:	d92c      	bls.n	8000e20 <__udivmoddi4+0x2a0>
 8000dc6:	3802      	subs	r0, #2
 8000dc8:	4427      	add	r7, r4
 8000dca:	ea40 4009 	orr.w	r0, r0, r9, lsl #16
 8000dce:	eba7 0708 	sub.w	r7, r7, r8
 8000dd2:	fba0 8902 	umull	r8, r9, r0, r2
 8000dd6:	454f      	cmp	r7, r9
 8000dd8:	46c6      	mov	lr, r8
 8000dda:	4649      	mov	r1, r9
 8000ddc:	d31a      	bcc.n	8000e14 <__udivmoddi4+0x294>
 8000dde:	d017      	beq.n	8000e10 <__udivmoddi4+0x290>
 8000de0:	b15d      	cbz	r5, 8000dfa <__udivmoddi4+0x27a>
 8000de2:	ebb3 020e 	subs.w	r2, r3, lr
 8000de6:	eb67 0701 	sbc.w	r7, r7, r1
 8000dea:	fa07 fc0c 	lsl.w	ip, r7, ip
 8000dee:	40f2      	lsrs	r2, r6
 8000df0:	ea4c 0202 	orr.w	r2, ip, r2
 8000df4:	40f7      	lsrs	r7, r6
 8000df6:	e9c5 2700 	strd	r2, r7, [r5]
 8000dfa:	2600      	movs	r6, #0
 8000dfc:	4631      	mov	r1, r6
 8000dfe:	e8bd 87f0 	ldmia.w	sp!, {r4, r5, r6, r7, r8, r9, sl, pc}
 8000e02:	462e      	mov	r6, r5
 8000e04:	4628      	mov	r0, r5
 8000e06:	e70b      	b.n	8000c20 <__udivmoddi4+0xa0>
 8000e08:	4606      	mov	r6, r0
 8000e0a:	e6e9      	b.n	8000be0 <__udivmoddi4+0x60>
 8000e0c:	4618      	mov	r0, r3
 8000e0e:	e6fd      	b.n	8000c0c <__udivmoddi4+0x8c>
 8000e10:	4543      	cmp	r3, r8
 8000e12:	d2e5      	bcs.n	8000de0 <__udivmoddi4+0x260>
 8000e14:	ebb8 0e02 	subs.w	lr, r8, r2
 8000e18:	eb69 0104 	sbc.w	r1, r9, r4
 8000e1c:	3801      	subs	r0, #1
 8000e1e:	e7df      	b.n	8000de0 <__udivmoddi4+0x260>
 8000e20:	4608      	mov	r0, r1
 8000e22:	e7d2      	b.n	8000dca <__udivmoddi4+0x24a>
 8000e24:	4660      	mov	r0, ip
 8000e26:	e78d      	b.n	8000d44 <__udivmoddi4+0x1c4>
 8000e28:	4681      	mov	r9, r0
 8000e2a:	e7b9      	b.n	8000da0 <__udivmoddi4+0x220>
 8000e2c:	4666      	mov	r6, ip
 8000e2e:	e775      	b.n	8000d1c <__udivmoddi4+0x19c>
 8000e30:	4630      	mov	r0, r6
 8000e32:	e74a      	b.n	8000cca <__udivmoddi4+0x14a>
 8000e34:	f1ac 0c02 	sub.w	ip, ip, #2
 8000e38:	4439      	add	r1, r7
 8000e3a:	e713      	b.n	8000c64 <__udivmoddi4+0xe4>
 8000e3c:	3802      	subs	r0, #2
 8000e3e:	443c      	add	r4, r7
 8000e40:	e724      	b.n	8000c8c <__udivmoddi4+0x10c>
 8000e42:	bf00      	nop

08000e44 <__aeabi_idiv0>:
 8000e44:	4770      	bx	lr
 8000e46:	bf00      	nop

08000e48 <LSM303DLHC_AccDeInit>:
 8000e48:	4770      	bx	lr

08000e4a <LSM303DLHC_AccInit>:
 8000e4a:	b510      	push	{r4, lr}
 8000e4c:	4604      	mov	r4, r0
 8000e4e:	f000 fde5 	bl	8001a1c <COMPASSACCELERO_IO_Init>
 8000e52:	b2e2      	uxtb	r2, r4
 8000e54:	2120      	movs	r1, #32
 8000e56:	2032      	movs	r0, #50	; 0x32
 8000e58:	f000 fe2a 	bl	8001ab0 <COMPASSACCELERO_IO_Write>
 8000e5c:	e8bd 4010 	ldmia.w	sp!, {r4, lr}
 8000e60:	2200      	movs	r2, #0
 8000e62:	2123      	movs	r1, #35	; 0x23
 8000e64:	2032      	movs	r0, #50	; 0x32
 8000e66:	f000 be23 	b.w	8001ab0 <COMPASSACCELERO_IO_Write>

08000e6a <LSM303DLHC_AccReadID>:
 8000e6a:	b508      	push	{r3, lr}
 8000e6c:	f000 fdd6 	bl	8001a1c <COMPASSACCELERO_IO_Init>
 8000e70:	e8bd 4008 	ldmia.w	sp!, {r3, lr}
 8000e74:	210f      	movs	r1, #15
 8000e76:	2032      	movs	r0, #50	; 0x32
 8000e78:	f000 be1c 	b.w	8001ab4 <COMPASSACCELERO_IO_Read>

08000e7c <LSM303DLHC_AccRebootCmd>:
 8000e7c:	b508      	push	{r3, lr}
 8000e7e:	2124      	movs	r1, #36	; 0x24
 8000e80:	2032      	movs	r0, #50	; 0x32
 8000e82:	f000 fe17 	bl	8001ab4 <COMPASSACCELERO_IO_Read>
 8000e86:	f060 007f 	orn	r0, r0, #127	; 0x7f
 8000e8a:	b2c2      	uxtb	r2, r0
 8000e8c:	e8bd 4008 	ldmia.w	sp!, {r3, lr}
 8000e90:	2124      	movs	r1, #36	; 0x24
 8000e92:	2032      	movs	r0, #50	; 0x32
 8000e94:	f000 be0c 	b.w	8001ab0 <COMPASSACCELERO_IO_Write>

08000e98 <LSM303DLHC_AccFilterConfig>:
 8000e98:	b510      	push	{r4, lr}
 8000e9a:	2121      	movs	r1, #33	; 0x21
 8000e9c:	4604      	mov	r4, r0
 8000e9e:	2032      	movs	r0, #50	; 0x32
 8000ea0:	f000 fe08 	bl	8001ab4 <COMPASSACCELERO_IO_Read>
 8000ea4:	f000 000c 	and.w	r0, r0, #12
 8000ea8:	ea40 0204 	orr.w	r2, r0, r4
 8000eac:	2121      	movs	r1, #33	; 0x21
 8000eae:	e8bd 4010 	ldmia.w	sp!, {r4, lr}
 8000eb2:	2032      	movs	r0, #50	; 0x32
 8000eb4:	f000 bdfc 	b.w	8001ab0 <COMPASSACCELERO_IO_Write>

08000eb8 <LSM303DLHC_AccFilterCmd>:
 8000eb8:	b510      	push	{r4, lr}
 8000eba:	2121      	movs	r1, #33	; 0x21
 8000ebc:	4604      	mov	r4, r0
 8000ebe:	2032      	movs	r0, #50	; 0x32
 8000ec0:	f000 fdf8 	bl	8001ab4 <COMPASSACCELERO_IO_Read>
 8000ec4:	f000 00f7 	and.w	r0, r0, #247	; 0xf7
 8000ec8:	ea40 0204 	orr.w	r2, r0, r4
 8000ecc:	2121      	movs	r1, #33	; 0x21
 8000ece:	e8bd 4010 	ldmia.w	sp!, {r4, lr}
 8000ed2:	2032      	movs	r0, #50	; 0x32
 8000ed4:	f000 bdec 	b.w	8001ab0 <COMPASSACCELERO_IO_Write>

08000ed8 <LSM303DLHC_AccReadXYZ>:
 8000ed8:	e92d 47f0 	stmdb	sp!, {r4, r5, r6, r7, r8, r9, sl, lr}
 8000edc:	2123      	movs	r1, #35	; 0x23
 8000ede:	4606      	mov	r6, r0
 8000ee0:	2032      	movs	r0, #50	; 0x32
 8000ee2:	f000 fde7 	bl	8001ab4 <COMPASSACCELERO_IO_Read>
 8000ee6:	2124      	movs	r1, #36	; 0x24
 8000ee8:	4607      	mov	r7, r0
 8000eea:	2032      	movs	r0, #50	; 0x32
 8000eec:	f000 fde2 	bl	8001ab4 <COMPASSACCELERO_IO_Read>
 8000ef0:	2128      	movs	r1, #40	; 0x28
 8000ef2:	2032      	movs	r0, #50	; 0x32
 8000ef4:	f000 fdde 	bl	8001ab4 <COMPASSACCELERO_IO_Read>
 8000ef8:	2129      	movs	r1, #41	; 0x29
 8000efa:	fa4f f880 	sxtb.w	r8, r0
 8000efe:	2032      	movs	r0, #50	; 0x32
 8000f00:	f000 fdd8 	bl	8001ab4 <COMPASSACCELERO_IO_Read>
 8000f04:	212a      	movs	r1, #42	; 0x2a
 8000f06:	fa4f f980 	sxtb.w	r9, r0
 8000f0a:	2032      	movs	r0, #50	; 0x32
 8000f0c:	f000 fdd2 	bl	8001ab4 <COMPASSACCELERO_IO_Read>
 8000f10:	212b      	movs	r1, #43	; 0x2b
 8000f12:	b244      	sxtb	r4, r0
 8000f14:	2032      	movs	r0, #50	; 0x32
 8000f16:	f000 fdcd 	bl	8001ab4 <COMPASSACCELERO_IO_Read>
 8000f1a:	212c      	movs	r1, #44	; 0x2c
 8000f1c:	fa4f fa80 	sxtb.w	sl, r0
 8000f20:	2032      	movs	r0, #50	; 0x32
 8000f22:	f000 fdc7 	bl	8001ab4 <COMPASSACCELERO_IO_Read>
 8000f26:	212d      	movs	r1, #45	; 0x2d
 8000f28:	b245      	sxtb	r5, r0
 8000f2a:	2032      	movs	r0, #50	; 0x32
 8000f2c:	f000 fdc2 	bl	8001ab4 <COMPASSACCELERO_IO_Read>
 8000f30:	067a      	lsls	r2, r7, #25
 8000f32:	b243      	sxtb	r3, r0
 8000f34:	d51d      	bpl.n	8000f72 <LSM303DLHC_AccReadXYZ+0x9a>
 8000f36:	eb09 2808 	add.w	r8, r9, r8, lsl #8
 8000f3a:	eb0a 2404 	add.w	r4, sl, r4, lsl #8
 8000f3e:	fa0f f888 	sxth.w	r8, r8
 8000f42:	b224      	sxth	r4, r4
 8000f44:	eb03 2505 	add.w	r5, r3, r5, lsl #8
 8000f48:	f007 0030 	and.w	r0, r7, #48	; 0x30
 8000f4c:	2820      	cmp	r0, #32
 8000f4e:	b22d      	sxth	r5, r5
 8000f50:	d019      	beq.n	8000f86 <LSM303DLHC_AccReadXYZ+0xae>
 8000f52:	2830      	cmp	r0, #48	; 0x30
 8000f54:	d019      	beq.n	8000f8a <LSM303DLHC_AccReadXYZ+0xb2>
 8000f56:	2810      	cmp	r0, #16
 8000f58:	bf14      	ite	ne
 8000f5a:	2301      	movne	r3, #1
 8000f5c:	2302      	moveq	r3, #2
 8000f5e:	fb08 f803 	mul.w	r8, r8, r3
 8000f62:	435c      	muls	r4, r3
 8000f64:	435d      	muls	r5, r3
 8000f66:	f8a6 8000 	strh.w	r8, [r6]
 8000f6a:	8074      	strh	r4, [r6, #2]
 8000f6c:	80b5      	strh	r5, [r6, #4]
 8000f6e:	e8bd 87f0 	ldmia.w	sp!, {r4, r5, r6, r7, r8, r9, sl, pc}
 8000f72:	eb08 2809 	add.w	r8, r8, r9, lsl #8
 8000f76:	eb04 240a 	add.w	r4, r4, sl, lsl #8
 8000f7a:	fa0f f888 	sxth.w	r8, r8
 8000f7e:	b224      	sxth	r4, r4
 8000f80:	eb05 2503 	add.w	r5, r5, r3, lsl #8
 8000f84:	e7e0      	b.n	8000f48 <LSM303DLHC_AccReadXYZ+0x70>
 8000f86:	2304      	movs	r3, #4
 8000f88:	e7e9      	b.n	8000f5e <LSM303DLHC_AccReadXYZ+0x86>
 8000f8a:	230c      	movs	r3, #12
 8000f8c:	e7e7      	b.n	8000f5e <LSM303DLHC_AccReadXYZ+0x86>

08000f8e <LSM303DLHC_AccFilterClickCmd>:
 8000f8e:	b510      	push	{r4, lr}
 8000f90:	2121      	movs	r1, #33	; 0x21
 8000f92:	4604      	mov	r4, r0
 8000f94:	2032      	movs	r0, #50	; 0x32
 8000f96:	f000 fd8d 	bl	8001ab4 <COMPASSACCELERO_IO_Read>
 8000f9a:	f000 00fb 	and.w	r0, r0, #251	; 0xfb
 8000f9e:	ea40 0204 	orr.w	r2, r0, r4
 8000fa2:	2121      	movs	r1, #33	; 0x21
 8000fa4:	e8bd 4010 	ldmia.w	sp!, {r4, lr}
 8000fa8:	2032      	movs	r0, #50	; 0x32
 8000faa:	f000 bd81 	b.w	8001ab0 <COMPASSACCELERO_IO_Write>

08000fae <LSM303DLHC_AccIT1Enable>:
 8000fae:	b510      	push	{r4, lr}
 8000fb0:	2122      	movs	r1, #34	; 0x22
 8000fb2:	4604      	mov	r4, r0
 8000fb4:	2032      	movs	r0, #50	; 0x32
 8000fb6:	f000 fd7d 	bl	8001ab4 <COMPASSACCELERO_IO_Read>
 8000fba:	4320      	orrs	r0, r4
 8000fbc:	b2c2      	uxtb	r2, r0
 8000fbe:	e8bd 4010 	ldmia.w	sp!, {r4, lr}
 8000fc2:	2122      	movs	r1, #34	; 0x22
 8000fc4:	2032      	movs	r0, #50	; 0x32
 8000fc6:	f000 bd73 	b.w	8001ab0 <COMPASSACCELERO_IO_Write>

08000fca <LSM303DLHC_AccClickITEnable>:
 8000fca:	b510      	push	{r4, lr}
 8000fcc:	2138      	movs	r1, #56	; 0x38
 8000fce:	4604      	mov	r4, r0
 8000fd0:	2032      	movs	r0, #50	; 0x32
 8000fd2:	f000 fd6f 	bl	8001ab4 <COMPASSACCELERO_IO_Read>
 8000fd6:	4320      	orrs	r0, r4
 8000fd8:	b2c2      	uxtb	r2, r0
 8000fda:	2138      	movs	r1, #56	; 0x38
 8000fdc:	2032      	movs	r0, #50	; 0x32
 8000fde:	f000 fd67 	bl	8001ab0 <COMPASSACCELERO_IO_Write>
 8000fe2:	220a      	movs	r2, #10
 8000fe4:	213a      	movs	r1, #58	; 0x3a
 8000fe6:	2032      	movs	r0, #50	; 0x32
 8000fe8:	f000 fd62 	bl	8001ab0 <COMPASSACCELERO_IO_Write>
 8000fec:	2205      	movs	r2, #5
 8000fee:	213b      	movs	r1, #59	; 0x3b
 8000ff0:	2032      	movs	r0, #50	; 0x32
 8000ff2:	f000 fd5d 	bl	8001ab0 <COMPASSACCELERO_IO_Write>
 8000ff6:	2205      	movs	r2, #5
 8000ff8:	213c      	movs	r1, #60	; 0x3c
 8000ffa:	2032      	movs	r0, #50	; 0x32
 8000ffc:	f000 fd58 	bl	8001ab0 <COMPASSACCELERO_IO_Write>
 8001000:	2232      	movs	r2, #50	; 0x32
 8001002:	e8bd 4010 	ldmia.w	sp!, {r4, lr}
 8001006:	213d      	movs	r1, #61	; 0x3d
 8001008:	4610      	mov	r0, r2
 800100a:	f000 bd51 	b.w	8001ab0 <COMPASSACCELERO_IO_Write>

0800100e <LSM303DLHC_AccZClickITConfig>:
 800100e:	b508      	push	{r3, lr}
 8001010:	f000 fd26 	bl	8001a60 <COMPASSACCELERO_IO_ITConfig>
 8001014:	2080      	movs	r0, #128	; 0x80
 8001016:	f7ff ffca 	bl	8000fae <LSM303DLHC_AccIT1Enable>
 800101a:	2004      	movs	r0, #4
 800101c:	f7ff ffb7 	bl	8000f8e <LSM303DLHC_AccFilterClickCmd>
 8001020:	e8bd 4008 	ldmia.w	sp!, {r3, lr}
 8001024:	2010      	movs	r0, #16
 8001026:	f7ff bfd0 	b.w	8000fca <LSM303DLHC_AccClickITEnable>

0800102a <fsm_new>:
 800102a:	b510      	push	{r4, lr}
 800102c:	4604      	mov	r4, r0
 800102e:	2008      	movs	r0, #8
 8001030:	f005 f84e 	bl	80060d0 <malloc>
 8001034:	6822      	ldr	r2, [r4, #0]
 8001036:	6044      	str	r4, [r0, #4]
 8001038:	6002      	str	r2, [r0, #0]
 800103a:	bd10      	pop	{r4, pc}

0800103c <fsm_fire>:
 800103c:	b570      	push	{r4, r5, r6, lr}
 800103e:	6845      	ldr	r5, [r0, #4]
 8001040:	4604      	mov	r4, r0
 8001042:	682b      	ldr	r3, [r5, #0]
 8001044:	2b00      	cmp	r3, #0
 8001046:	da00      	bge.n	800104a <fsm_fire+0xe>
 8001048:	bd70      	pop	{r4, r5, r6, pc}
 800104a:	6822      	ldr	r2, [r4, #0]
 800104c:	429a      	cmp	r2, r3
 800104e:	d10c      	bne.n	800106a <fsm_fire+0x2e>
 8001050:	686b      	ldr	r3, [r5, #4]
 8001052:	4620      	mov	r0, r4
 8001054:	4798      	blx	r3
 8001056:	b140      	cbz	r0, 800106a <fsm_fire+0x2e>
 8001058:	68ab      	ldr	r3, [r5, #8]
 800105a:	6023      	str	r3, [r4, #0]
 800105c:	68eb      	ldr	r3, [r5, #12]
 800105e:	2b00      	cmp	r3, #0
 8001060:	d0f2      	beq.n	8001048 <fsm_fire+0xc>
 8001062:	4620      	mov	r0, r4
 8001064:	e8bd 4070 	ldmia.w	sp!, {r4, r5, r6, lr}
 8001068:	4718      	bx	r3
 800106a:	3510      	adds	r5, #16
 800106c:	e7e9      	b.n	8001042 <fsm_fire+0x6>
	...

08001070 <MX_GPIO_Init>:
 8001070:	e92d 43f0 	stmdb	sp!, {r4, r5, r6, r7, r8, r9, lr}
 8001074:	b08d      	sub	sp, #52	; 0x34
 8001076:	2214      	movs	r2, #20
 8001078:	2100      	movs	r1, #0
 800107a:	a807      	add	r0, sp, #28
 800107c:	f005 f838 	bl	80060f0 <memset>
 8001080:	2400      	movs	r4, #0
 8001082:	4b51      	ldr	r3, [pc, #324]	; (80011c8 <MX_GPIO_Init+0x158>)
 8001084:	9401      	str	r4, [sp, #4]
 8001086:	6b1a      	ldr	r2, [r3, #48]	; 0x30
 8001088:	4e50      	ldr	r6, [pc, #320]	; (80011cc <MX_GPIO_Init+0x15c>)
 800108a:	f8df 914c 	ldr.w	r9, [pc, #332]	; 80011d8 <MX_GPIO_Init+0x168>
 800108e:	4f50      	ldr	r7, [pc, #320]	; (80011d0 <MX_GPIO_Init+0x160>)
 8001090:	f042 0210 	orr.w	r2, r2, #16
 8001094:	631a      	str	r2, [r3, #48]	; 0x30
 8001096:	6b1a      	ldr	r2, [r3, #48]	; 0x30
 8001098:	f002 0210 	and.w	r2, r2, #16
 800109c:	9201      	str	r2, [sp, #4]
 800109e:	9a01      	ldr	r2, [sp, #4]
 80010a0:	9402      	str	r4, [sp, #8]
 80010a2:	6b1a      	ldr	r2, [r3, #48]	; 0x30
 80010a4:	f042 0204 	orr.w	r2, r2, #4
 80010a8:	631a      	str	r2, [r3, #48]	; 0x30
 80010aa:	6b1a      	ldr	r2, [r3, #48]	; 0x30
 80010ac:	f002 0204 	and.w	r2, r2, #4
 80010b0:	9202      	str	r2, [sp, #8]
 80010b2:	9a02      	ldr	r2, [sp, #8]
 80010b4:	9403      	str	r4, [sp, #12]
 80010b6:	6b1a      	ldr	r2, [r3, #48]	; 0x30
 80010b8:	f042 0280 	orr.w	r2, r2, #128	; 0x80
 80010bc:	631a      	str	r2, [r3, #48]	; 0x30
 80010be:	6b1a      	ldr	r2, [r3, #48]	; 0x30
 80010c0:	f002 0280 	and.w	r2, r2, #128	; 0x80
 80010c4:	9203      	str	r2, [sp, #12]
 80010c6:	9a03      	ldr	r2, [sp, #12]
 80010c8:	9404      	str	r4, [sp, #16]
 80010ca:	6b1a      	ldr	r2, [r3, #48]	; 0x30
 80010cc:	f042 0201 	orr.w	r2, r2, #1
 80010d0:	631a      	str	r2, [r3, #48]	; 0x30
 80010d2:	6b1a      	ldr	r2, [r3, #48]	; 0x30
 80010d4:	f002 0201 	and.w	r2, r2, #1
 80010d8:	9204      	str	r2, [sp, #16]
 80010da:	9a04      	ldr	r2, [sp, #16]
 80010dc:	9405      	str	r4, [sp, #20]
 80010de:	6b1a      	ldr	r2, [r3, #48]	; 0x30
 80010e0:	f042 0202 	orr.w	r2, r2, #2
 80010e4:	631a      	str	r2, [r3, #48]	; 0x30
 80010e6:	6b1a      	ldr	r2, [r3, #48]	; 0x30
 80010e8:	f002 0202 	and.w	r2, r2, #2
 80010ec:	9205      	str	r2, [sp, #20]
 80010ee:	9a05      	ldr	r2, [sp, #20]
 80010f0:	9406      	str	r4, [sp, #24]
 80010f2:	6b1a      	ldr	r2, [r3, #48]	; 0x30
 80010f4:	f042 0208 	orr.w	r2, r2, #8
 80010f8:	631a      	str	r2, [r3, #48]	; 0x30
 80010fa:	6b1b      	ldr	r3, [r3, #48]	; 0x30
 80010fc:	f003 0308 	and.w	r3, r3, #8
 8001100:	9306      	str	r3, [sp, #24]
 8001102:	4622      	mov	r2, r4
 8001104:	4630      	mov	r0, r6
 8001106:	2108      	movs	r1, #8
 8001108:	9b06      	ldr	r3, [sp, #24]
 800110a:	f001 f8e3 	bl	80022d4 <HAL_GPIO_WritePin>
 800110e:	2201      	movs	r2, #1
 8001110:	4611      	mov	r1, r2
 8001112:	4648      	mov	r0, r9
 8001114:	f001 f8de 	bl	80022d4 <HAL_GPIO_WritePin>
 8001118:	4622      	mov	r2, r4
 800111a:	4638      	mov	r0, r7
 800111c:	f24e 0110 	movw	r1, #57360	; 0xe010
 8001120:	f001 f8d8 	bl	80022d4 <HAL_GPIO_WritePin>
 8001124:	2304      	movs	r3, #4
 8001126:	a907      	add	r1, sp, #28
 8001128:	4630      	mov	r0, r6
 800112a:	2501      	movs	r5, #1
 800112c:	e9cd 3407 	strd	r3, r4, [sp, #28]
 8001130:	9409      	str	r4, [sp, #36]	; 0x24
 8001132:	f000 ff8b 	bl	800204c <HAL_GPIO_Init>
 8001136:	2308      	movs	r3, #8
 8001138:	a907      	add	r1, sp, #28
 800113a:	4630      	mov	r0, r6
 800113c:	e9cd 3507 	strd	r3, r5, [sp, #28]
 8001140:	e9cd 4409 	strd	r4, r4, [sp, #36]	; 0x24
 8001144:	f000 ff82 	bl	800204c <HAL_GPIO_Init>
 8001148:	2232      	movs	r2, #50	; 0x32
 800114a:	f44f 1390 	mov.w	r3, #1179648	; 0x120000
 800114e:	a907      	add	r1, sp, #28
 8001150:	4630      	mov	r0, r6
 8001152:	e9cd 2307 	strd	r2, r3, [sp, #28]
 8001156:	f44f 1888 	mov.w	r8, #1114112	; 0x110000
 800115a:	9409      	str	r4, [sp, #36]	; 0x24
 800115c:	f000 ff76 	bl	800204c <HAL_GPIO_Init>
 8001160:	2340      	movs	r3, #64	; 0x40
 8001162:	a907      	add	r1, sp, #28
 8001164:	4630      	mov	r0, r6
 8001166:	e9cd 3807 	strd	r3, r8, [sp, #28]
 800116a:	9409      	str	r4, [sp, #36]	; 0x24
 800116c:	f000 ff6e 	bl	800204c <HAL_GPIO_Init>
 8001170:	a907      	add	r1, sp, #28
 8001172:	4648      	mov	r0, r9
 8001174:	e9cd 5507 	strd	r5, r5, [sp, #28]
 8001178:	e9cd 4409 	strd	r4, r4, [sp, #36]	; 0x24
 800117c:	f000 ff66 	bl	800204c <HAL_GPIO_Init>
 8001180:	a907      	add	r1, sp, #28
 8001182:	4814      	ldr	r0, [pc, #80]	; (80011d4 <MX_GPIO_Init+0x164>)
 8001184:	9409      	str	r4, [sp, #36]	; 0x24
 8001186:	e9cd 5807 	strd	r5, r8, [sp, #28]
 800118a:	f000 ff5f 	bl	800204c <HAL_GPIO_Init>
 800118e:	f24e 0310 	movw	r3, #57360	; 0xe010
 8001192:	a907      	add	r1, sp, #28
 8001194:	4638      	mov	r0, r7
 8001196:	e9cd 3507 	strd	r3, r5, [sp, #28]
 800119a:	e9cd 4409 	strd	r4, r4, [sp, #36]	; 0x24
 800119e:	f000 ff55 	bl	800204c <HAL_GPIO_Init>
 80011a2:	2320      	movs	r3, #32
 80011a4:	a907      	add	r1, sp, #28
 80011a6:	4638      	mov	r0, r7
 80011a8:	e9cd 3407 	strd	r3, r4, [sp, #28]
 80011ac:	9409      	str	r4, [sp, #36]	; 0x24
 80011ae:	f000 ff4d 	bl	800204c <HAL_GPIO_Init>
 80011b2:	4622      	mov	r2, r4
 80011b4:	4621      	mov	r1, r4
 80011b6:	2006      	movs	r0, #6
 80011b8:	f000 fef2 	bl	8001fa0 <HAL_NVIC_SetPriority>
 80011bc:	2006      	movs	r0, #6
 80011be:	f000 ff21 	bl	8002004 <HAL_NVIC_EnableIRQ>
 80011c2:	b00d      	add	sp, #52	; 0x34
 80011c4:	e8bd 83f0 	ldmia.w	sp!, {r4, r5, r6, r7, r8, r9, pc}
 80011c8:	40023800 	.word	0x40023800
 80011cc:	40021000 	.word	0x40021000
 80011d0:	40020c00 	.word	0x40020c00
 80011d4:	40020000 	.word	0x40020000
 80011d8:	40020800 	.word	0x40020800

080011dc <MX_I2C1_Init>:
 80011dc:	b508      	push	{r3, lr}
 80011de:	480b      	ldr	r0, [pc, #44]	; (800120c <MX_I2C1_Init+0x30>)
 80011e0:	4a0b      	ldr	r2, [pc, #44]	; (8001210 <MX_I2C1_Init+0x34>)
 80011e2:	4b0c      	ldr	r3, [pc, #48]	; (8001214 <MX_I2C1_Init+0x38>)
 80011e4:	e9c0 2300 	strd	r2, r3, [r0]
 80011e8:	2300      	movs	r3, #0
 80011ea:	f44f 4280 	mov.w	r2, #16384	; 0x4000
 80011ee:	e9c0 3302 	strd	r3, r3, [r0, #8]
 80011f2:	e9c0 2304 	strd	r2, r3, [r0, #16]
 80011f6:	e9c0 3306 	strd	r3, r3, [r0, #24]
 80011fa:	6203      	str	r3, [r0, #32]
 80011fc:	f001 fee4 	bl	8002fc8 <HAL_I2C_Init>
 8001200:	b118      	cbz	r0, 800120a <MX_I2C1_Init+0x2e>
 8001202:	e8bd 4008 	ldmia.w	sp!, {r3, lr}
 8001206:	f000 bb0f 	b.w	8001828 <Error_Handler>
 800120a:	bd08      	pop	{r3, pc}
 800120c:	2000028c 	.word	0x2000028c
 8001210:	40005400 	.word	0x40005400
 8001214:	000186a0 	.word	0x000186a0

08001218 <HAL_I2C_MspInit>:
 8001218:	b530      	push	{r4, r5, lr}
 800121a:	4604      	mov	r4, r0
 800121c:	b089      	sub	sp, #36	; 0x24
 800121e:	2214      	movs	r2, #20
 8001220:	2100      	movs	r1, #0
 8001222:	a803      	add	r0, sp, #12
 8001224:	f004 ff64 	bl	80060f0 <memset>
 8001228:	6822      	ldr	r2, [r4, #0]
 800122a:	4b14      	ldr	r3, [pc, #80]	; (800127c <HAL_I2C_MspInit+0x64>)
 800122c:	429a      	cmp	r2, r3
 800122e:	d123      	bne.n	8001278 <HAL_I2C_MspInit+0x60>
 8001230:	4c13      	ldr	r4, [pc, #76]	; (8001280 <HAL_I2C_MspInit+0x68>)
 8001232:	4814      	ldr	r0, [pc, #80]	; (8001284 <HAL_I2C_MspInit+0x6c>)
 8001234:	2500      	movs	r5, #0
 8001236:	9501      	str	r5, [sp, #4]
 8001238:	6b23      	ldr	r3, [r4, #48]	; 0x30
 800123a:	f043 0302 	orr.w	r3, r3, #2
 800123e:	6323      	str	r3, [r4, #48]	; 0x30
 8001240:	6b23      	ldr	r3, [r4, #48]	; 0x30
 8001242:	f003 0302 	and.w	r3, r3, #2
 8001246:	9301      	str	r3, [sp, #4]
 8001248:	9b01      	ldr	r3, [sp, #4]
 800124a:	f44f 7210 	mov.w	r2, #576	; 0x240
 800124e:	2312      	movs	r3, #18
 8001250:	e9cd 2303 	strd	r2, r3, [sp, #12]
 8001254:	2301      	movs	r3, #1
 8001256:	e9cd 3505 	strd	r3, r5, [sp, #20]
 800125a:	a903      	add	r1, sp, #12
 800125c:	2304      	movs	r3, #4
 800125e:	9307      	str	r3, [sp, #28]
 8001260:	f000 fef4 	bl	800204c <HAL_GPIO_Init>
 8001264:	9502      	str	r5, [sp, #8]
 8001266:	6c23      	ldr	r3, [r4, #64]	; 0x40
 8001268:	f443 1300 	orr.w	r3, r3, #2097152	; 0x200000
 800126c:	6423      	str	r3, [r4, #64]	; 0x40
 800126e:	6c23      	ldr	r3, [r4, #64]	; 0x40
 8001270:	f403 1300 	and.w	r3, r3, #2097152	; 0x200000
 8001274:	9302      	str	r3, [sp, #8]
 8001276:	9b02      	ldr	r3, [sp, #8]
 8001278:	b009      	add	sp, #36	; 0x24
 800127a:	bd30      	pop	{r4, r5, pc}
 800127c:	40005400 	.word	0x40005400
 8001280:	40023800 	.word	0x40023800
 8001284:	40020400 	.word	0x40020400

08001288 <HAL_I2C_MspDeInit>:
 8001288:	b508      	push	{r3, lr}
 800128a:	6802      	ldr	r2, [r0, #0]
 800128c:	4b09      	ldr	r3, [pc, #36]	; (80012b4 <HAL_I2C_MspDeInit+0x2c>)
 800128e:	429a      	cmp	r2, r3
 8001290:	d10f      	bne.n	80012b2 <HAL_I2C_MspDeInit+0x2a>
 8001292:	4a09      	ldr	r2, [pc, #36]	; (80012b8 <HAL_I2C_MspDeInit+0x30>)
 8001294:	4809      	ldr	r0, [pc, #36]	; (80012bc <HAL_I2C_MspDeInit+0x34>)
 8001296:	6c13      	ldr	r3, [r2, #64]	; 0x40
 8001298:	f423 1300 	bic.w	r3, r3, #2097152	; 0x200000
 800129c:	6413      	str	r3, [r2, #64]	; 0x40
 800129e:	2140      	movs	r1, #64	; 0x40
 80012a0:	f000 ff9c 	bl	80021dc <HAL_GPIO_DeInit>
 80012a4:	e8bd 4008 	ldmia.w	sp!, {r3, lr}
 80012a8:	4804      	ldr	r0, [pc, #16]	; (80012bc <HAL_I2C_MspDeInit+0x34>)
 80012aa:	f44f 7100 	mov.w	r1, #512	; 0x200
 80012ae:	f000 bf95 	b.w	80021dc <HAL_GPIO_DeInit>
 80012b2:	bd08      	pop	{r3, pc}
 80012b4:	40005400 	.word	0x40005400
 80012b8:	40023800 	.word	0x40023800
 80012bc:	40020400 	.word	0x40020400

080012c0 <MX_I2S2_Init>:
 80012c0:	480c      	ldr	r0, [pc, #48]	; (80012f4 <MX_I2S2_Init+0x34>)
 80012c2:	4a0d      	ldr	r2, [pc, #52]	; (80012f8 <MX_I2S2_Init+0x38>)
 80012c4:	b508      	push	{r3, lr}
 80012c6:	f44f 7300 	mov.w	r3, #512	; 0x200
 80012ca:	e9c0 2300 	strd	r2, r3, [r0]
 80012ce:	4a0b      	ldr	r2, [pc, #44]	; (80012fc <MX_I2S2_Init+0x3c>)
 80012d0:	2300      	movs	r3, #0
 80012d2:	e9c0 3302 	strd	r3, r3, [r0, #8]
 80012d6:	e9c0 2305 	strd	r2, r3, [r0, #20]
 80012da:	6103      	str	r3, [r0, #16]
 80012dc:	61c3      	str	r3, [r0, #28]
 80012de:	2301      	movs	r3, #1
 80012e0:	6203      	str	r3, [r0, #32]
 80012e2:	f002 f8cf 	bl	8003484 <HAL_I2S_Init>
 80012e6:	b118      	cbz	r0, 80012f0 <MX_I2S2_Init+0x30>
 80012e8:	e8bd 4008 	ldmia.w	sp!, {r3, lr}
 80012ec:	f000 ba9c 	b.w	8001828 <Error_Handler>
 80012f0:	bd08      	pop	{r3, pc}
 80012f2:	bf00      	nop
 80012f4:	200002e0 	.word	0x200002e0
 80012f8:	40003800 	.word	0x40003800
 80012fc:	00017700 	.word	0x00017700

08001300 <MX_I2S3_Init>:
 8001300:	b508      	push	{r3, lr}
 8001302:	480b      	ldr	r0, [pc, #44]	; (8001330 <MX_I2S3_Init+0x30>)
 8001304:	4b0b      	ldr	r3, [pc, #44]	; (8001334 <MX_I2S3_Init+0x34>)
 8001306:	f44f 7200 	mov.w	r2, #512	; 0x200
 800130a:	e9c0 3200 	strd	r3, r2, [r0]
 800130e:	6102      	str	r2, [r0, #16]
 8001310:	4a09      	ldr	r2, [pc, #36]	; (8001338 <MX_I2S3_Init+0x38>)
 8001312:	2300      	movs	r3, #0
 8001314:	e9c0 3302 	strd	r3, r3, [r0, #8]
 8001318:	e9c0 2305 	strd	r2, r3, [r0, #20]
 800131c:	e9c0 3307 	strd	r3, r3, [r0, #28]
 8001320:	f002 f8b0 	bl	8003484 <HAL_I2S_Init>
 8001324:	b118      	cbz	r0, 800132e <MX_I2S3_Init+0x2e>
 8001326:	e8bd 4008 	ldmia.w	sp!, {r3, lr}
 800132a:	f000 ba7d 	b.w	8001828 <Error_Handler>
 800132e:	bd08      	pop	{r3, pc}
 8001330:	20000328 	.word	0x20000328
 8001334:	40003c00 	.word	0x40003c00
 8001338:	00017700 	.word	0x00017700

0800133c <HAL_I2S_MspInit>:
 800133c:	b570      	push	{r4, r5, r6, lr}
 800133e:	4604      	mov	r4, r0
 8001340:	b08c      	sub	sp, #48	; 0x30
 8001342:	2214      	movs	r2, #20
 8001344:	2100      	movs	r1, #0
 8001346:	a807      	add	r0, sp, #28
 8001348:	f004 fed2 	bl	80060f0 <memset>
 800134c:	6823      	ldr	r3, [r4, #0]
 800134e:	4a40      	ldr	r2, [pc, #256]	; (8001450 <HAL_I2S_MspInit+0x114>)
 8001350:	4293      	cmp	r3, r2
 8001352:	d143      	bne.n	80013dc <HAL_I2S_MspInit+0xa0>
 8001354:	4b3f      	ldr	r3, [pc, #252]	; (8001454 <HAL_I2S_MspInit+0x118>)
 8001356:	4840      	ldr	r0, [pc, #256]	; (8001458 <HAL_I2S_MspInit+0x11c>)
 8001358:	2400      	movs	r4, #0
 800135a:	9401      	str	r4, [sp, #4]
 800135c:	6c1a      	ldr	r2, [r3, #64]	; 0x40
 800135e:	f442 4280 	orr.w	r2, r2, #16384	; 0x4000
 8001362:	641a      	str	r2, [r3, #64]	; 0x40
 8001364:	6c1a      	ldr	r2, [r3, #64]	; 0x40
 8001366:	f402 4280 	and.w	r2, r2, #16384	; 0x4000
 800136a:	9201      	str	r2, [sp, #4]
 800136c:	9a01      	ldr	r2, [sp, #4]
 800136e:	9402      	str	r4, [sp, #8]
 8001370:	6b1a      	ldr	r2, [r3, #48]	; 0x30
 8001372:	f042 0204 	orr.w	r2, r2, #4
 8001376:	631a      	str	r2, [r3, #48]	; 0x30
 8001378:	6b1a      	ldr	r2, [r3, #48]	; 0x30
 800137a:	f002 0204 	and.w	r2, r2, #4
 800137e:	9202      	str	r2, [sp, #8]
 8001380:	9a02      	ldr	r2, [sp, #8]
 8001382:	9403      	str	r4, [sp, #12]
 8001384:	6b1a      	ldr	r2, [r3, #48]	; 0x30
 8001386:	f042 0202 	orr.w	r2, r2, #2
 800138a:	631a      	str	r2, [r3, #48]	; 0x30
 800138c:	6b1b      	ldr	r3, [r3, #48]	; 0x30
 800138e:	f003 0302 	and.w	r3, r3, #2
 8001392:	9303      	str	r3, [sp, #12]
 8001394:	2502      	movs	r5, #2
 8001396:	9b03      	ldr	r3, [sp, #12]
 8001398:	2304      	movs	r3, #4
 800139a:	e9cd 3507 	strd	r3, r5, [sp, #28]
 800139e:	a907      	add	r1, sp, #28
 80013a0:	2306      	movs	r3, #6
 80013a2:	930b      	str	r3, [sp, #44]	; 0x2c
 80013a4:	2605      	movs	r6, #5
 80013a6:	e9cd 4409 	strd	r4, r4, [sp, #36]	; 0x24
 80013aa:	f000 fe4f 	bl	800204c <HAL_GPIO_Init>
 80013ae:	2308      	movs	r3, #8
 80013b0:	4829      	ldr	r0, [pc, #164]	; (8001458 <HAL_I2S_MspInit+0x11c>)
 80013b2:	960b      	str	r6, [sp, #44]	; 0x2c
 80013b4:	a907      	add	r1, sp, #28
 80013b6:	e9cd 3507 	strd	r3, r5, [sp, #28]
 80013ba:	e9cd 4409 	strd	r4, r4, [sp, #36]	; 0x24
 80013be:	f000 fe45 	bl	800204c <HAL_GPIO_Init>
 80013c2:	f44f 53a0 	mov.w	r3, #5120	; 0x1400
 80013c6:	e9cd 3507 	strd	r3, r5, [sp, #28]
 80013ca:	e9cd 4409 	strd	r4, r4, [sp, #36]	; 0x24
 80013ce:	4823      	ldr	r0, [pc, #140]	; (800145c <HAL_I2S_MspInit+0x120>)
 80013d0:	960b      	str	r6, [sp, #44]	; 0x2c
 80013d2:	a907      	add	r1, sp, #28
 80013d4:	f000 fe3a 	bl	800204c <HAL_GPIO_Init>
 80013d8:	b00c      	add	sp, #48	; 0x30
 80013da:	bd70      	pop	{r4, r5, r6, pc}
 80013dc:	4a20      	ldr	r2, [pc, #128]	; (8001460 <HAL_I2S_MspInit+0x124>)
 80013de:	4293      	cmp	r3, r2
 80013e0:	d1fa      	bne.n	80013d8 <HAL_I2S_MspInit+0x9c>
 80013e2:	4b1c      	ldr	r3, [pc, #112]	; (8001454 <HAL_I2S_MspInit+0x118>)
 80013e4:	481f      	ldr	r0, [pc, #124]	; (8001464 <HAL_I2S_MspInit+0x128>)
 80013e6:	2400      	movs	r4, #0
 80013e8:	9404      	str	r4, [sp, #16]
 80013ea:	6c1a      	ldr	r2, [r3, #64]	; 0x40
 80013ec:	f442 4200 	orr.w	r2, r2, #32768	; 0x8000
 80013f0:	641a      	str	r2, [r3, #64]	; 0x40
 80013f2:	6c1a      	ldr	r2, [r3, #64]	; 0x40
 80013f4:	f402 4200 	and.w	r2, r2, #32768	; 0x8000
 80013f8:	9204      	str	r2, [sp, #16]
 80013fa:	9a04      	ldr	r2, [sp, #16]
 80013fc:	9405      	str	r4, [sp, #20]
 80013fe:	6b1a      	ldr	r2, [r3, #48]	; 0x30
 8001400:	f042 0201 	orr.w	r2, r2, #1
 8001404:	631a      	str	r2, [r3, #48]	; 0x30
 8001406:	6b1a      	ldr	r2, [r3, #48]	; 0x30
 8001408:	f002 0201 	and.w	r2, r2, #1
 800140c:	9205      	str	r2, [sp, #20]
 800140e:	9a05      	ldr	r2, [sp, #20]
 8001410:	9406      	str	r4, [sp, #24]
 8001412:	6b1a      	ldr	r2, [r3, #48]	; 0x30
 8001414:	f042 0204 	orr.w	r2, r2, #4
 8001418:	631a      	str	r2, [r3, #48]	; 0x30
 800141a:	6b1b      	ldr	r3, [r3, #48]	; 0x30
 800141c:	f003 0304 	and.w	r3, r3, #4
 8001420:	9306      	str	r3, [sp, #24]
 8001422:	9b06      	ldr	r3, [sp, #24]
 8001424:	2602      	movs	r6, #2
 8001426:	2310      	movs	r3, #16
 8001428:	2506      	movs	r5, #6
 800142a:	a907      	add	r1, sp, #28
 800142c:	e9cd 3607 	strd	r3, r6, [sp, #28]
 8001430:	e9cd 4409 	strd	r4, r4, [sp, #36]	; 0x24
 8001434:	950b      	str	r5, [sp, #44]	; 0x2c
 8001436:	f000 fe09 	bl	800204c <HAL_GPIO_Init>
 800143a:	f44f 53a4 	mov.w	r3, #5248	; 0x1480
 800143e:	e9cd 3607 	strd	r3, r6, [sp, #28]
 8001442:	e9cd 4409 	strd	r4, r4, [sp, #36]	; 0x24
 8001446:	4804      	ldr	r0, [pc, #16]	; (8001458 <HAL_I2S_MspInit+0x11c>)
 8001448:	950b      	str	r5, [sp, #44]	; 0x2c
 800144a:	a907      	add	r1, sp, #28
 800144c:	e7c2      	b.n	80013d4 <HAL_I2S_MspInit+0x98>
 800144e:	bf00      	nop
 8001450:	40003800 	.word	0x40003800
 8001454:	40023800 	.word	0x40023800
 8001458:	40020800 	.word	0x40020800
 800145c:	40020400 	.word	0x40020400
 8001460:	40003c00 	.word	0x40003c00
 8001464:	40020000 	.word	0x40020000

08001468 <button_pressed>:
 8001468:	4b01      	ldr	r3, [pc, #4]	; (8001470 <button_pressed+0x8>)
 800146a:	6818      	ldr	r0, [r3, #0]
 800146c:	4770      	bx	lr
 800146e:	bf00      	nop
 8001470:	20000198 	.word	0x20000198

08001474 <second>:
 8001474:	4b01      	ldr	r3, [pc, #4]	; (800147c <second+0x8>)
 8001476:	6818      	ldr	r0, [r3, #0]
 8001478:	4770      	bx	lr
 800147a:	bf00      	nop
 800147c:	20000220 	.word	0x20000220

08001480 <keep>:
 8001480:	4b04      	ldr	r3, [pc, #16]	; (8001494 <keep+0x14>)
 8001482:	6818      	ldr	r0, [r3, #0]
 8001484:	b128      	cbz	r0, 8001492 <keep+0x12>
 8001486:	4b04      	ldr	r3, [pc, #16]	; (8001498 <keep+0x18>)
 8001488:	6818      	ldr	r0, [r3, #0]
 800148a:	2812      	cmp	r0, #18
 800148c:	bfcc      	ite	gt
 800148e:	2000      	movgt	r0, #0
 8001490:	2001      	movle	r0, #1
 8001492:	4770      	bx	lr
 8001494:	2000019c 	.word	0x2000019c
 8001498:	2000021c 	.word	0x2000021c

0800149c <show_result>:
 800149c:	4b04      	ldr	r3, [pc, #16]	; (80014b0 <show_result+0x14>)
 800149e:	6818      	ldr	r0, [r3, #0]
 80014a0:	b128      	cbz	r0, 80014ae <show_result+0x12>
 80014a2:	4b04      	ldr	r3, [pc, #16]	; (80014b4 <show_result+0x18>)
 80014a4:	6818      	ldr	r0, [r3, #0]
 80014a6:	2812      	cmp	r0, #18
 80014a8:	bfd4      	ite	le
 80014aa:	2000      	movle	r0, #0
 80014ac:	2001      	movgt	r0, #1
 80014ae:	4770      	bx	lr
 80014b0:	2000019c 	.word	0x2000019c
 80014b4:	2000021c 	.word	0x2000021c

080014b8 <extreme>:
 80014b8:	4b07      	ldr	r3, [pc, #28]	; (80014d8 <extreme+0x20>)
 80014ba:	681a      	ldr	r2, [r3, #0]
 80014bc:	f640 33b7 	movw	r3, #2999	; 0xbb7
 80014c0:	429a      	cmp	r2, r3
 80014c2:	dd06      	ble.n	80014d2 <extreme+0x1a>
 80014c4:	4b05      	ldr	r3, [pc, #20]	; (80014dc <extreme+0x24>)
 80014c6:	6818      	ldr	r0, [r3, #0]
 80014c8:	2813      	cmp	r0, #19
 80014ca:	bfd4      	ite	le
 80014cc:	2000      	movle	r0, #0
 80014ce:	2001      	movgt	r0, #1
 80014d0:	4770      	bx	lr
 80014d2:	2000      	movs	r0, #0
 80014d4:	4770      	bx	lr
 80014d6:	bf00      	nop
 80014d8:	200001a0 	.word	0x200001a0
 80014dc:	2000021c 	.word	0x2000021c

080014e0 <extr_light>:
 80014e0:	4b05      	ldr	r3, [pc, #20]	; (80014f8 <extr_light+0x18>)
 80014e2:	681b      	ldr	r3, [r3, #0]
 80014e4:	22b3      	movs	r2, #179	; 0xb3
 80014e6:	635a      	str	r2, [r3, #52]	; 0x34
 80014e8:	4b04      	ldr	r3, [pc, #16]	; (80014fc <extr_light+0x1c>)
 80014ea:	f04f 32ff 	mov.w	r2, #4294967295	; 0xffffffff
 80014ee:	601a      	str	r2, [r3, #0]
 80014f0:	4b03      	ldr	r3, [pc, #12]	; (8001500 <extr_light+0x20>)
 80014f2:	2200      	movs	r2, #0
 80014f4:	601a      	str	r2, [r3, #0]
 80014f6:	4770      	bx	lr
 80014f8:	200003c8 	.word	0x200003c8
 80014fc:	200001a0 	.word	0x200001a0
 8001500:	2000021c 	.word	0x2000021c

08001504 <high>:
 8001504:	4b07      	ldr	r3, [pc, #28]	; (8001524 <high+0x20>)
 8001506:	681b      	ldr	r3, [r3, #0]
 8001508:	f5a3 6316 	sub.w	r3, r3, #2400	; 0x960
 800150c:	f5b3 7f16 	cmp.w	r3, #600	; 0x258
 8001510:	d206      	bcs.n	8001520 <high+0x1c>
 8001512:	4b05      	ldr	r3, [pc, #20]	; (8001528 <high+0x24>)
 8001514:	6818      	ldr	r0, [r3, #0]
 8001516:	2813      	cmp	r0, #19
 8001518:	bfd4      	ite	le
 800151a:	2000      	movle	r0, #0
 800151c:	2001      	movgt	r0, #1
 800151e:	4770      	bx	lr
 8001520:	2000      	movs	r0, #0
 8001522:	4770      	bx	lr
 8001524:	200001a0 	.word	0x200001a0
 8001528:	2000021c 	.word	0x2000021c

0800152c <high_light>:
 800152c:	4b05      	ldr	r3, [pc, #20]	; (8001544 <high_light+0x18>)
 800152e:	681b      	ldr	r3, [r3, #0]
 8001530:	2277      	movs	r2, #119	; 0x77
 8001532:	635a      	str	r2, [r3, #52]	; 0x34
 8001534:	4b04      	ldr	r3, [pc, #16]	; (8001548 <high_light+0x1c>)
 8001536:	f04f 32ff 	mov.w	r2, #4294967295	; 0xffffffff
 800153a:	601a      	str	r2, [r3, #0]
 800153c:	4b03      	ldr	r3, [pc, #12]	; (800154c <high_light+0x20>)
 800153e:	2200      	movs	r2, #0
 8001540:	601a      	str	r2, [r3, #0]
 8001542:	4770      	bx	lr
 8001544:	200003c8 	.word	0x200003c8
 8001548:	200001a0 	.word	0x200001a0
 800154c:	2000021c 	.word	0x2000021c

08001550 <normal>:
 8001550:	4b06      	ldr	r3, [pc, #24]	; (800156c <normal+0x1c>)
 8001552:	681b      	ldr	r3, [r3, #0]
 8001554:	f5b3 6f16 	cmp.w	r3, #2400	; 0x960
 8001558:	da06      	bge.n	8001568 <normal+0x18>
 800155a:	4b05      	ldr	r3, [pc, #20]	; (8001570 <normal+0x20>)
 800155c:	6818      	ldr	r0, [r3, #0]
 800155e:	2813      	cmp	r0, #19
 8001560:	bfd4      	ite	le
 8001562:	2000      	movle	r0, #0
 8001564:	2001      	movgt	r0, #1
 8001566:	4770      	bx	lr
 8001568:	2000      	movs	r0, #0
 800156a:	4770      	bx	lr
 800156c:	200001a0 	.word	0x200001a0
 8001570:	2000021c 	.word	0x2000021c

08001574 <norm_light>:
 8001574:	4b05      	ldr	r3, [pc, #20]	; (800158c <norm_light+0x18>)
 8001576:	681b      	ldr	r3, [r3, #0]
 8001578:	223b      	movs	r2, #59	; 0x3b
 800157a:	635a      	str	r2, [r3, #52]	; 0x34
 800157c:	4b04      	ldr	r3, [pc, #16]	; (8001590 <norm_light+0x1c>)
 800157e:	f04f 32ff 	mov.w	r2, #4294967295	; 0xffffffff
 8001582:	601a      	str	r2, [r3, #0]
 8001584:	4b03      	ldr	r3, [pc, #12]	; (8001594 <norm_light+0x20>)
 8001586:	2200      	movs	r2, #0
 8001588:	601a      	str	r2, [r3, #0]
 800158a:	4770      	bx	lr
 800158c:	200003c8 	.word	0x200003c8
 8001590:	200001a0 	.word	0x200001a0
 8001594:	2000021c 	.word	0x2000021c

08001598 <calculate>:
 8001598:	b538      	push	{r3, r4, r5, lr}
 800159a:	2500      	movs	r5, #0
 800159c:	ed2d 8b02 	vpush	{d8}
 80015a0:	4c20      	ldr	r4, [pc, #128]	; (8001624 <calculate+0x8c>)
 80015a2:	eddf 8a21 	vldr	s17, [pc, #132]	; 8001628 <calculate+0x90>
 80015a6:	ee08 5a10 	vmov	s16, r5
 80015aa:	f9b4 2002 	ldrsh.w	r2, [r4, #2]
 80015ae:	f9b4 3000 	ldrsh.w	r3, [r4]
 80015b2:	f9b4 0004 	ldrsh.w	r0, [r4, #4]
 80015b6:	4352      	muls	r2, r2
 80015b8:	fb03 2303 	mla	r3, r3, r3, r2
 80015bc:	fb00 3000 	mla	r0, r0, r0, r3
 80015c0:	f7fe ff5c 	bl	800047c <__aeabi_i2d>
 80015c4:	ec41 0b10 	vmov	d0, r0, r1
 80015c8:	f004 fe62 	bl	8006290 <sqrt>
 80015cc:	ec51 0b10 	vmov	r0, r1, d0
 80015d0:	f7ff fa6e 	bl	8000ab0 <__aeabi_d2f>
 80015d4:	eeb8 7ac8 	vcvt.f32.s32	s14, s16
 80015d8:	ee07 0a90 	vmov	s15, r0
 80015dc:	eeb4 7ae7 	vcmpe.f32	s14, s15
 80015e0:	eeb8 7ae8 	vcvt.f32.s32	s14, s17
 80015e4:	eef1 fa10 	vmrs	APSR_nzcv, fpscr
 80015e8:	eeb4 7ae7 	vcmpe.f32	s14, s15
 80015ec:	bf48      	it	mi
 80015ee:	eebd 8ae7 	vcvtmi.s32.f32	s16, s15
 80015f2:	3501      	adds	r5, #1
 80015f4:	eef1 fa10 	vmrs	APSR_nzcv, fpscr
 80015f8:	bfc8      	it	gt
 80015fa:	eefd 8ae7 	vcvtgt.s32.f32	s17, s15
 80015fe:	2d14      	cmp	r5, #20
 8001600:	f104 0406 	add.w	r4, r4, #6
 8001604:	d1d1      	bne.n	80015aa <calculate+0x12>
 8001606:	ee18 2a90 	vmov	r2, s17
 800160a:	ee18 3a10 	vmov	r3, s16
 800160e:	1a9b      	subs	r3, r3, r2
 8001610:	4a06      	ldr	r2, [pc, #24]	; (800162c <calculate+0x94>)
 8001612:	ecbd 8b02 	vpop	{d8}
 8001616:	6013      	str	r3, [r2, #0]
 8001618:	4a05      	ldr	r2, [pc, #20]	; (8001630 <calculate+0x98>)
 800161a:	6813      	ldr	r3, [r2, #0]
 800161c:	3301      	adds	r3, #1
 800161e:	6013      	str	r3, [r2, #0]
 8001620:	bd38      	pop	{r3, r4, r5, pc}
 8001622:	bf00      	nop
 8001624:	200001a4 	.word	0x200001a4
 8001628:	7fffffff 	.word	0x7fffffff
 800162c:	200001a0 	.word	0x200001a0
 8001630:	2000021c 	.word	0x2000021c

08001634 <count_samples>:
 8001634:	b510      	push	{r4, lr}
 8001636:	4c07      	ldr	r4, [pc, #28]	; (8001654 <count_samples+0x20>)
 8001638:	4b07      	ldr	r3, [pc, #28]	; (8001658 <count_samples+0x24>)
 800163a:	6822      	ldr	r2, [r4, #0]
 800163c:	2006      	movs	r0, #6
 800163e:	fb00 3002 	mla	r0, r0, r2, r3
 8001642:	f000 fa51 	bl	8001ae8 <BSP_ACCELERO_GetXYZ>
 8001646:	6823      	ldr	r3, [r4, #0]
 8001648:	3301      	adds	r3, #1
 800164a:	6023      	str	r3, [r4, #0]
 800164c:	4b03      	ldr	r3, [pc, #12]	; (800165c <count_samples+0x28>)
 800164e:	2200      	movs	r2, #0
 8001650:	601a      	str	r2, [r3, #0]
 8001652:	bd10      	pop	{r4, pc}
 8001654:	2000021c 	.word	0x2000021c
 8001658:	200001a4 	.word	0x200001a4
 800165c:	2000019c 	.word	0x2000019c

08001660 <counting>:
 8001660:	4b03      	ldr	r3, [pc, #12]	; (8001670 <counting+0x10>)
 8001662:	4804      	ldr	r0, [pc, #16]	; (8001674 <counting+0x14>)
 8001664:	2200      	movs	r2, #0
 8001666:	f44f 4100 	mov.w	r1, #32768	; 0x8000
 800166a:	601a      	str	r2, [r3, #0]
 800166c:	f000 be37 	b.w	80022de <HAL_GPIO_TogglePin>
 8001670:	20000220 	.word	0x20000220
 8001674:	40020c00 	.word	0x40020c00

08001678 <stop_count>:
 8001678:	b510      	push	{r4, lr}
 800167a:	4b0b      	ldr	r3, [pc, #44]	; (80016a8 <stop_count+0x30>)
 800167c:	480b      	ldr	r0, [pc, #44]	; (80016ac <stop_count+0x34>)
 800167e:	2400      	movs	r4, #0
 8001680:	4622      	mov	r2, r4
 8001682:	f44f 4100 	mov.w	r1, #32768	; 0x8000
 8001686:	601c      	str	r4, [r3, #0]
 8001688:	f000 fe24 	bl	80022d4 <HAL_GPIO_WritePin>
 800168c:	4808      	ldr	r0, [pc, #32]	; (80016b0 <stop_count+0x38>)
 800168e:	f002 fd89 	bl	80041a4 <HAL_TIM_Base_Stop_IT>
 8001692:	4808      	ldr	r0, [pc, #32]	; (80016b4 <stop_count+0x3c>)
 8001694:	f002 fd86 	bl	80041a4 <HAL_TIM_Base_Stop_IT>
 8001698:	4807      	ldr	r0, [pc, #28]	; (80016b8 <stop_count+0x40>)
 800169a:	6803      	ldr	r3, [r0, #0]
 800169c:	4621      	mov	r1, r4
 800169e:	635c      	str	r4, [r3, #52]	; 0x34
 80016a0:	e8bd 4010 	ldmia.w	sp!, {r4, lr}
 80016a4:	f003 b8b6 	b.w	8004814 <HAL_TIM_PWM_Stop>
 80016a8:	20000198 	.word	0x20000198
 80016ac:	40020c00 	.word	0x40020c00
 80016b0:	20000458 	.word	0x20000458
 80016b4:	20000410 	.word	0x20000410
 80016b8:	200003c8 	.word	0x200003c8

080016bc <start_count>:
 80016bc:	4b09      	ldr	r3, [pc, #36]	; (80016e4 <start_count+0x28>)
 80016be:	480a      	ldr	r0, [pc, #40]	; (80016e8 <start_count+0x2c>)
 80016c0:	b510      	push	{r4, lr}
 80016c2:	2400      	movs	r4, #0
 80016c4:	601c      	str	r4, [r3, #0]
 80016c6:	4b09      	ldr	r3, [pc, #36]	; (80016ec <start_count+0x30>)
 80016c8:	601c      	str	r4, [r3, #0]
 80016ca:	4b09      	ldr	r3, [pc, #36]	; (80016f0 <start_count+0x34>)
 80016cc:	601c      	str	r4, [r3, #0]
 80016ce:	f002 fd37 	bl	8004140 <HAL_TIM_Base_Start_IT>
 80016d2:	4808      	ldr	r0, [pc, #32]	; (80016f4 <start_count+0x38>)
 80016d4:	f002 fd34 	bl	8004140 <HAL_TIM_Base_Start_IT>
 80016d8:	4621      	mov	r1, r4
 80016da:	4807      	ldr	r0, [pc, #28]	; (80016f8 <start_count+0x3c>)
 80016dc:	e8bd 4010 	ldmia.w	sp!, {r4, lr}
 80016e0:	f003 b85a 	b.w	8004798 <HAL_TIM_PWM_Start>
 80016e4:	20000198 	.word	0x20000198
 80016e8:	20000458 	.word	0x20000458
 80016ec:	2000021c 	.word	0x2000021c
 80016f0:	200001a0 	.word	0x200001a0
 80016f4:	20000410 	.word	0x20000410
 80016f8:	200003c8 	.word	0x200003c8

080016fc <SystemClock_Config>:
 80016fc:	b510      	push	{r4, lr}
 80016fe:	b094      	sub	sp, #80	; 0x50
 8001700:	2210      	movs	r2, #16
 8001702:	2100      	movs	r1, #0
 8001704:	a80a      	add	r0, sp, #40	; 0x28
 8001706:	f004 fcf3 	bl	80060f0 <memset>
 800170a:	2214      	movs	r2, #20
 800170c:	2100      	movs	r1, #0
 800170e:	a803      	add	r0, sp, #12
 8001710:	f004 fcee 	bl	80060f0 <memset>
 8001714:	4b1f      	ldr	r3, [pc, #124]	; (8001794 <SystemClock_Config+0x98>)
 8001716:	2100      	movs	r1, #0
 8001718:	9101      	str	r1, [sp, #4]
 800171a:	6c1a      	ldr	r2, [r3, #64]	; 0x40
 800171c:	f042 5280 	orr.w	r2, r2, #268435456	; 0x10000000
 8001720:	641a      	str	r2, [r3, #64]	; 0x40
 8001722:	6c1b      	ldr	r3, [r3, #64]	; 0x40
 8001724:	f003 5380 	and.w	r3, r3, #268435456	; 0x10000000
 8001728:	9301      	str	r3, [sp, #4]
 800172a:	9b01      	ldr	r3, [sp, #4]
 800172c:	4b1a      	ldr	r3, [pc, #104]	; (8001798 <SystemClock_Config+0x9c>)
 800172e:	9102      	str	r1, [sp, #8]
 8001730:	681a      	ldr	r2, [r3, #0]
 8001732:	f442 4240 	orr.w	r2, r2, #49152	; 0xc000
 8001736:	601a      	str	r2, [r3, #0]
 8001738:	681b      	ldr	r3, [r3, #0]
 800173a:	f403 4340 	and.w	r3, r3, #49152	; 0xc000
 800173e:	9302      	str	r3, [sp, #8]
 8001740:	2201      	movs	r2, #1
 8001742:	9b02      	ldr	r3, [sp, #8]
 8001744:	f44f 3380 	mov.w	r3, #65536	; 0x10000
 8001748:	e9cd 2308 	strd	r2, r3, [sp, #32]
 800174c:	2402      	movs	r4, #2
 800174e:	f44f 0380 	mov.w	r3, #4194304	; 0x400000
 8001752:	e9cd 430e 	strd	r4, r3, [sp, #56]	; 0x38
 8001756:	22c0      	movs	r2, #192	; 0xc0
 8001758:	2304      	movs	r3, #4
 800175a:	e9cd 3210 	strd	r3, r2, [sp, #64]	; 0x40
 800175e:	9312      	str	r3, [sp, #72]	; 0x48
 8001760:	a808      	add	r0, sp, #32
 8001762:	2308      	movs	r3, #8
 8001764:	9313      	str	r3, [sp, #76]	; 0x4c
 8001766:	f002 f8cd 	bl	8003904 <HAL_RCC_OscConfig>
 800176a:	b108      	cbz	r0, 8001770 <SystemClock_Config+0x74>
 800176c:	b672      	cpsid	i
 800176e:	e7fe      	b.n	800176e <SystemClock_Config+0x72>
 8001770:	230f      	movs	r3, #15
 8001772:	e9cd 3403 	strd	r3, r4, [sp, #12]
 8001776:	f44f 53a0 	mov.w	r3, #5120	; 0x1400
 800177a:	e9cd 3006 	strd	r3, r0, [sp, #24]
 800177e:	9005      	str	r0, [sp, #20]
 8001780:	2103      	movs	r1, #3
 8001782:	a803      	add	r0, sp, #12
 8001784:	f002 fa9a 	bl	8003cbc <HAL_RCC_ClockConfig>
 8001788:	b108      	cbz	r0, 800178e <SystemClock_Config+0x92>
 800178a:	b672      	cpsid	i
 800178c:	e7fe      	b.n	800178c <SystemClock_Config+0x90>
 800178e:	b014      	add	sp, #80	; 0x50
 8001790:	bd10      	pop	{r4, pc}
 8001792:	bf00      	nop
 8001794:	40023800 	.word	0x40023800
 8001798:	40007000 	.word	0x40007000

0800179c <PeriphCommonClock_Config>:
 800179c:	b57f      	push	{r0, r1, r2, r3, r4, r5, r6, lr}
 800179e:	2300      	movs	r3, #0
 80017a0:	e9cd 3304 	strd	r3, r3, [sp, #16]
 80017a4:	2301      	movs	r3, #1
 80017a6:	9300      	str	r3, [sp, #0]
 80017a8:	21c8      	movs	r1, #200	; 0xc8
 80017aa:	2305      	movs	r3, #5
 80017ac:	e9cd 3101 	strd	r3, r1, [sp, #4]
 80017b0:	4668      	mov	r0, sp
 80017b2:	2302      	movs	r3, #2
 80017b4:	9303      	str	r3, [sp, #12]
 80017b6:	f002 fb2d 	bl	8003e14 <HAL_RCCEx_PeriphCLKConfig>
 80017ba:	b108      	cbz	r0, 80017c0 <PeriphCommonClock_Config+0x24>
 80017bc:	b672      	cpsid	i
 80017be:	e7fe      	b.n	80017be <PeriphCommonClock_Config+0x22>
 80017c0:	b007      	add	sp, #28
 80017c2:	f85d fb04 	ldr.w	pc, [sp], #4
	...

080017c8 <main>:
 80017c8:	b538      	push	{r3, r4, r5, lr}
 80017ca:	f000 fb97 	bl	8001efc <HAL_Init>
 80017ce:	f7ff ff95 	bl	80016fc <SystemClock_Config>
 80017d2:	f7ff ffe3 	bl	800179c <PeriphCommonClock_Config>
 80017d6:	f000 f96f 	bl	8001ab8 <BSP_ACCELERO_Init>
 80017da:	f7ff fc49 	bl	8001070 <MX_GPIO_Init>
 80017de:	f7ff fcfd 	bl	80011dc <MX_I2C1_Init>
 80017e2:	f7ff fd6d 	bl	80012c0 <MX_I2S2_Init>
 80017e6:	f7ff fd8b 	bl	8001300 <MX_I2S3_Init>
 80017ea:	f000 f81f 	bl	800182c <MX_SPI1_Init>
 80017ee:	f004 faf3 	bl	8005dd8 <MX_USB_HOST_Init>
 80017f2:	f000 fa03 	bl	8001bfc <MX_TIM2_Init>
 80017f6:	f000 fa37 	bl	8001c68 <MX_TIM3_Init>
 80017fa:	f000 fae1 	bl	8001dc0 <MX_TIM4_Init>
 80017fe:	4808      	ldr	r0, [pc, #32]	; (8001820 <main+0x58>)
 8001800:	f7ff fc13 	bl	800102a <fsm_new>
 8001804:	4605      	mov	r5, r0
 8001806:	4807      	ldr	r0, [pc, #28]	; (8001824 <main+0x5c>)
 8001808:	f7ff fc0f 	bl	800102a <fsm_new>
 800180c:	4604      	mov	r4, r0
 800180e:	f004 fb03 	bl	8005e18 <MX_USB_HOST_Process>
 8001812:	4628      	mov	r0, r5
 8001814:	f7ff fc12 	bl	800103c <fsm_fire>
 8001818:	4620      	mov	r0, r4
 800181a:	f7ff fc0f 	bl	800103c <fsm_fire>
 800181e:	e7f6      	b.n	800180e <main+0x46>
 8001820:	20000034 	.word	0x20000034
 8001824:	20000074 	.word	0x20000074

08001828 <Error_Handler>:
 8001828:	b672      	cpsid	i
 800182a:	e7fe      	b.n	800182a <Error_Handler+0x2>

0800182c <MX_SPI1_Init>:
 800182c:	480e      	ldr	r0, [pc, #56]	; (8001868 <MX_SPI1_Init+0x3c>)
 800182e:	4a0f      	ldr	r2, [pc, #60]	; (800186c <MX_SPI1_Init+0x40>)
 8001830:	b508      	push	{r3, lr}
 8001832:	f44f 7382 	mov.w	r3, #260	; 0x104
 8001836:	e9c0 2300 	strd	r2, r3, [r0]
 800183a:	2300      	movs	r3, #0
 800183c:	f44f 7200 	mov.w	r2, #512	; 0x200
 8001840:	e9c0 3302 	strd	r3, r3, [r0, #8]
 8001844:	e9c0 3304 	strd	r3, r3, [r0, #16]
 8001848:	e9c0 2306 	strd	r2, r3, [r0, #24]
 800184c:	e9c0 3308 	strd	r3, r3, [r0, #32]
 8001850:	6283      	str	r3, [r0, #40]	; 0x28
 8001852:	230a      	movs	r3, #10
 8001854:	62c3      	str	r3, [r0, #44]	; 0x2c
 8001856:	f002 fba3 	bl	8003fa0 <HAL_SPI_Init>
 800185a:	b118      	cbz	r0, 8001864 <MX_SPI1_Init+0x38>
 800185c:	e8bd 4008 	ldmia.w	sp!, {r3, lr}
 8001860:	f7ff bfe2 	b.w	8001828 <Error_Handler>
 8001864:	bd08      	pop	{r3, pc}
 8001866:	bf00      	nop
 8001868:	20000370 	.word	0x20000370
 800186c:	40013000 	.word	0x40013000

08001870 <HAL_SPI_MspInit>:
 8001870:	b510      	push	{r4, lr}
 8001872:	4604      	mov	r4, r0
 8001874:	b088      	sub	sp, #32
 8001876:	2214      	movs	r2, #20
 8001878:	2100      	movs	r1, #0
 800187a:	a803      	add	r0, sp, #12
 800187c:	f004 fc38 	bl	80060f0 <memset>
 8001880:	6822      	ldr	r2, [r4, #0]
 8001882:	4b14      	ldr	r3, [pc, #80]	; (80018d4 <HAL_SPI_MspInit+0x64>)
 8001884:	429a      	cmp	r2, r3
 8001886:	d123      	bne.n	80018d0 <HAL_SPI_MspInit+0x60>
 8001888:	f503 3384 	add.w	r3, r3, #67584	; 0x10800
 800188c:	2200      	movs	r2, #0
 800188e:	9201      	str	r2, [sp, #4]
 8001890:	6c59      	ldr	r1, [r3, #68]	; 0x44
 8001892:	f441 5180 	orr.w	r1, r1, #4096	; 0x1000
 8001896:	6459      	str	r1, [r3, #68]	; 0x44
 8001898:	6c59      	ldr	r1, [r3, #68]	; 0x44
 800189a:	f401 5180 	and.w	r1, r1, #4096	; 0x1000
 800189e:	9101      	str	r1, [sp, #4]
 80018a0:	9901      	ldr	r1, [sp, #4]
 80018a2:	9202      	str	r2, [sp, #8]
 80018a4:	6b19      	ldr	r1, [r3, #48]	; 0x30
 80018a6:	f041 0101 	orr.w	r1, r1, #1
 80018aa:	6319      	str	r1, [r3, #48]	; 0x30
 80018ac:	6b1b      	ldr	r3, [r3, #48]	; 0x30
 80018ae:	9205      	str	r2, [sp, #20]
 80018b0:	f003 0301 	and.w	r3, r3, #1
 80018b4:	9302      	str	r3, [sp, #8]
 80018b6:	21e0      	movs	r1, #224	; 0xe0
 80018b8:	9b02      	ldr	r3, [sp, #8]
 80018ba:	2302      	movs	r3, #2
 80018bc:	e9cd 1303 	strd	r1, r3, [sp, #12]
 80018c0:	2003      	movs	r0, #3
 80018c2:	2305      	movs	r3, #5
 80018c4:	e9cd 0306 	strd	r0, r3, [sp, #24]
 80018c8:	a903      	add	r1, sp, #12
 80018ca:	4803      	ldr	r0, [pc, #12]	; (80018d8 <HAL_SPI_MspInit+0x68>)
 80018cc:	f000 fbbe 	bl	800204c <HAL_GPIO_Init>
 80018d0:	b008      	add	sp, #32
 80018d2:	bd10      	pop	{r4, pc}
 80018d4:	40013000 	.word	0x40013000
 80018d8:	40020000 	.word	0x40020000

080018dc <I2Cx_Init>:
 80018dc:	b570      	push	{r4, r5, r6, lr}
 80018de:	4d2b      	ldr	r5, [pc, #172]	; (800198c <I2Cx_Init+0xb0>)
 80018e0:	b088      	sub	sp, #32
 80018e2:	4628      	mov	r0, r5
 80018e4:	f001 fdca 	bl	800347c <HAL_I2C_GetState>
 80018e8:	4604      	mov	r4, r0
 80018ea:	2800      	cmp	r0, #0
 80018ec:	d14c      	bne.n	8001988 <I2Cx_Init+0xac>
 80018ee:	4b28      	ldr	r3, [pc, #160]	; (8001990 <I2Cx_Init+0xb4>)
 80018f0:	602b      	str	r3, [r5, #0]
 80018f2:	2343      	movs	r3, #67	; 0x43
 80018f4:	60eb      	str	r3, [r5, #12]
 80018f6:	4b27      	ldr	r3, [pc, #156]	; (8001994 <I2Cx_Init+0xb8>)
 80018f8:	4e27      	ldr	r6, [pc, #156]	; (8001998 <I2Cx_Init+0xbc>)
 80018fa:	9001      	str	r0, [sp, #4]
 80018fc:	e9c5 3001 	strd	r3, r0, [r5, #4]
 8001900:	f44f 4380 	mov.w	r3, #16384	; 0x4000
 8001904:	e9c5 3004 	strd	r3, r0, [r5, #16]
 8001908:	e9c5 0006 	strd	r0, r0, [r5, #24]
 800190c:	6228      	str	r0, [r5, #32]
 800190e:	6c33      	ldr	r3, [r6, #64]	; 0x40
 8001910:	f443 1300 	orr.w	r3, r3, #2097152	; 0x200000
 8001914:	6433      	str	r3, [r6, #64]	; 0x40
 8001916:	6c33      	ldr	r3, [r6, #64]	; 0x40
 8001918:	f403 1300 	and.w	r3, r3, #2097152	; 0x200000
 800191c:	9301      	str	r3, [sp, #4]
 800191e:	9b01      	ldr	r3, [sp, #4]
 8001920:	9002      	str	r0, [sp, #8]
 8001922:	6b33      	ldr	r3, [r6, #48]	; 0x30
 8001924:	f043 0302 	orr.w	r3, r3, #2
 8001928:	6333      	str	r3, [r6, #48]	; 0x30
 800192a:	6b33      	ldr	r3, [r6, #48]	; 0x30
 800192c:	9405      	str	r4, [sp, #20]
 800192e:	f003 0302 	and.w	r3, r3, #2
 8001932:	9302      	str	r3, [sp, #8]
 8001934:	9b02      	ldr	r3, [sp, #8]
 8001936:	f44f 7010 	mov.w	r0, #576	; 0x240
 800193a:	2312      	movs	r3, #18
 800193c:	f04f 0c02 	mov.w	ip, #2
 8001940:	e9cd 0303 	strd	r0, r3, [sp, #12]
 8001944:	a903      	add	r1, sp, #12
 8001946:	2304      	movs	r3, #4
 8001948:	4814      	ldr	r0, [pc, #80]	; (800199c <I2Cx_Init+0xc0>)
 800194a:	e9cd c306 	strd	ip, r3, [sp, #24]
 800194e:	f000 fb7d 	bl	800204c <HAL_GPIO_Init>
 8001952:	6a33      	ldr	r3, [r6, #32]
 8001954:	f443 1300 	orr.w	r3, r3, #2097152	; 0x200000
 8001958:	6233      	str	r3, [r6, #32]
 800195a:	6a33      	ldr	r3, [r6, #32]
 800195c:	f423 1300 	bic.w	r3, r3, #2097152	; 0x200000
 8001960:	6233      	str	r3, [r6, #32]
 8001962:	4622      	mov	r2, r4
 8001964:	210f      	movs	r1, #15
 8001966:	201f      	movs	r0, #31
 8001968:	f000 fb1a 	bl	8001fa0 <HAL_NVIC_SetPriority>
 800196c:	201f      	movs	r0, #31
 800196e:	f000 fb49 	bl	8002004 <HAL_NVIC_EnableIRQ>
 8001972:	4622      	mov	r2, r4
 8001974:	210f      	movs	r1, #15
 8001976:	2020      	movs	r0, #32
 8001978:	f000 fb12 	bl	8001fa0 <HAL_NVIC_SetPriority>
 800197c:	2020      	movs	r0, #32
 800197e:	f000 fb41 	bl	8002004 <HAL_NVIC_EnableIRQ>
 8001982:	4628      	mov	r0, r5
 8001984:	f001 fb20 	bl	8002fc8 <HAL_I2C_Init>
 8001988:	b008      	add	sp, #32
 800198a:	bd70      	pop	{r4, r5, r6, pc}
 800198c:	20000224 	.word	0x20000224
 8001990:	40005400 	.word	0x40005400
 8001994:	000186a0 	.word	0x000186a0
 8001998:	40023800 	.word	0x40023800
 800199c:	40020400 	.word	0x40020400

080019a0 <I2Cx_ReadData>:
 80019a0:	b57f      	push	{r0, r1, r2, r3, r4, r5, r6, lr}
 80019a2:	2300      	movs	r3, #0
 80019a4:	f88d 3017 	strb.w	r3, [sp, #23]
 80019a8:	4b0b      	ldr	r3, [pc, #44]	; (80019d8 <I2Cx_ReadData+0x38>)
 80019aa:	681b      	ldr	r3, [r3, #0]
 80019ac:	9302      	str	r3, [sp, #8]
 80019ae:	460a      	mov	r2, r1
 80019b0:	2301      	movs	r3, #1
 80019b2:	f10d 0117 	add.w	r1, sp, #23
 80019b6:	9100      	str	r1, [sp, #0]
 80019b8:	9301      	str	r3, [sp, #4]
 80019ba:	4601      	mov	r1, r0
 80019bc:	4807      	ldr	r0, [pc, #28]	; (80019dc <I2Cx_ReadData+0x3c>)
 80019be:	f001 fc55 	bl	800326c <HAL_I2C_Mem_Read>
 80019c2:	b120      	cbz	r0, 80019ce <I2Cx_ReadData+0x2e>
 80019c4:	4805      	ldr	r0, [pc, #20]	; (80019dc <I2Cx_ReadData+0x3c>)
 80019c6:	f001 fba7 	bl	8003118 <HAL_I2C_DeInit>
 80019ca:	f7ff ff87 	bl	80018dc <I2Cx_Init>
 80019ce:	f89d 0017 	ldrb.w	r0, [sp, #23]
 80019d2:	b007      	add	sp, #28
 80019d4:	f85d fb04 	ldr.w	pc, [sp], #4
 80019d8:	200000e4 	.word	0x200000e4
 80019dc:	20000224 	.word	0x20000224

080019e0 <I2Cx_WriteData>:
 80019e0:	b57f      	push	{r0, r1, r2, r3, r4, r5, r6, lr}
 80019e2:	4b0c      	ldr	r3, [pc, #48]	; (8001a14 <I2Cx_WriteData+0x34>)
 80019e4:	f88d 2017 	strb.w	r2, [sp, #23]
 80019e8:	681b      	ldr	r3, [r3, #0]
 80019ea:	9302      	str	r3, [sp, #8]
 80019ec:	f10d 0217 	add.w	r2, sp, #23
 80019f0:	2301      	movs	r3, #1
 80019f2:	9200      	str	r2, [sp, #0]
 80019f4:	9301      	str	r3, [sp, #4]
 80019f6:	460a      	mov	r2, r1
 80019f8:	4601      	mov	r1, r0
 80019fa:	4807      	ldr	r0, [pc, #28]	; (8001a18 <I2Cx_WriteData+0x38>)
 80019fc:	f001 fba6 	bl	800314c <HAL_I2C_Mem_Write>
 8001a00:	b120      	cbz	r0, 8001a0c <I2Cx_WriteData+0x2c>
 8001a02:	4805      	ldr	r0, [pc, #20]	; (8001a18 <I2Cx_WriteData+0x38>)
 8001a04:	f001 fb88 	bl	8003118 <HAL_I2C_DeInit>
 8001a08:	f7ff ff68 	bl	80018dc <I2Cx_Init>
 8001a0c:	b007      	add	sp, #28
 8001a0e:	f85d fb04 	ldr.w	pc, [sp], #4
 8001a12:	bf00      	nop
 8001a14:	200000e4 	.word	0x200000e4
 8001a18:	20000224 	.word	0x20000224

08001a1c <COMPASSACCELERO_IO_Init>:
 8001a1c:	b57f      	push	{r0, r1, r2, r3, r4, r5, r6, lr}
 8001a1e:	2300      	movs	r3, #0
 8001a20:	4a0d      	ldr	r2, [pc, #52]	; (8001a58 <COMPASSACCELERO_IO_Init+0x3c>)
 8001a22:	9300      	str	r3, [sp, #0]
 8001a24:	6b11      	ldr	r1, [r2, #48]	; 0x30
 8001a26:	480d      	ldr	r0, [pc, #52]	; (8001a5c <COMPASSACCELERO_IO_Init+0x40>)
 8001a28:	f041 0110 	orr.w	r1, r1, #16
 8001a2c:	6311      	str	r1, [r2, #48]	; 0x30
 8001a2e:	6b12      	ldr	r2, [r2, #48]	; 0x30
 8001a30:	9303      	str	r3, [sp, #12]
 8001a32:	f002 0210 	and.w	r2, r2, #16
 8001a36:	9200      	str	r2, [sp, #0]
 8001a38:	9a00      	ldr	r2, [sp, #0]
 8001a3a:	2204      	movs	r2, #4
 8001a3c:	e9cd 2301 	strd	r2, r3, [sp, #4]
 8001a40:	eb0d 0102 	add.w	r1, sp, r2
 8001a44:	2302      	movs	r3, #2
 8001a46:	9304      	str	r3, [sp, #16]
 8001a48:	f000 fb00 	bl	800204c <HAL_GPIO_Init>
 8001a4c:	f7ff ff46 	bl	80018dc <I2Cx_Init>
 8001a50:	b007      	add	sp, #28
 8001a52:	f85d fb04 	ldr.w	pc, [sp], #4
 8001a56:	bf00      	nop
 8001a58:	40023800 	.word	0x40023800
 8001a5c:	40021000 	.word	0x40021000

08001a60 <COMPASSACCELERO_IO_ITConfig>:
 8001a60:	b510      	push	{r4, lr}
 8001a62:	b086      	sub	sp, #24
 8001a64:	2400      	movs	r4, #0
 8001a66:	4b10      	ldr	r3, [pc, #64]	; (8001aa8 <COMPASSACCELERO_IO_ITConfig+0x48>)
 8001a68:	9400      	str	r4, [sp, #0]
 8001a6a:	6b1a      	ldr	r2, [r3, #48]	; 0x30
 8001a6c:	480f      	ldr	r0, [pc, #60]	; (8001aac <COMPASSACCELERO_IO_ITConfig+0x4c>)
 8001a6e:	f042 0210 	orr.w	r2, r2, #16
 8001a72:	631a      	str	r2, [r3, #48]	; 0x30
 8001a74:	6b1b      	ldr	r3, [r3, #48]	; 0x30
 8001a76:	f003 0310 	and.w	r3, r3, #16
 8001a7a:	9300      	str	r3, [sp, #0]
 8001a7c:	9b00      	ldr	r3, [sp, #0]
 8001a7e:	2230      	movs	r2, #48	; 0x30
 8001a80:	f44f 1388 	mov.w	r3, #1114112	; 0x110000
 8001a84:	e9cd 2301 	strd	r2, r3, [sp, #4]
 8001a88:	a901      	add	r1, sp, #4
 8001a8a:	2302      	movs	r3, #2
 8001a8c:	e9cd 4303 	strd	r4, r3, [sp, #12]
 8001a90:	f000 fadc 	bl	800204c <HAL_GPIO_Init>
 8001a94:	4622      	mov	r2, r4
 8001a96:	210f      	movs	r1, #15
 8001a98:	200a      	movs	r0, #10
 8001a9a:	f000 fa81 	bl	8001fa0 <HAL_NVIC_SetPriority>
 8001a9e:	200a      	movs	r0, #10
 8001aa0:	f000 fab0 	bl	8002004 <HAL_NVIC_EnableIRQ>
 8001aa4:	b006      	add	sp, #24
 8001aa6:	bd10      	pop	{r4, pc}
 8001aa8:	40023800 	.word	0x40023800
 8001aac:	40021000 	.word	0x40021000

08001ab0 <COMPASSACCELERO_IO_Write>:
 8001ab0:	f7ff bf96 	b.w	80019e0 <I2Cx_WriteData>

08001ab4 <COMPASSACCELERO_IO_Read>:
 8001ab4:	f7ff bf74 	b.w	80019a0 <I2Cx_ReadData>

08001ab8 <BSP_ACCELERO_Init>:
 8001ab8:	b538      	push	{r3, r4, r5, lr}
 8001aba:	4c09      	ldr	r4, [pc, #36]	; (8001ae0 <BSP_ACCELERO_Init+0x28>)
 8001abc:	68a3      	ldr	r3, [r4, #8]
 8001abe:	4798      	blx	r3
 8001ac0:	2833      	cmp	r0, #51	; 0x33
 8001ac2:	d10b      	bne.n	8001adc <BSP_ACCELERO_Init+0x24>
 8001ac4:	4d07      	ldr	r5, [pc, #28]	; (8001ae4 <BSP_ACCELERO_Init+0x2c>)
 8001ac6:	6823      	ldr	r3, [r4, #0]
 8001ac8:	602c      	str	r4, [r5, #0]
 8001aca:	f640 0047 	movw	r0, #2119	; 0x847
 8001ace:	4798      	blx	r3
 8001ad0:	682b      	ldr	r3, [r5, #0]
 8001ad2:	2090      	movs	r0, #144	; 0x90
 8001ad4:	6a9b      	ldr	r3, [r3, #40]	; 0x28
 8001ad6:	4798      	blx	r3
 8001ad8:	2000      	movs	r0, #0
 8001ada:	bd38      	pop	{r3, r4, r5, pc}
 8001adc:	2001      	movs	r0, #1
 8001ade:	e7fc      	b.n	8001ada <BSP_ACCELERO_Init+0x22>
 8001ae0:	20000000 	.word	0x20000000
 8001ae4:	20000278 	.word	0x20000278

08001ae8 <BSP_ACCELERO_GetXYZ>:
 8001ae8:	b538      	push	{r3, r4, r5, lr}
 8001aea:	4d08      	ldr	r5, [pc, #32]	; (8001b0c <BSP_ACCELERO_GetXYZ+0x24>)
 8001aec:	682b      	ldr	r3, [r5, #0]
 8001aee:	6b1b      	ldr	r3, [r3, #48]	; 0x30
 8001af0:	4604      	mov	r4, r0
 8001af2:	b153      	cbz	r3, 8001b0a <BSP_ACCELERO_GetXYZ+0x22>
 8001af4:	4798      	blx	r3
 8001af6:	682a      	ldr	r2, [r5, #0]
 8001af8:	4b05      	ldr	r3, [pc, #20]	; (8001b10 <BSP_ACCELERO_GetXYZ+0x28>)
 8001afa:	429a      	cmp	r2, r3
 8001afc:	d105      	bne.n	8001b0a <BSP_ACCELERO_GetXYZ+0x22>
 8001afe:	f9b4 3000 	ldrsh.w	r3, [r4]
 8001b02:	8862      	ldrh	r2, [r4, #2]
 8001b04:	8022      	strh	r2, [r4, #0]
 8001b06:	425b      	negs	r3, r3
 8001b08:	8063      	strh	r3, [r4, #2]
 8001b0a:	bd38      	pop	{r3, r4, r5, pc}
 8001b0c:	20000278 	.word	0x20000278
 8001b10:	20000000 	.word	0x20000000

08001b14 <HAL_MspInit>:
 8001b14:	b082      	sub	sp, #8
 8001b16:	4b0d      	ldr	r3, [pc, #52]	; (8001b4c <HAL_MspInit+0x38>)
 8001b18:	2100      	movs	r1, #0
 8001b1a:	9100      	str	r1, [sp, #0]
 8001b1c:	6c5a      	ldr	r2, [r3, #68]	; 0x44
 8001b1e:	f442 4280 	orr.w	r2, r2, #16384	; 0x4000
 8001b22:	645a      	str	r2, [r3, #68]	; 0x44
 8001b24:	6c5a      	ldr	r2, [r3, #68]	; 0x44
 8001b26:	f402 4280 	and.w	r2, r2, #16384	; 0x4000
 8001b2a:	9200      	str	r2, [sp, #0]
 8001b2c:	9a00      	ldr	r2, [sp, #0]
 8001b2e:	9101      	str	r1, [sp, #4]
 8001b30:	6c1a      	ldr	r2, [r3, #64]	; 0x40
 8001b32:	f042 5280 	orr.w	r2, r2, #268435456	; 0x10000000
 8001b36:	641a      	str	r2, [r3, #64]	; 0x40
 8001b38:	6c1b      	ldr	r3, [r3, #64]	; 0x40
 8001b3a:	f003 5380 	and.w	r3, r3, #268435456	; 0x10000000
 8001b3e:	9301      	str	r3, [sp, #4]
 8001b40:	9b01      	ldr	r3, [sp, #4]
 8001b42:	2007      	movs	r0, #7
 8001b44:	b002      	add	sp, #8
 8001b46:	f000 ba19 	b.w	8001f7c <HAL_NVIC_SetPriorityGrouping>
 8001b4a:	bf00      	nop
 8001b4c:	40023800 	.word	0x40023800

08001b50 <NMI_Handler>:
 8001b50:	e7fe      	b.n	8001b50 <NMI_Handler>

08001b52 <HardFault_Handler>:
 8001b52:	e7fe      	b.n	8001b52 <HardFault_Handler>

08001b54 <MemManage_Handler>:
 8001b54:	e7fe      	b.n	8001b54 <MemManage_Handler>

08001b56 <BusFault_Handler>:
 8001b56:	e7fe      	b.n	8001b56 <BusFault_Handler>

08001b58 <UsageFault_Handler>:
 8001b58:	e7fe      	b.n	8001b58 <UsageFault_Handler>

08001b5a <SVC_Handler>:
 8001b5a:	4770      	bx	lr

08001b5c <DebugMon_Handler>:
 8001b5c:	4770      	bx	lr

08001b5e <PendSV_Handler>:
 8001b5e:	4770      	bx	lr

08001b60 <SysTick_Handler>:
 8001b60:	f000 b9e6 	b.w	8001f30 <HAL_IncTick>

08001b64 <EXTI0_IRQHandler>:
 8001b64:	4b02      	ldr	r3, [pc, #8]	; (8001b70 <EXTI0_IRQHandler+0xc>)
 8001b66:	2001      	movs	r0, #1
 8001b68:	6018      	str	r0, [r3, #0]
 8001b6a:	f000 bbc3 	b.w	80022f4 <HAL_GPIO_EXTI_IRQHandler>
 8001b6e:	bf00      	nop
 8001b70:	20000198 	.word	0x20000198

08001b74 <TIM2_IRQHandler>:
 8001b74:	4b02      	ldr	r3, [pc, #8]	; (8001b80 <TIM2_IRQHandler+0xc>)
 8001b76:	4803      	ldr	r0, [pc, #12]	; (8001b84 <TIM2_IRQHandler+0x10>)
 8001b78:	2201      	movs	r2, #1
 8001b7a:	601a      	str	r2, [r3, #0]
 8001b7c:	f002 bb30 	b.w	80041e0 <HAL_TIM_IRQHandler>
 8001b80:	20000220 	.word	0x20000220
 8001b84:	20000458 	.word	0x20000458

08001b88 <TIM3_IRQHandler>:
 8001b88:	4b02      	ldr	r3, [pc, #8]	; (8001b94 <TIM3_IRQHandler+0xc>)
 8001b8a:	4803      	ldr	r0, [pc, #12]	; (8001b98 <TIM3_IRQHandler+0x10>)
 8001b8c:	2201      	movs	r2, #1
 8001b8e:	601a      	str	r2, [r3, #0]
 8001b90:	f002 bb26 	b.w	80041e0 <HAL_TIM_IRQHandler>
 8001b94:	2000019c 	.word	0x2000019c
 8001b98:	20000410 	.word	0x20000410

08001b9c <OTG_FS_IRQHandler>:
 8001b9c:	4801      	ldr	r0, [pc, #4]	; (8001ba4 <OTG_FS_IRQHandler+0x8>)
 8001b9e:	f000 bcaf 	b.w	8002500 <HAL_HCD_IRQHandler>
 8001ba2:	bf00      	nop
 8001ba4:	2000087c 	.word	0x2000087c

08001ba8 <_sbrk>:
 8001ba8:	4b0b      	ldr	r3, [pc, #44]	; (8001bd8 <_sbrk+0x30>)
 8001baa:	6819      	ldr	r1, [r3, #0]
 8001bac:	b510      	push	{r4, lr}
 8001bae:	4602      	mov	r2, r0
 8001bb0:	b909      	cbnz	r1, 8001bb6 <_sbrk+0xe>
 8001bb2:	490a      	ldr	r1, [pc, #40]	; (8001bdc <_sbrk+0x34>)
 8001bb4:	6019      	str	r1, [r3, #0]
 8001bb6:	6818      	ldr	r0, [r3, #0]
 8001bb8:	4909      	ldr	r1, [pc, #36]	; (8001be0 <_sbrk+0x38>)
 8001bba:	4c0a      	ldr	r4, [pc, #40]	; (8001be4 <_sbrk+0x3c>)
 8001bbc:	4402      	add	r2, r0
 8001bbe:	1b09      	subs	r1, r1, r4
 8001bc0:	428a      	cmp	r2, r1
 8001bc2:	d906      	bls.n	8001bd2 <_sbrk+0x2a>
 8001bc4:	f004 fa5a 	bl	800607c <__errno>
 8001bc8:	230c      	movs	r3, #12
 8001bca:	6003      	str	r3, [r0, #0]
 8001bcc:	f04f 30ff 	mov.w	r0, #4294967295	; 0xffffffff
 8001bd0:	bd10      	pop	{r4, pc}
 8001bd2:	601a      	str	r2, [r3, #0]
 8001bd4:	e7fc      	b.n	8001bd0 <_sbrk+0x28>
 8001bd6:	bf00      	nop
 8001bd8:	2000027c 	.word	0x2000027c
 8001bdc:	20000b90 	.word	0x20000b90
 8001be0:	20020000 	.word	0x20020000
 8001be4:	00000400 	.word	0x00000400

08001be8 <SystemInit>:
 8001be8:	4a03      	ldr	r2, [pc, #12]	; (8001bf8 <SystemInit+0x10>)
 8001bea:	f8d2 3088 	ldr.w	r3, [r2, #136]	; 0x88
 8001bee:	f443 0370 	orr.w	r3, r3, #15728640	; 0xf00000
 8001bf2:	f8c2 3088 	str.w	r3, [r2, #136]	; 0x88
 8001bf6:	4770      	bx	lr
 8001bf8:	e000ed00 	.word	0xe000ed00

08001bfc <MX_TIM2_Init>:
 8001bfc:	b57f      	push	{r0, r1, r2, r3, r4, r5, r6, lr}
 8001bfe:	2210      	movs	r2, #16
 8001c00:	2100      	movs	r1, #0
 8001c02:	a802      	add	r0, sp, #8
 8001c04:	f004 fa74 	bl	80060f0 <memset>
 8001c08:	4816      	ldr	r0, [pc, #88]	; (8001c64 <MX_TIM2_Init+0x68>)
 8001c0a:	f64b 327f 	movw	r2, #47999	; 0xbb7f
 8001c0e:	f04f 4180 	mov.w	r1, #1073741824	; 0x40000000
 8001c12:	2300      	movs	r3, #0
 8001c14:	e9c0 1200 	strd	r1, r2, [r0]
 8001c18:	f240 32e7 	movw	r2, #999	; 0x3e7
 8001c1c:	e9cd 3300 	strd	r3, r3, [sp]
 8001c20:	e9c0 2303 	strd	r2, r3, [r0, #12]
 8001c24:	6083      	str	r3, [r0, #8]
 8001c26:	6183      	str	r3, [r0, #24]
 8001c28:	f002 fbca 	bl	80043c0 <HAL_TIM_Base_Init>
 8001c2c:	b108      	cbz	r0, 8001c32 <MX_TIM2_Init+0x36>
 8001c2e:	f7ff fdfb 	bl	8001828 <Error_Handler>
 8001c32:	f44f 5380 	mov.w	r3, #4096	; 0x1000
 8001c36:	480b      	ldr	r0, [pc, #44]	; (8001c64 <MX_TIM2_Init+0x68>)
 8001c38:	9302      	str	r3, [sp, #8]
 8001c3a:	a902      	add	r1, sp, #8
 8001c3c:	f002 fcac 	bl	8004598 <HAL_TIM_ConfigClockSource>
 8001c40:	b108      	cbz	r0, 8001c46 <MX_TIM2_Init+0x4a>
 8001c42:	f7ff fdf1 	bl	8001828 <Error_Handler>
 8001c46:	2220      	movs	r2, #32
 8001c48:	2300      	movs	r3, #0
 8001c4a:	4806      	ldr	r0, [pc, #24]	; (8001c64 <MX_TIM2_Init+0x68>)
 8001c4c:	4669      	mov	r1, sp
 8001c4e:	e9cd 2300 	strd	r2, r3, [sp]
 8001c52:	f002 fde1 	bl	8004818 <HAL_TIMEx_MasterConfigSynchronization>
 8001c56:	b108      	cbz	r0, 8001c5c <MX_TIM2_Init+0x60>
 8001c58:	f7ff fde6 	bl	8001828 <Error_Handler>
 8001c5c:	b007      	add	sp, #28
 8001c5e:	f85d fb04 	ldr.w	pc, [sp], #4
 8001c62:	bf00      	nop
 8001c64:	20000458 	.word	0x20000458

08001c68 <MX_TIM3_Init>:
 8001c68:	b57f      	push	{r0, r1, r2, r3, r4, r5, r6, lr}
 8001c6a:	2210      	movs	r2, #16
 8001c6c:	2100      	movs	r1, #0
 8001c6e:	a802      	add	r0, sp, #8
 8001c70:	f004 fa3e 	bl	80060f0 <memset>
 8001c74:	4815      	ldr	r0, [pc, #84]	; (8001ccc <MX_TIM3_Init+0x64>)
 8001c76:	4916      	ldr	r1, [pc, #88]	; (8001cd0 <MX_TIM3_Init+0x68>)
 8001c78:	f64b 327f 	movw	r2, #47999	; 0xbb7f
 8001c7c:	2300      	movs	r3, #0
 8001c7e:	e9c0 1200 	strd	r1, r2, [r0]
 8001c82:	2204      	movs	r2, #4
 8001c84:	e9cd 3300 	strd	r3, r3, [sp]
 8001c88:	e9c0 2303 	strd	r2, r3, [r0, #12]
 8001c8c:	6083      	str	r3, [r0, #8]
 8001c8e:	6183      	str	r3, [r0, #24]
 8001c90:	f002 fb96 	bl	80043c0 <HAL_TIM_Base_Init>
 8001c94:	b108      	cbz	r0, 8001c9a <MX_TIM3_Init+0x32>
 8001c96:	f7ff fdc7 	bl	8001828 <Error_Handler>
 8001c9a:	f44f 5380 	mov.w	r3, #4096	; 0x1000
 8001c9e:	480b      	ldr	r0, [pc, #44]	; (8001ccc <MX_TIM3_Init+0x64>)
 8001ca0:	9302      	str	r3, [sp, #8]
 8001ca2:	a902      	add	r1, sp, #8
 8001ca4:	f002 fc78 	bl	8004598 <HAL_TIM_ConfigClockSource>
 8001ca8:	b108      	cbz	r0, 8001cae <MX_TIM3_Init+0x46>
 8001caa:	f7ff fdbd 	bl	8001828 <Error_Handler>
 8001cae:	2220      	movs	r2, #32
 8001cb0:	2300      	movs	r3, #0
 8001cb2:	4806      	ldr	r0, [pc, #24]	; (8001ccc <MX_TIM3_Init+0x64>)
 8001cb4:	4669      	mov	r1, sp
 8001cb6:	e9cd 2300 	strd	r2, r3, [sp]
 8001cba:	f002 fdad 	bl	8004818 <HAL_TIMEx_MasterConfigSynchronization>
 8001cbe:	b108      	cbz	r0, 8001cc4 <MX_TIM3_Init+0x5c>
 8001cc0:	f7ff fdb2 	bl	8001828 <Error_Handler>
 8001cc4:	b007      	add	sp, #28
 8001cc6:	f85d fb04 	ldr.w	pc, [sp], #4
 8001cca:	bf00      	nop
 8001ccc:	20000410 	.word	0x20000410
 8001cd0:	40000400 	.word	0x40000400

08001cd4 <HAL_TIM_Base_MspInit>:
 8001cd4:	b51f      	push	{r0, r1, r2, r3, r4, lr}
 8001cd6:	6803      	ldr	r3, [r0, #0]
 8001cd8:	f1b3 4f80 	cmp.w	r3, #1073741824	; 0x40000000
 8001cdc:	d116      	bne.n	8001d0c <HAL_TIM_Base_MspInit+0x38>
 8001cde:	f503 330e 	add.w	r3, r3, #145408	; 0x23800
 8001ce2:	2100      	movs	r1, #0
 8001ce4:	9101      	str	r1, [sp, #4]
 8001ce6:	6c1a      	ldr	r2, [r3, #64]	; 0x40
 8001ce8:	f042 0201 	orr.w	r2, r2, #1
 8001cec:	641a      	str	r2, [r3, #64]	; 0x40
 8001cee:	6c1b      	ldr	r3, [r3, #64]	; 0x40
 8001cf0:	f003 0301 	and.w	r3, r3, #1
 8001cf4:	9301      	str	r3, [sp, #4]
 8001cf6:	201c      	movs	r0, #28
 8001cf8:	2201      	movs	r2, #1
 8001cfa:	9b01      	ldr	r3, [sp, #4]
 8001cfc:	f000 f950 	bl	8001fa0 <HAL_NVIC_SetPriority>
 8001d00:	201c      	movs	r0, #28
 8001d02:	b005      	add	sp, #20
 8001d04:	f85d eb04 	ldr.w	lr, [sp], #4
 8001d08:	f000 b97c 	b.w	8002004 <HAL_NVIC_EnableIRQ>
 8001d0c:	4a13      	ldr	r2, [pc, #76]	; (8001d5c <HAL_TIM_Base_MspInit+0x88>)
 8001d0e:	4293      	cmp	r3, r2
 8001d10:	d111      	bne.n	8001d36 <HAL_TIM_Base_MspInit+0x62>
 8001d12:	4b13      	ldr	r3, [pc, #76]	; (8001d60 <HAL_TIM_Base_MspInit+0x8c>)
 8001d14:	2100      	movs	r1, #0
 8001d16:	9102      	str	r1, [sp, #8]
 8001d18:	6c1a      	ldr	r2, [r3, #64]	; 0x40
 8001d1a:	f042 0202 	orr.w	r2, r2, #2
 8001d1e:	641a      	str	r2, [r3, #64]	; 0x40
 8001d20:	6c1b      	ldr	r3, [r3, #64]	; 0x40
 8001d22:	f003 0302 	and.w	r3, r3, #2
 8001d26:	9302      	str	r3, [sp, #8]
 8001d28:	201d      	movs	r0, #29
 8001d2a:	2202      	movs	r2, #2
 8001d2c:	9b02      	ldr	r3, [sp, #8]
 8001d2e:	f000 f937 	bl	8001fa0 <HAL_NVIC_SetPriority>
 8001d32:	201d      	movs	r0, #29
 8001d34:	e7e5      	b.n	8001d02 <HAL_TIM_Base_MspInit+0x2e>
 8001d36:	4a0b      	ldr	r2, [pc, #44]	; (8001d64 <HAL_TIM_Base_MspInit+0x90>)
 8001d38:	4293      	cmp	r3, r2
 8001d3a:	d10b      	bne.n	8001d54 <HAL_TIM_Base_MspInit+0x80>
 8001d3c:	2300      	movs	r3, #0
 8001d3e:	9303      	str	r3, [sp, #12]
 8001d40:	4b07      	ldr	r3, [pc, #28]	; (8001d60 <HAL_TIM_Base_MspInit+0x8c>)
 8001d42:	6c1a      	ldr	r2, [r3, #64]	; 0x40
 8001d44:	f042 0204 	orr.w	r2, r2, #4
 8001d48:	641a      	str	r2, [r3, #64]	; 0x40
 8001d4a:	6c1b      	ldr	r3, [r3, #64]	; 0x40
 8001d4c:	f003 0304 	and.w	r3, r3, #4
 8001d50:	9303      	str	r3, [sp, #12]
 8001d52:	9b03      	ldr	r3, [sp, #12]
 8001d54:	b005      	add	sp, #20
 8001d56:	f85d fb04 	ldr.w	pc, [sp], #4
 8001d5a:	bf00      	nop
 8001d5c:	40000400 	.word	0x40000400
 8001d60:	40023800 	.word	0x40023800
 8001d64:	40000800 	.word	0x40000800

08001d68 <HAL_TIM_MspPostInit>:
 8001d68:	b510      	push	{r4, lr}
 8001d6a:	4604      	mov	r4, r0
 8001d6c:	b086      	sub	sp, #24
 8001d6e:	2214      	movs	r2, #20
 8001d70:	2100      	movs	r1, #0
 8001d72:	a801      	add	r0, sp, #4
 8001d74:	f004 f9bc 	bl	80060f0 <memset>
 8001d78:	6822      	ldr	r2, [r4, #0]
 8001d7a:	4b0e      	ldr	r3, [pc, #56]	; (8001db4 <HAL_TIM_MspPostInit+0x4c>)
 8001d7c:	429a      	cmp	r2, r3
 8001d7e:	d117      	bne.n	8001db0 <HAL_TIM_MspPostInit+0x48>
 8001d80:	4a0d      	ldr	r2, [pc, #52]	; (8001db8 <HAL_TIM_MspPostInit+0x50>)
 8001d82:	480e      	ldr	r0, [pc, #56]	; (8001dbc <HAL_TIM_MspPostInit+0x54>)
 8001d84:	2300      	movs	r3, #0
 8001d86:	9300      	str	r3, [sp, #0]
 8001d88:	6b11      	ldr	r1, [r2, #48]	; 0x30
 8001d8a:	f041 0108 	orr.w	r1, r1, #8
 8001d8e:	6311      	str	r1, [r2, #48]	; 0x30
 8001d90:	6b12      	ldr	r2, [r2, #48]	; 0x30
 8001d92:	f002 0208 	and.w	r2, r2, #8
 8001d96:	9200      	str	r2, [sp, #0]
 8001d98:	f44f 5180 	mov.w	r1, #4096	; 0x1000
 8001d9c:	9a00      	ldr	r2, [sp, #0]
 8001d9e:	2202      	movs	r2, #2
 8001da0:	e9cd 1201 	strd	r1, r2, [sp, #4]
 8001da4:	a901      	add	r1, sp, #4
 8001da6:	e9cd 3303 	strd	r3, r3, [sp, #12]
 8001daa:	9205      	str	r2, [sp, #20]
 8001dac:	f000 f94e 	bl	800204c <HAL_GPIO_Init>
 8001db0:	b006      	add	sp, #24
 8001db2:	bd10      	pop	{r4, pc}
 8001db4:	40000800 	.word	0x40000800
 8001db8:	40023800 	.word	0x40023800
 8001dbc:	40020c00 	.word	0x40020c00

08001dc0 <MX_TIM4_Init>:
 8001dc0:	b510      	push	{r4, lr}
 8001dc2:	b08e      	sub	sp, #56	; 0x38
 8001dc4:	2210      	movs	r2, #16
 8001dc6:	2100      	movs	r1, #0
 8001dc8:	a803      	add	r0, sp, #12
 8001dca:	f004 f991 	bl	80060f0 <memset>
 8001dce:	2400      	movs	r4, #0
 8001dd0:	221c      	movs	r2, #28
 8001dd2:	eb0d 0002 	add.w	r0, sp, r2
 8001dd6:	4621      	mov	r1, r4
 8001dd8:	e9cd 4401 	strd	r4, r4, [sp, #4]
 8001ddc:	f004 f988 	bl	80060f0 <memset>
 8001de0:	481d      	ldr	r0, [pc, #116]	; (8001e58 <MX_TIM4_Init+0x98>)
 8001de2:	4a1e      	ldr	r2, [pc, #120]	; (8001e5c <MX_TIM4_Init+0x9c>)
 8001de4:	6084      	str	r4, [r0, #8]
 8001de6:	232f      	movs	r3, #47	; 0x2f
 8001de8:	e9c0 2300 	strd	r2, r3, [r0]
 8001dec:	23c7      	movs	r3, #199	; 0xc7
 8001dee:	e9c0 3403 	strd	r3, r4, [r0, #12]
 8001df2:	6184      	str	r4, [r0, #24]
 8001df4:	f002 fae4 	bl	80043c0 <HAL_TIM_Base_Init>
 8001df8:	b108      	cbz	r0, 8001dfe <MX_TIM4_Init+0x3e>
 8001dfa:	f7ff fd15 	bl	8001828 <Error_Handler>
 8001dfe:	f44f 5380 	mov.w	r3, #4096	; 0x1000
 8001e02:	4815      	ldr	r0, [pc, #84]	; (8001e58 <MX_TIM4_Init+0x98>)
 8001e04:	9303      	str	r3, [sp, #12]
 8001e06:	a903      	add	r1, sp, #12
 8001e08:	f002 fbc6 	bl	8004598 <HAL_TIM_ConfigClockSource>
 8001e0c:	b108      	cbz	r0, 8001e12 <MX_TIM4_Init+0x52>
 8001e0e:	f7ff fd0b 	bl	8001828 <Error_Handler>
 8001e12:	4811      	ldr	r0, [pc, #68]	; (8001e58 <MX_TIM4_Init+0x98>)
 8001e14:	f002 fb00 	bl	8004418 <HAL_TIM_PWM_Init>
 8001e18:	b108      	cbz	r0, 8001e1e <MX_TIM4_Init+0x5e>
 8001e1a:	f7ff fd05 	bl	8001828 <Error_Handler>
 8001e1e:	2400      	movs	r4, #0
 8001e20:	480d      	ldr	r0, [pc, #52]	; (8001e58 <MX_TIM4_Init+0x98>)
 8001e22:	a901      	add	r1, sp, #4
 8001e24:	e9cd 4401 	strd	r4, r4, [sp, #4]
 8001e28:	f002 fcf6 	bl	8004818 <HAL_TIMEx_MasterConfigSynchronization>
 8001e2c:	b108      	cbz	r0, 8001e32 <MX_TIM4_Init+0x72>
 8001e2e:	f7ff fcfb 	bl	8001828 <Error_Handler>
 8001e32:	2360      	movs	r3, #96	; 0x60
 8001e34:	4808      	ldr	r0, [pc, #32]	; (8001e58 <MX_TIM4_Init+0x98>)
 8001e36:	9409      	str	r4, [sp, #36]	; 0x24
 8001e38:	2200      	movs	r2, #0
 8001e3a:	a907      	add	r1, sp, #28
 8001e3c:	e9cd 3407 	strd	r3, r4, [sp, #28]
 8001e40:	940b      	str	r4, [sp, #44]	; 0x2c
 8001e42:	f002 fb41 	bl	80044c8 <HAL_TIM_PWM_ConfigChannel>
 8001e46:	b108      	cbz	r0, 8001e4c <MX_TIM4_Init+0x8c>
 8001e48:	f7ff fcee 	bl	8001828 <Error_Handler>
 8001e4c:	4802      	ldr	r0, [pc, #8]	; (8001e58 <MX_TIM4_Init+0x98>)
 8001e4e:	f7ff ff8b 	bl	8001d68 <HAL_TIM_MspPostInit>
 8001e52:	b00e      	add	sp, #56	; 0x38
 8001e54:	bd10      	pop	{r4, pc}
 8001e56:	bf00      	nop
 8001e58:	200003c8 	.word	0x200003c8
 8001e5c:	40000800 	.word	0x40000800

08001e60 <Reset_Handler>:
 8001e60:	f8df d034 	ldr.w	sp, [pc, #52]	; 8001e98 <LoopFillZerobss+0x12>
 8001e64:	480d      	ldr	r0, [pc, #52]	; (8001e9c <LoopFillZerobss+0x16>)
 8001e66:	490e      	ldr	r1, [pc, #56]	; (8001ea0 <LoopFillZerobss+0x1a>)
 8001e68:	4a0e      	ldr	r2, [pc, #56]	; (8001ea4 <LoopFillZerobss+0x1e>)
 8001e6a:	2300      	movs	r3, #0
 8001e6c:	e002      	b.n	8001e74 <LoopCopyDataInit>

08001e6e <CopyDataInit>:
 8001e6e:	58d4      	ldr	r4, [r2, r3]
 8001e70:	50c4      	str	r4, [r0, r3]
 8001e72:	3304      	adds	r3, #4

08001e74 <LoopCopyDataInit>:
 8001e74:	18c4      	adds	r4, r0, r3
 8001e76:	428c      	cmp	r4, r1
 8001e78:	d3f9      	bcc.n	8001e6e <CopyDataInit>
 8001e7a:	4a0b      	ldr	r2, [pc, #44]	; (8001ea8 <LoopFillZerobss+0x22>)
 8001e7c:	4c0b      	ldr	r4, [pc, #44]	; (8001eac <LoopFillZerobss+0x26>)
 8001e7e:	2300      	movs	r3, #0
 8001e80:	e001      	b.n	8001e86 <LoopFillZerobss>

08001e82 <FillZerobss>:
 8001e82:	6013      	str	r3, [r2, #0]
 8001e84:	3204      	adds	r2, #4

08001e86 <LoopFillZerobss>:
 8001e86:	42a2      	cmp	r2, r4
 8001e88:	d3fb      	bcc.n	8001e82 <FillZerobss>
 8001e8a:	f7ff fead 	bl	8001be8 <SystemInit>
 8001e8e:	f004 f8fb 	bl	8006088 <__libc_init_array>
 8001e92:	f7ff fc99 	bl	80017c8 <main>
 8001e96:	4770      	bx	lr
 8001e98:	20020000 	.word	0x20020000
 8001e9c:	20000000 	.word	0x20000000
 8001ea0:	2000017c 	.word	0x2000017c
 8001ea4:	080064a8 	.word	0x080064a8
 8001ea8:	2000017c 	.word	0x2000017c
 8001eac:	20000b90 	.word	0x20000b90

08001eb0 <ADC_IRQHandler>:
 8001eb0:	e7fe      	b.n	8001eb0 <ADC_IRQHandler>
	...

08001eb4 <HAL_InitTick>:
 8001eb4:	b538      	push	{r3, r4, r5, lr}
 8001eb6:	4a0e      	ldr	r2, [pc, #56]	; (8001ef0 <HAL_InitTick+0x3c>)
 8001eb8:	4b0e      	ldr	r3, [pc, #56]	; (8001ef4 <HAL_InitTick+0x40>)
 8001eba:	4605      	mov	r5, r0
 8001ebc:	7818      	ldrb	r0, [r3, #0]
 8001ebe:	f44f 737a 	mov.w	r3, #1000	; 0x3e8
 8001ec2:	fbb3 f3f0 	udiv	r3, r3, r0
 8001ec6:	6810      	ldr	r0, [r2, #0]
 8001ec8:	fbb0 f0f3 	udiv	r0, r0, r3
 8001ecc:	f000 f8a8 	bl	8002020 <HAL_SYSTICK_Config>
 8001ed0:	4604      	mov	r4, r0
 8001ed2:	b958      	cbnz	r0, 8001eec <HAL_InitTick+0x38>
 8001ed4:	2d0f      	cmp	r5, #15
 8001ed6:	d809      	bhi.n	8001eec <HAL_InitTick+0x38>
 8001ed8:	4602      	mov	r2, r0
 8001eda:	4629      	mov	r1, r5
 8001edc:	f04f 30ff 	mov.w	r0, #4294967295	; 0xffffffff
 8001ee0:	f000 f85e 	bl	8001fa0 <HAL_NVIC_SetPriority>
 8001ee4:	4b04      	ldr	r3, [pc, #16]	; (8001ef8 <HAL_InitTick+0x44>)
 8001ee6:	4620      	mov	r0, r4
 8001ee8:	601d      	str	r5, [r3, #0]
 8001eea:	bd38      	pop	{r3, r4, r5, pc}
 8001eec:	2001      	movs	r0, #1
 8001eee:	e7fc      	b.n	8001eea <HAL_InitTick+0x36>
 8001ef0:	200000e8 	.word	0x200000e8
 8001ef4:	200000ec 	.word	0x200000ec
 8001ef8:	200000f0 	.word	0x200000f0

08001efc <HAL_Init>:
 8001efc:	b508      	push	{r3, lr}
 8001efe:	4b0b      	ldr	r3, [pc, #44]	; (8001f2c <HAL_Init+0x30>)
 8001f00:	681a      	ldr	r2, [r3, #0]
 8001f02:	f442 7200 	orr.w	r2, r2, #512	; 0x200
 8001f06:	601a      	str	r2, [r3, #0]
 8001f08:	681a      	ldr	r2, [r3, #0]
 8001f0a:	f442 6280 	orr.w	r2, r2, #1024	; 0x400
 8001f0e:	601a      	str	r2, [r3, #0]
 8001f10:	681a      	ldr	r2, [r3, #0]
 8001f12:	f442 7280 	orr.w	r2, r2, #256	; 0x100
 8001f16:	601a      	str	r2, [r3, #0]
 8001f18:	2003      	movs	r0, #3
 8001f1a:	f000 f82f 	bl	8001f7c <HAL_NVIC_SetPriorityGrouping>
 8001f1e:	2000      	movs	r0, #0
 8001f20:	f7ff ffc8 	bl	8001eb4 <HAL_InitTick>
 8001f24:	f7ff fdf6 	bl	8001b14 <HAL_MspInit>
 8001f28:	2000      	movs	r0, #0
 8001f2a:	bd08      	pop	{r3, pc}
 8001f2c:	40023c00 	.word	0x40023c00

08001f30 <HAL_IncTick>:
 8001f30:	4a03      	ldr	r2, [pc, #12]	; (8001f40 <HAL_IncTick+0x10>)
 8001f32:	4b04      	ldr	r3, [pc, #16]	; (8001f44 <HAL_IncTick+0x14>)
 8001f34:	6811      	ldr	r1, [r2, #0]
 8001f36:	781b      	ldrb	r3, [r3, #0]
 8001f38:	440b      	add	r3, r1
 8001f3a:	6013      	str	r3, [r2, #0]
 8001f3c:	4770      	bx	lr
 8001f3e:	bf00      	nop
 8001f40:	200004a0 	.word	0x200004a0
 8001f44:	200000ec 	.word	0x200000ec

08001f48 <HAL_GetTick>:
 8001f48:	4b01      	ldr	r3, [pc, #4]	; (8001f50 <HAL_GetTick+0x8>)
 8001f4a:	6818      	ldr	r0, [r3, #0]
 8001f4c:	4770      	bx	lr
 8001f4e:	bf00      	nop
 8001f50:	200004a0 	.word	0x200004a0

08001f54 <HAL_Delay>:
 8001f54:	b538      	push	{r3, r4, r5, lr}
 8001f56:	4604      	mov	r4, r0
 8001f58:	f7ff fff6 	bl	8001f48 <HAL_GetTick>
 8001f5c:	1c63      	adds	r3, r4, #1
 8001f5e:	bf1c      	itt	ne
 8001f60:	4b05      	ldrne	r3, [pc, #20]	; (8001f78 <HAL_Delay+0x24>)
 8001f62:	781b      	ldrbne	r3, [r3, #0]
 8001f64:	4605      	mov	r5, r0
 8001f66:	bf18      	it	ne
 8001f68:	18e4      	addne	r4, r4, r3
 8001f6a:	f7ff ffed 	bl	8001f48 <HAL_GetTick>
 8001f6e:	1b43      	subs	r3, r0, r5
 8001f70:	42a3      	cmp	r3, r4
 8001f72:	d3fa      	bcc.n	8001f6a <HAL_Delay+0x16>
 8001f74:	bd38      	pop	{r3, r4, r5, pc}
 8001f76:	bf00      	nop
 8001f78:	200000ec 	.word	0x200000ec

08001f7c <HAL_NVIC_SetPriorityGrouping>:
 8001f7c:	4907      	ldr	r1, [pc, #28]	; (8001f9c <HAL_NVIC_SetPriorityGrouping+0x20>)
 8001f7e:	68ca      	ldr	r2, [r1, #12]
 8001f80:	f422 62e0 	bic.w	r2, r2, #1792	; 0x700
 8001f84:	0203      	lsls	r3, r0, #8
 8001f86:	0412      	lsls	r2, r2, #16
 8001f88:	f403 63e0 	and.w	r3, r3, #1792	; 0x700
 8001f8c:	0c12      	lsrs	r2, r2, #16
 8001f8e:	4313      	orrs	r3, r2
 8001f90:	f043 63bf 	orr.w	r3, r3, #100139008	; 0x5f80000
 8001f94:	f443 3300 	orr.w	r3, r3, #131072	; 0x20000
 8001f98:	60cb      	str	r3, [r1, #12]
 8001f9a:	4770      	bx	lr
 8001f9c:	e000ed00 	.word	0xe000ed00

08001fa0 <HAL_NVIC_SetPriority>:
 8001fa0:	4b16      	ldr	r3, [pc, #88]	; (8001ffc <HAL_NVIC_SetPriority+0x5c>)
 8001fa2:	b530      	push	{r4, r5, lr}
 8001fa4:	68dc      	ldr	r4, [r3, #12]
 8001fa6:	f3c4 2402 	ubfx	r4, r4, #8, #3
 8001faa:	f1c4 0507 	rsb	r5, r4, #7
 8001fae:	1d23      	adds	r3, r4, #4
 8001fb0:	2d04      	cmp	r5, #4
 8001fb2:	bf28      	it	cs
 8001fb4:	2504      	movcs	r5, #4
 8001fb6:	2b06      	cmp	r3, #6
 8001fb8:	f04f 33ff 	mov.w	r3, #4294967295	; 0xffffffff
 8001fbc:	bf8c      	ite	hi
 8001fbe:	3c03      	subhi	r4, #3
 8001fc0:	2400      	movls	r4, #0
 8001fc2:	fa03 f505 	lsl.w	r5, r3, r5
 8001fc6:	ea21 0105 	bic.w	r1, r1, r5
 8001fca:	40a3      	lsls	r3, r4
 8001fcc:	ea22 0203 	bic.w	r2, r2, r3
 8001fd0:	40a1      	lsls	r1, r4
 8001fd2:	2800      	cmp	r0, #0
 8001fd4:	ea41 0302 	orr.w	r3, r1, r2
 8001fd8:	bfac      	ite	ge
 8001fda:	f100 4060 	addge.w	r0, r0, #3758096384	; 0xe0000000
 8001fde:	4a08      	ldrlt	r2, [pc, #32]	; (8002000 <HAL_NVIC_SetPriority+0x60>)
 8001fe0:	ea4f 1303 	mov.w	r3, r3, lsl #4
 8001fe4:	bfb8      	it	lt
 8001fe6:	f000 000f 	andlt.w	r0, r0, #15
 8001fea:	b2db      	uxtb	r3, r3
 8001fec:	bfaa      	itet	ge
 8001fee:	f500 4061 	addge.w	r0, r0, #57600	; 0xe100
 8001ff2:	5413      	strblt	r3, [r2, r0]
 8001ff4:	f880 3300 	strbge.w	r3, [r0, #768]	; 0x300
 8001ff8:	bd30      	pop	{r4, r5, pc}
 8001ffa:	bf00      	nop
 8001ffc:	e000ed00 	.word	0xe000ed00
 8002000:	e000ed14 	.word	0xe000ed14

08002004 <HAL_NVIC_EnableIRQ>:
 8002004:	2800      	cmp	r0, #0
 8002006:	db08      	blt.n	800201a <HAL_NVIC_EnableIRQ+0x16>
 8002008:	0942      	lsrs	r2, r0, #5
 800200a:	2301      	movs	r3, #1
 800200c:	f000 001f 	and.w	r0, r0, #31
 8002010:	fa03 f000 	lsl.w	r0, r3, r0
 8002014:	4b01      	ldr	r3, [pc, #4]	; (800201c <HAL_NVIC_EnableIRQ+0x18>)
 8002016:	f843 0022 	str.w	r0, [r3, r2, lsl #2]
 800201a:	4770      	bx	lr
 800201c:	e000e100 	.word	0xe000e100

08002020 <HAL_SYSTICK_Config>:
 8002020:	3801      	subs	r0, #1
 8002022:	f1b0 7f80 	cmp.w	r0, #16777216	; 0x1000000
 8002026:	d20a      	bcs.n	800203e <HAL_SYSTICK_Config+0x1e>
 8002028:	4b06      	ldr	r3, [pc, #24]	; (8002044 <HAL_SYSTICK_Config+0x24>)
 800202a:	4a07      	ldr	r2, [pc, #28]	; (8002048 <HAL_SYSTICK_Config+0x28>)
 800202c:	6058      	str	r0, [r3, #4]
 800202e:	21f0      	movs	r1, #240	; 0xf0
 8002030:	f882 1023 	strb.w	r1, [r2, #35]	; 0x23
 8002034:	2000      	movs	r0, #0
 8002036:	2207      	movs	r2, #7
 8002038:	6098      	str	r0, [r3, #8]
 800203a:	601a      	str	r2, [r3, #0]
 800203c:	4770      	bx	lr
 800203e:	2001      	movs	r0, #1
 8002040:	4770      	bx	lr
 8002042:	bf00      	nop
 8002044:	e000e010 	.word	0xe000e010
 8002048:	e000ed00 	.word	0xe000ed00

0800204c <HAL_GPIO_Init>:
 800204c:	e92d 4ff7 	stmdb	sp!, {r0, r1, r2, r4, r5, r6, r7, r8, r9, sl, fp, lr}
 8002050:	f8df 9184 	ldr.w	r9, [pc, #388]	; 80021d8 <HAL_GPIO_Init+0x18c>
 8002054:	4a5e      	ldr	r2, [pc, #376]	; (80021d0 <HAL_GPIO_Init+0x184>)
 8002056:	2300      	movs	r3, #0
 8002058:	680d      	ldr	r5, [r1, #0]
 800205a:	2401      	movs	r4, #1
 800205c:	409c      	lsls	r4, r3
 800205e:	ea04 0c05 	and.w	ip, r4, r5
 8002062:	43ac      	bics	r4, r5
 8002064:	f040 80a5 	bne.w	80021b2 <HAL_GPIO_Init+0x166>
 8002068:	684d      	ldr	r5, [r1, #4]
 800206a:	f005 0403 	and.w	r4, r5, #3
 800206e:	ea4f 0843 	mov.w	r8, r3, lsl #1
 8002072:	2603      	movs	r6, #3
 8002074:	1e67      	subs	r7, r4, #1
 8002076:	fa06 f608 	lsl.w	r6, r6, r8
 800207a:	2f01      	cmp	r7, #1
 800207c:	ea6f 0606 	mvn.w	r6, r6
 8002080:	d834      	bhi.n	80020ec <HAL_GPIO_Init+0xa0>
 8002082:	6887      	ldr	r7, [r0, #8]
 8002084:	ea07 0e06 	and.w	lr, r7, r6
 8002088:	68cf      	ldr	r7, [r1, #12]
 800208a:	fa07 f708 	lsl.w	r7, r7, r8
 800208e:	ea47 070e 	orr.w	r7, r7, lr
 8002092:	6087      	str	r7, [r0, #8]
 8002094:	6847      	ldr	r7, [r0, #4]
 8002096:	ea27 0e0c 	bic.w	lr, r7, ip
 800209a:	f3c5 1700 	ubfx	r7, r5, #4, #1
 800209e:	409f      	lsls	r7, r3
 80020a0:	ea47 070e 	orr.w	r7, r7, lr
 80020a4:	6047      	str	r7, [r0, #4]
 80020a6:	68c7      	ldr	r7, [r0, #12]
 80020a8:	ea07 0e06 	and.w	lr, r7, r6
 80020ac:	688f      	ldr	r7, [r1, #8]
 80020ae:	fa07 f708 	lsl.w	r7, r7, r8
 80020b2:	ea47 070e 	orr.w	r7, r7, lr
 80020b6:	2c02      	cmp	r4, #2
 80020b8:	60c7      	str	r7, [r0, #12]
 80020ba:	d119      	bne.n	80020f0 <HAL_GPIO_Init+0xa4>
 80020bc:	ea4f 0ad3 	mov.w	sl, r3, lsr #3
 80020c0:	eb00 0a8a 	add.w	sl, r0, sl, lsl #2
 80020c4:	f003 0b07 	and.w	fp, r3, #7
 80020c8:	f8da 7020 	ldr.w	r7, [sl, #32]
 80020cc:	ea4f 0b8b 	mov.w	fp, fp, lsl #2
 80020d0:	f04f 0e0f 	mov.w	lr, #15
 80020d4:	fa0e fe0b 	lsl.w	lr, lr, fp
 80020d8:	ea27 0e0e 	bic.w	lr, r7, lr
 80020dc:	690f      	ldr	r7, [r1, #16]
 80020de:	fa07 f70b 	lsl.w	r7, r7, fp
 80020e2:	ea47 070e 	orr.w	r7, r7, lr
 80020e6:	f8ca 7020 	str.w	r7, [sl, #32]
 80020ea:	e001      	b.n	80020f0 <HAL_GPIO_Init+0xa4>
 80020ec:	2c03      	cmp	r4, #3
 80020ee:	d1da      	bne.n	80020a6 <HAL_GPIO_Init+0x5a>
 80020f0:	6807      	ldr	r7, [r0, #0]
 80020f2:	fa04 f408 	lsl.w	r4, r4, r8
 80020f6:	403e      	ands	r6, r7
 80020f8:	4326      	orrs	r6, r4
 80020fa:	f415 3f40 	tst.w	r5, #196608	; 0x30000
 80020fe:	6006      	str	r6, [r0, #0]
 8002100:	d057      	beq.n	80021b2 <HAL_GPIO_Init+0x166>
 8002102:	f04f 0a00 	mov.w	sl, #0
 8002106:	f8cd a004 	str.w	sl, [sp, #4]
 800210a:	f8d9 6044 	ldr.w	r6, [r9, #68]	; 0x44
 800210e:	4c31      	ldr	r4, [pc, #196]	; (80021d4 <HAL_GPIO_Init+0x188>)
 8002110:	f446 4680 	orr.w	r6, r6, #16384	; 0x4000
 8002114:	f8c9 6044 	str.w	r6, [r9, #68]	; 0x44
 8002118:	f8d9 6044 	ldr.w	r6, [r9, #68]	; 0x44
 800211c:	f406 4680 	and.w	r6, r6, #16384	; 0x4000
 8002120:	9601      	str	r6, [sp, #4]
 8002122:	9e01      	ldr	r6, [sp, #4]
 8002124:	f023 0603 	bic.w	r6, r3, #3
 8002128:	f106 4680 	add.w	r6, r6, #1073741824	; 0x40000000
 800212c:	f506 369c 	add.w	r6, r6, #79872	; 0x13800
 8002130:	f003 0e03 	and.w	lr, r3, #3
 8002134:	f8d6 8008 	ldr.w	r8, [r6, #8]
 8002138:	ea4f 0e8e 	mov.w	lr, lr, lsl #2
 800213c:	270f      	movs	r7, #15
 800213e:	fa07 f70e 	lsl.w	r7, r7, lr
 8002142:	42a0      	cmp	r0, r4
 8002144:	ea28 0707 	bic.w	r7, r8, r7
 8002148:	d03a      	beq.n	80021c0 <HAL_GPIO_Init+0x174>
 800214a:	f504 6480 	add.w	r4, r4, #1024	; 0x400
 800214e:	42a0      	cmp	r0, r4
 8002150:	d038      	beq.n	80021c4 <HAL_GPIO_Init+0x178>
 8002152:	f504 6480 	add.w	r4, r4, #1024	; 0x400
 8002156:	42a0      	cmp	r0, r4
 8002158:	d036      	beq.n	80021c8 <HAL_GPIO_Init+0x17c>
 800215a:	f504 6480 	add.w	r4, r4, #1024	; 0x400
 800215e:	42a0      	cmp	r0, r4
 8002160:	d034      	beq.n	80021cc <HAL_GPIO_Init+0x180>
 8002162:	f504 6480 	add.w	r4, r4, #1024	; 0x400
 8002166:	42a0      	cmp	r0, r4
 8002168:	bf0c      	ite	eq
 800216a:	2404      	moveq	r4, #4
 800216c:	2407      	movne	r4, #7
 800216e:	fa04 f40e 	lsl.w	r4, r4, lr
 8002172:	433c      	orrs	r4, r7
 8002174:	60b4      	str	r4, [r6, #8]
 8002176:	6814      	ldr	r4, [r2, #0]
 8002178:	ea6f 060c 	mvn.w	r6, ip
 800217c:	03ef      	lsls	r7, r5, #15
 800217e:	bf54      	ite	pl
 8002180:	4034      	andpl	r4, r6
 8002182:	ea4c 0404 	orrmi.w	r4, ip, r4
 8002186:	6014      	str	r4, [r2, #0]
 8002188:	6854      	ldr	r4, [r2, #4]
 800218a:	03af      	lsls	r7, r5, #14
 800218c:	bf54      	ite	pl
 800218e:	4034      	andpl	r4, r6
 8002190:	ea4c 0404 	orrmi.w	r4, ip, r4
 8002194:	6054      	str	r4, [r2, #4]
 8002196:	6894      	ldr	r4, [r2, #8]
 8002198:	02ef      	lsls	r7, r5, #11
 800219a:	bf54      	ite	pl
 800219c:	4034      	andpl	r4, r6
 800219e:	ea4c 0404 	orrmi.w	r4, ip, r4
 80021a2:	6094      	str	r4, [r2, #8]
 80021a4:	68d4      	ldr	r4, [r2, #12]
 80021a6:	02ad      	lsls	r5, r5, #10
 80021a8:	bf54      	ite	pl
 80021aa:	4034      	andpl	r4, r6
 80021ac:	ea4c 0404 	orrmi.w	r4, ip, r4
 80021b0:	60d4      	str	r4, [r2, #12]
 80021b2:	3301      	adds	r3, #1
 80021b4:	2b10      	cmp	r3, #16
 80021b6:	f47f af4f 	bne.w	8002058 <HAL_GPIO_Init+0xc>
 80021ba:	b003      	add	sp, #12
 80021bc:	e8bd 8ff0 	ldmia.w	sp!, {r4, r5, r6, r7, r8, r9, sl, fp, pc}
 80021c0:	4654      	mov	r4, sl
 80021c2:	e7d4      	b.n	800216e <HAL_GPIO_Init+0x122>
 80021c4:	2401      	movs	r4, #1
 80021c6:	e7d2      	b.n	800216e <HAL_GPIO_Init+0x122>
 80021c8:	2402      	movs	r4, #2
 80021ca:	e7d0      	b.n	800216e <HAL_GPIO_Init+0x122>
 80021cc:	2403      	movs	r4, #3
 80021ce:	e7ce      	b.n	800216e <HAL_GPIO_Init+0x122>
 80021d0:	40013c00 	.word	0x40013c00
 80021d4:	40020000 	.word	0x40020000
 80021d8:	40023800 	.word	0x40023800

080021dc <HAL_GPIO_DeInit>:
 80021dc:	4a3b      	ldr	r2, [pc, #236]	; (80022cc <HAL_GPIO_DeInit+0xf0>)
 80021de:	e92d 4ff0 	stmdb	sp!, {r4, r5, r6, r7, r8, r9, sl, fp, lr}
 80021e2:	2300      	movs	r3, #0
 80021e4:	f04f 0a01 	mov.w	sl, #1
 80021e8:	f04f 080f 	mov.w	r8, #15
 80021ec:	f04f 0b03 	mov.w	fp, #3
 80021f0:	fa0a fc03 	lsl.w	ip, sl, r3
 80021f4:	ea3c 0401 	bics.w	r4, ip, r1
 80021f8:	ea0c 0601 	and.w	r6, ip, r1
 80021fc:	d158      	bne.n	80022b0 <HAL_GPIO_DeInit+0xd4>
 80021fe:	f023 0403 	bic.w	r4, r3, #3
 8002202:	f104 4480 	add.w	r4, r4, #1073741824	; 0x40000000
 8002206:	f504 349c 	add.w	r4, r4, #79872	; 0x13800
 800220a:	f003 0703 	and.w	r7, r3, #3
 800220e:	68a5      	ldr	r5, [r4, #8]
 8002210:	00bf      	lsls	r7, r7, #2
 8002212:	fa08 f907 	lsl.w	r9, r8, r7
 8002216:	ea09 0e05 	and.w	lr, r9, r5
 800221a:	4d2d      	ldr	r5, [pc, #180]	; (80022d0 <HAL_GPIO_DeInit+0xf4>)
 800221c:	42a8      	cmp	r0, r5
 800221e:	d04c      	beq.n	80022ba <HAL_GPIO_DeInit+0xde>
 8002220:	f505 6580 	add.w	r5, r5, #1024	; 0x400
 8002224:	42a8      	cmp	r0, r5
 8002226:	d04a      	beq.n	80022be <HAL_GPIO_DeInit+0xe2>
 8002228:	f505 6580 	add.w	r5, r5, #1024	; 0x400
 800222c:	42a8      	cmp	r0, r5
 800222e:	d048      	beq.n	80022c2 <HAL_GPIO_DeInit+0xe6>
 8002230:	f505 6580 	add.w	r5, r5, #1024	; 0x400
 8002234:	42a8      	cmp	r0, r5
 8002236:	d046      	beq.n	80022c6 <HAL_GPIO_DeInit+0xea>
 8002238:	f505 6580 	add.w	r5, r5, #1024	; 0x400
 800223c:	42a8      	cmp	r0, r5
 800223e:	bf0c      	ite	eq
 8002240:	2504      	moveq	r5, #4
 8002242:	2507      	movne	r5, #7
 8002244:	40bd      	lsls	r5, r7
 8002246:	4575      	cmp	r5, lr
 8002248:	d113      	bne.n	8002272 <HAL_GPIO_DeInit+0x96>
 800224a:	6815      	ldr	r5, [r2, #0]
 800224c:	ea25 0506 	bic.w	r5, r5, r6
 8002250:	6015      	str	r5, [r2, #0]
 8002252:	6855      	ldr	r5, [r2, #4]
 8002254:	ea25 0506 	bic.w	r5, r5, r6
 8002258:	6055      	str	r5, [r2, #4]
 800225a:	6895      	ldr	r5, [r2, #8]
 800225c:	ea25 0506 	bic.w	r5, r5, r6
 8002260:	6095      	str	r5, [r2, #8]
 8002262:	68d5      	ldr	r5, [r2, #12]
 8002264:	ea25 0606 	bic.w	r6, r5, r6
 8002268:	60d6      	str	r6, [r2, #12]
 800226a:	68a5      	ldr	r5, [r4, #8]
 800226c:	ea25 0509 	bic.w	r5, r5, r9
 8002270:	60a5      	str	r5, [r4, #8]
 8002272:	6805      	ldr	r5, [r0, #0]
 8002274:	005c      	lsls	r4, r3, #1
 8002276:	fa0b f404 	lsl.w	r4, fp, r4
 800227a:	08de      	lsrs	r6, r3, #3
 800227c:	ea25 0504 	bic.w	r5, r5, r4
 8002280:	eb00 0686 	add.w	r6, r0, r6, lsl #2
 8002284:	6005      	str	r5, [r0, #0]
 8002286:	f003 0507 	and.w	r5, r3, #7
 800228a:	6a37      	ldr	r7, [r6, #32]
 800228c:	00ad      	lsls	r5, r5, #2
 800228e:	fa08 f505 	lsl.w	r5, r8, r5
 8002292:	ea27 0505 	bic.w	r5, r7, r5
 8002296:	6235      	str	r5, [r6, #32]
 8002298:	68c5      	ldr	r5, [r0, #12]
 800229a:	ea25 0504 	bic.w	r5, r5, r4
 800229e:	60c5      	str	r5, [r0, #12]
 80022a0:	6845      	ldr	r5, [r0, #4]
 80022a2:	ea25 050c 	bic.w	r5, r5, ip
 80022a6:	6045      	str	r5, [r0, #4]
 80022a8:	6885      	ldr	r5, [r0, #8]
 80022aa:	ea25 0404 	bic.w	r4, r5, r4
 80022ae:	6084      	str	r4, [r0, #8]
 80022b0:	3301      	adds	r3, #1
 80022b2:	2b10      	cmp	r3, #16
 80022b4:	d19c      	bne.n	80021f0 <HAL_GPIO_DeInit+0x14>
 80022b6:	e8bd 8ff0 	ldmia.w	sp!, {r4, r5, r6, r7, r8, r9, sl, fp, pc}
 80022ba:	2500      	movs	r5, #0
 80022bc:	e7c2      	b.n	8002244 <HAL_GPIO_DeInit+0x68>
 80022be:	2501      	movs	r5, #1
 80022c0:	e7c0      	b.n	8002244 <HAL_GPIO_DeInit+0x68>
 80022c2:	2502      	movs	r5, #2
 80022c4:	e7be      	b.n	8002244 <HAL_GPIO_DeInit+0x68>
 80022c6:	2503      	movs	r5, #3
 80022c8:	e7bc      	b.n	8002244 <HAL_GPIO_DeInit+0x68>
 80022ca:	bf00      	nop
 80022cc:	40013c00 	.word	0x40013c00
 80022d0:	40020000 	.word	0x40020000

080022d4 <HAL_GPIO_WritePin>:
 80022d4:	b10a      	cbz	r2, 80022da <HAL_GPIO_WritePin+0x6>
 80022d6:	6181      	str	r1, [r0, #24]
 80022d8:	4770      	bx	lr
 80022da:	0409      	lsls	r1, r1, #16
 80022dc:	e7fb      	b.n	80022d6 <HAL_GPIO_WritePin+0x2>

080022de <HAL_GPIO_TogglePin>:
 80022de:	6943      	ldr	r3, [r0, #20]
 80022e0:	ea01 0203 	and.w	r2, r1, r3
 80022e4:	ea21 0103 	bic.w	r1, r1, r3
 80022e8:	ea41 4102 	orr.w	r1, r1, r2, lsl #16
 80022ec:	6181      	str	r1, [r0, #24]
 80022ee:	4770      	bx	lr

080022f0 <HAL_GPIO_EXTI_Callback>:
 80022f0:	4770      	bx	lr
	...

080022f4 <HAL_GPIO_EXTI_IRQHandler>:
 80022f4:	4a04      	ldr	r2, [pc, #16]	; (8002308 <HAL_GPIO_EXTI_IRQHandler+0x14>)
 80022f6:	6951      	ldr	r1, [r2, #20]
 80022f8:	4201      	tst	r1, r0
 80022fa:	b508      	push	{r3, lr}
 80022fc:	d002      	beq.n	8002304 <HAL_GPIO_EXTI_IRQHandler+0x10>
 80022fe:	6150      	str	r0, [r2, #20]
 8002300:	f7ff fff6 	bl	80022f0 <HAL_GPIO_EXTI_Callback>
 8002304:	bd08      	pop	{r3, pc}
 8002306:	bf00      	nop
 8002308:	40013c00 	.word	0x40013c00

0800230c <HAL_HCD_HC_Init>:
 800230c:	e92d 43f0 	stmdb	sp!, {r4, r5, r6, r7, r8, r9, lr}
 8002310:	4605      	mov	r5, r0
 8002312:	b085      	sub	sp, #20
 8002314:	f895 42f8 	ldrb.w	r4, [r5, #760]	; 0x2f8
 8002318:	f89d e030 	ldrb.w	lr, [sp, #48]	; 0x30
 800231c:	f89d 8034 	ldrb.w	r8, [sp, #52]	; 0x34
 8002320:	f8bd 9038 	ldrh.w	r9, [sp, #56]	; 0x38
 8002324:	2c01      	cmp	r4, #1
 8002326:	d025      	beq.n	8002374 <HAL_HCD_HC_Init+0x68>
 8002328:	2401      	movs	r4, #1
 800232a:	f885 42f8 	strb.w	r4, [r5, #760]	; 0x2f8
 800232e:	242c      	movs	r4, #44	; 0x2c
 8002330:	fb04 5401 	mla	r4, r4, r1, r5
 8002334:	09d0      	lsrs	r0, r2, #7
 8002336:	2700      	movs	r7, #0
 8002338:	f002 067f 	and.w	r6, r2, #127	; 0x7f
 800233c:	f884 703d 	strb.w	r7, [r4, #61]	; 0x3d
 8002340:	f884 3038 	strb.w	r3, [r4, #56]	; 0x38
 8002344:	f884 1039 	strb.w	r1, [r4, #57]	; 0x39
 8002348:	f884 803f 	strb.w	r8, [r4, #63]	; 0x3f
 800234c:	f884 603a 	strb.w	r6, [r4, #58]	; 0x3a
 8002350:	f884 003b 	strb.w	r0, [r4, #59]	; 0x3b
 8002354:	f884 e03c 	strb.w	lr, [r4, #60]	; 0x3c
 8002358:	f8a4 9040 	strh.w	r9, [r4, #64]	; 0x40
 800235c:	6828      	ldr	r0, [r5, #0]
 800235e:	f8cd e000 	str.w	lr, [sp]
 8002362:	e9cd 8901 	strd	r8, r9, [sp, #4]
 8002366:	f002 fc6b 	bl	8004c40 <USB_HC_Init>
 800236a:	f885 72f8 	strb.w	r7, [r5, #760]	; 0x2f8
 800236e:	b005      	add	sp, #20
 8002370:	e8bd 83f0 	ldmia.w	sp!, {r4, r5, r6, r7, r8, r9, pc}
 8002374:	2002      	movs	r0, #2
 8002376:	e7fa      	b.n	800236e <HAL_HCD_HC_Init+0x62>

08002378 <HAL_HCD_HC_Halt>:
 8002378:	b510      	push	{r4, lr}
 800237a:	f890 32f8 	ldrb.w	r3, [r0, #760]	; 0x2f8
 800237e:	2b01      	cmp	r3, #1
 8002380:	4604      	mov	r4, r0
 8002382:	d009      	beq.n	8002398 <HAL_HCD_HC_Halt+0x20>
 8002384:	2301      	movs	r3, #1
 8002386:	f880 32f8 	strb.w	r3, [r0, #760]	; 0x2f8
 800238a:	6800      	ldr	r0, [r0, #0]
 800238c:	f002 fcd7 	bl	8004d3e <USB_HC_Halt>
 8002390:	2000      	movs	r0, #0
 8002392:	f884 02f8 	strb.w	r0, [r4, #760]	; 0x2f8
 8002396:	bd10      	pop	{r4, pc}
 8002398:	2002      	movs	r0, #2
 800239a:	e7fc      	b.n	8002396 <HAL_HCD_HC_Halt+0x1e>

0800239c <HAL_HCD_Init>:
 800239c:	e92d 41f0 	stmdb	sp!, {r4, r5, r6, r7, r8, lr}
 80023a0:	4605      	mov	r5, r0
 80023a2:	b08a      	sub	sp, #40	; 0x28
 80023a4:	2800      	cmp	r0, #0
 80023a6:	d041      	beq.n	800242c <HAL_HCD_Init+0x90>
 80023a8:	f890 32f9 	ldrb.w	r3, [r0, #761]	; 0x2f9
 80023ac:	6804      	ldr	r4, [r0, #0]
 80023ae:	f003 02ff 	and.w	r2, r3, #255	; 0xff
 80023b2:	b91b      	cbnz	r3, 80023bc <HAL_HCD_Init+0x20>
 80023b4:	f880 22f8 	strb.w	r2, [r0, #760]	; 0x2f8
 80023b8:	f003 fd34 	bl	8005e24 <HAL_HCD_MspInit>
 80023bc:	2303      	movs	r3, #3
 80023be:	f885 32f9 	strb.w	r3, [r5, #761]	; 0x2f9
 80023c2:	6be3      	ldr	r3, [r4, #60]	; 0x3c
 80023c4:	462c      	mov	r4, r5
 80023c6:	f413 7380 	ands.w	r3, r3, #256	; 0x100
 80023ca:	f854 0b10 	ldr.w	r0, [r4], #16
 80023ce:	bf08      	it	eq
 80023d0:	612b      	streq	r3, [r5, #16]
 80023d2:	f002 fac3 	bl	800495c <USB_DisableGlobalInt>
 80023d6:	cc0f      	ldmia	r4!, {r0, r1, r2, r3}
 80023d8:	466e      	mov	r6, sp
 80023da:	c60f      	stmia	r6!, {r0, r1, r2, r3}
 80023dc:	cc0f      	ldmia	r4!, {r0, r1, r2, r3}
 80023de:	c60f      	stmia	r6!, {r0, r1, r2, r3}
 80023e0:	e894 0003 	ldmia.w	r4, {r0, r1}
 80023e4:	e886 0003 	stmia.w	r6, {r0, r1}
 80023e8:	f105 0804 	add.w	r8, r5, #4
 80023ec:	462f      	mov	r7, r5
 80023ee:	e898 000e 	ldmia.w	r8, {r1, r2, r3}
 80023f2:	6828      	ldr	r0, [r5, #0]
 80023f4:	f002 fa6c 	bl	80048d0 <USB_CoreInit>
 80023f8:	f857 0b10 	ldr.w	r0, [r7], #16
 80023fc:	2101      	movs	r1, #1
 80023fe:	f002 fab3 	bl	8004968 <USB_SetCurrentMode>
 8002402:	cf0f      	ldmia	r7!, {r0, r1, r2, r3}
 8002404:	466e      	mov	r6, sp
 8002406:	c60f      	stmia	r6!, {r0, r1, r2, r3}
 8002408:	cf0f      	ldmia	r7!, {r0, r1, r2, r3}
 800240a:	c60f      	stmia	r6!, {r0, r1, r2, r3}
 800240c:	e894 0003 	ldmia.w	r4, {r0, r1}
 8002410:	e886 0003 	stmia.w	r6, {r0, r1}
 8002414:	e898 000e 	ldmia.w	r8, {r1, r2, r3}
 8002418:	6828      	ldr	r0, [r5, #0]
 800241a:	f002 fb41 	bl	8004aa0 <USB_HostInit>
 800241e:	2301      	movs	r3, #1
 8002420:	f885 32f9 	strb.w	r3, [r5, #761]	; 0x2f9
 8002424:	2000      	movs	r0, #0
 8002426:	b00a      	add	sp, #40	; 0x28
 8002428:	e8bd 81f0 	ldmia.w	sp!, {r4, r5, r6, r7, r8, pc}
 800242c:	2001      	movs	r0, #1
 800242e:	e7fa      	b.n	8002426 <HAL_HCD_Init+0x8a>

08002430 <HAL_HCD_HC_SubmitRequest>:
 8002430:	b4f0      	push	{r4, r5, r6, r7}
 8002432:	262c      	movs	r6, #44	; 0x2c
 8002434:	fb06 0601 	mla	r6, r6, r1, r0
 8002438:	f89d 7010 	ldrb.w	r7, [sp, #16]
 800243c:	9d05      	ldr	r5, [sp, #20]
 800243e:	f8bd 4018 	ldrh.w	r4, [sp, #24]
 8002442:	f89d c01c 	ldrb.w	ip, [sp, #28]
 8002446:	f886 203b 	strb.w	r2, [r6, #59]	; 0x3b
 800244a:	f886 303f 	strb.w	r3, [r6, #63]	; 0x3f
 800244e:	b97f      	cbnz	r7, 8002470 <HAL_HCD_HC_SubmitRequest+0x40>
 8002450:	2703      	movs	r7, #3
 8002452:	2b02      	cmp	r3, #2
 8002454:	f886 7042 	strb.w	r7, [r6, #66]	; 0x42
 8002458:	f886 c03d 	strb.w	ip, [r6, #61]	; 0x3d
 800245c:	d042      	beq.n	80024e4 <HAL_HCD_HC_SubmitRequest+0xb4>
 800245e:	42bb      	cmp	r3, r7
 8002460:	d040      	beq.n	80024e4 <HAL_HCD_HC_SubmitRequest+0xb4>
 8002462:	2b01      	cmp	r3, #1
 8002464:	d12a      	bne.n	80024bc <HAL_HCD_HC_SubmitRequest+0x8c>
 8002466:	232c      	movs	r3, #44	; 0x2c
 8002468:	fb03 0301 	mla	r3, r3, r1, r0
 800246c:	2200      	movs	r2, #0
 800246e:	e023      	b.n	80024b8 <HAL_HCD_HC_SubmitRequest+0x88>
 8002470:	f04f 0c02 	mov.w	ip, #2
 8002474:	f886 c042 	strb.w	ip, [r6, #66]	; 0x42
 8002478:	2b03      	cmp	r3, #3
 800247a:	d81f      	bhi.n	80024bc <HAL_HCD_HC_SubmitRequest+0x8c>
 800247c:	a601      	add	r6, pc, #4	; (adr r6, 8002484 <HAL_HCD_HC_SubmitRequest+0x54>)
 800247e:	f856 f023 	ldr.w	pc, [r6, r3, lsl #2]
 8002482:	bf00      	nop
 8002484:	08002495 	.word	0x08002495
 8002488:	08002467 	.word	0x08002467
 800248c:	080024e5 	.word	0x080024e5
 8002490:	080024e5 	.word	0x080024e5
 8002494:	2f01      	cmp	r7, #1
 8002496:	d111      	bne.n	80024bc <HAL_HCD_HC_SubmitRequest+0x8c>
 8002498:	b982      	cbnz	r2, 80024bc <HAL_HCD_HC_SubmitRequest+0x8c>
 800249a:	232c      	movs	r3, #44	; 0x2c
 800249c:	fb03 0301 	mla	r3, r3, r1, r0
 80024a0:	b934      	cbnz	r4, 80024b0 <HAL_HCD_HC_SubmitRequest+0x80>
 80024a2:	f883 7055 	strb.w	r7, [r3, #85]	; 0x55
 80024a6:	232c      	movs	r3, #44	; 0x2c
 80024a8:	fb03 0301 	mla	r3, r3, r1, r0
 80024ac:	2202      	movs	r2, #2
 80024ae:	e003      	b.n	80024b8 <HAL_HCD_HC_SubmitRequest+0x88>
 80024b0:	f893 6055 	ldrb.w	r6, [r3, #85]	; 0x55
 80024b4:	2e00      	cmp	r6, #0
 80024b6:	d1f6      	bne.n	80024a6 <HAL_HCD_HC_SubmitRequest+0x76>
 80024b8:	f883 2042 	strb.w	r2, [r3, #66]	; 0x42
 80024bc:	262c      	movs	r6, #44	; 0x2c
 80024be:	fb06 0301 	mla	r3, r6, r1, r0
 80024c2:	2200      	movs	r2, #0
 80024c4:	f883 1039 	strb.w	r1, [r3, #57]	; 0x39
 80024c8:	f883 2060 	strb.w	r2, [r3, #96]	; 0x60
 80024cc:	f883 2061 	strb.w	r2, [r3, #97]	; 0x61
 80024d0:	4619      	mov	r1, r3
 80024d2:	645d      	str	r5, [r3, #68]	; 0x44
 80024d4:	64dc      	str	r4, [r3, #76]	; 0x4c
 80024d6:	651a      	str	r2, [r3, #80]	; 0x50
 80024d8:	bcf0      	pop	{r4, r5, r6, r7}
 80024da:	7c02      	ldrb	r2, [r0, #16]
 80024dc:	6800      	ldr	r0, [r0, #0]
 80024de:	3138      	adds	r1, #56	; 0x38
 80024e0:	f002 bc9e 	b.w	8004e20 <USB_HC_StartXfer>
 80024e4:	232c      	movs	r3, #44	; 0x2c
 80024e6:	fb03 0301 	mla	r3, r3, r1, r0
 80024ea:	b922      	cbnz	r2, 80024f6 <HAL_HCD_HC_SubmitRequest+0xc6>
 80024ec:	f893 6055 	ldrb.w	r6, [r3, #85]	; 0x55
 80024f0:	2e00      	cmp	r6, #0
 80024f2:	d1db      	bne.n	80024ac <HAL_HCD_HC_SubmitRequest+0x7c>
 80024f4:	e7e0      	b.n	80024b8 <HAL_HCD_HC_SubmitRequest+0x88>
 80024f6:	f893 2054 	ldrb.w	r2, [r3, #84]	; 0x54
 80024fa:	2a00      	cmp	r2, #0
 80024fc:	d1d6      	bne.n	80024ac <HAL_HCD_HC_SubmitRequest+0x7c>
 80024fe:	e7db      	b.n	80024b8 <HAL_HCD_HC_SubmitRequest+0x88>

08002500 <HAL_HCD_IRQHandler>:
 8002500:	e92d 4ff0 	stmdb	sp!, {r4, r5, r6, r7, r8, r9, sl, fp, lr}
 8002504:	f8d0 9000 	ldr.w	r9, [r0]
 8002508:	b085      	sub	sp, #20
 800250a:	4605      	mov	r5, r0
 800250c:	4648      	mov	r0, r9
 800250e:	f002 fac3 	bl	8004a98 <USB_GetMode>
 8002512:	2801      	cmp	r0, #1
 8002514:	f040 80f6 	bne.w	8002704 <HAL_HCD_IRQHandler+0x204>
 8002518:	6828      	ldr	r0, [r5, #0]
 800251a:	f002 fab9 	bl	8004a90 <USB_ReadInterrupts>
 800251e:	2800      	cmp	r0, #0
 8002520:	f000 80f0 	beq.w	8002704 <HAL_HCD_IRQHandler+0x204>
 8002524:	6828      	ldr	r0, [r5, #0]
 8002526:	f002 fab3 	bl	8004a90 <USB_ReadInterrupts>
 800252a:	0281      	lsls	r1, r0, #10
 800252c:	bf48      	it	mi
 800252e:	682b      	ldrmi	r3, [r5, #0]
 8002530:	6828      	ldr	r0, [r5, #0]
 8002532:	bf44      	itt	mi
 8002534:	f44f 1200 	movmi.w	r2, #2097152	; 0x200000
 8002538:	615a      	strmi	r2, [r3, #20]
 800253a:	f002 faa9 	bl	8004a90 <USB_ReadInterrupts>
 800253e:	02c2      	lsls	r2, r0, #11
 8002540:	bf48      	it	mi
 8002542:	682b      	ldrmi	r3, [r5, #0]
 8002544:	6828      	ldr	r0, [r5, #0]
 8002546:	bf44      	itt	mi
 8002548:	f44f 1280 	movmi.w	r2, #1048576	; 0x100000
 800254c:	615a      	strmi	r2, [r3, #20]
 800254e:	f002 fa9f 	bl	8004a90 <USB_ReadInterrupts>
 8002552:	0143      	lsls	r3, r0, #5
 8002554:	bf48      	it	mi
 8002556:	682b      	ldrmi	r3, [r5, #0]
 8002558:	6828      	ldr	r0, [r5, #0]
 800255a:	bf44      	itt	mi
 800255c:	f04f 6280 	movmi.w	r2, #67108864	; 0x4000000
 8002560:	615a      	strmi	r2, [r3, #20]
 8002562:	f002 fa95 	bl	8004a90 <USB_ReadInterrupts>
 8002566:	0787      	lsls	r7, r0, #30
 8002568:	bf48      	it	mi
 800256a:	682b      	ldrmi	r3, [r5, #0]
 800256c:	6828      	ldr	r0, [r5, #0]
 800256e:	bf44      	itt	mi
 8002570:	2202      	movmi	r2, #2
 8002572:	615a      	strmi	r2, [r3, #20]
 8002574:	f002 fa8c 	bl	8004a90 <USB_ReadInterrupts>
 8002578:	0086      	lsls	r6, r0, #2
 800257a:	d515      	bpl.n	80025a8 <HAL_HCD_IRQHandler+0xa8>
 800257c:	682b      	ldr	r3, [r5, #0]
 800257e:	f04f 5200 	mov.w	r2, #536870912	; 0x20000000
 8002582:	615a      	str	r2, [r3, #20]
 8002584:	f8d9 3440 	ldr.w	r3, [r9, #1088]	; 0x440
 8002588:	07dc      	lsls	r4, r3, #31
 800258a:	d40d      	bmi.n	80025a8 <HAL_HCD_IRQHandler+0xa8>
 800258c:	2110      	movs	r1, #16
 800258e:	4648      	mov	r0, r9
 8002590:	f002 fa1a 	bl	80049c8 <USB_FlushTxFifo>
 8002594:	4648      	mov	r0, r9
 8002596:	f002 fa2f 	bl	80049f8 <USB_FlushRxFifo>
 800259a:	6828      	ldr	r0, [r5, #0]
 800259c:	2101      	movs	r1, #1
 800259e:	f002 fae5 	bl	8004b6c <USB_InitFSLSPClkSel>
 80025a2:	4628      	mov	r0, r5
 80025a4:	f003 fc92 	bl	8005ecc <HAL_HCD_Disconnect_Callback>
 80025a8:	6828      	ldr	r0, [r5, #0]
 80025aa:	f002 fa71 	bl	8004a90 <USB_ReadInterrupts>
 80025ae:	01c0      	lsls	r0, r0, #7
 80025b0:	d53d      	bpl.n	800262e <HAL_HCD_IRQHandler+0x12e>
 80025b2:	682c      	ldr	r4, [r5, #0]
 80025b4:	f8d4 3440 	ldr.w	r3, [r4, #1088]	; 0x440
 80025b8:	9302      	str	r3, [sp, #8]
 80025ba:	f8d4 3440 	ldr.w	r3, [r4, #1088]	; 0x440
 80025be:	9303      	str	r3, [sp, #12]
 80025c0:	9b03      	ldr	r3, [sp, #12]
 80025c2:	f023 032e 	bic.w	r3, r3, #46	; 0x2e
 80025c6:	9303      	str	r3, [sp, #12]
 80025c8:	9b02      	ldr	r3, [sp, #8]
 80025ca:	0799      	lsls	r1, r3, #30
 80025cc:	d509      	bpl.n	80025e2 <HAL_HCD_IRQHandler+0xe2>
 80025ce:	9b02      	ldr	r3, [sp, #8]
 80025d0:	07da      	lsls	r2, r3, #31
 80025d2:	d502      	bpl.n	80025da <HAL_HCD_IRQHandler+0xda>
 80025d4:	4628      	mov	r0, r5
 80025d6:	f003 fc75 	bl	8005ec4 <HAL_HCD_Connect_Callback>
 80025da:	9b03      	ldr	r3, [sp, #12]
 80025dc:	f043 0302 	orr.w	r3, r3, #2
 80025e0:	9303      	str	r3, [sp, #12]
 80025e2:	9b02      	ldr	r3, [sp, #8]
 80025e4:	071b      	lsls	r3, r3, #28
 80025e6:	d518      	bpl.n	800261a <HAL_HCD_IRQHandler+0x11a>
 80025e8:	9b03      	ldr	r3, [sp, #12]
 80025ea:	f043 0308 	orr.w	r3, r3, #8
 80025ee:	9303      	str	r3, [sp, #12]
 80025f0:	9b02      	ldr	r3, [sp, #8]
 80025f2:	075f      	lsls	r7, r3, #29
 80025f4:	f140 8091 	bpl.w	800271a <HAL_HCD_IRQHandler+0x21a>
 80025f8:	69a9      	ldr	r1, [r5, #24]
 80025fa:	2902      	cmp	r1, #2
 80025fc:	f040 8085 	bne.w	800270a <HAL_HCD_IRQHandler+0x20a>
 8002600:	9b02      	ldr	r3, [sp, #8]
 8002602:	6828      	ldr	r0, [r5, #0]
 8002604:	f403 23c0 	and.w	r3, r3, #393216	; 0x60000
 8002608:	f5b3 2f80 	cmp.w	r3, #262144	; 0x40000
 800260c:	bf18      	it	ne
 800260e:	2101      	movne	r1, #1
 8002610:	f002 faac 	bl	8004b6c <USB_InitFSLSPClkSel>
 8002614:	4628      	mov	r0, r5
 8002616:	f003 fc5e 	bl	8005ed6 <HAL_HCD_PortEnabled_Callback>
 800261a:	9b02      	ldr	r3, [sp, #8]
 800261c:	069e      	lsls	r6, r3, #26
 800261e:	bf42      	ittt	mi
 8002620:	9b03      	ldrmi	r3, [sp, #12]
 8002622:	f043 0320 	orrmi.w	r3, r3, #32
 8002626:	9303      	strmi	r3, [sp, #12]
 8002628:	9b03      	ldr	r3, [sp, #12]
 800262a:	f8c4 3440 	str.w	r3, [r4, #1088]	; 0x440
 800262e:	6828      	ldr	r0, [r5, #0]
 8002630:	f002 fa2e 	bl	8004a90 <USB_ReadInterrupts>
 8002634:	0704      	lsls	r4, r0, #28
 8002636:	d505      	bpl.n	8002644 <HAL_HCD_IRQHandler+0x144>
 8002638:	4628      	mov	r0, r5
 800263a:	f003 fc3f 	bl	8005ebc <HAL_HCD_SOF_Callback>
 800263e:	682b      	ldr	r3, [r5, #0]
 8002640:	2208      	movs	r2, #8
 8002642:	615a      	str	r2, [r3, #20]
 8002644:	6828      	ldr	r0, [r5, #0]
 8002646:	f002 fa23 	bl	8004a90 <USB_ReadInterrupts>
 800264a:	06c0      	lsls	r0, r0, #27
 800264c:	d542      	bpl.n	80026d4 <HAL_HCD_IRQHandler+0x1d4>
 800264e:	682e      	ldr	r6, [r5, #0]
 8002650:	69b3      	ldr	r3, [r6, #24]
 8002652:	f023 0310 	bic.w	r3, r3, #16
 8002656:	61b3      	str	r3, [r6, #24]
 8002658:	6a37      	ldr	r7, [r6, #32]
 800265a:	f3c7 4343 	ubfx	r3, r7, #17, #4
 800265e:	2b02      	cmp	r3, #2
 8002660:	d133      	bne.n	80026ca <HAL_HCD_IRQHandler+0x1ca>
 8002662:	f3c7 180a 	ubfx	r8, r7, #4, #11
 8002666:	f1b8 0f00 	cmp.w	r8, #0
 800266a:	d02e      	beq.n	80026ca <HAL_HCD_IRQHandler+0x1ca>
 800266c:	f007 070f 	and.w	r7, r7, #15
 8002670:	242c      	movs	r4, #44	; 0x2c
 8002672:	fb04 5407 	mla	r4, r4, r7, r5
 8002676:	6c61      	ldr	r1, [r4, #68]	; 0x44
 8002678:	b339      	cbz	r1, 80026ca <HAL_HCD_IRQHandler+0x1ca>
 800267a:	6d23      	ldr	r3, [r4, #80]	; 0x50
 800267c:	6ce2      	ldr	r2, [r4, #76]	; 0x4c
 800267e:	4443      	add	r3, r8
 8002680:	4293      	cmp	r3, r2
 8002682:	d84e      	bhi.n	8002722 <HAL_HCD_IRQHandler+0x222>
 8002684:	4642      	mov	r2, r8
 8002686:	4630      	mov	r0, r6
 8002688:	f002 f9df 	bl	8004a4a <USB_ReadPacket>
 800268c:	6c63      	ldr	r3, [r4, #68]	; 0x44
 800268e:	f8b4 1040 	ldrh.w	r1, [r4, #64]	; 0x40
 8002692:	4443      	add	r3, r8
 8002694:	6463      	str	r3, [r4, #68]	; 0x44
 8002696:	f506 66a0 	add.w	r6, r6, #1280	; 0x500
 800269a:	6d23      	ldr	r3, [r4, #80]	; 0x50
 800269c:	017a      	lsls	r2, r7, #5
 800269e:	eb06 1747 	add.w	r7, r6, r7, lsl #5
 80026a2:	4443      	add	r3, r8
 80026a4:	4588      	cmp	r8, r1
 80026a6:	6523      	str	r3, [r4, #80]	; 0x50
 80026a8:	693b      	ldr	r3, [r7, #16]
 80026aa:	d10e      	bne.n	80026ca <HAL_HCD_IRQHandler+0x1ca>
 80026ac:	f3c3 43c9 	ubfx	r3, r3, #19, #10
 80026b0:	b15b      	cbz	r3, 80026ca <HAL_HCD_IRQHandler+0x1ca>
 80026b2:	5993      	ldr	r3, [r2, r6]
 80026b4:	f023 4380 	bic.w	r3, r3, #1073741824	; 0x40000000
 80026b8:	f043 4300 	orr.w	r3, r3, #2147483648	; 0x80000000
 80026bc:	5193      	str	r3, [r2, r6]
 80026be:	f894 3054 	ldrb.w	r3, [r4, #84]	; 0x54
 80026c2:	f083 0301 	eor.w	r3, r3, #1
 80026c6:	f884 3054 	strb.w	r3, [r4, #84]	; 0x54
 80026ca:	682a      	ldr	r2, [r5, #0]
 80026cc:	6993      	ldr	r3, [r2, #24]
 80026ce:	f043 0310 	orr.w	r3, r3, #16
 80026d2:	6193      	str	r3, [r2, #24]
 80026d4:	6828      	ldr	r0, [r5, #0]
 80026d6:	f002 f9db 	bl	8004a90 <USB_ReadInterrupts>
 80026da:	0181      	lsls	r1, r0, #6
 80026dc:	d512      	bpl.n	8002704 <HAL_HCD_IRQHandler+0x204>
 80026de:	6828      	ldr	r0, [r5, #0]
 80026e0:	f002 fb28 	bl	8004d34 <USB_HC_ReadInterrupt>
 80026e4:	f509 63a0 	add.w	r3, r9, #1280	; 0x500
 80026e8:	9000      	str	r0, [sp, #0]
 80026ea:	f04f 0a00 	mov.w	sl, #0
 80026ee:	9301      	str	r3, [sp, #4]
 80026f0:	272c      	movs	r7, #44	; 0x2c
 80026f2:	f04f 0802 	mov.w	r8, #2
 80026f6:	68ab      	ldr	r3, [r5, #8]
 80026f8:	6828      	ldr	r0, [r5, #0]
 80026fa:	4553      	cmp	r3, sl
 80026fc:	d815      	bhi.n	800272a <HAL_HCD_IRQHandler+0x22a>
 80026fe:	f04f 7300 	mov.w	r3, #33554432	; 0x2000000
 8002702:	6143      	str	r3, [r0, #20]
 8002704:	b005      	add	sp, #20
 8002706:	e8bd 8ff0 	ldmia.w	sp!, {r4, r5, r6, r7, r8, r9, sl, fp, pc}
 800270a:	68eb      	ldr	r3, [r5, #12]
 800270c:	2b01      	cmp	r3, #1
 800270e:	bf04      	itt	eq
 8002710:	f64e 2260 	movweq	r2, #60000	; 0xea60
 8002714:	f8c4 2404 	streq.w	r2, [r4, #1028]	; 0x404
 8002718:	e77c      	b.n	8002614 <HAL_HCD_IRQHandler+0x114>
 800271a:	4628      	mov	r0, r5
 800271c:	f003 fbdf 	bl	8005ede <HAL_HCD_PortDisabled_Callback>
 8002720:	e77b      	b.n	800261a <HAL_HCD_IRQHandler+0x11a>
 8002722:	2304      	movs	r3, #4
 8002724:	f884 3060 	strb.w	r3, [r4, #96]	; 0x60
 8002728:	e7cf      	b.n	80026ca <HAL_HCD_IRQHandler+0x1ca>
 800272a:	9a00      	ldr	r2, [sp, #0]
 800272c:	f00a 030f 	and.w	r3, sl, #15
 8002730:	fa22 f303 	lsr.w	r3, r2, r3
 8002734:	07da      	lsls	r2, r3, #31
 8002736:	f140 80af 	bpl.w	8002898 <HAL_HCD_IRQHandler+0x398>
 800273a:	9a01      	ldr	r2, [sp, #4]
 800273c:	ea4f 134a 	mov.w	r3, sl, lsl #5
 8002740:	fa5f f68a 	uxtb.w	r6, sl
 8002744:	58d1      	ldr	r1, [r2, r3]
 8002746:	f500 6ba0 	add.w	fp, r0, #1280	; 0x500
 800274a:	eb0b 1446 	add.w	r4, fp, r6, lsl #5
 800274e:	f411 4f00 	tst.w	r1, #32768	; 0x8000
 8002752:	ea4f 1946 	mov.w	r9, r6, lsl #5
 8002756:	68a1      	ldr	r1, [r4, #8]
 8002758:	f000 811c 	beq.w	8002994 <HAL_HCD_IRQHandler+0x494>
 800275c:	074b      	lsls	r3, r1, #29
 800275e:	d513      	bpl.n	8002788 <HAL_HCD_IRQHandler+0x288>
 8002760:	2104      	movs	r1, #4
 8002762:	60a1      	str	r1, [r4, #8]
 8002764:	68e1      	ldr	r1, [r4, #12]
 8002766:	f041 0102 	orr.w	r1, r1, #2
 800276a:	60e1      	str	r1, [r4, #12]
 800276c:	68a1      	ldr	r1, [r4, #8]
 800276e:	058b      	lsls	r3, r1, #22
 8002770:	d55a      	bpl.n	8002828 <HAL_HCD_IRQHandler+0x328>
 8002772:	68e3      	ldr	r3, [r4, #12]
 8002774:	6828      	ldr	r0, [r5, #0]
 8002776:	f043 0302 	orr.w	r3, r3, #2
 800277a:	60e3      	str	r3, [r4, #12]
 800277c:	4631      	mov	r1, r6
 800277e:	f002 fade 	bl	8004d3e <USB_HC_Halt>
 8002782:	f44f 7300 	mov.w	r3, #512	; 0x200
 8002786:	e0f8      	b.n	800297a <HAL_HCD_IRQHandler+0x47a>
 8002788:	68a1      	ldr	r1, [r4, #8]
 800278a:	05c9      	lsls	r1, r1, #23
 800278c:	d510      	bpl.n	80027b0 <HAL_HCD_IRQHandler+0x2b0>
 800278e:	f44f 7180 	mov.w	r1, #256	; 0x100
 8002792:	60a1      	str	r1, [r4, #8]
 8002794:	fb07 5106 	mla	r1, r7, r6, r5
 8002798:	f04f 0c07 	mov.w	ip, #7
 800279c:	f881 c061 	strb.w	ip, [r1, #97]	; 0x61
 80027a0:	68e1      	ldr	r1, [r4, #12]
 80027a2:	f041 0102 	orr.w	r1, r1, #2
 80027a6:	60e1      	str	r1, [r4, #12]
 80027a8:	4631      	mov	r1, r6
 80027aa:	f002 fac8 	bl	8004d3e <USB_HC_Halt>
 80027ae:	e7dd      	b.n	800276c <HAL_HCD_IRQHandler+0x26c>
 80027b0:	68a1      	ldr	r1, [r4, #8]
 80027b2:	068a      	lsls	r2, r1, #26
 80027b4:	d502      	bpl.n	80027bc <HAL_HCD_IRQHandler+0x2bc>
 80027b6:	2120      	movs	r1, #32
 80027b8:	60a1      	str	r1, [r4, #8]
 80027ba:	e7d7      	b.n	800276c <HAL_HCD_IRQHandler+0x26c>
 80027bc:	68a1      	ldr	r1, [r4, #8]
 80027be:	070b      	lsls	r3, r1, #28
 80027c0:	d50e      	bpl.n	80027e0 <HAL_HCD_IRQHandler+0x2e0>
 80027c2:	68e1      	ldr	r1, [r4, #12]
 80027c4:	f041 0102 	orr.w	r1, r1, #2
 80027c8:	60e1      	str	r1, [r4, #12]
 80027ca:	fb07 5106 	mla	r1, r7, r6, r5
 80027ce:	f04f 0c05 	mov.w	ip, #5
 80027d2:	f881 c061 	strb.w	ip, [r1, #97]	; 0x61
 80027d6:	2110      	movs	r1, #16
 80027d8:	60a1      	str	r1, [r4, #8]
 80027da:	2108      	movs	r1, #8
 80027dc:	60a1      	str	r1, [r4, #8]
 80027de:	e7e3      	b.n	80027a8 <HAL_HCD_IRQHandler+0x2a8>
 80027e0:	68a1      	ldr	r1, [r4, #8]
 80027e2:	0549      	lsls	r1, r1, #21
 80027e4:	d50e      	bpl.n	8002804 <HAL_HCD_IRQHandler+0x304>
 80027e6:	68e1      	ldr	r1, [r4, #12]
 80027e8:	f041 0102 	orr.w	r1, r1, #2
 80027ec:	60e1      	str	r1, [r4, #12]
 80027ee:	fb07 5106 	mla	r1, r7, r6, r5
 80027f2:	f04f 0c08 	mov.w	ip, #8
 80027f6:	f881 c061 	strb.w	ip, [r1, #97]	; 0x61
 80027fa:	2110      	movs	r1, #16
 80027fc:	60a1      	str	r1, [r4, #8]
 80027fe:	f44f 6180 	mov.w	r1, #1024	; 0x400
 8002802:	e7eb      	b.n	80027dc <HAL_HCD_IRQHandler+0x2dc>
 8002804:	68a1      	ldr	r1, [r4, #8]
 8002806:	060a      	lsls	r2, r1, #24
 8002808:	d5b0      	bpl.n	800276c <HAL_HCD_IRQHandler+0x26c>
 800280a:	68e1      	ldr	r1, [r4, #12]
 800280c:	f041 0102 	orr.w	r1, r1, #2
 8002810:	60e1      	str	r1, [r4, #12]
 8002812:	fb07 5106 	mla	r1, r7, r6, r5
 8002816:	f04f 0c06 	mov.w	ip, #6
 800281a:	f881 c061 	strb.w	ip, [r1, #97]	; 0x61
 800281e:	4631      	mov	r1, r6
 8002820:	f002 fa8d 	bl	8004d3e <USB_HC_Halt>
 8002824:	2180      	movs	r1, #128	; 0x80
 8002826:	e7c7      	b.n	80027b8 <HAL_HCD_IRQHandler+0x2b8>
 8002828:	68a1      	ldr	r1, [r4, #8]
 800282a:	07c8      	lsls	r0, r1, #31
 800282c:	d552      	bpl.n	80028d4 <HAL_HCD_IRQHandler+0x3d4>
 800282e:	6929      	ldr	r1, [r5, #16]
 8002830:	b149      	cbz	r1, 8002846 <HAL_HCD_IRQHandler+0x346>
 8002832:	fb07 5c06 	mla	ip, r7, r6, r5
 8002836:	6920      	ldr	r0, [r4, #16]
 8002838:	f8dc 1048 	ldr.w	r1, [ip, #72]	; 0x48
 800283c:	f3c0 0012 	ubfx	r0, r0, #0, #19
 8002840:	1a09      	subs	r1, r1, r0
 8002842:	f8cc 1050 	str.w	r1, [ip, #80]	; 0x50
 8002846:	fb07 5106 	mla	r1, r7, r6, r5
 800284a:	2301      	movs	r3, #1
 800284c:	2000      	movs	r0, #0
 800284e:	f881 3061 	strb.w	r3, [r1, #97]	; 0x61
 8002852:	65c8      	str	r0, [r1, #92]	; 0x5c
 8002854:	60a3      	str	r3, [r4, #8]
 8002856:	f891 203f 	ldrb.w	r2, [r1, #63]	; 0x3f
 800285a:	f012 0ffd 	tst.w	r2, #253	; 0xfd
 800285e:	d11e      	bne.n	800289e <HAL_HCD_IRQHandler+0x39e>
 8002860:	68e3      	ldr	r3, [r4, #12]
 8002862:	6828      	ldr	r0, [r5, #0]
 8002864:	f043 0302 	orr.w	r3, r3, #2
 8002868:	60e3      	str	r3, [r4, #12]
 800286a:	4631      	mov	r1, r6
 800286c:	f002 fa67 	bl	8004d3e <USB_HC_Halt>
 8002870:	2310      	movs	r3, #16
 8002872:	60a3      	str	r3, [r4, #8]
 8002874:	692b      	ldr	r3, [r5, #16]
 8002876:	2b01      	cmp	r3, #1
 8002878:	fb07 5606 	mla	r6, r7, r6, r5
 800287c:	d106      	bne.n	800288c <HAL_HCD_IRQHandler+0x38c>
 800287e:	f8b6 2040 	ldrh.w	r2, [r6, #64]	; 0x40
 8002882:	6cb3      	ldr	r3, [r6, #72]	; 0x48
 8002884:	fbb3 f3f2 	udiv	r3, r3, r2
 8002888:	07d9      	lsls	r1, r3, #31
 800288a:	d505      	bpl.n	8002898 <HAL_HCD_IRQHandler+0x398>
 800288c:	f896 3054 	ldrb.w	r3, [r6, #84]	; 0x54
 8002890:	f083 0301 	eor.w	r3, r3, #1
 8002894:	f886 3054 	strb.w	r3, [r6, #84]	; 0x54
 8002898:	f10a 0a01 	add.w	sl, sl, #1
 800289c:	e72b      	b.n	80026f6 <HAL_HCD_IRQHandler+0x1f6>
 800289e:	2a03      	cmp	r2, #3
 80028a0:	d10d      	bne.n	80028be <HAL_HCD_IRQHandler+0x3be>
 80028a2:	f859 000b 	ldr.w	r0, [r9, fp]
 80028a6:	f040 5000 	orr.w	r0, r0, #536870912	; 0x20000000
 80028aa:	f849 000b 	str.w	r0, [r9, fp]
 80028ae:	461a      	mov	r2, r3
 80028b0:	f881 3060 	strb.w	r3, [r1, #96]	; 0x60
 80028b4:	4631      	mov	r1, r6
 80028b6:	4628      	mov	r0, r5
 80028b8:	f003 fb0c 	bl	8005ed4 <HAL_HCD_HC_NotifyURBChange_Callback>
 80028bc:	e7da      	b.n	8002874 <HAL_HCD_IRQHandler+0x374>
 80028be:	2a01      	cmp	r2, #1
 80028c0:	d1d8      	bne.n	8002874 <HAL_HCD_IRQHandler+0x374>
 80028c2:	f891 3054 	ldrb.w	r3, [r1, #84]	; 0x54
 80028c6:	f881 2060 	strb.w	r2, [r1, #96]	; 0x60
 80028ca:	f083 0301 	eor.w	r3, r3, #1
 80028ce:	f881 3054 	strb.w	r3, [r1, #84]	; 0x54
 80028d2:	e7ef      	b.n	80028b4 <HAL_HCD_IRQHandler+0x3b4>
 80028d4:	68a1      	ldr	r1, [r4, #8]
 80028d6:	f011 0102 	ands.w	r1, r1, #2
 80028da:	d03b      	beq.n	8002954 <HAL_HCD_IRQHandler+0x454>
 80028dc:	68e1      	ldr	r1, [r4, #12]
 80028de:	fb07 5006 	mla	r0, r7, r6, r5
 80028e2:	f021 0102 	bic.w	r1, r1, #2
 80028e6:	60e1      	str	r1, [r4, #12]
 80028e8:	f890 1061 	ldrb.w	r1, [r0, #97]	; 0x61
 80028ec:	2901      	cmp	r1, #1
 80028ee:	d10c      	bne.n	800290a <HAL_HCD_IRQHandler+0x40a>
 80028f0:	f880 1060 	strb.w	r1, [r0, #96]	; 0x60
 80028f4:	fb07 5306 	mla	r3, r7, r6, r5
 80028f8:	f8c4 8008 	str.w	r8, [r4, #8]
 80028fc:	f893 2060 	ldrb.w	r2, [r3, #96]	; 0x60
 8002900:	4631      	mov	r1, r6
 8002902:	4628      	mov	r0, r5
 8002904:	f003 fae6 	bl	8005ed4 <HAL_HCD_HC_NotifyURBChange_Callback>
 8002908:	e7c6      	b.n	8002898 <HAL_HCD_IRQHandler+0x398>
 800290a:	2905      	cmp	r1, #5
 800290c:	d0f0      	beq.n	80028f0 <HAL_HCD_IRQHandler+0x3f0>
 800290e:	2906      	cmp	r1, #6
 8002910:	d001      	beq.n	8002916 <HAL_HCD_IRQHandler+0x416>
 8002912:	2908      	cmp	r1, #8
 8002914:	d108      	bne.n	8002928 <HAL_HCD_IRQHandler+0x428>
 8002916:	fb07 5006 	mla	r0, r7, r6, r5
 800291a:	6dc1      	ldr	r1, [r0, #92]	; 0x5c
 800291c:	3101      	adds	r1, #1
 800291e:	2902      	cmp	r1, #2
 8002920:	65c1      	str	r1, [r0, #92]	; 0x5c
 8002922:	d903      	bls.n	800292c <HAL_HCD_IRQHandler+0x42c>
 8002924:	2300      	movs	r3, #0
 8002926:	e010      	b.n	800294a <HAL_HCD_IRQHandler+0x44a>
 8002928:	2903      	cmp	r1, #3
 800292a:	d10a      	bne.n	8002942 <HAL_HCD_IRQHandler+0x442>
 800292c:	f880 8060 	strb.w	r8, [r0, #96]	; 0x60
 8002930:	f859 100b 	ldr.w	r1, [r9, fp]
 8002934:	f021 4180 	bic.w	r1, r1, #1073741824	; 0x40000000
 8002938:	f041 4100 	orr.w	r1, r1, #2147483648	; 0x80000000
 800293c:	f849 100b 	str.w	r1, [r9, fp]
 8002940:	e7d8      	b.n	80028f4 <HAL_HCD_IRQHandler+0x3f4>
 8002942:	2907      	cmp	r1, #7
 8002944:	d1d6      	bne.n	80028f4 <HAL_HCD_IRQHandler+0x3f4>
 8002946:	6dc3      	ldr	r3, [r0, #92]	; 0x5c
 8002948:	3301      	adds	r3, #1
 800294a:	65c3      	str	r3, [r0, #92]	; 0x5c
 800294c:	2304      	movs	r3, #4
 800294e:	f880 3060 	strb.w	r3, [r0, #96]	; 0x60
 8002952:	e7cf      	b.n	80028f4 <HAL_HCD_IRQHandler+0x3f4>
 8002954:	68a3      	ldr	r3, [r4, #8]
 8002956:	06da      	lsls	r2, r3, #27
 8002958:	d59e      	bpl.n	8002898 <HAL_HCD_IRQHandler+0x398>
 800295a:	fb07 5206 	mla	r2, r7, r6, r5
 800295e:	6828      	ldr	r0, [r5, #0]
 8002960:	f892 303f 	ldrb.w	r3, [r2, #63]	; 0x3f
 8002964:	2b03      	cmp	r3, #3
 8002966:	d10a      	bne.n	800297e <HAL_HCD_IRQHandler+0x47e>
 8002968:	65d1      	str	r1, [r2, #92]	; 0x5c
 800296a:	68e3      	ldr	r3, [r4, #12]
 800296c:	f043 0302 	orr.w	r3, r3, #2
 8002970:	60e3      	str	r3, [r4, #12]
 8002972:	4631      	mov	r1, r6
 8002974:	f002 f9e3 	bl	8004d3e <USB_HC_Halt>
 8002978:	2310      	movs	r3, #16
 800297a:	60a3      	str	r3, [r4, #8]
 800297c:	e78c      	b.n	8002898 <HAL_HCD_IRQHandler+0x398>
 800297e:	f013 03fd 	ands.w	r3, r3, #253	; 0xfd
 8002982:	d1f9      	bne.n	8002978 <HAL_HCD_IRQHandler+0x478>
 8002984:	65d3      	str	r3, [r2, #92]	; 0x5c
 8002986:	692b      	ldr	r3, [r5, #16]
 8002988:	2b00      	cmp	r3, #0
 800298a:	d1f5      	bne.n	8002978 <HAL_HCD_IRQHandler+0x478>
 800298c:	2303      	movs	r3, #3
 800298e:	f882 3061 	strb.w	r3, [r2, #97]	; 0x61
 8002992:	e7ea      	b.n	800296a <HAL_HCD_IRQHandler+0x46a>
 8002994:	f011 0104 	ands.w	r1, r1, #4
 8002998:	d006      	beq.n	80029a8 <HAL_HCD_IRQHandler+0x4a8>
 800299a:	2304      	movs	r3, #4
 800299c:	60a3      	str	r3, [r4, #8]
 800299e:	68e3      	ldr	r3, [r4, #12]
 80029a0:	f043 0302 	orr.w	r3, r3, #2
 80029a4:	60e3      	str	r3, [r4, #12]
 80029a6:	e777      	b.n	8002898 <HAL_HCD_IRQHandler+0x398>
 80029a8:	68a3      	ldr	r3, [r4, #8]
 80029aa:	069b      	lsls	r3, r3, #26
 80029ac:	d514      	bpl.n	80029d8 <HAL_HCD_IRQHandler+0x4d8>
 80029ae:	2320      	movs	r3, #32
 80029b0:	60a3      	str	r3, [r4, #8]
 80029b2:	fb07 5306 	mla	r3, r7, r6, r5
 80029b6:	f893 203d 	ldrb.w	r2, [r3, #61]	; 0x3d
 80029ba:	2a01      	cmp	r2, #1
 80029bc:	f47f af6c 	bne.w	8002898 <HAL_HCD_IRQHandler+0x398>
 80029c0:	f883 103d 	strb.w	r1, [r3, #61]	; 0x3d
 80029c4:	f883 8060 	strb.w	r8, [r3, #96]	; 0x60
 80029c8:	68e3      	ldr	r3, [r4, #12]
 80029ca:	f043 0302 	orr.w	r3, r3, #2
 80029ce:	60e3      	str	r3, [r4, #12]
 80029d0:	4631      	mov	r1, r6
 80029d2:	f002 f9b4 	bl	8004d3e <USB_HC_Halt>
 80029d6:	e75f      	b.n	8002898 <HAL_HCD_IRQHandler+0x398>
 80029d8:	68a2      	ldr	r2, [r4, #8]
 80029da:	f412 7200 	ands.w	r2, r2, #512	; 0x200
 80029de:	d005      	beq.n	80029ec <HAL_HCD_IRQHandler+0x4ec>
 80029e0:	68e3      	ldr	r3, [r4, #12]
 80029e2:	f043 0302 	orr.w	r3, r3, #2
 80029e6:	60e3      	str	r3, [r4, #12]
 80029e8:	4631      	mov	r1, r6
 80029ea:	e6c8      	b.n	800277e <HAL_HCD_IRQHandler+0x27e>
 80029ec:	68a1      	ldr	r1, [r4, #8]
 80029ee:	f011 0101 	ands.w	r1, r1, #1
 80029f2:	d018      	beq.n	8002a26 <HAL_HCD_IRQHandler+0x526>
 80029f4:	fb07 5306 	mla	r3, r7, r6, r5
 80029f8:	4631      	mov	r1, r6
 80029fa:	65da      	str	r2, [r3, #92]	; 0x5c
 80029fc:	68a2      	ldr	r2, [r4, #8]
 80029fe:	0652      	lsls	r2, r2, #25
 8002a00:	bf41      	itttt	mi
 8002a02:	2201      	movmi	r2, #1
 8002a04:	f883 203d 	strbmi.w	r2, [r3, #61]	; 0x3d
 8002a08:	2340      	movmi	r3, #64	; 0x40
 8002a0a:	60a3      	strmi	r3, [r4, #8]
 8002a0c:	68e3      	ldr	r3, [r4, #12]
 8002a0e:	f043 0302 	orr.w	r3, r3, #2
 8002a12:	60e3      	str	r3, [r4, #12]
 8002a14:	f002 f993 	bl	8004d3e <USB_HC_Halt>
 8002a18:	2301      	movs	r3, #1
 8002a1a:	60a3      	str	r3, [r4, #8]
 8002a1c:	fb07 5606 	mla	r6, r7, r6, r5
 8002a20:	f886 3061 	strb.w	r3, [r6, #97]	; 0x61
 8002a24:	e738      	b.n	8002898 <HAL_HCD_IRQHandler+0x398>
 8002a26:	68a3      	ldr	r3, [r4, #8]
 8002a28:	065b      	lsls	r3, r3, #25
 8002a2a:	d511      	bpl.n	8002a50 <HAL_HCD_IRQHandler+0x550>
 8002a2c:	fb07 5306 	mla	r3, r7, r6, r5
 8002a30:	2204      	movs	r2, #4
 8002a32:	f883 2061 	strb.w	r2, [r3, #97]	; 0x61
 8002a36:	2201      	movs	r2, #1
 8002a38:	f883 203d 	strb.w	r2, [r3, #61]	; 0x3d
 8002a3c:	65d9      	str	r1, [r3, #92]	; 0x5c
 8002a3e:	68e3      	ldr	r3, [r4, #12]
 8002a40:	f043 0302 	orr.w	r3, r3, #2
 8002a44:	60e3      	str	r3, [r4, #12]
 8002a46:	4631      	mov	r1, r6
 8002a48:	f002 f979 	bl	8004d3e <USB_HC_Halt>
 8002a4c:	2340      	movs	r3, #64	; 0x40
 8002a4e:	e794      	b.n	800297a <HAL_HCD_IRQHandler+0x47a>
 8002a50:	68a1      	ldr	r1, [r4, #8]
 8002a52:	0709      	lsls	r1, r1, #28
 8002a54:	d50c      	bpl.n	8002a70 <HAL_HCD_IRQHandler+0x570>
 8002a56:	2308      	movs	r3, #8
 8002a58:	60a3      	str	r3, [r4, #8]
 8002a5a:	68e3      	ldr	r3, [r4, #12]
 8002a5c:	f043 0302 	orr.w	r3, r3, #2
 8002a60:	60e3      	str	r3, [r4, #12]
 8002a62:	4631      	mov	r1, r6
 8002a64:	f002 f96b 	bl	8004d3e <USB_HC_Halt>
 8002a68:	fb07 5606 	mla	r6, r7, r6, r5
 8002a6c:	2305      	movs	r3, #5
 8002a6e:	e7d7      	b.n	8002a20 <HAL_HCD_IRQHandler+0x520>
 8002a70:	68a1      	ldr	r1, [r4, #8]
 8002a72:	06ca      	lsls	r2, r1, #27
 8002a74:	d514      	bpl.n	8002aa0 <HAL_HCD_IRQHandler+0x5a0>
 8002a76:	fb07 5306 	mla	r3, r7, r6, r5
 8002a7a:	2200      	movs	r2, #0
 8002a7c:	65da      	str	r2, [r3, #92]	; 0x5c
 8002a7e:	2203      	movs	r2, #3
 8002a80:	f883 2061 	strb.w	r2, [r3, #97]	; 0x61
 8002a84:	f893 203d 	ldrb.w	r2, [r3, #61]	; 0x3d
 8002a88:	2a00      	cmp	r2, #0
 8002a8a:	f47f af6e 	bne.w	800296a <HAL_HCD_IRQHandler+0x46a>
 8002a8e:	f893 203c 	ldrb.w	r2, [r3, #60]	; 0x3c
 8002a92:	2a00      	cmp	r2, #0
 8002a94:	f47f af69 	bne.w	800296a <HAL_HCD_IRQHandler+0x46a>
 8002a98:	2201      	movs	r2, #1
 8002a9a:	f883 203d 	strb.w	r2, [r3, #61]	; 0x3d
 8002a9e:	e764      	b.n	800296a <HAL_HCD_IRQHandler+0x46a>
 8002aa0:	68a1      	ldr	r1, [r4, #8]
 8002aa2:	060b      	lsls	r3, r1, #24
 8002aa4:	d523      	bpl.n	8002aee <HAL_HCD_IRQHandler+0x5ee>
 8002aa6:	692b      	ldr	r3, [r5, #16]
 8002aa8:	b96b      	cbnz	r3, 8002ac6 <HAL_HCD_IRQHandler+0x5c6>
 8002aaa:	fb07 5306 	mla	r3, r7, r6, r5
 8002aae:	2206      	movs	r2, #6
 8002ab0:	f883 2061 	strb.w	r2, [r3, #97]	; 0x61
 8002ab4:	68e3      	ldr	r3, [r4, #12]
 8002ab6:	f043 0302 	orr.w	r3, r3, #2
 8002aba:	60e3      	str	r3, [r4, #12]
 8002abc:	4631      	mov	r1, r6
 8002abe:	f002 f93e 	bl	8004d3e <USB_HC_Halt>
 8002ac2:	2380      	movs	r3, #128	; 0x80
 8002ac4:	e759      	b.n	800297a <HAL_HCD_IRQHandler+0x47a>
 8002ac6:	fb07 5306 	mla	r3, r7, r6, r5
 8002aca:	6dda      	ldr	r2, [r3, #92]	; 0x5c
 8002acc:	3201      	adds	r2, #1
 8002ace:	2a02      	cmp	r2, #2
 8002ad0:	65da      	str	r2, [r3, #92]	; 0x5c
 8002ad2:	d909      	bls.n	8002ae8 <HAL_HCD_IRQHandler+0x5e8>
 8002ad4:	2200      	movs	r2, #0
 8002ad6:	65da      	str	r2, [r3, #92]	; 0x5c
 8002ad8:	2204      	movs	r2, #4
 8002ada:	f883 2060 	strb.w	r2, [r3, #96]	; 0x60
 8002ade:	4631      	mov	r1, r6
 8002ae0:	4628      	mov	r0, r5
 8002ae2:	f003 f9f7 	bl	8005ed4 <HAL_HCD_HC_NotifyURBChange_Callback>
 8002ae6:	e7ec      	b.n	8002ac2 <HAL_HCD_IRQHandler+0x5c2>
 8002ae8:	f883 8060 	strb.w	r8, [r3, #96]	; 0x60
 8002aec:	e7e9      	b.n	8002ac2 <HAL_HCD_IRQHandler+0x5c2>
 8002aee:	68a1      	ldr	r1, [r4, #8]
 8002af0:	0549      	lsls	r1, r1, #21
 8002af2:	d50f      	bpl.n	8002b14 <HAL_HCD_IRQHandler+0x614>
 8002af4:	68e3      	ldr	r3, [r4, #12]
 8002af6:	f043 0302 	orr.w	r3, r3, #2
 8002afa:	60e3      	str	r3, [r4, #12]
 8002afc:	4631      	mov	r1, r6
 8002afe:	f002 f91e 	bl	8004d3e <USB_HC_Halt>
 8002b02:	2310      	movs	r3, #16
 8002b04:	60a3      	str	r3, [r4, #8]
 8002b06:	f44f 6380 	mov.w	r3, #1024	; 0x400
 8002b0a:	60a3      	str	r3, [r4, #8]
 8002b0c:	fb07 5606 	mla	r6, r7, r6, r5
 8002b10:	2308      	movs	r3, #8
 8002b12:	e785      	b.n	8002a20 <HAL_HCD_IRQHandler+0x520>
 8002b14:	68a1      	ldr	r1, [r4, #8]
 8002b16:	078a      	lsls	r2, r1, #30
 8002b18:	f57f aebe 	bpl.w	8002898 <HAL_HCD_IRQHandler+0x398>
 8002b1c:	68e1      	ldr	r1, [r4, #12]
 8002b1e:	f021 0102 	bic.w	r1, r1, #2
 8002b22:	60e1      	str	r1, [r4, #12]
 8002b24:	fb07 5106 	mla	r1, r7, r6, r5
 8002b28:	f891 0061 	ldrb.w	r0, [r1, #97]	; 0x61
 8002b2c:	2801      	cmp	r0, #1
 8002b2e:	d121      	bne.n	8002b74 <HAL_HCD_IRQHandler+0x674>
 8002b30:	f891 303f 	ldrb.w	r3, [r1, #63]	; 0x3f
 8002b34:	f881 0060 	strb.w	r0, [r1, #96]	; 0x60
 8002b38:	3b02      	subs	r3, #2
 8002b3a:	2b01      	cmp	r3, #1
 8002b3c:	f63f aeda 	bhi.w	80028f4 <HAL_HCD_IRQHandler+0x3f4>
 8002b40:	692b      	ldr	r3, [r5, #16]
 8002b42:	b933      	cbnz	r3, 8002b52 <HAL_HCD_IRQHandler+0x652>
 8002b44:	f891 3055 	ldrb.w	r3, [r1, #85]	; 0x55
 8002b48:	f083 0301 	eor.w	r3, r3, #1
 8002b4c:	f881 3055 	strb.w	r3, [r1, #85]	; 0x55
 8002b50:	e6d0      	b.n	80028f4 <HAL_HCD_IRQHandler+0x3f4>
 8002b52:	2b01      	cmp	r3, #1
 8002b54:	f47f aece 	bne.w	80028f4 <HAL_HCD_IRQHandler+0x3f4>
 8002b58:	6ccb      	ldr	r3, [r1, #76]	; 0x4c
 8002b5a:	2b00      	cmp	r3, #0
 8002b5c:	f43f aeca 	beq.w	80028f4 <HAL_HCD_IRQHandler+0x3f4>
 8002b60:	f8b1 2040 	ldrh.w	r2, [r1, #64]	; 0x40
 8002b64:	3b01      	subs	r3, #1
 8002b66:	4413      	add	r3, r2
 8002b68:	fbb3 f3f2 	udiv	r3, r3, r2
 8002b6c:	07db      	lsls	r3, r3, #31
 8002b6e:	f57f aec1 	bpl.w	80028f4 <HAL_HCD_IRQHandler+0x3f4>
 8002b72:	e7e7      	b.n	8002b44 <HAL_HCD_IRQHandler+0x644>
 8002b74:	2803      	cmp	r0, #3
 8002b76:	d102      	bne.n	8002b7e <HAL_HCD_IRQHandler+0x67e>
 8002b78:	f881 8060 	strb.w	r8, [r1, #96]	; 0x60
 8002b7c:	e6ba      	b.n	80028f4 <HAL_HCD_IRQHandler+0x3f4>
 8002b7e:	2804      	cmp	r0, #4
 8002b80:	d0fa      	beq.n	8002b78 <HAL_HCD_IRQHandler+0x678>
 8002b82:	2805      	cmp	r0, #5
 8002b84:	d102      	bne.n	8002b8c <HAL_HCD_IRQHandler+0x68c>
 8002b86:	f881 0060 	strb.w	r0, [r1, #96]	; 0x60
 8002b8a:	e6b3      	b.n	80028f4 <HAL_HCD_IRQHandler+0x3f4>
 8002b8c:	2806      	cmp	r0, #6
 8002b8e:	f43f aec2 	beq.w	8002916 <HAL_HCD_IRQHandler+0x416>
 8002b92:	2808      	cmp	r0, #8
 8002b94:	f47f aeae 	bne.w	80028f4 <HAL_HCD_IRQHandler+0x3f4>
 8002b98:	e6bd      	b.n	8002916 <HAL_HCD_IRQHandler+0x416>

08002b9a <HAL_HCD_Start>:
 8002b9a:	b510      	push	{r4, lr}
 8002b9c:	f890 32f8 	ldrb.w	r3, [r0, #760]	; 0x2f8
 8002ba0:	2b01      	cmp	r3, #1
 8002ba2:	4604      	mov	r4, r0
 8002ba4:	d00c      	beq.n	8002bc0 <HAL_HCD_Start+0x26>
 8002ba6:	2101      	movs	r1, #1
 8002ba8:	f880 12f8 	strb.w	r1, [r0, #760]	; 0x2f8
 8002bac:	6800      	ldr	r0, [r0, #0]
 8002bae:	f002 f817 	bl	8004be0 <USB_DriveVbus>
 8002bb2:	6820      	ldr	r0, [r4, #0]
 8002bb4:	f001 fecc 	bl	8004950 <USB_EnableGlobalInt>
 8002bb8:	2000      	movs	r0, #0
 8002bba:	f884 02f8 	strb.w	r0, [r4, #760]	; 0x2f8
 8002bbe:	bd10      	pop	{r4, pc}
 8002bc0:	2002      	movs	r0, #2
 8002bc2:	e7fc      	b.n	8002bbe <HAL_HCD_Start+0x24>

08002bc4 <HAL_HCD_Stop>:
 8002bc4:	b510      	push	{r4, lr}
 8002bc6:	f890 32f8 	ldrb.w	r3, [r0, #760]	; 0x2f8
 8002bca:	2b01      	cmp	r3, #1
 8002bcc:	4604      	mov	r4, r0
 8002bce:	d009      	beq.n	8002be4 <HAL_HCD_Stop+0x20>
 8002bd0:	2301      	movs	r3, #1
 8002bd2:	f880 32f8 	strb.w	r3, [r0, #760]	; 0x2f8
 8002bd6:	6800      	ldr	r0, [r0, #0]
 8002bd8:	f002 f9c9 	bl	8004f6e <USB_StopHost>
 8002bdc:	2000      	movs	r0, #0
 8002bde:	f884 02f8 	strb.w	r0, [r4, #760]	; 0x2f8
 8002be2:	bd10      	pop	{r4, pc}
 8002be4:	2002      	movs	r0, #2
 8002be6:	e7fc      	b.n	8002be2 <HAL_HCD_Stop+0x1e>

08002be8 <HAL_HCD_ResetPort>:
 8002be8:	6800      	ldr	r0, [r0, #0]
 8002bea:	f001 bfdb 	b.w	8004ba4 <USB_ResetPort>

08002bee <HAL_HCD_HC_GetURBState>:
 8002bee:	232c      	movs	r3, #44	; 0x2c
 8002bf0:	fb03 0001 	mla	r0, r3, r1, r0
 8002bf4:	f890 0060 	ldrb.w	r0, [r0, #96]	; 0x60
 8002bf8:	4770      	bx	lr

08002bfa <HAL_HCD_HC_GetXferCount>:
 8002bfa:	232c      	movs	r3, #44	; 0x2c
 8002bfc:	fb03 0001 	mla	r0, r3, r1, r0
 8002c00:	6d00      	ldr	r0, [r0, #80]	; 0x50
 8002c02:	4770      	bx	lr

08002c04 <HAL_HCD_GetCurrentFrame>:
 8002c04:	6800      	ldr	r0, [r0, #0]
 8002c06:	f002 b816 	b.w	8004c36 <USB_GetCurrentFrame>

08002c0a <HAL_HCD_GetCurrentSpeed>:
 8002c0a:	6800      	ldr	r0, [r0, #0]
 8002c0c:	f002 b808 	b.w	8004c20 <USB_GetHostSpeed>

08002c10 <I2C_IsAcknowledgeFailed>:
 8002c10:	6801      	ldr	r1, [r0, #0]
 8002c12:	694b      	ldr	r3, [r1, #20]
 8002c14:	f413 6380 	ands.w	r3, r3, #1024	; 0x400
 8002c18:	f04f 0200 	mov.w	r2, #0
 8002c1c:	d010      	beq.n	8002c40 <I2C_IsAcknowledgeFailed+0x30>
 8002c1e:	f46f 6380 	mvn.w	r3, #1024	; 0x400
 8002c22:	614b      	str	r3, [r1, #20]
 8002c24:	2320      	movs	r3, #32
 8002c26:	6302      	str	r2, [r0, #48]	; 0x30
 8002c28:	f880 303d 	strb.w	r3, [r0, #61]	; 0x3d
 8002c2c:	f880 203e 	strb.w	r2, [r0, #62]	; 0x3e
 8002c30:	6c03      	ldr	r3, [r0, #64]	; 0x40
 8002c32:	f880 203c 	strb.w	r2, [r0, #60]	; 0x3c
 8002c36:	f043 0304 	orr.w	r3, r3, #4
 8002c3a:	6403      	str	r3, [r0, #64]	; 0x40
 8002c3c:	2001      	movs	r0, #1
 8002c3e:	4770      	bx	lr
 8002c40:	4618      	mov	r0, r3
 8002c42:	4770      	bx	lr

08002c44 <I2C_WaitOnMasterAddressFlagUntilTimeout>:
 8002c44:	e92d 41f0 	stmdb	sp!, {r4, r5, r6, r7, r8, lr}
 8002c48:	4604      	mov	r4, r0
 8002c4a:	460f      	mov	r7, r1
 8002c4c:	4616      	mov	r6, r2
 8002c4e:	4698      	mov	r8, r3
 8002c50:	6825      	ldr	r5, [r4, #0]
 8002c52:	6968      	ldr	r0, [r5, #20]
 8002c54:	ea27 0000 	bic.w	r0, r7, r0
 8002c58:	b280      	uxth	r0, r0
 8002c5a:	b1b8      	cbz	r0, 8002c8c <I2C_WaitOnMasterAddressFlagUntilTimeout+0x48>
 8002c5c:	696b      	ldr	r3, [r5, #20]
 8002c5e:	055a      	lsls	r2, r3, #21
 8002c60:	d516      	bpl.n	8002c90 <I2C_WaitOnMasterAddressFlagUntilTimeout+0x4c>
 8002c62:	682b      	ldr	r3, [r5, #0]
 8002c64:	f443 7300 	orr.w	r3, r3, #512	; 0x200
 8002c68:	602b      	str	r3, [r5, #0]
 8002c6a:	f46f 6380 	mvn.w	r3, #1024	; 0x400
 8002c6e:	616b      	str	r3, [r5, #20]
 8002c70:	2220      	movs	r2, #32
 8002c72:	2300      	movs	r3, #0
 8002c74:	6323      	str	r3, [r4, #48]	; 0x30
 8002c76:	f884 203d 	strb.w	r2, [r4, #61]	; 0x3d
 8002c7a:	f884 303e 	strb.w	r3, [r4, #62]	; 0x3e
 8002c7e:	6c22      	ldr	r2, [r4, #64]	; 0x40
 8002c80:	f042 0204 	orr.w	r2, r2, #4
 8002c84:	6422      	str	r2, [r4, #64]	; 0x40
 8002c86:	f884 303c 	strb.w	r3, [r4, #60]	; 0x3c
 8002c8a:	2001      	movs	r0, #1
 8002c8c:	e8bd 81f0 	ldmia.w	sp!, {r4, r5, r6, r7, r8, pc}
 8002c90:	1c73      	adds	r3, r6, #1
 8002c92:	d0de      	beq.n	8002c52 <I2C_WaitOnMasterAddressFlagUntilTimeout+0xe>
 8002c94:	f7ff f958 	bl	8001f48 <HAL_GetTick>
 8002c98:	eba0 0008 	sub.w	r0, r0, r8
 8002c9c:	42b0      	cmp	r0, r6
 8002c9e:	d801      	bhi.n	8002ca4 <I2C_WaitOnMasterAddressFlagUntilTimeout+0x60>
 8002ca0:	2e00      	cmp	r6, #0
 8002ca2:	d1d5      	bne.n	8002c50 <I2C_WaitOnMasterAddressFlagUntilTimeout+0xc>
 8002ca4:	2300      	movs	r3, #0
 8002ca6:	2220      	movs	r2, #32
 8002ca8:	6323      	str	r3, [r4, #48]	; 0x30
 8002caa:	f884 203d 	strb.w	r2, [r4, #61]	; 0x3d
 8002cae:	f884 303e 	strb.w	r3, [r4, #62]	; 0x3e
 8002cb2:	6c22      	ldr	r2, [r4, #64]	; 0x40
 8002cb4:	f042 0220 	orr.w	r2, r2, #32
 8002cb8:	e7e4      	b.n	8002c84 <I2C_WaitOnMasterAddressFlagUntilTimeout+0x40>

08002cba <I2C_WaitOnBTFFlagUntilTimeout>:
 8002cba:	b570      	push	{r4, r5, r6, lr}
 8002cbc:	4604      	mov	r4, r0
 8002cbe:	460d      	mov	r5, r1
 8002cc0:	4616      	mov	r6, r2
 8002cc2:	6823      	ldr	r3, [r4, #0]
 8002cc4:	695b      	ldr	r3, [r3, #20]
 8002cc6:	075b      	lsls	r3, r3, #29
 8002cc8:	d501      	bpl.n	8002cce <I2C_WaitOnBTFFlagUntilTimeout+0x14>
 8002cca:	2000      	movs	r0, #0
 8002ccc:	bd70      	pop	{r4, r5, r6, pc}
 8002cce:	4620      	mov	r0, r4
 8002cd0:	f7ff ff9e 	bl	8002c10 <I2C_IsAcknowledgeFailed>
 8002cd4:	b9a8      	cbnz	r0, 8002d02 <I2C_WaitOnBTFFlagUntilTimeout+0x48>
 8002cd6:	1c6a      	adds	r2, r5, #1
 8002cd8:	d0f3      	beq.n	8002cc2 <I2C_WaitOnBTFFlagUntilTimeout+0x8>
 8002cda:	f7ff f935 	bl	8001f48 <HAL_GetTick>
 8002cde:	1b80      	subs	r0, r0, r6
 8002ce0:	42a8      	cmp	r0, r5
 8002ce2:	d801      	bhi.n	8002ce8 <I2C_WaitOnBTFFlagUntilTimeout+0x2e>
 8002ce4:	2d00      	cmp	r5, #0
 8002ce6:	d1ec      	bne.n	8002cc2 <I2C_WaitOnBTFFlagUntilTimeout+0x8>
 8002ce8:	2300      	movs	r3, #0
 8002cea:	2220      	movs	r2, #32
 8002cec:	6323      	str	r3, [r4, #48]	; 0x30
 8002cee:	f884 203d 	strb.w	r2, [r4, #61]	; 0x3d
 8002cf2:	f884 303e 	strb.w	r3, [r4, #62]	; 0x3e
 8002cf6:	6c22      	ldr	r2, [r4, #64]	; 0x40
 8002cf8:	f884 303c 	strb.w	r3, [r4, #60]	; 0x3c
 8002cfc:	f042 0220 	orr.w	r2, r2, #32
 8002d00:	6422      	str	r2, [r4, #64]	; 0x40
 8002d02:	2001      	movs	r0, #1
 8002d04:	e7e2      	b.n	8002ccc <I2C_WaitOnBTFFlagUntilTimeout+0x12>

08002d06 <I2C_WaitOnRXNEFlagUntilTimeout>:
 8002d06:	b570      	push	{r4, r5, r6, lr}
 8002d08:	4604      	mov	r4, r0
 8002d0a:	460d      	mov	r5, r1
 8002d0c:	4616      	mov	r6, r2
 8002d0e:	6821      	ldr	r1, [r4, #0]
 8002d10:	694b      	ldr	r3, [r1, #20]
 8002d12:	f013 0340 	ands.w	r3, r3, #64	; 0x40
 8002d16:	d001      	beq.n	8002d1c <I2C_WaitOnRXNEFlagUntilTimeout+0x16>
 8002d18:	2000      	movs	r0, #0
 8002d1a:	e010      	b.n	8002d3e <I2C_WaitOnRXNEFlagUntilTimeout+0x38>
 8002d1c:	694a      	ldr	r2, [r1, #20]
 8002d1e:	06d2      	lsls	r2, r2, #27
 8002d20:	d50e      	bpl.n	8002d40 <I2C_WaitOnRXNEFlagUntilTimeout+0x3a>
 8002d22:	f06f 0210 	mvn.w	r2, #16
 8002d26:	614a      	str	r2, [r1, #20]
 8002d28:	2220      	movs	r2, #32
 8002d2a:	6323      	str	r3, [r4, #48]	; 0x30
 8002d2c:	f884 203d 	strb.w	r2, [r4, #61]	; 0x3d
 8002d30:	f884 303e 	strb.w	r3, [r4, #62]	; 0x3e
 8002d34:	6c22      	ldr	r2, [r4, #64]	; 0x40
 8002d36:	6422      	str	r2, [r4, #64]	; 0x40
 8002d38:	f884 303c 	strb.w	r3, [r4, #60]	; 0x3c
 8002d3c:	2001      	movs	r0, #1
 8002d3e:	bd70      	pop	{r4, r5, r6, pc}
 8002d40:	f7ff f902 	bl	8001f48 <HAL_GetTick>
 8002d44:	1b80      	subs	r0, r0, r6
 8002d46:	42a8      	cmp	r0, r5
 8002d48:	d801      	bhi.n	8002d4e <I2C_WaitOnRXNEFlagUntilTimeout+0x48>
 8002d4a:	2d00      	cmp	r5, #0
 8002d4c:	d1df      	bne.n	8002d0e <I2C_WaitOnRXNEFlagUntilTimeout+0x8>
 8002d4e:	2300      	movs	r3, #0
 8002d50:	2220      	movs	r2, #32
 8002d52:	6323      	str	r3, [r4, #48]	; 0x30
 8002d54:	f884 203d 	strb.w	r2, [r4, #61]	; 0x3d
 8002d58:	f884 303e 	strb.w	r3, [r4, #62]	; 0x3e
 8002d5c:	6c22      	ldr	r2, [r4, #64]	; 0x40
 8002d5e:	f042 0220 	orr.w	r2, r2, #32
 8002d62:	e7e8      	b.n	8002d36 <I2C_WaitOnRXNEFlagUntilTimeout+0x30>

08002d64 <I2C_WaitOnFlagUntilTimeout>:
 8002d64:	e92d 46f8 	stmdb	sp!, {r3, r4, r5, r6, r7, r9, sl, lr}
 8002d68:	4606      	mov	r6, r0
 8002d6a:	460f      	mov	r7, r1
 8002d6c:	4691      	mov	r9, r2
 8002d6e:	461d      	mov	r5, r3
 8002d70:	ea4f 4a11 	mov.w	sl, r1, lsr #16
 8002d74:	6833      	ldr	r3, [r6, #0]
 8002d76:	f1ba 0f01 	cmp.w	sl, #1
 8002d7a:	bf0c      	ite	eq
 8002d7c:	695c      	ldreq	r4, [r3, #20]
 8002d7e:	699c      	ldrne	r4, [r3, #24]
 8002d80:	ea27 0404 	bic.w	r4, r7, r4
 8002d84:	b2a4      	uxth	r4, r4
 8002d86:	fab4 f484 	clz	r4, r4
 8002d8a:	0964      	lsrs	r4, r4, #5
 8002d8c:	45a1      	cmp	r9, r4
 8002d8e:	d001      	beq.n	8002d94 <I2C_WaitOnFlagUntilTimeout+0x30>
 8002d90:	2000      	movs	r0, #0
 8002d92:	e017      	b.n	8002dc4 <I2C_WaitOnFlagUntilTimeout+0x60>
 8002d94:	1c6a      	adds	r2, r5, #1
 8002d96:	d0ee      	beq.n	8002d76 <I2C_WaitOnFlagUntilTimeout+0x12>
 8002d98:	f7ff f8d6 	bl	8001f48 <HAL_GetTick>
 8002d9c:	9b08      	ldr	r3, [sp, #32]
 8002d9e:	1ac0      	subs	r0, r0, r3
 8002da0:	42a8      	cmp	r0, r5
 8002da2:	d801      	bhi.n	8002da8 <I2C_WaitOnFlagUntilTimeout+0x44>
 8002da4:	2d00      	cmp	r5, #0
 8002da6:	d1e5      	bne.n	8002d74 <I2C_WaitOnFlagUntilTimeout+0x10>
 8002da8:	2300      	movs	r3, #0
 8002daa:	2220      	movs	r2, #32
 8002dac:	6333      	str	r3, [r6, #48]	; 0x30
 8002dae:	f886 203d 	strb.w	r2, [r6, #61]	; 0x3d
 8002db2:	f886 303e 	strb.w	r3, [r6, #62]	; 0x3e
 8002db6:	6c32      	ldr	r2, [r6, #64]	; 0x40
 8002db8:	f886 303c 	strb.w	r3, [r6, #60]	; 0x3c
 8002dbc:	f042 0220 	orr.w	r2, r2, #32
 8002dc0:	6432      	str	r2, [r6, #64]	; 0x40
 8002dc2:	2001      	movs	r0, #1
 8002dc4:	e8bd 86f8 	ldmia.w	sp!, {r3, r4, r5, r6, r7, r9, sl, pc}

08002dc8 <I2C_WaitOnTXEFlagUntilTimeout>:
 8002dc8:	b570      	push	{r4, r5, r6, lr}
 8002dca:	4604      	mov	r4, r0
 8002dcc:	460d      	mov	r5, r1
 8002dce:	4616      	mov	r6, r2
 8002dd0:	6823      	ldr	r3, [r4, #0]
 8002dd2:	695b      	ldr	r3, [r3, #20]
 8002dd4:	061b      	lsls	r3, r3, #24
 8002dd6:	d501      	bpl.n	8002ddc <I2C_WaitOnTXEFlagUntilTimeout+0x14>
 8002dd8:	2000      	movs	r0, #0
 8002dda:	bd70      	pop	{r4, r5, r6, pc}
 8002ddc:	4620      	mov	r0, r4
 8002dde:	f7ff ff17 	bl	8002c10 <I2C_IsAcknowledgeFailed>
 8002de2:	b9a8      	cbnz	r0, 8002e10 <I2C_WaitOnTXEFlagUntilTimeout+0x48>
 8002de4:	1c6a      	adds	r2, r5, #1
 8002de6:	d0f3      	beq.n	8002dd0 <I2C_WaitOnTXEFlagUntilTimeout+0x8>
 8002de8:	f7ff f8ae 	bl	8001f48 <HAL_GetTick>
 8002dec:	1b80      	subs	r0, r0, r6
 8002dee:	42a8      	cmp	r0, r5
 8002df0:	d801      	bhi.n	8002df6 <I2C_WaitOnTXEFlagUntilTimeout+0x2e>
 8002df2:	2d00      	cmp	r5, #0
 8002df4:	d1ec      	bne.n	8002dd0 <I2C_WaitOnTXEFlagUntilTimeout+0x8>
 8002df6:	2300      	movs	r3, #0
 8002df8:	2220      	movs	r2, #32
 8002dfa:	6323      	str	r3, [r4, #48]	; 0x30
 8002dfc:	f884 203d 	strb.w	r2, [r4, #61]	; 0x3d
 8002e00:	f884 303e 	strb.w	r3, [r4, #62]	; 0x3e
 8002e04:	6c22      	ldr	r2, [r4, #64]	; 0x40
 8002e06:	f884 303c 	strb.w	r3, [r4, #60]	; 0x3c
 8002e0a:	f042 0220 	orr.w	r2, r2, #32
 8002e0e:	6422      	str	r2, [r4, #64]	; 0x40
 8002e10:	2001      	movs	r0, #1
 8002e12:	e7e2      	b.n	8002dda <I2C_WaitOnTXEFlagUntilTimeout+0x12>

08002e14 <I2C_RequestMemoryWrite>:
 8002e14:	e92d 43f0 	stmdb	sp!, {r4, r5, r6, r7, r8, r9, lr}
 8002e18:	4615      	mov	r5, r2
 8002e1a:	6802      	ldr	r2, [r0, #0]
 8002e1c:	b085      	sub	sp, #20
 8002e1e:	e9dd 780c 	ldrd	r7, r8, [sp, #48]	; 0x30
 8002e22:	4699      	mov	r9, r3
 8002e24:	6813      	ldr	r3, [r2, #0]
 8002e26:	f443 7380 	orr.w	r3, r3, #256	; 0x100
 8002e2a:	6013      	str	r3, [r2, #0]
 8002e2c:	460e      	mov	r6, r1
 8002e2e:	463b      	mov	r3, r7
 8002e30:	f8cd 8000 	str.w	r8, [sp]
 8002e34:	2200      	movs	r2, #0
 8002e36:	f04f 1101 	mov.w	r1, #65537	; 0x10001
 8002e3a:	4604      	mov	r4, r0
 8002e3c:	f7ff ff92 	bl	8002d64 <I2C_WaitOnFlagUntilTimeout>
 8002e40:	6823      	ldr	r3, [r4, #0]
 8002e42:	b138      	cbz	r0, 8002e54 <I2C_RequestMemoryWrite+0x40>
 8002e44:	681b      	ldr	r3, [r3, #0]
 8002e46:	05db      	lsls	r3, r3, #23
 8002e48:	d502      	bpl.n	8002e50 <I2C_RequestMemoryWrite+0x3c>
 8002e4a:	f44f 7300 	mov.w	r3, #512	; 0x200
 8002e4e:	6423      	str	r3, [r4, #64]	; 0x40
 8002e50:	2003      	movs	r0, #3
 8002e52:	e00a      	b.n	8002e6a <I2C_RequestMemoryWrite+0x56>
 8002e54:	f006 06fe 	and.w	r6, r6, #254	; 0xfe
 8002e58:	611e      	str	r6, [r3, #16]
 8002e5a:	4919      	ldr	r1, [pc, #100]	; (8002ec0 <I2C_RequestMemoryWrite+0xac>)
 8002e5c:	4643      	mov	r3, r8
 8002e5e:	463a      	mov	r2, r7
 8002e60:	4620      	mov	r0, r4
 8002e62:	f7ff feef 	bl	8002c44 <I2C_WaitOnMasterAddressFlagUntilTimeout>
 8002e66:	b118      	cbz	r0, 8002e70 <I2C_RequestMemoryWrite+0x5c>
 8002e68:	2001      	movs	r0, #1
 8002e6a:	b005      	add	sp, #20
 8002e6c:	e8bd 83f0 	ldmia.w	sp!, {r4, r5, r6, r7, r8, r9, pc}
 8002e70:	6823      	ldr	r3, [r4, #0]
 8002e72:	9003      	str	r0, [sp, #12]
 8002e74:	695a      	ldr	r2, [r3, #20]
 8002e76:	9203      	str	r2, [sp, #12]
 8002e78:	699b      	ldr	r3, [r3, #24]
 8002e7a:	9303      	str	r3, [sp, #12]
 8002e7c:	4642      	mov	r2, r8
 8002e7e:	4639      	mov	r1, r7
 8002e80:	4620      	mov	r0, r4
 8002e82:	9b03      	ldr	r3, [sp, #12]
 8002e84:	f7ff ffa0 	bl	8002dc8 <I2C_WaitOnTXEFlagUntilTimeout>
 8002e88:	b140      	cbz	r0, 8002e9c <I2C_RequestMemoryWrite+0x88>
 8002e8a:	6c23      	ldr	r3, [r4, #64]	; 0x40
 8002e8c:	2b04      	cmp	r3, #4
 8002e8e:	bf01      	itttt	eq
 8002e90:	6822      	ldreq	r2, [r4, #0]
 8002e92:	6813      	ldreq	r3, [r2, #0]
 8002e94:	f443 7300 	orreq.w	r3, r3, #512	; 0x200
 8002e98:	6013      	streq	r3, [r2, #0]
 8002e9a:	e7e5      	b.n	8002e68 <I2C_RequestMemoryWrite+0x54>
 8002e9c:	f1b9 0f01 	cmp.w	r9, #1
 8002ea0:	6823      	ldr	r3, [r4, #0]
 8002ea2:	d102      	bne.n	8002eaa <I2C_RequestMemoryWrite+0x96>
 8002ea4:	b2ed      	uxtb	r5, r5
 8002ea6:	611d      	str	r5, [r3, #16]
 8002ea8:	e7df      	b.n	8002e6a <I2C_RequestMemoryWrite+0x56>
 8002eaa:	0a2a      	lsrs	r2, r5, #8
 8002eac:	611a      	str	r2, [r3, #16]
 8002eae:	4639      	mov	r1, r7
 8002eb0:	4642      	mov	r2, r8
 8002eb2:	4620      	mov	r0, r4
 8002eb4:	f7ff ff88 	bl	8002dc8 <I2C_WaitOnTXEFlagUntilTimeout>
 8002eb8:	2800      	cmp	r0, #0
 8002eba:	d1e6      	bne.n	8002e8a <I2C_RequestMemoryWrite+0x76>
 8002ebc:	6823      	ldr	r3, [r4, #0]
 8002ebe:	e7f1      	b.n	8002ea4 <I2C_RequestMemoryWrite+0x90>
 8002ec0:	00010002 	.word	0x00010002

08002ec4 <I2C_RequestMemoryRead>:
 8002ec4:	e92d 47ff 	stmdb	sp!, {r0, r1, r2, r3, r4, r5, r6, r7, r8, r9, sl, lr}
 8002ec8:	469a      	mov	sl, r3
 8002eca:	6803      	ldr	r3, [r0, #0]
 8002ecc:	4615      	mov	r5, r2
 8002ece:	681a      	ldr	r2, [r3, #0]
 8002ed0:	f442 6280 	orr.w	r2, r2, #1024	; 0x400
 8002ed4:	601a      	str	r2, [r3, #0]
 8002ed6:	681a      	ldr	r2, [r3, #0]
 8002ed8:	e9dd 780c 	ldrd	r7, r8, [sp, #48]	; 0x30
 8002edc:	f442 7280 	orr.w	r2, r2, #256	; 0x100
 8002ee0:	601a      	str	r2, [r3, #0]
 8002ee2:	460e      	mov	r6, r1
 8002ee4:	463b      	mov	r3, r7
 8002ee6:	f8cd 8000 	str.w	r8, [sp]
 8002eea:	2200      	movs	r2, #0
 8002eec:	f04f 1101 	mov.w	r1, #65537	; 0x10001
 8002ef0:	4604      	mov	r4, r0
 8002ef2:	f7ff ff37 	bl	8002d64 <I2C_WaitOnFlagUntilTimeout>
 8002ef6:	6823      	ldr	r3, [r4, #0]
 8002ef8:	b148      	cbz	r0, 8002f0e <I2C_RequestMemoryRead+0x4a>
 8002efa:	681b      	ldr	r3, [r3, #0]
 8002efc:	05db      	lsls	r3, r3, #23
 8002efe:	d502      	bpl.n	8002f06 <I2C_RequestMemoryRead+0x42>
 8002f00:	f44f 7300 	mov.w	r3, #512	; 0x200
 8002f04:	6423      	str	r3, [r4, #64]	; 0x40
 8002f06:	2003      	movs	r0, #3
 8002f08:	b004      	add	sp, #16
 8002f0a:	e8bd 87f0 	ldmia.w	sp!, {r4, r5, r6, r7, r8, r9, sl, pc}
 8002f0e:	fa5f f986 	uxtb.w	r9, r6
 8002f12:	f006 06fe 	and.w	r6, r6, #254	; 0xfe
 8002f16:	611e      	str	r6, [r3, #16]
 8002f18:	492a      	ldr	r1, [pc, #168]	; (8002fc4 <I2C_RequestMemoryRead+0x100>)
 8002f1a:	4643      	mov	r3, r8
 8002f1c:	463a      	mov	r2, r7
 8002f1e:	4620      	mov	r0, r4
 8002f20:	f7ff fe90 	bl	8002c44 <I2C_WaitOnMasterAddressFlagUntilTimeout>
 8002f24:	b108      	cbz	r0, 8002f2a <I2C_RequestMemoryRead+0x66>
 8002f26:	2001      	movs	r0, #1
 8002f28:	e7ee      	b.n	8002f08 <I2C_RequestMemoryRead+0x44>
 8002f2a:	6823      	ldr	r3, [r4, #0]
 8002f2c:	9003      	str	r0, [sp, #12]
 8002f2e:	695a      	ldr	r2, [r3, #20]
 8002f30:	9203      	str	r2, [sp, #12]
 8002f32:	699b      	ldr	r3, [r3, #24]
 8002f34:	9303      	str	r3, [sp, #12]
 8002f36:	4642      	mov	r2, r8
 8002f38:	4639      	mov	r1, r7
 8002f3a:	4620      	mov	r0, r4
 8002f3c:	9b03      	ldr	r3, [sp, #12]
 8002f3e:	f7ff ff43 	bl	8002dc8 <I2C_WaitOnTXEFlagUntilTimeout>
 8002f42:	b140      	cbz	r0, 8002f56 <I2C_RequestMemoryRead+0x92>
 8002f44:	6c23      	ldr	r3, [r4, #64]	; 0x40
 8002f46:	2b04      	cmp	r3, #4
 8002f48:	bf01      	itttt	eq
 8002f4a:	6822      	ldreq	r2, [r4, #0]
 8002f4c:	6813      	ldreq	r3, [r2, #0]
 8002f4e:	f443 7300 	orreq.w	r3, r3, #512	; 0x200
 8002f52:	6013      	streq	r3, [r2, #0]
 8002f54:	e7e7      	b.n	8002f26 <I2C_RequestMemoryRead+0x62>
 8002f56:	f1ba 0f01 	cmp.w	sl, #1
 8002f5a:	6823      	ldr	r3, [r4, #0]
 8002f5c:	d11a      	bne.n	8002f94 <I2C_RequestMemoryRead+0xd0>
 8002f5e:	b2ed      	uxtb	r5, r5
 8002f60:	611d      	str	r5, [r3, #16]
 8002f62:	4642      	mov	r2, r8
 8002f64:	4639      	mov	r1, r7
 8002f66:	4620      	mov	r0, r4
 8002f68:	f7ff ff2e 	bl	8002dc8 <I2C_WaitOnTXEFlagUntilTimeout>
 8002f6c:	2800      	cmp	r0, #0
 8002f6e:	d1e9      	bne.n	8002f44 <I2C_RequestMemoryRead+0x80>
 8002f70:	6822      	ldr	r2, [r4, #0]
 8002f72:	6813      	ldr	r3, [r2, #0]
 8002f74:	f443 7380 	orr.w	r3, r3, #256	; 0x100
 8002f78:	6013      	str	r3, [r2, #0]
 8002f7a:	f04f 1101 	mov.w	r1, #65537	; 0x10001
 8002f7e:	4602      	mov	r2, r0
 8002f80:	f8cd 8000 	str.w	r8, [sp]
 8002f84:	463b      	mov	r3, r7
 8002f86:	4620      	mov	r0, r4
 8002f88:	f7ff feec 	bl	8002d64 <I2C_WaitOnFlagUntilTimeout>
 8002f8c:	6822      	ldr	r2, [r4, #0]
 8002f8e:	b160      	cbz	r0, 8002faa <I2C_RequestMemoryRead+0xe6>
 8002f90:	6813      	ldr	r3, [r2, #0]
 8002f92:	e7b3      	b.n	8002efc <I2C_RequestMemoryRead+0x38>
 8002f94:	0a2a      	lsrs	r2, r5, #8
 8002f96:	611a      	str	r2, [r3, #16]
 8002f98:	4639      	mov	r1, r7
 8002f9a:	4642      	mov	r2, r8
 8002f9c:	4620      	mov	r0, r4
 8002f9e:	f7ff ff13 	bl	8002dc8 <I2C_WaitOnTXEFlagUntilTimeout>
 8002fa2:	2800      	cmp	r0, #0
 8002fa4:	d1ce      	bne.n	8002f44 <I2C_RequestMemoryRead+0x80>
 8002fa6:	6823      	ldr	r3, [r4, #0]
 8002fa8:	e7d9      	b.n	8002f5e <I2C_RequestMemoryRead+0x9a>
 8002faa:	f049 0301 	orr.w	r3, r9, #1
 8002fae:	6113      	str	r3, [r2, #16]
 8002fb0:	4904      	ldr	r1, [pc, #16]	; (8002fc4 <I2C_RequestMemoryRead+0x100>)
 8002fb2:	4643      	mov	r3, r8
 8002fb4:	463a      	mov	r2, r7
 8002fb6:	4620      	mov	r0, r4
 8002fb8:	f7ff fe44 	bl	8002c44 <I2C_WaitOnMasterAddressFlagUntilTimeout>
 8002fbc:	3800      	subs	r0, #0
 8002fbe:	bf18      	it	ne
 8002fc0:	2001      	movne	r0, #1
 8002fc2:	e7a1      	b.n	8002f08 <I2C_RequestMemoryRead+0x44>
 8002fc4:	00010002 	.word	0x00010002

08002fc8 <HAL_I2C_Init>:
 8002fc8:	b570      	push	{r4, r5, r6, lr}
 8002fca:	4604      	mov	r4, r0
 8002fcc:	b908      	cbnz	r0, 8002fd2 <HAL_I2C_Init+0xa>
 8002fce:	2001      	movs	r0, #1
 8002fd0:	bd70      	pop	{r4, r5, r6, pc}
 8002fd2:	f890 303d 	ldrb.w	r3, [r0, #61]	; 0x3d
 8002fd6:	f003 02ff 	and.w	r2, r3, #255	; 0xff
 8002fda:	b91b      	cbnz	r3, 8002fe4 <HAL_I2C_Init+0x1c>
 8002fdc:	f880 203c 	strb.w	r2, [r0, #60]	; 0x3c
 8002fe0:	f7fe f91a 	bl	8001218 <HAL_I2C_MspInit>
 8002fe4:	2324      	movs	r3, #36	; 0x24
 8002fe6:	f884 303d 	strb.w	r3, [r4, #61]	; 0x3d
 8002fea:	6823      	ldr	r3, [r4, #0]
 8002fec:	681a      	ldr	r2, [r3, #0]
 8002fee:	f022 0201 	bic.w	r2, r2, #1
 8002ff2:	601a      	str	r2, [r3, #0]
 8002ff4:	681a      	ldr	r2, [r3, #0]
 8002ff6:	f442 4200 	orr.w	r2, r2, #32768	; 0x8000
 8002ffa:	601a      	str	r2, [r3, #0]
 8002ffc:	681a      	ldr	r2, [r3, #0]
 8002ffe:	f422 4200 	bic.w	r2, r2, #32768	; 0x8000
 8003002:	601a      	str	r2, [r3, #0]
 8003004:	f000 fef6 	bl	8003df4 <HAL_RCC_GetPCLK1Freq>
 8003008:	4a3f      	ldr	r2, [pc, #252]	; (8003108 <HAL_I2C_Init+0x140>)
 800300a:	6863      	ldr	r3, [r4, #4]
 800300c:	4293      	cmp	r3, r2
 800300e:	bf94      	ite	ls
 8003010:	4a3e      	ldrls	r2, [pc, #248]	; (800310c <HAL_I2C_Init+0x144>)
 8003012:	4a3f      	ldrhi	r2, [pc, #252]	; (8003110 <HAL_I2C_Init+0x148>)
 8003014:	4290      	cmp	r0, r2
 8003016:	bf8c      	ite	hi
 8003018:	2200      	movhi	r2, #0
 800301a:	2201      	movls	r2, #1
 800301c:	2a00      	cmp	r2, #0
 800301e:	d1d6      	bne.n	8002fce <HAL_I2C_Init+0x6>
 8003020:	6821      	ldr	r1, [r4, #0]
 8003022:	4e3c      	ldr	r6, [pc, #240]	; (8003114 <HAL_I2C_Init+0x14c>)
 8003024:	684a      	ldr	r2, [r1, #4]
 8003026:	fbb0 f6f6 	udiv	r6, r0, r6
 800302a:	f022 023f 	bic.w	r2, r2, #63	; 0x3f
 800302e:	4332      	orrs	r2, r6
 8003030:	604a      	str	r2, [r1, #4]
 8003032:	4a35      	ldr	r2, [pc, #212]	; (8003108 <HAL_I2C_Init+0x140>)
 8003034:	6a0d      	ldr	r5, [r1, #32]
 8003036:	4293      	cmp	r3, r2
 8003038:	bf84      	itt	hi
 800303a:	f44f 7296 	movhi.w	r2, #300	; 0x12c
 800303e:	4372      	mulhi	r2, r6
 8003040:	f025 053f 	bic.w	r5, r5, #63	; 0x3f
 8003044:	bf91      	iteee	ls
 8003046:	1c72      	addls	r2, r6, #1
 8003048:	f44f 767a 	movhi.w	r6, #1000	; 0x3e8
 800304c:	fbb2 f2f6 	udivhi	r2, r2, r6
 8003050:	3201      	addhi	r2, #1
 8003052:	432a      	orrs	r2, r5
 8003054:	620a      	str	r2, [r1, #32]
 8003056:	69cd      	ldr	r5, [r1, #28]
 8003058:	1e42      	subs	r2, r0, #1
 800305a:	482b      	ldr	r0, [pc, #172]	; (8003108 <HAL_I2C_Init+0x140>)
 800305c:	f425 454f 	bic.w	r5, r5, #52992	; 0xcf00
 8003060:	4283      	cmp	r3, r0
 8003062:	f025 05ff 	bic.w	r5, r5, #255	; 0xff
 8003066:	d832      	bhi.n	80030ce <HAL_I2C_Init+0x106>
 8003068:	005b      	lsls	r3, r3, #1
 800306a:	fbb2 f3f3 	udiv	r3, r2, r3
 800306e:	f640 72fc 	movw	r2, #4092	; 0xffc
 8003072:	3301      	adds	r3, #1
 8003074:	4213      	tst	r3, r2
 8003076:	d042      	beq.n	80030fe <HAL_I2C_Init+0x136>
 8003078:	f3c3 030b 	ubfx	r3, r3, #0, #12
 800307c:	432b      	orrs	r3, r5
 800307e:	61cb      	str	r3, [r1, #28]
 8003080:	e9d4 3007 	ldrd	r3, r0, [r4, #28]
 8003084:	680a      	ldr	r2, [r1, #0]
 8003086:	4303      	orrs	r3, r0
 8003088:	f022 02c0 	bic.w	r2, r2, #192	; 0xc0
 800308c:	4313      	orrs	r3, r2
 800308e:	600b      	str	r3, [r1, #0]
 8003090:	688a      	ldr	r2, [r1, #8]
 8003092:	e9d4 0303 	ldrd	r0, r3, [r4, #12]
 8003096:	f422 4203 	bic.w	r2, r2, #33536	; 0x8300
 800309a:	4303      	orrs	r3, r0
 800309c:	f022 02ff 	bic.w	r2, r2, #255	; 0xff
 80030a0:	4313      	orrs	r3, r2
 80030a2:	608b      	str	r3, [r1, #8]
 80030a4:	e9d4 3005 	ldrd	r3, r0, [r4, #20]
 80030a8:	68ca      	ldr	r2, [r1, #12]
 80030aa:	4303      	orrs	r3, r0
 80030ac:	f022 02ff 	bic.w	r2, r2, #255	; 0xff
 80030b0:	4313      	orrs	r3, r2
 80030b2:	60cb      	str	r3, [r1, #12]
 80030b4:	680b      	ldr	r3, [r1, #0]
 80030b6:	f043 0301 	orr.w	r3, r3, #1
 80030ba:	600b      	str	r3, [r1, #0]
 80030bc:	2000      	movs	r0, #0
 80030be:	2320      	movs	r3, #32
 80030c0:	6420      	str	r0, [r4, #64]	; 0x40
 80030c2:	f884 303d 	strb.w	r3, [r4, #61]	; 0x3d
 80030c6:	6320      	str	r0, [r4, #48]	; 0x30
 80030c8:	f884 003e 	strb.w	r0, [r4, #62]	; 0x3e
 80030cc:	e780      	b.n	8002fd0 <HAL_I2C_Init+0x8>
 80030ce:	68a0      	ldr	r0, [r4, #8]
 80030d0:	b950      	cbnz	r0, 80030e8 <HAL_I2C_Init+0x120>
 80030d2:	eb03 0343 	add.w	r3, r3, r3, lsl #1
 80030d6:	fbb2 f3f3 	udiv	r3, r2, r3
 80030da:	3301      	adds	r3, #1
 80030dc:	f3c3 030b 	ubfx	r3, r3, #0, #12
 80030e0:	b17b      	cbz	r3, 8003102 <HAL_I2C_Init+0x13a>
 80030e2:	f443 4300 	orr.w	r3, r3, #32768	; 0x8000
 80030e6:	e7c9      	b.n	800307c <HAL_I2C_Init+0xb4>
 80030e8:	2019      	movs	r0, #25
 80030ea:	4343      	muls	r3, r0
 80030ec:	fbb2 f3f3 	udiv	r3, r2, r3
 80030f0:	3301      	adds	r3, #1
 80030f2:	f3c3 030b 	ubfx	r3, r3, #0, #12
 80030f6:	b123      	cbz	r3, 8003102 <HAL_I2C_Init+0x13a>
 80030f8:	f443 4340 	orr.w	r3, r3, #49152	; 0xc000
 80030fc:	e7be      	b.n	800307c <HAL_I2C_Init+0xb4>
 80030fe:	2304      	movs	r3, #4
 8003100:	e7bc      	b.n	800307c <HAL_I2C_Init+0xb4>
 8003102:	2301      	movs	r3, #1
 8003104:	e7ba      	b.n	800307c <HAL_I2C_Init+0xb4>
 8003106:	bf00      	nop
 8003108:	000186a0 	.word	0x000186a0
 800310c:	001e847f 	.word	0x001e847f
 8003110:	003d08ff 	.word	0x003d08ff
 8003114:	000f4240 	.word	0x000f4240

08003118 <HAL_I2C_DeInit>:
 8003118:	b510      	push	{r4, lr}
 800311a:	4604      	mov	r4, r0
 800311c:	b198      	cbz	r0, 8003146 <HAL_I2C_DeInit+0x2e>
 800311e:	6802      	ldr	r2, [r0, #0]
 8003120:	2324      	movs	r3, #36	; 0x24
 8003122:	f880 303d 	strb.w	r3, [r0, #61]	; 0x3d
 8003126:	6813      	ldr	r3, [r2, #0]
 8003128:	f023 0301 	bic.w	r3, r3, #1
 800312c:	6013      	str	r3, [r2, #0]
 800312e:	f7fe f8ab 	bl	8001288 <HAL_I2C_MspDeInit>
 8003132:	2000      	movs	r0, #0
 8003134:	6420      	str	r0, [r4, #64]	; 0x40
 8003136:	f884 003c 	strb.w	r0, [r4, #60]	; 0x3c
 800313a:	f884 003d 	strb.w	r0, [r4, #61]	; 0x3d
 800313e:	6320      	str	r0, [r4, #48]	; 0x30
 8003140:	f884 003e 	strb.w	r0, [r4, #62]	; 0x3e
 8003144:	bd10      	pop	{r4, pc}
 8003146:	2001      	movs	r0, #1
 8003148:	e7fc      	b.n	8003144 <HAL_I2C_DeInit+0x2c>
	...

0800314c <HAL_I2C_Mem_Write>:
 800314c:	e92d 43f7 	stmdb	sp!, {r0, r1, r2, r4, r5, r6, r7, r8, r9, lr}
 8003150:	4604      	mov	r4, r0
 8003152:	4699      	mov	r9, r3
 8003154:	9e0c      	ldr	r6, [sp, #48]	; 0x30
 8003156:	460f      	mov	r7, r1
 8003158:	4690      	mov	r8, r2
 800315a:	f7fe fef5 	bl	8001f48 <HAL_GetTick>
 800315e:	f894 303d 	ldrb.w	r3, [r4, #61]	; 0x3d
 8003162:	2b20      	cmp	r3, #32
 8003164:	4605      	mov	r5, r0
 8003166:	d003      	beq.n	8003170 <HAL_I2C_Mem_Write+0x24>
 8003168:	2002      	movs	r0, #2
 800316a:	b003      	add	sp, #12
 800316c:	e8bd 83f0 	ldmia.w	sp!, {r4, r5, r6, r7, r8, r9, pc}
 8003170:	9000      	str	r0, [sp, #0]
 8003172:	493c      	ldr	r1, [pc, #240]	; (8003264 <HAL_I2C_Mem_Write+0x118>)
 8003174:	2319      	movs	r3, #25
 8003176:	2201      	movs	r2, #1
 8003178:	4620      	mov	r0, r4
 800317a:	f7ff fdf3 	bl	8002d64 <I2C_WaitOnFlagUntilTimeout>
 800317e:	2800      	cmp	r0, #0
 8003180:	d1f2      	bne.n	8003168 <HAL_I2C_Mem_Write+0x1c>
 8003182:	f894 303c 	ldrb.w	r3, [r4, #60]	; 0x3c
 8003186:	2b01      	cmp	r3, #1
 8003188:	d0ee      	beq.n	8003168 <HAL_I2C_Mem_Write+0x1c>
 800318a:	6820      	ldr	r0, [r4, #0]
 800318c:	2301      	movs	r3, #1
 800318e:	f884 303c 	strb.w	r3, [r4, #60]	; 0x3c
 8003192:	6803      	ldr	r3, [r0, #0]
 8003194:	07d9      	lsls	r1, r3, #31
 8003196:	bf5e      	ittt	pl
 8003198:	6803      	ldrpl	r3, [r0, #0]
 800319a:	f043 0301 	orrpl.w	r3, r3, #1
 800319e:	6003      	strpl	r3, [r0, #0]
 80031a0:	6803      	ldr	r3, [r0, #0]
 80031a2:	f423 6300 	bic.w	r3, r3, #2048	; 0x800
 80031a6:	6003      	str	r3, [r0, #0]
 80031a8:	2321      	movs	r3, #33	; 0x21
 80031aa:	f884 303d 	strb.w	r3, [r4, #61]	; 0x3d
 80031ae:	2340      	movs	r3, #64	; 0x40
 80031b0:	f884 303e 	strb.w	r3, [r4, #62]	; 0x3e
 80031b4:	2300      	movs	r3, #0
 80031b6:	6423      	str	r3, [r4, #64]	; 0x40
 80031b8:	9b0a      	ldr	r3, [sp, #40]	; 0x28
 80031ba:	6263      	str	r3, [r4, #36]	; 0x24
 80031bc:	f8bd 302c 	ldrh.w	r3, [sp, #44]	; 0x2c
 80031c0:	8563      	strh	r3, [r4, #42]	; 0x2a
 80031c2:	8d63      	ldrh	r3, [r4, #42]	; 0x2a
 80031c4:	8523      	strh	r3, [r4, #40]	; 0x28
 80031c6:	4b28      	ldr	r3, [pc, #160]	; (8003268 <HAL_I2C_Mem_Write+0x11c>)
 80031c8:	62e3      	str	r3, [r4, #44]	; 0x2c
 80031ca:	e9cd 6500 	strd	r6, r5, [sp]
 80031ce:	464b      	mov	r3, r9
 80031d0:	4642      	mov	r2, r8
 80031d2:	4639      	mov	r1, r7
 80031d4:	4620      	mov	r0, r4
 80031d6:	f7ff fe1d 	bl	8002e14 <I2C_RequestMemoryWrite>
 80031da:	2800      	cmp	r0, #0
 80031dc:	d02a      	beq.n	8003234 <HAL_I2C_Mem_Write+0xe8>
 80031de:	2001      	movs	r0, #1
 80031e0:	e7c3      	b.n	800316a <HAL_I2C_Mem_Write+0x1e>
 80031e2:	f7ff fdf1 	bl	8002dc8 <I2C_WaitOnTXEFlagUntilTimeout>
 80031e6:	b140      	cbz	r0, 80031fa <HAL_I2C_Mem_Write+0xae>
 80031e8:	6c23      	ldr	r3, [r4, #64]	; 0x40
 80031ea:	2b04      	cmp	r3, #4
 80031ec:	bf01      	itttt	eq
 80031ee:	6822      	ldreq	r2, [r4, #0]
 80031f0:	6813      	ldreq	r3, [r2, #0]
 80031f2:	f443 7300 	orreq.w	r3, r3, #512	; 0x200
 80031f6:	6013      	streq	r3, [r2, #0]
 80031f8:	e7f1      	b.n	80031de <HAL_I2C_Mem_Write+0x92>
 80031fa:	6a63      	ldr	r3, [r4, #36]	; 0x24
 80031fc:	6827      	ldr	r7, [r4, #0]
 80031fe:	461a      	mov	r2, r3
 8003200:	f812 1b01 	ldrb.w	r1, [r2], #1
 8003204:	6139      	str	r1, [r7, #16]
 8003206:	6262      	str	r2, [r4, #36]	; 0x24
 8003208:	8d62      	ldrh	r2, [r4, #42]	; 0x2a
 800320a:	8d21      	ldrh	r1, [r4, #40]	; 0x28
 800320c:	3a01      	subs	r2, #1
 800320e:	b292      	uxth	r2, r2
 8003210:	8562      	strh	r2, [r4, #42]	; 0x2a
 8003212:	697a      	ldr	r2, [r7, #20]
 8003214:	1e48      	subs	r0, r1, #1
 8003216:	b280      	uxth	r0, r0
 8003218:	0752      	lsls	r2, r2, #29
 800321a:	8520      	strh	r0, [r4, #40]	; 0x28
 800321c:	d50a      	bpl.n	8003234 <HAL_I2C_Mem_Write+0xe8>
 800321e:	b148      	cbz	r0, 8003234 <HAL_I2C_Mem_Write+0xe8>
 8003220:	785a      	ldrb	r2, [r3, #1]
 8003222:	613a      	str	r2, [r7, #16]
 8003224:	3302      	adds	r3, #2
 8003226:	6263      	str	r3, [r4, #36]	; 0x24
 8003228:	8d63      	ldrh	r3, [r4, #42]	; 0x2a
 800322a:	3b01      	subs	r3, #1
 800322c:	3902      	subs	r1, #2
 800322e:	b29b      	uxth	r3, r3
 8003230:	8521      	strh	r1, [r4, #40]	; 0x28
 8003232:	8563      	strh	r3, [r4, #42]	; 0x2a
 8003234:	8d23      	ldrh	r3, [r4, #40]	; 0x28
 8003236:	462a      	mov	r2, r5
 8003238:	4631      	mov	r1, r6
 800323a:	4620      	mov	r0, r4
 800323c:	2b00      	cmp	r3, #0
 800323e:	d1d0      	bne.n	80031e2 <HAL_I2C_Mem_Write+0x96>
 8003240:	f7ff fd3b 	bl	8002cba <I2C_WaitOnBTFFlagUntilTimeout>
 8003244:	2800      	cmp	r0, #0
 8003246:	d1cf      	bne.n	80031e8 <HAL_I2C_Mem_Write+0x9c>
 8003248:	6822      	ldr	r2, [r4, #0]
 800324a:	6813      	ldr	r3, [r2, #0]
 800324c:	f443 7300 	orr.w	r3, r3, #512	; 0x200
 8003250:	6013      	str	r3, [r2, #0]
 8003252:	2320      	movs	r3, #32
 8003254:	f884 303d 	strb.w	r3, [r4, #61]	; 0x3d
 8003258:	f884 003c 	strb.w	r0, [r4, #60]	; 0x3c
 800325c:	f884 003e 	strb.w	r0, [r4, #62]	; 0x3e
 8003260:	e783      	b.n	800316a <HAL_I2C_Mem_Write+0x1e>
 8003262:	bf00      	nop
 8003264:	00100002 	.word	0x00100002
 8003268:	ffff0000 	.word	0xffff0000

0800326c <HAL_I2C_Mem_Read>:
